{"abi":[{"type":"constructor","inputs":[{"name":"host","type":"address","internalType":"contract ISuperfluid"},{"name":"superTokenLogic","type":"address","internalType":"contract ISuperToken"},{"name":"constantOutflowNFT","type":"address","internalType":"contract IConstantOutflowNFT"},{"name":"constantInflowNFT","type":"address","internalType":"contract IConstantInflowNFT"}],"stateMutability":"nonpayable"},{"type":"function","name":"CONSTANT_INFLOW_NFT_LOGIC","inputs":[],"outputs":[{"name":"","type":"address","internalType":"contract IConstantInflowNFT"}],"stateMutability":"view"},{"type":"function","name":"CONSTANT_OUTFLOW_NFT_LOGIC","inputs":[],"outputs":[{"name":"","type":"address","internalType":"contract IConstantOutflowNFT"}],"stateMutability":"view"},{"type":"function","name":"_SUPER_TOKEN_LOGIC","inputs":[],"outputs":[{"name":"","type":"address","internalType":"contract ISuperToken"}],"stateMutability":"view"},{"type":"function","name":"castrate","inputs":[],"outputs":[],"stateMutability":"nonpayable"},{"type":"function","name":"computeCanonicalERC20WrapperAddress","inputs":[{"name":"_underlyingToken","type":"address","internalType":"address"}],"outputs":[{"name":"superTokenAddress","type":"address","internalType":"address"},{"name":"isDeployed","type":"bool","internalType":"bool"}],"stateMutability":"view"},{"type":"function","name":"createCanonicalERC20Wrapper","inputs":[{"name":"_underlyingToken","type":"address","internalType":"contract ERC20WithTokenInfo"}],"outputs":[{"name":"","type":"address","internalType":"contract ISuperToken"}],"stateMutability":"nonpayable"},{"type":"function","name":"createERC20Wrapper","inputs":[{"name":"underlyingToken","type":"address","internalType":"contract ERC20WithTokenInfo"},{"name":"upgradability","type":"uint8","internalType":"enum ISuperTokenFactory.Upgradability"},{"name":"name","type":"string","internalType":"string"},{"name":"symbol","type":"string","internalType":"string"}],"outputs":[{"name":"superToken","type":"address","internalType":"contract ISuperToken"}],"stateMutability":"nonpayable"},{"type":"function","name":"createERC20Wrapper","inputs":[{"name":"underlyingToken","type":"address","internalType":"contract IERC20"},{"name":"underlyingDecimals","type":"uint8","internalType":"uint8"},{"name":"upgradability","type":"uint8","internalType":"enum ISuperTokenFactory.Upgradability"},{"name":"name","type":"string","internalType":"string"},{"name":"symbol","type":"string","internalType":"string"}],"outputs":[{"name":"superToken","type":"address","internalType":"contract ISuperToken"}],"stateMutability":"nonpayable"},{"type":"function","name":"getCanonicalERC20Wrapper","inputs":[{"name":"_underlyingTokenAddress","type":"address","internalType":"address"}],"outputs":[{"name":"superTokenAddress","type":"address","internalType":"address"}],"stateMutability":"view"},{"type":"function","name":"getCodeAddress","inputs":[],"outputs":[{"name":"codeAddress","type":"address","internalType":"address"}],"stateMutability":"view"},{"type":"function","name":"getHost","inputs":[],"outputs":[{"name":"host","type":"address","internalType":"address"}],"stateMutability":"view"},{"type":"function","name":"getSuperTokenLogic","inputs":[],"outputs":[{"name":"","type":"address","internalType":"contract ISuperToken"}],"stateMutability":"view"},{"type":"function","name":"initialize","inputs":[],"outputs":[],"stateMutability":"nonpayable"},{"type":"function","name":"initializeCanonicalWrapperSuperTokens","inputs":[{"name":"_data","type":"tuple[]","internalType":"struct SuperTokenFactoryBase.InitializeData[]","components":[{"name":"underlyingToken","type":"address","internalType":"address"},{"name":"superToken","type":"address","internalType":"address"}]}],"outputs":[],"stateMutability":"nonpayable"},{"type":"function","name":"initializeCustomSuperToken","inputs":[{"name":"customSuperTokenProxy","type":"address","internalType":"address"}],"outputs":[],"stateMutability":"nonpayable"},{"type":"function","name":"proxiableUUID","inputs":[],"outputs":[{"name":"","type":"bytes32","internalType":"bytes32"}],"stateMutability":"pure"},{"type":"function","name":"updateCode","inputs":[{"name":"newAddress","type":"address","internalType":"address"}],"outputs":[],"stateMutability":"nonpayable"},{"type":"event","name":"CodeUpdated","inputs":[{"name":"uuid","type":"bytes32","indexed":false,"internalType":"bytes32"},{"name":"codeAddress","type":"address","indexed":false,"internalType":"address"}],"anonymous":false},{"type":"event","name":"CustomSuperTokenCreated","inputs":[{"name":"token","type":"address","indexed":true,"internalType":"contract ISuperToken"}],"anonymous":false},{"type":"event","name":"Initialized","inputs":[{"name":"version","type":"uint8","indexed":false,"internalType":"uint8"}],"anonymous":false},{"type":"event","name":"SuperTokenCreated","inputs":[{"name":"token","type":"address","indexed":true,"internalType":"contract ISuperToken"}],"anonymous":false},{"type":"event","name":"SuperTokenLogicCreated","inputs":[{"name":"tokenLogic","type":"address","indexed":true,"internalType":"contract ISuperToken"}],"anonymous":false},{"type":"error","name":"SUPER_TOKEN_FACTORY_ALREADY_EXISTS","inputs":[]},{"type":"error","name":"SUPER_TOKEN_FACTORY_DOES_NOT_EXIST","inputs":[]},{"type":"error","name":"SUPER_TOKEN_FACTORY_NON_UPGRADEABLE_IS_DEPRECATED","inputs":[]},{"type":"error","name":"SUPER_TOKEN_FACTORY_ONLY_GOVERNANCE_OWNER","inputs":[]},{"type":"error","name":"SUPER_TOKEN_FACTORY_ONLY_HOST","inputs":[]},{"type":"error","name":"SUPER_TOKEN_FACTORY_UNINITIALIZED","inputs":[]},{"type":"error","name":"SUPER_TOKEN_FACTORY_ZERO_ADDRESS","inputs":[]}],"bytecode":{"object":"0x6101006040523480156200001257600080fd5b506040516200245d3803806200245d83398101604081905262000035916200010d565b6001600160a01b0380851660a052831660808190526040805163132075a760e31b81529051869286928692869291639903ad3891600480830192600092919082900301818387803b1580156200008a57600080fd5b505af11580156200009f573d6000803e3d6000fd5b5050506001600160a01b0380841660c05282811660e052608051604051911691507fc13fb19d60857980e565bf5dae406b8802d3c1cec50c6156b30b12b87402978390600090a2505050505050505062000175565b6001600160a01b03811681146200010a57600080fd5b50565b600080600080608085870312156200012457600080fd5b84516200013181620000f4565b60208601519094506200014481620000f4565b60408601519093506200015781620000f4565b60608601519092506200016a81620000f4565b939692955090935050565b60805160a05160c05160e05161224c620002116000396000818161020001528181610a180152610c120152600081816101d9015281816108fa0152610afa015260008181610152015281816107ac0152610dea01526000818161022c015281816102ad0152818161049c0152818161080e0152818161092c01528181610a4a01528181610b62015281816111460152611471015261224c6000f3fe608060405234801561001057600080fd5b506004361061011b5760003560e01c80638129fc1c116100b2578063a6d0c53411610081578063cbf927b311610066578063cbf927b3146102a8578063d412d344146102cf578063eff0a89d146102e257600080fd5b8063a6d0c53414610263578063bab74c891461027657600080fd5b80638129fc1c146102225780639470a5b21461022a57806397e011ed146102505780639903ad381461022257600080fd5b806350d75d25116100ee57806350d75d251461019e57806352d1902d146101a65780635365d19f146101d45780635a7792df146101fb57600080fd5b8063151188dc1461012057806320bc442514610150578063431f1481146101765780634695195414610189575b600080fd5b61013361012e366004611793565b61030e565b6040516001600160a01b0390911681526020015b60405180910390f35b7f0000000000000000000000000000000000000000000000000000000000000000610133565b610133610184366004611814565b610724565b61019c610197366004611793565b6107a1565b005b610133610c7c565b6040517fb146a22bc9644a3313a7e28592f37d32718a2b618d3d136aa524b0d86b87b6208152602001610147565b6101337f000000000000000000000000000000000000000000000000000000000000000081565b6101337f000000000000000000000000000000000000000000000000000000000000000081565b61019c610cab565b7f0000000000000000000000000000000000000000000000000000000000000000610133565b61019c61025e3660046118a7565b610de6565b61013361027136600461192b565b611045565b610289610284366004611793565b6112fb565b604080516001600160a01b039093168352901515602083015201610147565b6101337f000000000000000000000000000000000000000000000000000000000000000081565b61019c6102dd366004611793565b611441565b6101336102f0366004611793565b6001600160a01b039081166000908152600160205260409020541690565b600080805260016020527fa6eef7e35abe7026729641147f7915573c7e97b47efa546f5f6e3230263bcb49546001600160a01b0316610379576040517f1b39b9b400000000000000000000000000000000000000000000000000000000815260040160405180910390fd5b6001600160a01b0380831660009081526001602052604090205483911680156103ce576040517f91d6797200000000000000000000000000000000000000000000000000000000815260040160405180910390fd5b604080516001600160a01b03841660208201526000910160405160208183030381529060405280519060200120905060008160405161040c90611764565b8190604051809103906000f590508015801561042c573d6000803e3d6000fd5b506001600160a01b038581166000908152600160205260409081902080547fffffffffffffffffffffffff00000000000000000000000000000000000000001684841690811790915590517f4a0687ef0000000000000000000000000000000000000000000000000000000081527f00000000000000000000000000000000000000000000000000000000000000009092166004830152919250634a0687ef90602401600060405180830381600087803b1580156104e957600080fd5b505af11580156104fd573d6000803e3d6000fd5b5050505060008190506000876001600160a01b031663313ce5676040518163ffffffff1660e01b8152600401602060405180830381865afa158015610546573d6000803e3d6000fd5b505050506040513d601f19601f8201168201806040525081019061056a91906119d1565b90506000886001600160a01b03166306fdde036040518163ffffffff1660e01b8152600401600060405180830381865afa1580156105ac573d6000803e3d6000fd5b505050506040513d6000823e601f3d908101601f191682016040526105d49190810190611a28565b90506000896001600160a01b03166395d89b416040518163ffffffff1660e01b8152600401600060405180830381865afa158015610616573d6000803e3d6000fd5b505050506040513d6000823e601f3d908101601f1916820160405261063e9190810190611a28565b9050836001600160a01b03166342fe09808b85856040516020016106629190611aca565b604051602081830303815290604052856040516020016106829190611b0f565b6040516020818303038152906040526040518563ffffffff1660e01b81526004016106b09493929190611b7c565b600060405180830381600087803b1580156106ca57600080fd5b505af11580156106de573d6000803e3d6000fd5b50506040516001600160a01b03871692507fb52c6d9d122e8c07769b96d7bb14e66db58ee03fdebaaa2f92547e9c7ef0e65f9150600090a2509198975050505050505050565b600061079687886001600160a01b031663313ce5676040518163ffffffff1660e01b8152600401602060405180830381865afa158015610768573d6000803e3d6000fd5b505050506040513d601f19601f8201168201806040525081019061078c91906119d1565b8888888888611045565b979650505050505050565b336001600160a01b037f00000000000000000000000000000000000000000000000000000000000000001614610803576040517f478b8e8300000000000000000000000000000000000000000000000000000000815260040160405180910390fd5b61080c81611510565b7f00000000000000000000000000000000000000000000000000000000000000006001600160a01b031663ef43d2c66040518163ffffffff1660e01b8152600401602060405180830381865afa15801561086a573d6000803e3d6000fd5b505050506040513d601f19601f8201168201806040525081019061088e9190611bb9565b6001600160a01b03166350d75d256040518163ffffffff1660e01b8152600401602060405180830381865afa1580156108cb573d6000803e3d6000fd5b505050506040513d601f19601f820116820180604052508101906108ef9190611bb9565b6001600160a01b03167f00000000000000000000000000000000000000000000000000000000000000006001600160a01b0316141580610a4357507f00000000000000000000000000000000000000000000000000000000000000006001600160a01b0316634c5c0c856040518163ffffffff1660e01b8152600401602060405180830381865afa158015610988573d6000803e3d6000fd5b505050506040513d601f19601f820116820180604052508101906109ac9190611bb9565b6001600160a01b03166350d75d256040518163ffffffff1660e01b8152600401602060405180830381865afa1580156109e9573d6000803e3d6000fd5b505050506040513d601f19601f82011682018060405250810190610a0d9190611bb9565b6001600160a01b03167f00000000000000000000000000000000000000000000000000000000000000006001600160a01b031614155b15610c79577f00000000000000000000000000000000000000000000000000000000000000006001600160a01b031663ef43d2c66040518163ffffffff1660e01b8152600401602060405180830381865afa158015610aa6573d6000803e3d6000fd5b505050506040513d601f19601f82011682018060405250810190610aca9190611bb9565b6040517f469519540000000000000000000000000000000000000000000000000000000081526001600160a01b037f0000000000000000000000000000000000000000000000000000000000000000811660048301529190911690634695195490602401600060405180830381600087803b158015610b4857600080fd5b505af1158015610b5c573d6000803e3d6000fd5b505050507f00000000000000000000000000000000000000000000000000000000000000006001600160a01b0316634c5c0c856040518163ffffffff1660e01b8152600401602060405180830381865afa158015610bbe573d6000803e3d6000fd5b505050506040513d601f19601f82011682018060405250810190610be29190611bb9565b6040517f469519540000000000000000000000000000000000000000000000000000000081526001600160a01b037f0000000000000000000000000000000000000000000000000000000000000000811660048301529190911690634695195490602401600060405180830381600087803b158015610c6057600080fd5b505af1158015610c74573d6000803e3d6000fd5b505050505b50565b6000610ca67f360894a13ba1a3210667c828492db98dca3e2076cc3735a920a3ca505d382bbc5490565b905090565b600054610100900460ff1615808015610ccb5750600054600160ff909116105b80610ce55750303b158015610ce5575060005460ff166001145b610d5c5760405162461bcd60e51b815260206004820152602e60248201527f496e697469616c697a61626c653a20636f6e747261637420697320616c72656160448201527f647920696e697469616c697a656400000000000000000000000000000000000060648201526084015b60405180910390fd5b600080547fffffffffffffffffffffffffffffffffffffffffffffffffffffffffffffff001660011790558015610d9d576000805461ff0019166101001790555b8015610c79576000805461ff0019169055604051600181527f7f26b83ff96e1f2b6a682f133852f6798a09c465da95921460cefb3847402498906020015b60405180910390a150565b60007f00000000000000000000000000000000000000000000000000000000000000006001600160a01b031663289b3c0d6040518163ffffffff1660e01b8152600401602060405180830381865afa158015610e46573d6000803e3d6000fd5b505050506040513d601f19601f82011682018060405250810190610e6a9190611bb9565b9050806001600160a01b0316638da5cb5b6040518163ffffffff1660e01b8152600401602060405180830381865afa158015610eaa573d6000803e3d6000fd5b505050506040513d601f19601f82011682018060405250810190610ece9190611bb9565b6001600160a01b0316336001600160a01b031614610f18576040517fafca98cc00000000000000000000000000000000000000000000000000000000815260040160405180910390fd5b6000805260016020527fa6eef7e35abe7026729641147f7915573c7e97b47efa546f5f6e3230263bcb49546001600160a01b031615610f83576040517f91d6797200000000000000000000000000000000000000000000000000000000815260040160405180910390fd5b60005b8281101561103f57838382818110610fa057610fa0611bd6565b9050604002016020016020810190610fb89190611793565b60016000868685818110610fce57610fce611bd6565b610fe49260206040909202019081019150611793565b6001600160a01b039081168252602082019290925260400160002080547fffffffffffffffffffffffff000000000000000000000000000000000000000016929091169190911790558061103781611bec565b915050610f86565b50505050565b60006001600160a01b038816611087576040517f305c9e8200000000000000000000000000000000000000000000000000000000815260040160405180910390fd5b600086600281111561109b5761109b611c32565b036110d2576040517fc4901a4300000000000000000000000000000000000000000000000000000000815260040160405180910390fd5b60018660028111156110e6576110e6611c32565b036111b75760006040516110f990611764565b604051809103906000f080158015611115573d6000803e3d6000fd5b506040517f4a0687ef0000000000000000000000000000000000000000000000000000000081526001600160a01b037f00000000000000000000000000000000000000000000000000000000000000008116600483015291925090821690634a0687ef90602401600060405180830381600087803b15801561119657600080fd5b505af11580156111aa573d6000803e3d6000fd5b505050508091505061123b565b60006040516111c590611771565b604051809103906000f0801580156111e1573d6000803e3d6000fd5b509050806001600160a01b0316638129fc1c6040518163ffffffff1660e01b8152600401600060405180830381600087803b15801561121f57600080fd5b505af1158015611233573d6000803e3d6000fd5b509293505050505b6040517f42fe09800000000000000000000000000000000000000000000000000000000081526001600160a01b038216906342fe09809061128a908b908b908a908a908a908a90600401611c73565b600060405180830381600087803b1580156112a457600080fd5b505af11580156112b8573d6000803e3d6000fd5b50506040516001600160a01b03841692507fb52c6d9d122e8c07769b96d7bb14e66db58ee03fdebaaa2f92547e9c7ef0e65f9150600090a2979650505050505050565b6001600160a01b038082166000908152600160205260408120549091829116801561132c578092506001915061143b565b60006040518060200161133e90611764565b601f1982820381018352601f9091011660408181526001600160a01b03881660208301529192507fff000000000000000000000000000000000000000000000000000000000000009130910160405160208183030381529060405280519060200120838051906020012060405160200161141a94939291907fff0000000000000000000000000000000000000000000000000000000000000094909416845260609290921b7fffffffffffffffffffffffffffffffffffffffff0000000000000000000000001660018401526015830152603582015260550190565b6040516020818303038152906040528051906020012060001c935060009250505b50915091565b6040517f4a0687ef0000000000000000000000000000000000000000000000000000000081526001600160a01b037f000000000000000000000000000000000000000000000000000000000000000081166004830152829190821690634a0687ef90602401600060405180830381600087803b1580156114c057600080fd5b505af11580156114d4573d6000803e3d6000fd5b50506040516001600160a01b03851692507f437790724a6e97b75d23117f28cdd4b1beeafc34f7a0911ef256e9334f4369a59150600090a25050565b600061153a7f360894a13ba1a3210667c828492db98dca3e2076cc3735a920a3ca505d382bbc5490565b6001600160a01b0316036115905760405162461bcd60e51b815260206004820152601d60248201527f5555505350726f786961626c653a206e6f742075706772616461626c650000006044820152606401610d53565b806001600160a01b03166352d1902d6040518163ffffffff1660e01b8152600401602060405180830381865afa1580156115ce573d6000803e3d6000fd5b505050506040513d601f19601f820116820180604052508101906115f29190611cbf565b7fb146a22bc9644a3313a7e28592f37d32718a2b618d3d136aa524b0d86b87b620146116865760405162461bcd60e51b815260206004820152602360248201527f5555505350726f786961626c653a206e6f7420636f6d70617469626c65206c6f60448201527f67696300000000000000000000000000000000000000000000000000000000006064820152608401610d53565b6001600160a01b03811630036116de5760405162461bcd60e51b815260206004820152601960248201527f5555505350726f786961626c653a2070726f7879206c6f6f70000000000000006044820152606401610d53565b611706817f360894a13ba1a3210667c828492db98dca3e2076cc3735a920a3ca505d382bbc55565b7fe011bc04c286c344a8fcbb8de77f953da762c3e25d8cdea984147fc4168a5dcc7fb146a22bc9644a3313a7e28592f37d32718a2b618d3d136aa524b0d86b87b620604080519182526001600160a01b038416602083015201610ddb565b6102a580611cd983390190565b61029980611f7e83390190565b6001600160a01b0381168114610c7957600080fd5b6000602082840312156117a557600080fd5b81356117b08161177e565b9392505050565b8035600381106117c657600080fd5b919050565b60008083601f8401126117dd57600080fd5b50813567ffffffffffffffff8111156117f557600080fd5b60208301915083602082850101111561180d57600080fd5b9250929050565b6000806000806000806080878903121561182d57600080fd5b86356118388161177e565b9550611846602088016117b7565b9450604087013567ffffffffffffffff8082111561186357600080fd5b61186f8a838b016117cb565b9096509450606089013591508082111561188857600080fd5b5061189589828a016117cb565b979a9699509497509295939492505050565b600080602083850312156118ba57600080fd5b823567ffffffffffffffff808211156118d257600080fd5b818501915085601f8301126118e657600080fd5b8135818111156118f557600080fd5b8660208260061b850101111561190a57600080fd5b60209290920196919550909350505050565b60ff81168114610c7957600080fd5b600080600080600080600060a0888a03121561194657600080fd5b87356119518161177e565b965060208801356119618161191c565b955061196f604089016117b7565b9450606088013567ffffffffffffffff8082111561198c57600080fd5b6119988b838c016117cb565b909650945060808a01359150808211156119b157600080fd5b506119be8a828b016117cb565b989b979a50959850939692959293505050565b6000602082840312156119e357600080fd5b81516117b08161191c565b634e487b7160e01b600052604160045260246000fd5b60005b83811015611a1f578181015183820152602001611a07565b50506000910152565b600060208284031215611a3a57600080fd5b815167ffffffffffffffff80821115611a5257600080fd5b818401915084601f830112611a6657600080fd5b815181811115611a7857611a786119ee565b604051601f8201601f19908116603f01168101908382118183101715611aa057611aa06119ee565b81604052828152876020848701011115611ab957600080fd5b610796836020830160208801611a04565b7f5375706572200000000000000000000000000000000000000000000000000000815260008251611b02816006850160208701611a04565b9190910160060192915050565b60008251611b21818460208701611a04565b7f7800000000000000000000000000000000000000000000000000000000000000920191825250600101919050565b60008151808452611b68816020860160208601611a04565b601f01601f19169290920160200192915050565b6001600160a01b038516815260ff84166020820152608060408201526000611ba76080830185611b50565b82810360608401526107968185611b50565b600060208284031215611bcb57600080fd5b81516117b08161177e565b634e487b7160e01b600052603260045260246000fd5b60007fffffffffffffffffffffffffffffffffffffffffffffffffffffffffffffffff8203611c2b57634e487b7160e01b600052601160045260246000fd5b5060010190565b634e487b7160e01b600052602160045260246000fd5b818352818160208501375060006020828401015260006020601f19601f840116840101905092915050565b6001600160a01b038716815260ff86166020820152608060408201526000611c9f608083018688611c48565b8281036060840152611cb2818587611c48565b9998505050505050505050565b600060208284031215611cd157600080fd5b505191905056fe608060405234801561001057600080fd5b50610285806100206000396000f3fe6080604052600436106100225760003560e01c80634a0687ef1461003957610031565b366100315761002f610059565b005b61002f610059565b34801561004557600080fd5b5061002f610054366004610212565b61006b565b6100696100646101bf565b6101ee565b565b73ffffffffffffffffffffffffffffffffffffffff81166100ed576040517f08c379a000000000000000000000000000000000000000000000000000000000815260206004820152601760248201527f5555505350726f78793a207a65726f206164647265737300000000000000000060448201526064015b60405180910390fd5b60006101177f360894a13ba1a3210667c828492db98dca3e2076cc3735a920a3ca505d382bbc5490565b73ffffffffffffffffffffffffffffffffffffffff1614610194576040517f08c379a000000000000000000000000000000000000000000000000000000000815260206004820152601e60248201527f5555505350726f78793a20616c726561647920696e697469616c697a6564000060448201526064016100e4565b6101bc817f360894a13ba1a3210667c828492db98dca3e2076cc3735a920a3ca505d382bbc55565b50565b60006101e97f360894a13ba1a3210667c828492db98dca3e2076cc3735a920a3ca505d382bbc5490565b905090565b3660008037600080366000845af43d6000803e80801561020d573d6000f35b3d6000fd5b60006020828403121561022457600080fd5b813573ffffffffffffffffffffffffffffffffffffffff8116811461024857600080fd5b939250505056fea2646970667358221220b1f2ca985180c629edb9bce81d6b02d8a4835f0279987bb5101c9c28acf2598664736f6c63430008130033608060405234801561001057600080fd5b50610279806100206000396000f3fe6080604052600436106100225760003560e01c80638129fc1c1461003957610031565b366100315761002f61004e565b005b61002f61004e565b34801561004557600080fd5b5061002f610060565b61005e6100596100f6565b6101b3565b565b7fb8fcd5719b3ddf8626f3664705a89b7fc476129a58c1aa5eda57c600cc1821a05473ffffffffffffffffffffffffffffffffffffffff8116156100d0576040517f05c5d81900000000000000000000000000000000000000000000000000000000815260040160405180910390fd5b50337fb8fcd5719b3ddf8626f3664705a89b7fc476129a58c1aa5eda57c600cc1821a055565b7fb8fcd5719b3ddf8626f3664705a89b7fc476129a58c1aa5eda57c600cc1821a05460009073ffffffffffffffffffffffffffffffffffffffff811661013e5761013e6101d7565b8073ffffffffffffffffffffffffffffffffffffffff16639470a5b26040518163ffffffff1660e01b8152600401602060405180830381865afa158015610189573d6000803e3d6000fd5b505050506040513d601f19601f820116820180604052508101906101ad9190610206565b91505090565b3660008037600080366000845af43d6000803e8080156101d2573d6000f35b3d6000fd5b7f4e487b7100000000000000000000000000000000000000000000000000000000600052600160045260246000fd5b60006020828403121561021857600080fd5b815173ffffffffffffffffffffffffffffffffffffffff8116811461023c57600080fd5b939250505056fea26469706673582212207058819b103895dd844542fdbf65d07106d284dd61b770e3e5efa7bad08a13e964736f6c63430008130033a264697066735822122054755eee4e75ade5aa26d55e4047aa0ee91b4b4911d5390dd3cd7edb7cf59f3a64736f6c63430008130033","linkReferences":{}},"methodIdentifiers":{"CONSTANT_INFLOW_NFT_LOGIC()":"5a7792df","CONSTANT_OUTFLOW_NFT_LOGIC()":"5365d19f","_SUPER_TOKEN_LOGIC()":"cbf927b3","castrate()":"9903ad38","computeCanonicalERC20WrapperAddress(address)":"bab74c89","createCanonicalERC20Wrapper(address)":"151188dc","createERC20Wrapper(address,uint8,string,string)":"431f1481","createERC20Wrapper(address,uint8,uint8,string,string)":"a6d0c534","getCanonicalERC20Wrapper(address)":"eff0a89d","getCodeAddress()":"50d75d25","getHost()":"20bc4425","getSuperTokenLogic()":"9470a5b2","initialize()":"8129fc1c","initializeCanonicalWrapperSuperTokens((address,address)[])":"97e011ed","initializeCustomSuperToken(address)":"d412d344","proxiableUUID()":"52d1902d","updateCode(address)":"46951954"},"id":113}