{"abi":[{"type":"constructor","inputs":[{"name":"nonUpgradable","type":"bool","internalType":"bool"},{"name":"appWhiteListingEnabled","type":"bool","internalType":"bool"}],"stateMutability":"nonpayable"},{"type":"function","name":"APP_WHITE_LISTING_ENABLED","inputs":[],"outputs":[{"name":"","type":"bool","internalType":"bool"}],"stateMutability":"view"},{"type":"function","name":"CALLBACK_GAS_LIMIT","inputs":[],"outputs":[{"name":"","type":"uint64","internalType":"uint64"}],"stateMutability":"view"},{"type":"function","name":"MAX_APP_CALLBACK_LEVEL","inputs":[],"outputs":[{"name":"","type":"uint256","internalType":"uint256"}],"stateMutability":"view"},{"type":"function","name":"NON_UPGRADABLE_DEPLOYMENT","inputs":[],"outputs":[{"name":"","type":"bool","internalType":"bool"}],"stateMutability":"view"},{"type":"function","name":"addToAgreementClassesBitmap","inputs":[{"name":"bitmap","type":"uint256","internalType":"uint256"},{"name":"agreementType","type":"bytes32","internalType":"bytes32"}],"outputs":[{"name":"newBitmap","type":"uint256","internalType":"uint256"}],"stateMutability":"view"},{"type":"function","name":"allowCompositeApp","inputs":[{"name":"targetApp","type":"address","internalType":"contract ISuperApp"}],"outputs":[],"stateMutability":"nonpayable"},{"type":"function","name":"appCallbackPop","inputs":[{"name":"ctx","type":"bytes","internalType":"bytes"},{"name":"appCreditUsedDelta","type":"int256","internalType":"int256"}],"outputs":[{"name":"newCtx","type":"bytes","internalType":"bytes"}],"stateMutability":"nonpayable"},{"type":"function","name":"appCallbackPush","inputs":[{"name":"ctx","type":"bytes","internalType":"bytes"},{"name":"app","type":"address","internalType":"contract ISuperApp"},{"name":"appCreditGranted","type":"uint256","internalType":"uint256"},{"name":"appCreditUsed","type":"int256","internalType":"int256"},{"name":"appCreditToken","type":"address","internalType":"contract ISuperfluidToken"}],"outputs":[{"name":"appCtx","type":"bytes","internalType":"bytes"}],"stateMutability":"nonpayable"},{"type":"function","name":"batchCall","inputs":[{"name":"operations","type":"tuple[]","internalType":"struct ISuperfluid.Operation[]","components":[{"name":"operationType","type":"uint32","internalType":"uint32"},{"name":"target","type":"address","internalType":"address"},{"name":"data","type":"bytes","internalType":"bytes"}]}],"outputs":[],"stateMutability":"nonpayable"},{"type":"function","name":"callAgreement","inputs":[{"name":"agreementClass","type":"address","internalType":"contract ISuperAgreement"},{"name":"callData","type":"bytes","internalType":"bytes"},{"name":"userData","type":"bytes","internalType":"bytes"}],"outputs":[{"name":"returnedData","type":"bytes","internalType":"bytes"}],"stateMutability":"nonpayable"},{"type":"function","name":"callAgreementWithContext","inputs":[{"name":"agreementClass","type":"address","internalType":"contract ISuperAgreement"},{"name":"callData","type":"bytes","internalType":"bytes"},{"name":"userData","type":"bytes","internalType":"bytes"},{"name":"ctx","type":"bytes","internalType":"bytes"}],"outputs":[{"name":"newCtx","type":"bytes","internalType":"bytes"},{"name":"returnedData","type":"bytes","internalType":"bytes"}],"stateMutability":"nonpayable"},{"type":"function","name":"callAppAction","inputs":[{"name":"app","type":"address","internalType":"contract ISuperApp"},{"name":"callData","type":"bytes","internalType":"bytes"}],"outputs":[{"name":"returnedData","type":"bytes","internalType":"bytes"}],"stateMutability":"nonpayable"},{"type":"function","name":"callAppActionWithContext","inputs":[{"name":"app","type":"address","internalType":"contract ISuperApp"},{"name":"callData","type":"bytes","internalType":"bytes"},{"name":"ctx","type":"bytes","internalType":"bytes"}],"outputs":[{"name":"newCtx","type":"bytes","internalType":"bytes"}],"stateMutability":"nonpayable"},{"type":"function","name":"callAppAfterCallback","inputs":[{"name":"app","type":"address","internalType":"contract ISuperApp"},{"name":"callData","type":"bytes","internalType":"bytes"},{"name":"isTermination","type":"bool","internalType":"bool"},{"name":"ctx","type":"bytes","internalType":"bytes"}],"outputs":[{"name":"newCtx","type":"bytes","internalType":"bytes"}],"stateMutability":"nonpayable"},{"type":"function","name":"callAppBeforeCallback","inputs":[{"name":"app","type":"address","internalType":"contract ISuperApp"},{"name":"callData","type":"bytes","internalType":"bytes"},{"name":"isTermination","type":"bool","internalType":"bool"},{"name":"ctx","type":"bytes","internalType":"bytes"}],"outputs":[{"name":"cbdata","type":"bytes","internalType":"bytes"}],"stateMutability":"nonpayable"},{"type":"function","name":"castrate","inputs":[],"outputs":[],"stateMutability":"nonpayable"},{"type":"function","name":"ctxUseCredit","inputs":[{"name":"ctx","type":"bytes","internalType":"bytes"},{"name":"appCreditUsedMore","type":"int256","internalType":"int256"}],"outputs":[{"name":"newCtx","type":"bytes","internalType":"bytes"}],"stateMutability":"nonpayable"},{"type":"function","name":"decodeCtx","inputs":[{"name":"ctx","type":"bytes","internalType":"bytes"}],"outputs":[{"name":"context","type":"tuple","internalType":"struct ISuperfluid.Context","components":[{"name":"appCallbackLevel","type":"uint8","internalType":"uint8"},{"name":"callType","type":"uint8","internalType":"uint8"},{"name":"timestamp","type":"uint256","internalType":"uint256"},{"name":"msgSender","type":"address","internalType":"address"},{"name":"agreementSelector","type":"bytes4","internalType":"bytes4"},{"name":"userData","type":"bytes","internalType":"bytes"},{"name":"appCreditGranted","type":"uint256","internalType":"uint256"},{"name":"appCreditWantedDeprecated","type":"uint256","internalType":"uint256"},{"name":"appCreditUsed","type":"int256","internalType":"int256"},{"name":"appAddress","type":"address","internalType":"address"},{"name":"appCreditToken","type":"address","internalType":"contract ISuperfluidToken"}]}],"stateMutability":"pure"},{"type":"function","name":"forwardBatchCall","inputs":[{"name":"operations","type":"tuple[]","internalType":"struct ISuperfluid.Operation[]","components":[{"name":"operationType","type":"uint32","internalType":"uint32"},{"name":"target","type":"address","internalType":"address"},{"name":"data","type":"bytes","internalType":"bytes"}]}],"outputs":[],"stateMutability":"nonpayable"},{"type":"function","name":"getAgreementClass","inputs":[{"name":"agreementType","type":"bytes32","internalType":"bytes32"}],"outputs":[{"name":"agreementClass","type":"address","internalType":"contract ISuperAgreement"}],"stateMutability":"view"},{"type":"function","name":"getAppCallbackLevel","inputs":[{"name":"appAddr","type":"address","internalType":"contract ISuperApp"}],"outputs":[{"name":"","type":"uint8","internalType":"uint8"}],"stateMutability":"view"},{"type":"function","name":"getAppManifest","inputs":[{"name":"app","type":"address","internalType":"contract ISuperApp"}],"outputs":[{"name":"isSuperApp","type":"bool","internalType":"bool"},{"name":"isJailed","type":"bool","internalType":"bool"},{"name":"noopMask","type":"uint256","internalType":"uint256"}],"stateMutability":"view"},{"type":"function","name":"getCodeAddress","inputs":[],"outputs":[{"name":"codeAddress","type":"address","internalType":"address"}],"stateMutability":"view"},{"type":"function","name":"getGovernance","inputs":[],"outputs":[{"name":"","type":"address","internalType":"contract ISuperfluidGovernance"}],"stateMutability":"view"},{"type":"function","name":"getNow","inputs":[],"outputs":[{"name":"","type":"uint256","internalType":"uint256"}],"stateMutability":"view"},{"type":"function","name":"getSuperTokenFactory","inputs":[],"outputs":[{"name":"factory","type":"address","internalType":"contract ISuperTokenFactory"}],"stateMutability":"view"},{"type":"function","name":"getSuperTokenFactoryLogic","inputs":[],"outputs":[{"name":"logic","type":"address","internalType":"address"}],"stateMutability":"view"},{"type":"function","name":"initialize","inputs":[{"name":"gov","type":"address","internalType":"contract ISuperfluidGovernance"}],"outputs":[],"stateMutability":"nonpayable"},{"type":"function","name":"isAgreementClassListed","inputs":[{"name":"agreementClass","type":"address","internalType":"contract ISuperAgreement"}],"outputs":[{"name":"yes","type":"bool","internalType":"bool"}],"stateMutability":"view"},{"type":"function","name":"isAgreementTypeListed","inputs":[{"name":"agreementType","type":"bytes32","internalType":"bytes32"}],"outputs":[{"name":"yes","type":"bool","internalType":"bool"}],"stateMutability":"view"},{"type":"function","name":"isApp","inputs":[{"name":"app","type":"address","internalType":"contract ISuperApp"}],"outputs":[{"name":"","type":"bool","internalType":"bool"}],"stateMutability":"view"},{"type":"function","name":"isAppJailed","inputs":[{"name":"app","type":"address","internalType":"contract ISuperApp"}],"outputs":[{"name":"","type":"bool","internalType":"bool"}],"stateMutability":"view"},{"type":"function","name":"isCompositeAppAllowed","inputs":[{"name":"app","type":"address","internalType":"contract ISuperApp"},{"name":"targetApp","type":"address","internalType":"contract ISuperApp"}],"outputs":[{"name":"","type":"bool","internalType":"bool"}],"stateMutability":"view"},{"type":"function","name":"isCtxValid","inputs":[{"name":"ctx","type":"bytes","internalType":"bytes"}],"outputs":[{"name":"","type":"bool","internalType":"bool"}],"stateMutability":"view"},{"type":"function","name":"isTrustedForwarder","inputs":[{"name":"forwarder","type":"address","internalType":"address"}],"outputs":[{"name":"","type":"bool","internalType":"bool"}],"stateMutability":"view"},{"type":"function","name":"jailApp","inputs":[{"name":"ctx","type":"bytes","internalType":"bytes"},{"name":"app","type":"address","internalType":"contract ISuperApp"},{"name":"reason","type":"uint256","internalType":"uint256"}],"outputs":[{"name":"newCtx","type":"bytes","internalType":"bytes"}],"stateMutability":"nonpayable"},{"type":"function","name":"mapAgreementClasses","inputs":[{"name":"bitmap","type":"uint256","internalType":"uint256"}],"outputs":[{"name":"agreementClasses","type":"address[]","internalType":"contract ISuperAgreement[]"}],"stateMutability":"view"},{"type":"function","name":"proxiableUUID","inputs":[],"outputs":[{"name":"","type":"bytes32","internalType":"bytes32"}],"stateMutability":"pure"},{"type":"function","name":"registerAgreementClass","inputs":[{"name":"agreementClassLogic","type":"address","internalType":"contract ISuperAgreement"}],"outputs":[],"stateMutability":"nonpayable"},{"type":"function","name":"registerApp","inputs":[{"name":"configWord","type":"uint256","internalType":"uint256"}],"outputs":[],"stateMutability":"nonpayable"},{"type":"function","name":"registerAppByFactory","inputs":[{"name":"app","type":"address","internalType":"contract ISuperApp"},{"name":"configWord","type":"uint256","internalType":"uint256"}],"outputs":[],"stateMutability":"nonpayable"},{"type":"function","name":"registerAppWithKey","inputs":[{"name":"configWord","type":"uint256","internalType":"uint256"},{"name":"registrationKey","type":"string","internalType":"string"}],"outputs":[],"stateMutability":"nonpayable"},{"type":"function","name":"removeFromAgreementClassesBitmap","inputs":[{"name":"bitmap","type":"uint256","internalType":"uint256"},{"name":"agreementType","type":"bytes32","internalType":"bytes32"}],"outputs":[{"name":"newBitmap","type":"uint256","internalType":"uint256"}],"stateMutability":"view"},{"type":"function","name":"replaceGovernance","inputs":[{"name":"newGov","type":"address","internalType":"contract ISuperfluidGovernance"}],"outputs":[],"stateMutability":"nonpayable"},{"type":"function","name":"updateAgreementClass","inputs":[{"name":"agreementClassLogic","type":"address","internalType":"contract ISuperAgreement"}],"outputs":[],"stateMutability":"nonpayable"},{"type":"function","name":"updateCode","inputs":[{"name":"newAddress","type":"address","internalType":"address"}],"outputs":[],"stateMutability":"nonpayable"},{"type":"function","name":"updateSuperTokenFactory","inputs":[{"name":"newFactory","type":"address","internalType":"contract ISuperTokenFactory"}],"outputs":[],"stateMutability":"nonpayable"},{"type":"function","name":"updateSuperTokenLogic","inputs":[{"name":"token","type":"address","internalType":"contract ISuperToken"}],"outputs":[],"stateMutability":"nonpayable"},{"type":"function","name":"versionRecipient","inputs":[],"outputs":[{"name":"","type":"string","internalType":"string"}],"stateMutability":"pure"},{"type":"event","name":"AgreementClassRegistered","inputs":[{"name":"agreementType","type":"bytes32","indexed":false,"internalType":"bytes32"},{"name":"code","type":"address","indexed":false,"internalType":"address"}],"anonymous":false},{"type":"event","name":"AgreementClassUpdated","inputs":[{"name":"agreementType","type":"bytes32","indexed":false,"internalType":"bytes32"},{"name":"code","type":"address","indexed":false,"internalType":"address"}],"anonymous":false},{"type":"event","name":"AppRegistered","inputs":[{"name":"app","type":"address","indexed":true,"internalType":"contract ISuperApp"}],"anonymous":false},{"type":"event","name":"CodeUpdated","inputs":[{"name":"uuid","type":"bytes32","indexed":false,"internalType":"bytes32"},{"name":"codeAddress","type":"address","indexed":false,"internalType":"address"}],"anonymous":false},{"type":"event","name":"GovernanceReplaced","inputs":[{"name":"oldGov","type":"address","indexed":false,"internalType":"contract ISuperfluidGovernance"},{"name":"newGov","type":"address","indexed":false,"internalType":"contract ISuperfluidGovernance"}],"anonymous":false},{"type":"event","name":"Initialized","inputs":[{"name":"version","type":"uint8","indexed":false,"internalType":"uint8"}],"anonymous":false},{"type":"event","name":"Jail","inputs":[{"name":"app","type":"address","indexed":true,"internalType":"contract ISuperApp"},{"name":"reason","type":"uint256","indexed":false,"internalType":"uint256"}],"anonymous":false},{"type":"event","name":"SuperTokenFactoryUpdated","inputs":[{"name":"newFactory","type":"address","indexed":false,"internalType":"contract ISuperTokenFactory"}],"anonymous":false},{"type":"event","name":"SuperTokenLogicUpdated","inputs":[{"name":"token","type":"address","indexed":true,"internalType":"contract ISuperToken"},{"name":"code","type":"address","indexed":false,"internalType":"address"}],"anonymous":false},{"type":"error","name":"APP_RULE","inputs":[{"name":"_code","type":"uint256","internalType":"uint256"}]},{"type":"error","name":"HOST_AGREEMENT_ALREADY_REGISTERED","inputs":[]},{"type":"error","name":"HOST_AGREEMENT_CALLBACK_IS_NOT_ACTION","inputs":[]},{"type":"error","name":"HOST_AGREEMENT_IS_NOT_REGISTERED","inputs":[]},{"type":"error","name":"HOST_CALL_AGREEMENT_WITH_CTX_FROM_WRONG_ADDRESS","inputs":[]},{"type":"error","name":"HOST_CALL_APP_ACTION_WITH_CTX_FROM_WRONG_ADDRESS","inputs":[]},{"type":"error","name":"HOST_CANNOT_DOWNGRADE_TO_NON_UPGRADEABLE","inputs":[]},{"type":"error","name":"HOST_INVALID_CONFIG_WORD","inputs":[]},{"type":"error","name":"HOST_INVALID_OR_EXPIRED_SUPER_APP_REGISTRATION_KEY","inputs":[]},{"type":"error","name":"HOST_MAX_256_AGREEMENTS","inputs":[]},{"type":"error","name":"HOST_MUST_BE_CONTRACT","inputs":[]},{"type":"error","name":"HOST_NON_UPGRADEABLE","inputs":[]},{"type":"error","name":"HOST_NON_ZERO_LENGTH_PLACEHOLDER_CTX","inputs":[]},{"type":"error","name":"HOST_NOT_A_SUPER_APP","inputs":[]},{"type":"error","name":"HOST_NO_APP_REGISTRATION_PERMISSIONS","inputs":[]},{"type":"error","name":"HOST_ONLY_GOVERNANCE","inputs":[]},{"type":"error","name":"HOST_ONLY_LISTED_AGREEMENT","inputs":[]},{"type":"error","name":"HOST_RECEIVER_IS_NOT_SUPER_APP","inputs":[]},{"type":"error","name":"HOST_SENDER_IS_NOT_SUPER_APP","inputs":[]},{"type":"error","name":"HOST_SOURCE_APP_NEEDS_HIGHER_APP_LEVEL","inputs":[]},{"type":"error","name":"HOST_SUPER_APP_ALREADY_REGISTERED","inputs":[]},{"type":"error","name":"HOST_SUPER_APP_IS_JAILED","inputs":[]},{"type":"error","name":"HOST_UNAUTHORIZED_SUPER_APP_FACTORY","inputs":[]},{"type":"error","name":"HOST_UNKNOWN_BATCH_CALL_OPERATION_TYPE","inputs":[]}],"bytecode":{"object":"0x60c06040523480156200001157600080fd5b5060405162005b2638038062005b2683398101604081905262000034916200005b565b901515608052151560a05262000093565b805180151581146200005657600080fd5b919050565b600080604083850312156200006f57600080fd5b6200007a8362000045565b91506200008a6020840162000045565b90509250929050565b60805160a051615a2e620000f86000396000818161062f015281816120e1015281816126c80152612b9b01526000818161076b0152818161082d01528181610b22015281816111e401528181611351015281816114f90152612ab00152615a2e6000f3fe608060405234801561001057600080fd5b506004361061032b5760003560e01c8063768fabb0116101b2578063bb84cfa1116100f9578063c4d66de8116100a2578063e8dccb7d1161007c578063e8dccb7d1461078d578063f2e55caf146107af578063f3733052146107b7578063f9f522f4146107ca57600080fd5b8063c4d66de814610733578063c56a069d14610746578063cd312ec41461076657600080fd5b8063bd1c448b116100d3578063bd1c448b14610705578063bd3252c814610718578063bf4287341461072057600080fd5b8063bb84cfa1146106b0578063bbe4fd50146106ec578063bced3ddc146106f257600080fd5b80639d297e301161015b578063b6d200de11610135578063b6d200de14610677578063b724211e1461068a578063ba48b5f81461069d57600080fd5b80639d297e301461062a578063a5dbbbcd14610651578063ad3915c81461066457600080fd5b80639378fa131161018c5780639378fa13146105ea578063989b0c3e1461060f5780639903ad381461062257600080fd5b8063768fabb0146105b1578063787afde7146105c45780638ca48484146105d757600080fd5b806350d75d2511610276578063670e77e31161021f5780637283100c116101f95780637283100c1461057a578063731aed6e1461058d57806374041e021461059e57600080fd5b8063670e77e3146105415780636ad3ca7d146105545780636b4f33351461056757600080fd5b806357121e0c1161025057806357121e0c14610508578063572b6c051461051b57806359a291411461052e57600080fd5b806350d75d25146104bd57806352d1902d146104c557806354fbc493146104f557600080fd5b806339255d5b116102d85780634329d293116102b25780634329d293146104505780634695195414610471578063486ff0cd1461048457600080fd5b806339255d5b146103e25780633ca3ad4e146103f55780633f6c923a1461043057600080fd5b80631e855cf3116103095780631e855cf314610381578063289b3c0d1461039457806333d608f1146103bf57600080fd5b806306cecba81461033057806315a024e1146103455780631e6d0a8414610358575b600080fd5b61034361033e3660046148a9565b6107fa565b005b6103436103533660046148a9565b610a03565b61036b610366366004614924565b610cb6565b6040516103789190614a0b565b60405180910390f35b61036b61038f366004614ae3565b610f02565b6000546201000090046001600160a01b03165b6040516001600160a01b039091168152602001610378565b6103c9622dc6c081565b60405167ffffffffffffffff9091168152602001610378565b61036b6103f0366004614b33565b610f18565b6104206104033660046148a9565b6001600160a01b0316600090815260046020526040902054151590565b6040519015158152602001610378565b61044361043e366004614ba9565b610f2e565b6040516103789190614bde565b61046361045e366004614cbf565b610f8f565b604051610378929190614d6c565b61034361047f3660046148a9565b6111b1565b60408051808201909152600281527f7631000000000000000000000000000000000000000000000000000000000000602082015261036b565b6103a76112df565b7fcd355cae2c435f8c5e0c626c4691d22fd85aa7422a424c6f0bced6e64c7aba745b604051908152602001610378565b6103436105033660046148a9565b61130e565b6103436105163660046148a9565b61160c565b6104206105293660046148a9565b611725565b61036b61053c366004614d91565b6117c6565b61034361054f366004614ddd565b6118a8565b610343610562366004614ddd565b6118be565b6104206105753660046148a9565b6118c9565b6103436105883660046148a9565b6118ed565b6003546001600160a01b03166103a7565b61036b6105ac366004614924565b6119ab565b61036b6105bf366004614e52565b611afa565b6103436105d23660046148a9565b611c96565b6104206105e53660046148a9565b611e0b565b6105fd6105f83660046148a9565b611ed0565b60405160ff9091168152602001610378565b61036b61061d366004614d91565b611ef1565b610343611f84565b6104207f000000000000000000000000000000000000000000000000000000000000000081565b6104e761065f366004614ece565b612095565b610343610672366004614ef0565b6120df565b6103a7610685366004614ef0565b612143565b61036b610698366004614f09565b6121aa565b61036b6106ab366004614f66565b61226b565b6104206106be366004614fe9565b6001600160a01b03918216600090815260056020908152604080832093909416825291909152205460ff1690565b426104e7565b6104e7610700366004614ece565b61267d565b610343610713366004615022565b6126c6565b6104e7600181565b61042061072e36600461506e565b612817565b6103436107413660046148a9565b612858565b610759610754366004614ef0565b6129a8565b60405161037891906150b0565b6104207f000000000000000000000000000000000000000000000000000000000000000081565b61042061079b366004614ef0565b600090815260026020526040902054151590565b6103a7612a93565b6103436107c53660046150fd565b612b5b565b6107dd6107d83660046148a9565b612cb3565b604080519315158452911515602084015290820152606001610378565b6000546201000090046001600160a01b0316331461082b576040516362e9152760e11b815260040160405180910390fd5b7f000000000000000000000000000000000000000000000000000000000000000015610883576040517f14f72c9f00000000000000000000000000000000000000000000000000000000815260040160405180910390fd5b6000816001600160a01b0316637730599e6040518163ffffffff1660e01b8152600401602060405180830381865afa1580156108c3573d6000803e3d6000fd5b505050506040513d601f19601f820116820180604052508101906108e79190615129565b60008181526002602052604081205491925081900361091957604051630e4f4df560e11b815260040160405180910390fd5b600060016109278184615158565b815481106109375761093761516b565b6000918252602090912001546040517f469519540000000000000000000000000000000000000000000000000000000081526001600160a01b03868116600483015290911691508190634695195490602401600060405180830381600087803b1580156109a357600080fd5b505af11580156109b7573d6000803e3d6000fd5b5050604080518681526001600160a01b03881660208201527f9279aa773f2b588996032d8de89911555039f28b13a11a7c17074330bc082d9a935001905060405180910390a150505050565b6000546201000090046001600160a01b03163314610a34576040516362e9152760e11b815260040160405180910390fd5b6000816001600160a01b0316637730599e6040518163ffffffff1660e01b8152600401602060405180830381865afa158015610a74573d6000803e3d6000fd5b505050506040513d601f19601f82011682018060405250810190610a989190615129565b60008181526002602052604090205490915015610ae1576040517fdc9ddba800000000000000000000000000000000000000000000000000000000815260040160405180910390fd5b60015461010011610b1e576040517f7c281a7800000000000000000000000000000000000000000000000000000000815260040160405180910390fd5b60007f0000000000000000000000000000000000000000000000000000000000000000610bf1576000604051610b5390614887565b604051809103906000f080158015610b6f573d6000803e3d6000fd5b506040517f4a0687ef0000000000000000000000000000000000000000000000000000000081526001600160a01b03868116600483015291925090821690634a0687ef90602401600060405180830381600087803b158015610bd057600080fd5b505af1158015610be4573d6000803e3d6000fd5b5050505080915050610bf4565b50815b6001805480820182557fb10e2d527612073b26eecdfd717e6a320cf44b4afac2b0732d9fcbe2b7fa0cf60180546001600160a01b0384167fffffffffffffffffffffffff0000000000000000000000000000000000000000909116179055546000838152600260205260409081902091909155517f878135063a6cfb3bc333e534b1fdc83f4f12221cad6705c31c0567048a8bd3d190610ca990849086909182526001600160a01b0316602082015260400190565b60405180910390a1505050565b6060610cc133611e0b565b610cde5760405163619c535960e01b815260040160405180910390fd5b82828080601f016020809104026020016040519081016040528093929190818152602001838380828437600092019190915250610d209250839150612d029050565b610d2c57610d2c615181565b600080610da68a6000898c8c8080601f01602080910402602001604051908101604052809392919081815260200183838082843760009201919091525050604080516020601f8f018190048102820181019092528d815292508d91508c9081908401838280828437600092019190915250612d2292505050565b915091508115610ebb57610db981612eb8565b15610e535780806020019051810190610dd291906151dc565b9350610ddd84612d02565b610e4e5786610e075760405163a85ba64f60e01b8152601460048201526024015b60405180910390fd5b85858080601f016020809104026020016040519081016040528093929190818152602001838380828437600092019190915250929650610e4e92508c915060149050612f0c565b610ef5565b86610e745760405163a85ba64f60e01b815260166004820152602401610dfe565b85858080601f016020809104026020016040519081016040528093929190818152602001838380828437600092019190915250929650610e4e92508c915060169050612f0c565b85858080601f0160208091040260200160405190810160405280939291908181526020018383808284376000920191909152509296505050505b5050509695505050505050565b6060610f0f338484612f81565b90505b92915050565b6060610f263385858561329e565b949350505050565b604080516101608101825260008082526020820181905291810182905260608082018390526080820183905260a082015260c0810182905260e0810182905261010081018290526101208101829052610140810191909152610f12826133c2565b60608083838080601f016020809104026020016040519081016040528093929190818152602001838380828437600092019190915250610fd49250839150612d029050565b610ff45760405163a85ba64f60e01b815260146004820152602401610dfe565b89610ffe81611e0b565b61101b5760405163619c535960e01b815260040160405180910390fd5b600061105c87878080601f016020809104026020016040519081016040528093929190818152602001838380828437600092019190915250610f2e92505050565b6101208101519091506001600160a01b031633146110a6576040517f0cd0ebc200000000000000000000000000000000000000000000000000000000815260040160405180910390fd5b60608101805133909152604080516020601f8c018190048102820181019092528a8152908b908b908190840183828082843760009201919091525050505060a08301526110f2826134e6565b955060006111388e8e8e8080601f0160208091040260200160405190810160405280939291908181526020018383808284376000920191909152508c925061362c915050565b965090508015611197578580602001905181019061115691906151dc565b965061116187612d02565b61116d5761116d615181565b61117687610f2e565b6001600160a01b03831660608201529250611190836134e6565b96506111a0565b6111a0866136e5565b505050505097509795505050505050565b6000546201000090046001600160a01b031633146111e2576040516362e9152760e11b815260040160405180910390fd5b7f00000000000000000000000000000000000000000000000000000000000000001561123a576040517f14f72c9f00000000000000000000000000000000000000000000000000000000815260040160405180910390fd5b806001600160a01b031663cd312ec46040518163ffffffff1660e01b8152600401602060405180830381865afa158015611278573d6000803e3d6000fd5b505050506040513d601f19601f8201168201806040525081019061129c9190615211565b156112d3576040517f474e764100000000000000000000000000000000000000000000000000000000815260040160405180910390fd5b6112dc81613809565b50565b60006113097f360894a13ba1a3210667c828492db98dca3e2076cc3735a920a3ca505d382bbc5490565b905090565b6000546201000090046001600160a01b0316331461133f576040516362e9152760e11b815260040160405180910390fd5b6003546001600160a01b03166114f7577f000000000000000000000000000000000000000000000000000000000000000061145657600060405161138290614887565b604051809103906000f08015801561139e573d6000803e3d6000fd5b506040517f4a0687ef0000000000000000000000000000000000000000000000000000000081526001600160a01b03848116600483015291925090821690634a0687ef90602401600060405180830381600087803b1580156113ff57600080fd5b505af1158015611413573d6000803e3d6000fd5b5050600380547fffffffffffffffffffffffff0000000000000000000000000000000000000000166001600160a01b0394909416939093179092555061148a9050565b600380547fffffffffffffffffffffffff0000000000000000000000000000000000000000166001600160a01b0383161790555b600360009054906101000a90046001600160a01b03166001600160a01b0316638129fc1c6040518163ffffffff1660e01b8152600401600060405180830381600087803b1580156114da57600080fd5b505af11580156114ee573d6000803e3d6000fd5b505050506115c8565b7f00000000000000000000000000000000000000000000000000000000000000001561154f576040517f14f72c9f00000000000000000000000000000000000000000000000000000000815260040160405180910390fd5b6003546040517f469519540000000000000000000000000000000000000000000000000000000081526001600160a01b03838116600483015290911690634695195490602401600060405180830381600087803b1580156115af57600080fd5b505af11580156115c3573d6000803e3d6000fd5b505050505b6003546040516001600160a01b0390911681527fce13a9895a1719ad4493b2ac1a9bfb36070566161abab408e7ecbe586da8d499906020015b60405180910390a150565b33600081815260046020526040902054611652576040517fbacfdc4000000000000000000000000000000000000000000000000000000000815260040160405180910390fd5b6001600160a01b0382166000908152600460205260409020546116a1576040517f96aa315e00000000000000000000000000000000000000000000000000000000815260040160405180910390fd5b6116aa82611ed0565b60ff166116b682611ed0565b60ff16116116f0576040517f4472527000000000000000000000000000000000000000000000000000000000815260040160405180910390fd5b6001600160a01b039081166000908152600560209081526040808320949093168252929092529020805460ff19166001179055565b600080546201000090046001600160a01b03166380f70cba308361174886613a5d565b6040516001600160e01b031960e086901b1681526001600160a01b0393841660048201529290911660248301526044820152606401602060405180830381865afa15801561179a573d6000803e3d6000fd5b505050506040513d601f19601f820116820180604052508101906117be9190615129565b151592915050565b60606117d133611e0b565b6117ee5760405163619c535960e01b815260040160405180910390fd5b83838080601f0160208091040260200160405190810160405280939291908181526020018383808284376000920191909152506118309250839150612d029050565b61183c5761183c615181565b600061187d86868080601f016020809104026020016040519081016040528093929190818152602001838380828437600092019190915250610f2e92505050565b9050838161010001818151611892919061522e565b90525061189e816134e6565b9695505050505050565b6118ba6118b3613af0565b8383613b7e565b5050565b6118ba338383613b7e565b6001600160a01b038116600090815260046020526040812054618000161515610f12565b6000546201000090046001600160a01b0316331461191e576040516362e9152760e11b815260040160405180910390fd5b600054604080516001600160a01b03620100009093048316815291831660208301527f13abda02e63c790d0e2818b251282cfe5cbe0a8abd69c54bf5d2260c0907bd2e910160405180910390a1600080546001600160a01b0390921662010000027fffffffffffffffffffff0000000000000000000000000000000000000000ffff909216919091179055565b60606119b633611e0b565b6119d35760405163619c535960e01b815260040160405180910390fd5b82828080601f016020809104026020016040519081016040528093929190818152602001838380828437600092019190915250611a159250839150612d029050565b611a2157611a21615181565b600080611a9b8a6001898c8c8080601f01602080910402602001604051908101604052809392919081815260200183838082843760009201919091525050604080516020601f8f018190048102820181019092528d815292508d91508c9081908401838280828437600092019190915250612d2292505050565b915091508115610ef557611aae81612eb8565b15611ace5780806020019051810190611ac791906151dc565b9350610ef5565b86611aef5760405163a85ba64f60e01b815260166004820152602401610dfe565b610ef58a6016612f0c565b6060611b0533611e0b565b611b225760405163619c535960e01b815260040160405180910390fd5b86868080601f016020809104026020016040519081016040528093929190818152602001838380828437600092019190915250611b649250839150612d029050565b611b7057611b70615181565b6000611bb189898080601f016020809104026020016040519081016040528093929190818152602001838380828437600092019190915250610f2e92505050565b9050611bd881606001516001600160a01b0316600090815260046020526040902054151590565b8015611bec57506001816000015160ff1610155b15611c3f5760608101516001600160a01b039081166000908152600560209081526040808320938b168352929052205460ff16611c3f5760405163a85ba64f60e01b8152601e6004820152602401610dfe565b805181611c4b82615256565b60ff169052506003602082015260c0810186905261010081018590526001600160a01b038088166101208301528416610140820152611c89816134e6565b9998505050505050505050565b6000546201000090046001600160a01b03163314611cc7576040516362e9152760e11b815260040160405180910390fd5b600354604080517f9470a5b200000000000000000000000000000000000000000000000000000000815290516000926001600160a01b031691639470a5b29160048083019260209291908290030181865afa158015611d2a573d6000803e3d6000fd5b505050506040513d601f19601f82011682018060405250810190611d4e9190615275565b6040517f469519540000000000000000000000000000000000000000000000000000000081526001600160a01b03808316600483015291925090831690634695195490602401600060405180830381600087803b158015611dae57600080fd5b505af1158015611dc2573d6000803e3d6000fd5b50506040516001600160a01b038481168252851692507f840acbd291b38534819f47f875839277e502f40e1c7bfea2c5fc2c8017442cd391506020015b60405180910390a25050565b600080826001600160a01b0316637730599e6040518163ffffffff1660e01b8152600401602060405180830381865afa158015611e4c573d6000803e3d6000fd5b505050506040513d601f19601f82011682018060405250810190611e709190615129565b6000818152600260205260409020549091508015801590610f2657506001600160a01b0384166001611ea28184615158565b81548110611eb257611eb261516b565b6000918252602090912001546001600160a01b031614949350505050565b6001600160a01b03811660009081526004602052604081205460ff16610f12565b6060611efc33611e0b565b611f195760405163619c535960e01b815260040160405180910390fd5b6000611f5a85858080601f016020809104026020016040519081016040528093929190818152602001838380828437600092019190915250610f2e92505050565b9050828161010001818151611f6f919061522e565b905250611f7b816134e6565b95945050505050565b600054610100900460ff1615808015611fa45750600054600160ff909116105b80611fbe5750303b158015611fbe575060005460ff166001145b6120305760405162461bcd60e51b815260206004820152602e60248201527f496e697469616c697a61626c653a20636f6e747261637420697320616c72656160448201527f647920696e697469616c697a65640000000000000000000000000000000000006064820152608401610dfe565b6000805460ff191660011790558015612053576000805461ff0019166101001790555b80156112dc576000805461ff0019169055604051600181527f7f26b83ff96e1f2b6a682f133852f6798a09c465da95921460cefb384740249890602001611601565b6000818152600260205260408120548082036120c457604051630e4f4df560e11b815260040160405180910390fd5b6120cf600182615158565b6001901b19841691505092915050565b7f000000000000000000000000000000000000000000000000000000000000000015612137576040517f5b93ebf000000000000000000000000000000000000000000000000000000000815260040160405180910390fd5b6112dc81336001614467565b60008181526002602052604081205480820361217257604051630e4f4df560e11b815260040160405180910390fd5b600161217e8183615158565b8154811061218e5761218e61516b565b6000918252602090912001546001600160a01b03169392505050565b60606121b533611e0b565b6121d25760405163619c535960e01b815260040160405180910390fd5b84848080601f0160208091040260200160405190810160405280939291908181526020018383808284376000920191909152506122149250839150612d029050565b61222057612220615181565b61222a8484612f0c565b85858080601f016020809104026020016040519081016040528093929190818152602001838380828437600092019190915250929998505050505050505050565b606082828080601f0160208091040260200160405190810160405280939291908181526020018383808284376000920191909152506122af9250839150612d029050565b6122cf5760405163a85ba64f60e01b815260146004820152602401610dfe565b6001600160a01b0387166000908152600460205260408120548891819003612323576040517f163cbe4300000000000000000000000000000000000000000000000000000000815260040160405180910390fd5b61800081161561235f576040517f02384b6400000000000000000000000000000000000000000000000000000000815260040160405180910390fd5b87878080601f016020809104026020016040519081016040528093929190818152602001838380828437600092018290525092506123a091508390506145d2565b90506001600160e01b031981167f30d9c91500000000000000000000000000000000000000000000000000000000148061240357506001600160e01b031981167fd86ed3e500000000000000000000000000000000000000000000000000000000145b8061243757506001600160e01b031981167f884d1f4000000000000000000000000000000000000000000000000000000000145b8061246b57506001600160e01b031981167f230dbd2900000000000000000000000000000000000000000000000000000000145b8061249f57506001600160e01b031981167f5f9e7d7700000000000000000000000000000000000000000000000000000000145b806124d357506001600160e01b031981167f53c11f9900000000000000000000000000000000000000000000000000000000145b1561250a576040517fef4295f600000000000000000000000000000000000000000000000000000000815260040160405180910390fd5b600061254b89898080601f016020809104026020016040519081016040528093929190818152602001838380828437600092019190915250610f2e92505050565b6101208101519091506001600160a01b03163314612595576040517f473f7bd400000000000000000000000000000000000000000000000000000000815260040160405180910390fd5b606081018051339091526125a8826134e6565b97506000806125ef8f8f8f8080601f0160208091040260200160405190810160405280939291908181526020018383808284376000920191909152508f925061362c915050565b915091508115612662578080602001905181019061260d91906151dc565b99506126188a612d02565b6126385760405163a85ba64f60e01b815260146004820152602401610dfe565b6126418a610f2e565b6001600160a01b0384166060820152935061265b846134e6565b995061266b565b61266b816136e5565b50505050505050505095945050505050565b6000818152600260205260408120548082036126ac57604051630e4f4df560e11b815260040160405180910390fd5b6126b7600182615158565b6001901b841791505092915050565b7f00000000000000000000000000000000000000000000000000000000000000001561280657600061272e3284848080601f01602080910402602001604051908101604052809392919081815260200183838082843760009201919091525061462e92505050565b600080546040517f80f70cba00000000000000000000000000000000000000000000000000000000815230600482015260248101929092526044820183905291925042916201000090046001600160a01b0316906380f70cba90606401602060405180830381865afa1580156127a8573d6000803e3d6000fd5b505050506040513d601f19601f820116820180604052508101906127cc9190615129565b1015612804576040517f19ab84d100000000000000000000000000000000000000000000000000000000815260040160405180910390fd5b505b61281283336001614467565b505050565b6000610f0f83838080601f016020809104026020016040519081016040528093929190818152602001838380828437600092019190915250612d0292505050565b600054610100900460ff16158080156128785750600054600160ff909116105b806128925750303b158015612892575060005460ff166001145b6129045760405162461bcd60e51b815260206004820152602e60248201527f496e697469616c697a61626c653a20636f6e747261637420697320616c72656160448201527f647920696e697469616c697a65640000000000000000000000000000000000006064820152608401610dfe565b6000805460ff191660011790558015612927576000805461ff0019166101001790555b600080547fffffffffffffffffffff0000000000000000000000000000000000000000ffff16620100006001600160a01b0385160217905580156118ba576000805461ff0019169055604051600181527f7f26b83ff96e1f2b6a682f133852f6798a09c465da95921460cefb38474024989060200160405180910390a15050565b606060008060018054905067ffffffffffffffff8111156129cb576129cb614a1e565b6040519080825280602002602001820160405280156129f4578160200160208202803683370190505b50925060009050600091505b600154821015612a8b576001821b841615612a7b5760018281548110612a2857612a2861516b565b6000918252602090912001546001600160a01b03168382612a4881615292565b935081518110612a5a57612a5a61516b565b60200260200101906001600160a01b031690816001600160a01b0316815250505b612a8482615292565b9150612a00565b825250919050565b6003546000906001600160a01b0316612aae57612aae615181565b7f000000000000000000000000000000000000000000000000000000000000000015612ae457506003546001600160a01b031690565b600360009054906101000a90046001600160a01b03166001600160a01b03166350d75d256040518163ffffffff1660e01b8152600401602060405180830381865afa158015612b37573d6000803e3d6000fd5b505050506040513d601f19601f820116820180604052508101906113099190615275565b333b6000819003612b98576040517fd4f6b30c00000000000000000000000000000000000000000000000000000000815260040160405180910390fd5b507f000000000000000000000000000000000000000000000000000000000000000015612ca7576000612bca33614661565b600080546040517f80f70cba00000000000000000000000000000000000000000000000000000000815230600482015260248101839052604481018490529293509091620100009091046001600160a01b0316906380f70cba90606401602060405180830381865afa158015612c44573d6000803e3d6000fd5b505050506040513d601f19601f82011682018060405250810190612c689190615129565b600114905080612ca4576040517f289533c500000000000000000000000000000000000000000000000000000000815260040160405180910390fd5b50505b6118ba81836000614467565b6001600160a01b038116600090815260046020908152604080832081519283019091525480825215801592918291612cfa57805161800081161515935064ff000000001691505b509193909250565b60008151600014158015610f125750600654825160208401201492915050565b600060606001600160a01b038716612d3c57612d3c615181565b612d4684846146db565b935060005a90508615612dc557876001600160a01b0316622dc6c067ffffffffffffffff1686604051612d7991906152ac565b6000604051808303818686fa925050503d8060008114612db5576040519150601f19603f3d011682016040523d82523d6000602084013e612dba565b606091505b509093509150612e35565b876001600160a01b0316622dc6c067ffffffffffffffff1686604051612deb91906152ac565b60006040518083038160008787f1925050503d8060008114612e29576040519150601f19603f3d011682016040523d82523d6000602084013e612e2e565b606091505b5090935091505b82612ead57612e43816147ac565b612e655785612e5a57612e55826136e5565b612ead565b612e5588600a612f0c565b60405162461bcd60e51b815260206004820152601160248201527f53463a206e656564206d6f7265206761730000000000000000000000000000006044820152606401610dfe565b509550959350505050565b6000604082511015612ecc57506000919050565b602082810151906000908214612ee6575060009392505050565b506040830151612ef5816147c2565b612f009060406152c8565b84511492505050919050565b6001600160a01b0382166000908152600460205260408120546180001690036118ba576001600160a01b038216600081815260046020526040908190208054618000179055517fbe3aa33bd245135e4e26b223d79d14ea479a47bff09f2b03c53838af1edbb14b90611dff9084815260200190565b60065460609015612fa85760405163a85ba64f60e01b815260156004820152602401610dfe565b6001600160a01b0383166000908152600460205260408120548491819003612ffc576040517f163cbe4300000000000000000000000000000000000000000000000000000000815260040160405180910390fd5b618000811615613038576040517f02384b6400000000000000000000000000000000000000000000000000000000815260040160405180910390fd5b836000613044826145d2565b90506001600160e01b031981167f30d9c9150000000000000000000000000000000000000000000000000000000014806130a757506001600160e01b031981167fd86ed3e500000000000000000000000000000000000000000000000000000000145b806130db57506001600160e01b031981167f884d1f4000000000000000000000000000000000000000000000000000000000145b8061310f57506001600160e01b031981167f230dbd2900000000000000000000000000000000000000000000000000000000145b8061314357506001600160e01b031981167f5f9e7d7700000000000000000000000000000000000000000000000000000000145b8061317757506001600160e01b031981167f53c11f9900000000000000000000000000000000000000000000000000000000145b156131ae576040517fef4295f600000000000000000000000000000000000000000000000000000000815260040160405180910390fd5b60408051610160810182526000808252600260208084019190915242838501526001600160a01b03808d16606085015260808401839052845191820190945281815260a083015260c0820181905260e0820181905261010082018190529189166101208201526101408101829052613225906134e6565b9050600061323489898461362c565b975090508015613282578680602001905181019061325291906151dc565b915061325d82612d02565b61327d5760405163a85ba64f60e01b815260146004820152602401610dfe565b61328b565b61328b876136e5565b5050600060065550929695505050505050565b600654606090156132c55760405163a85ba64f60e01b815260156004820152602401610dfe565b836132cf81611e0b565b6132ec5760405163619c535960e01b815260040160405180910390fd5b60006132f7856145d2565b604080516101608101825260008082526001602083015292935061338f9181014281526020018a6001600160a01b03168152602001847bffffffffffffffffffffffffffffffffffffffffffffffffffffffff1916815260200187815260200160008152602001600081526020016000815260200160006001600160a01b0316815260200160006001600160a01b03168152506134e6565b9050600061339e88888461362c565b95509050806133b0576133b0856136e5565b50506000600655509095945050505050565b604080516101608101825260008082526020820181905291810182905260608082018390526080820183905260a082015260c0810182905260e08101829052610100810182905261012081018290526101408101919091526060808380602001905181019061343191906152db565b8151919350915060009061344e9084016020908101908501615335565b60a08901526001600160e01b03191660808801526001600160a01b031660608701526040860152602081811c600f168187015260ff909116855282516000925061349f9190840181019084016153ba565b6001600160a01b03908116610140890152166101208701526101008601526fffffffffffffffffffffffffffffffff811660c086015260801c60e085015250919392505050565b60606001826000015160ff1611156135145760405163a85ba64f60e01b815260286004820152602401610dfe565b815160208084015160009260ff1664ff000000009190921b16179050600060806135418560e001516147fb565b6fffffffffffffffffffffffffffffffff16901b6135628560c001516147fb565b6fffffffffffffffffffffffffffffffff16179050818460400151856060015186608001518760a001516040516020016135a0959493929190615405565b60408051601f1981840301815282825261010087015161012088015161014089015160208601879052938501919091526001600160a01b03908116606085015290911660808301529060a00160408051601f198184030181529082905261360a9291602001614d6c565b60408051601f1981840301815291905280516020820120600655949350505050565b600060606001600160a01b03851661364657613646615181565b61365084846146db565b9350846001600160a01b03168460405161366a91906152ac565b6000604051808303816000865af19150503d80600081146136a7576040519150601f19603f3d011682016040523d82523d6000602084013e6136ac565b606091505b50909250905081156136dd5780516000036136dd5760405163a85ba64f60e01b815260166004820152602401610dfe565b935093915050565b6004815110156137375760405162461bcd60e51b815260206004820152601a60248201527f43616c6c5574696c733a207461726765742072657665727428290000000000006044820152606401610dfe565b60208101517fb1b7848f000000000000000000000000000000000000000000000000000000006001600160e01b03198216016138005760408051808201825260208082527f43616c6c5574696c733a207461726765742070616e69636b65643a2030785f5f90820190815260248501517f43616c6c5574696c733a207461726765742070616e69636b65643a2030780000600482811c600f908116603090810160081b918516011791909117909252925162461bcd60e51b8152919291610dfe91849101614a0b565b81518060208401fd5b60006138337f360894a13ba1a3210667c828492db98dca3e2076cc3735a920a3ca505d382bbc5490565b6001600160a01b0316036138895760405162461bcd60e51b815260206004820152601d60248201527f5555505350726f786961626c653a206e6f742075706772616461626c650000006044820152606401610dfe565b806001600160a01b03166352d1902d6040518163ffffffff1660e01b8152600401602060405180830381865afa1580156138c7573d6000803e3d6000fd5b505050506040513d601f19601f820116820180604052508101906138eb9190615129565b7fcd355cae2c435f8c5e0c626c4691d22fd85aa7422a424c6f0bced6e64c7aba741461397f5760405162461bcd60e51b815260206004820152602360248201527f5555505350726f786961626c653a206e6f7420636f6d70617469626c65206c6f60448201527f67696300000000000000000000000000000000000000000000000000000000006064820152608401610dfe565b6001600160a01b03811630036139d75760405162461bcd60e51b815260206004820152601960248201527f5555505350726f786961626c653a2070726f7879206c6f6f70000000000000006044820152606401610dfe565b6139ff817f360894a13ba1a3210667c828492db98dca3e2076cc3735a920a3ca505d382bbc55565b7fe011bc04c286c344a8fcbb8de77f953da762c3e25d8cdea984147fc4168a5dcc7fcd355cae2c435f8c5e0c626c4691d22fd85aa7422a424c6f0bced6e64c7aba74604080519182526001600160a01b038416602083015201611601565b6040805160208101829052603260608201527f6f72672e7375706572666c7569642d66696e616e63652e7375706572666c756960808201527f642e74727573746564466f72776172646572000000000000000000000000000060a08201526001600160a01b0383169181019190915260009060c0015b604051602081830303815290604052805190602001209050919050565b600060183610801590613b075750613b0733611725565b613b535760405162461bcd60e51b815260206004820152601560248201527f4e6f74207472757374656420666f7277617264657200000000000000000000006044820152606401610dfe565b507fffffffffffffffffffffffffffffffffffffffffffffffffffffffffffffffec36013560601c90565b60005b81811015614461576000838383818110613b9d57613b9d61516b565b9050602002810190613baf919061544e565b613bbd906020810190615482565b905060001963ffffffff821601613cd657600080858585818110613be357613be361516b565b9050602002810190613bf5919061544e565b613c039060408101906154a8565b810190613c1091906150fd565b91509150858585818110613c2657613c2661516b565b9050602002810190613c38919061544e565b613c499060408101906020016148a9565b6040517f62aa52870000000000000000000000000000000000000000000000000000000081526001600160a01b03898116600483015284811660248301526044820184905291909116906362aa5287906064015b600060405180830381600087803b158015613cb757600080fd5b505af1158015613ccb573d6000803e3d6000fd5b505050505050614450565b7ffffffffffffffffffffffffffffffffffffffffffffffffffffffffffffffffe63ffffffff821601613e18576000806000868686818110613d1a57613d1a61516b565b9050602002810190613d2c919061544e565b613d3a9060408101906154a8565b810190613d47919061550d565b925092509250868686818110613d5f57613d5f61516b565b9050602002810190613d71919061544e565b613d829060408101906020016148a9565b6040517f16d055d60000000000000000000000000000000000000000000000000000000081526001600160a01b038a81166004830152858116602483015284811660448301526064820184905291909116906316d055d6906084015b600060405180830381600087803b158015613df857600080fd5b505af1158015613e0c573d6000803e3d6000fd5b50505050505050614450565b7ffffffffffffffffffffffffffffffffffffffffffffffffffffffffffffffffd63ffffffff821601613ef5576000806000868686818110613e5c57613e5c61516b565b9050602002810190613e6e919061544e565b613e7c9060408101906154a8565b810190613e89919061554e565b925092509250868686818110613ea157613ea161516b565b9050602002810190613eb3919061544e565b613ec49060408101906020016148a9565b6001600160a01b031663ca0c1e7f898585856040518563ffffffff1660e01b8152600401613dde949392919061559d565b7ffffffffffffffffffffffffffffffffffffffffffffffffffffffffffffffffc63ffffffff821601613ff557600080858585818110613f3757613f3761516b565b9050602002810190613f49919061544e565b613f579060408101906154a8565b810190613f6491906150fd565b91509150858585818110613f7a57613f7a61516b565b9050602002810190613f8c919061544e565b613f9d9060408101906020016148a9565b6040517f4b2763b30000000000000000000000000000000000000000000000000000000081526001600160a01b0389811660048301528481166024830152604482018490529190911690634b2763b390606401613c9d565b7ffffffffffffffffffffffffffffffffffffffffffffffffffffffffffffffffb63ffffffff8216016140f5576000808585858181106140375761403761516b565b9050602002810190614049919061544e565b6140579060408101906154a8565b81019061406491906150fd565b9150915085858581811061407a5761407a61516b565b905060200281019061408c919061544e565b61409d9060408101906020016148a9565b6040517fc780fd820000000000000000000000000000000000000000000000000000000081526001600160a01b038981166004830152848116602483015260448201849052919091169063c780fd8290606401613c9d565b7fffffffffffffffffffffffffffffffffffffffffffffffffffffffffffffff9b63ffffffff821601614208578383838181106141345761413461516b565b9050602002810190614146919061544e565b6141579060408101906020016148a9565b6001600160a01b031663ca789464868686868181106141785761417861516b565b905060200281019061418a919061544e565b6141989060408101906154a8565b8101906141a59190614ef0565b6040516001600160e01b031960e085901b1681526001600160a01b0390921660048301526024820152604401600060405180830381600087803b1580156141eb57600080fd5b505af11580156141ff573d6000803e3d6000fd5b50505050614450565b7fffffffffffffffffffffffffffffffffffffffffffffffffffffffffffffff9a63ffffffff82160161428b578383838181106142475761424761516b565b9050602002810190614259919061544e565b61426a9060408101906020016148a9565b6001600160a01b031663245887fc868686868181106141785761417861516b565b7fffffffffffffffffffffffffffffffffffffffffffffffffffffffffffffff3763ffffffff821601614346576000808585858181106142cd576142cd61516b565b90506020028101906142df919061544e565b6142ed9060408101906154a8565b8101906142fa91906155cf565b9150915061433e878787878181106143145761431461516b565b9050602002810190614326919061544e565b6143379060408101906020016148a9565b848461329e565b505050614450565b7fffffffffffffffffffffffffffffffffffffffffffffffffffffffffffffff3663ffffffff82160161441e57614418858585858181106143895761438961516b565b905060200281019061439b919061544e565b6143ac9060408101906020016148a9565b8686868181106143be576143be61516b565b90506020028101906143d0919061544e565b6143de9060408101906154a8565b8080601f016020809104026020016040519081016040528093929190818152602001838380828437600092019190915250612f8192505050565b50614450565b6040517fb477011500000000000000000000000000000000000000000000000000000000815260040160405180910390fd5b5061445a81615292565b9050613b81565b50505050565b32330361448a5760405163a85ba64f60e01b815260026004820152602401610dfe565b80156144b657813b80156144b45760405163a85ba64f60e01b815260016004820152602401610dfe565b505b7fffffffffffffffffffffffffffffffffffffffffffffffffffffff00ffff7f0083161515806144e7575060ff8316155b806144f55750618000831615155b1561452c576040517ff4c802a400000000000000000000000000000000000000000000000000000000815260040160405180910390fd5b6001600160a01b0382166000908152600460205260409020541561457c576040517f01b0a93500000000000000000000000000000000000000000000000000000000815260040160405180910390fd5b60408051602080820183528582526001600160a01b038516600081815260049092528382209251909255915190917f0d540ad8f39e07d19909687352b9fa017405d93c91a6760981fbae9cf28bfef791a2505050565b60006004825110156146265760405162461bcd60e51b815260206004820152601b60248201527f43616c6c5574696c733a20696e76616c69642063616c6c4461746100000000006044820152606401610dfe565b506020015190565b60008282604051602001614643929190615629565b60405160208183030381529060405280519060200120905092915050565b6040805160208101829052603960608201527f6f72672e7375706572666c7569642d66696e616e63652e7375706572666c756960808201527f642e61707057686974654c697374696e672e666163746f72790000000000000060a08201526001600160a01b0383169181019190915260009060c001613ad3565b81518083015160609190801561471d576040517f67e9985b00000000000000000000000000000000000000000000000000000000815260040160405180910390fd5b50601f1981018452825184908481614734816147c2565b61473e9190615158565b67ffffffffffffffff81111561475657614756614a1e565b6040519080825280601f01601f191660200182016040528015614780576020820181803683370190505b5060405160200161479494939291906156cb565b60405160208183030381529060405291505092915050565b60006147b9603f8361571a565b5a111592915050565b60008082601f16116147d55760006147d8565b60015b60ff166147e660208461571a565b6147f091906152c8565b610f1290602061573c565b60006fffffffffffffffffffffffffffffffff8211156148835760405162461bcd60e51b815260206004820152602760248201527f53616665436173743a2076616c756520646f65736e27742066697420696e203160448201527f32382062697473000000000000000000000000000000000000000000000000006064820152608401610dfe565b5090565b6102a58061575483390190565b6001600160a01b03811681146112dc57600080fd5b6000602082840312156148bb57600080fd5b81356148c681614894565b9392505050565b60008083601f8401126148df57600080fd5b50813567ffffffffffffffff8111156148f757600080fd5b60208301915083602082850101111561490f57600080fd5b9250929050565b80151581146112dc57600080fd5b6000806000806000806080878903121561493d57600080fd5b863561494881614894565b9550602087013567ffffffffffffffff8082111561496557600080fd5b6149718a838b016148cd565b90975095506040890135915061498682614916565b9093506060880135908082111561499c57600080fd5b506149a989828a016148cd565b979a9699509497509295939492505050565b60005b838110156149d65781810151838201526020016149be565b50506000910152565b600081518084526149f78160208601602086016149bb565b601f01601f19169290920160200192915050565b602081526000610f0f60208301846149df565b634e487b7160e01b600052604160045260246000fd5b604051601f8201601f1916810167ffffffffffffffff81118282101715614a5d57614a5d614a1e565b604052919050565b600067ffffffffffffffff821115614a7f57614a7f614a1e565b50601f01601f191660200190565b600082601f830112614a9e57600080fd5b8135614ab1614aac82614a65565b614a34565b818152846020838601011115614ac657600080fd5b816020850160208301376000918101602001919091529392505050565b60008060408385031215614af657600080fd5b8235614b0181614894565b9150602083013567ffffffffffffffff811115614b1d57600080fd5b614b2985828601614a8d565b9150509250929050565b600080600060608486031215614b4857600080fd5b8335614b5381614894565b9250602084013567ffffffffffffffff80821115614b7057600080fd5b614b7c87838801614a8d565b93506040860135915080821115614b9257600080fd5b50614b9f86828701614a8d565b9150509250925092565b600060208284031215614bbb57600080fd5b813567ffffffffffffffff811115614bd257600080fd5b610f2684828501614a8d565b60208152614bf260208201835160ff169052565b60006020830151614c08604084018260ff169052565b50604083015160608301526060830151614c2d60808401826001600160a01b03169052565b5060808301516001600160e01b0319811660a08401525060a08301516101608060c0850152614c606101808501836149df565b915060c085015160e085015260e0850151610100818187015280870151915050610120818187015280870151915050610140614ca6818701836001600160a01b03169052565b909501516001600160a01b031693019290925250919050565b60008060008060008060006080888a031215614cda57600080fd5b8735614ce581614894565b9650602088013567ffffffffffffffff80821115614d0257600080fd5b614d0e8b838c016148cd565b909850965060408a0135915080821115614d2757600080fd5b614d338b838c016148cd565b909650945060608a0135915080821115614d4c57600080fd5b50614d598a828b016148cd565b989b979a50959850939692959293505050565b604081526000614d7f60408301856149df565b8281036020840152611f7b81856149df565b600080600060408486031215614da657600080fd5b833567ffffffffffffffff811115614dbd57600080fd5b614dc9868287016148cd565b909790965060209590950135949350505050565b60008060208385031215614df057600080fd5b823567ffffffffffffffff80821115614e0857600080fd5b818501915085601f830112614e1c57600080fd5b813581811115614e2b57600080fd5b8660208260051b8501011115614e4057600080fd5b60209290920196919550909350505050565b60008060008060008060a08789031215614e6b57600080fd5b863567ffffffffffffffff811115614e8257600080fd5b614e8e89828a016148cd565b9097509550506020870135614ea281614894565b935060408701359250606087013591506080870135614ec081614894565b809150509295509295509295565b60008060408385031215614ee157600080fd5b50508035926020909101359150565b600060208284031215614f0257600080fd5b5035919050565b60008060008060608587031215614f1f57600080fd5b843567ffffffffffffffff811115614f3657600080fd5b614f42878288016148cd565b9095509350506020850135614f5681614894565b9396929550929360400135925050565b600080600080600060608688031215614f7e57600080fd5b8535614f8981614894565b9450602086013567ffffffffffffffff80821115614fa657600080fd5b614fb289838a016148cd565b90965094506040880135915080821115614fcb57600080fd5b50614fd8888289016148cd565b969995985093965092949392505050565b60008060408385031215614ffc57600080fd5b823561500781614894565b9150602083013561501781614894565b809150509250929050565b60008060006040848603121561503757600080fd5b83359250602084013567ffffffffffffffff81111561505557600080fd5b615061868287016148cd565b9497909650939450505050565b6000806020838503121561508157600080fd5b823567ffffffffffffffff81111561509857600080fd5b6150a4858286016148cd565b90969095509350505050565b6020808252825182820181905260009190848201906040850190845b818110156150f15783516001600160a01b0316835292840192918401916001016150cc565b50909695505050505050565b6000806040838503121561511057600080fd5b823561511b81614894565b946020939093013593505050565b60006020828403121561513b57600080fd5b5051919050565b634e487b7160e01b600052601160045260246000fd5b81810381811115610f1257610f12615142565b634e487b7160e01b600052603260045260246000fd5b634e487b7160e01b600052600160045260246000fd5b600082601f8301126151a857600080fd5b81516151b6614aac82614a65565b8181528460208386010111156151cb57600080fd5b610f268260208301602087016149bb565b6000602082840312156151ee57600080fd5b815167ffffffffffffffff81111561520557600080fd5b610f2684828501615197565b60006020828403121561522357600080fd5b81516148c681614916565b808201828112600083128015821682158216171561524e5761524e615142565b505092915050565b600060ff821660ff810361526c5761526c615142565b60010192915050565b60006020828403121561528757600080fd5b81516148c681614894565b600060001982036152a5576152a5615142565b5060010190565b600082516152be8184602087016149bb565b9190910192915050565b80820180821115610f1257610f12615142565b600080604083850312156152ee57600080fd5b825167ffffffffffffffff8082111561530657600080fd5b61531286838701615197565b9350602085015191508082111561532857600080fd5b50614b2985828601615197565b600080600080600060a0868803121561534d57600080fd5b8551945060208601519350604086015161536681614894565b60608701519093506001600160e01b03198116811461538457600080fd5b608087015190925067ffffffffffffffff8111156153a157600080fd5b6153ad88828901615197565b9150509295509295909350565b600080600080608085870312156153d057600080fd5b845193506020850151925060408501516153e981614894565b60608601519092506153fa81614894565b939692955090935050565b8581528460208201526001600160a01b03841660408201526001600160e01b03198316606082015260a06080820152600061544360a08301846149df565b979650505050505050565b600082357fffffffffffffffffffffffffffffffffffffffffffffffffffffffffffffffa18336030181126152be57600080fd5b60006020828403121561549457600080fd5b813563ffffffff811681146148c657600080fd5b60008083357fffffffffffffffffffffffffffffffffffffffffffffffffffffffffffffffe18436030181126154dd57600080fd5b83018035915067ffffffffffffffff8211156154f857600080fd5b60200191503681900382131561490f57600080fd5b60008060006060848603121561552257600080fd5b833561552d81614894565b9250602084013561553d81614894565b929592945050506040919091013590565b60008060006060848603121561556357600080fd5b833561556e81614894565b925060208401359150604084013567ffffffffffffffff81111561559157600080fd5b614b9f86828701614a8d565b60006001600160a01b0380871683528086166020840152508360408301526080606083015261189e60808301846149df565b600080604083850312156155e257600080fd5b823567ffffffffffffffff808211156155fa57600080fd5b61560686838701614a8d565b9350602085013591508082111561561c57600080fd5b50614b2985828601614a8d565b60608152604160608201527f6f72672e7375706572666c7569642d66696e616e63652e7375706572666c756960808201527f642e61707057686974654c697374696e672e726567697374726174696f6e4b6560a08201527f790000000000000000000000000000000000000000000000000000000000000060c08201526001600160a01b038316602082015260e060408201526000610f2660e08301846149df565b6000855160206156de8285838b016149bb565b818401915086825285516156f781838501848a016149bb565b855192019161570b818385018489016149bb565b91909101019695505050505050565b60008261573757634e487b7160e01b600052601260045260246000fd5b500490565b8082028115828204841417610f1257610f1261514256fe608060405234801561001057600080fd5b50610285806100206000396000f3fe6080604052600436106100225760003560e01c80634a0687ef1461003957610031565b366100315761002f610059565b005b61002f610059565b34801561004557600080fd5b5061002f610054366004610212565b61006b565b6100696100646101bf565b6101ee565b565b73ffffffffffffffffffffffffffffffffffffffff81166100ed576040517f08c379a000000000000000000000000000000000000000000000000000000000815260206004820152601760248201527f5555505350726f78793a207a65726f206164647265737300000000000000000060448201526064015b60405180910390fd5b60006101177f360894a13ba1a3210667c828492db98dca3e2076cc3735a920a3ca505d382bbc5490565b73ffffffffffffffffffffffffffffffffffffffff1614610194576040517f08c379a000000000000000000000000000000000000000000000000000000000815260206004820152601e60248201527f5555505350726f78793a20616c726561647920696e697469616c697a6564000060448201526064016100e4565b6101bc817f360894a13ba1a3210667c828492db98dca3e2076cc3735a920a3ca505d382bbc55565b50565b60006101e97f360894a13ba1a3210667c828492db98dca3e2076cc3735a920a3ca505d382bbc5490565b905090565b3660008037600080366000845af43d6000803e80801561020d573d6000f35b3d6000fd5b60006020828403121561022457600080fd5b813573ffffffffffffffffffffffffffffffffffffffff8116811461024857600080fd5b939250505056fea2646970667358221220b1f2ca985180c629edb9bce81d6b02d8a4835f0279987bb5101c9c28acf2598664736f6c63430008130033a26469706673582212204bd0db1a54fe97ace0221727bf544ed3655299eeb91f155d2c2257c0ae4c41aa64736f6c63430008130033","linkReferences":{}},"methodIdentifiers":{"APP_WHITE_LISTING_ENABLED()":"9d297e30","CALLBACK_GAS_LIMIT()":"33d608f1","MAX_APP_CALLBACK_LEVEL()":"bd3252c8","NON_UPGRADABLE_DEPLOYMENT()":"cd312ec4","addToAgreementClassesBitmap(uint256,bytes32)":"bced3ddc","allowCompositeApp(address)":"57121e0c","appCallbackPop(bytes,int256)":"989b0c3e","appCallbackPush(bytes,address,uint256,int256,address)":"768fabb0","batchCall((uint32,address,bytes)[])":"6ad3ca7d","callAgreement(address,bytes,bytes)":"39255d5b","callAgreementWithContext(address,bytes,bytes,bytes)":"4329d293","callAppAction(address,bytes)":"1e855cf3","callAppActionWithContext(address,bytes,bytes)":"ba48b5f8","callAppAfterCallback(address,bytes,bool,bytes)":"1e6d0a84","callAppBeforeCallback(address,bytes,bool,bytes)":"74041e02","castrate()":"9903ad38","ctxUseCredit(bytes,int256)":"59a29141","decodeCtx(bytes)":"3f6c923a","forwardBatchCall((uint32,address,bytes)[])":"670e77e3","getAgreementClass(bytes32)":"b6d200de","getAppCallbackLevel(address)":"9378fa13","getAppManifest(address)":"f9f522f4","getCodeAddress()":"50d75d25","getGovernance()":"289b3c0d","getNow()":"bbe4fd50","getSuperTokenFactory()":"731aed6e","getSuperTokenFactoryLogic()":"f2e55caf","initialize(address)":"c4d66de8","isAgreementClassListed(address)":"8ca48484","isAgreementTypeListed(bytes32)":"e8dccb7d","isApp(address)":"3ca3ad4e","isAppJailed(address)":"6b4f3335","isCompositeAppAllowed(address,address)":"bb84cfa1","isCtxValid(bytes)":"bf428734","isTrustedForwarder(address)":"572b6c05","jailApp(bytes,address,uint256)":"b724211e","mapAgreementClasses(uint256)":"c56a069d","proxiableUUID()":"52d1902d","registerAgreementClass(address)":"15a024e1","registerApp(uint256)":"ad3915c8","registerAppByFactory(address,uint256)":"f3733052","registerAppWithKey(uint256,string)":"bd1c448b","removeFromAgreementClassesBitmap(uint256,bytes32)":"a5dbbbcd","replaceGovernance(address)":"7283100c","updateAgreementClass(address)":"06cecba8","updateCode(address)":"46951954","updateSuperTokenFactory(address)":"54fbc493","updateSuperTokenLogic(address)":"787afde7","versionRecipient()":"486ff0cd"},"id":114}