{"abi":[{"type":"function","name":"deleteSapphireStream","inputs":[{"name":"receiver","type":"address","internalType":"address"}],"outputs":[],"stateMutability":"nonpayable"},{"type":"function","name":"setSapphireStream","inputs":[],"outputs":[],"stateMutability":"nonpayable"},{"type":"error","name":"Slice_OutOfBounds","inputs":[{"name":"data","type":"bytes","internalType":"bytes"},{"name":"start","type":"uint256","internalType":"uint256"},{"name":"end","type":"uint256","internalType":"uint256"}]},{"type":"error","name":"StoreCore_InvalidDataLength","inputs":[{"name":"expected","type":"uint256","internalType":"uint256"},{"name":"received","type":"uint256","internalType":"uint256"}]},{"type":"error","name":"StoreCore_TableNotFound","inputs":[{"name":"tableId","type":"bytes32","internalType":"bytes32"},{"name":"tableIdString","type":"string","internalType":"string"}]}],"bytecode":{"object":"0x608060405234801561001057600080fd5b50611a74806100206000396000f3fe608060405234801561001057600080fd5b50600436106100365760003560e01c8063d7ba1ce91461003b578063e992613914610045575b600080fd5b610043610058565b005b610043610053366004611640565b6101a5565b60006100646001610246565b90508073ffffffffffffffffffffffffffffffffffffffff81166100e9576040517f08c379a000000000000000000000000000000000000000000000000000000000815260206004820152601960248201527f4d697373696e672073617070686972652061646472657373210000000000000060448201526064015b60405180910390fd5b6100fe826100f5610307565b620186a0610339565b8073ffffffffffffffffffffffffffffffffffffffff1663763b8ffe610122610307565b6040517fffffffff0000000000000000000000000000000000000000000000000000000060e084901b16815273ffffffffffffffffffffffffffffffffffffffff90911660048201526024015b600060405180830381600087803b15801561018957600080fd5b505af115801561019d573d6000803e3d6000fd5b505050505050565b60006101b16001610246565b6040517fde4b9e9300000000000000000000000000000000000000000000000000000000815273ffffffffffffffffffffffffffffffffffffffff8481166004830152919250829182169063de4b9e9390602401600060405180830381600087803b15801561021f57600080fd5b505af1158015610233573d6000803e3d6000fd5b505050506102418284610449565b505050565b604080516001808252818301909252600091829190602080830190803683370190505090508263ffffffff1660001b816000815181106102885761028861168c565b6020908102919091018101919091526040805160009281018390527f53465265736f7572636547656e6572610000000000000000000000000000000060308201526102ef91015b6040516020818303038152906040526102e7906116a2565b836000610530565b90506102fc8160006105dd565b60601c949350505050565b7fffffffffffffffffffffffffffffffffffffffffffffffffffffffffffffffec36013560601c806103365750335b90565b6040805160028082526060820183526000926020830190803683370190505090508373ffffffffffffffffffffffffffffffffffffffff1660001b816000815181106103875761038761168c565b6020026020010181815250508273ffffffffffffffffffffffffffffffffffffffff1660001b816001815181106103c0576103c061168c565b602090810291909101810191909152604080516000818401527f53464f70656e53747265616d5461626c00000000000000000000000000000000603082015281518082039093018352810190526104439061041a906116a2565b60405160a085901b60208201528390600090602c016040516020818303038152906040526105eb565b50505050565b6040805160028082526060820183526000926020830190803683370190505090508273ffffffffffffffffffffffffffffffffffffffff1660001b816000815181106104975761049761168c565b6020026020010181815250508173ffffffffffffffffffffffffffffffffffffffff1660001b816001815181106104d0576104d061168c565b602090810291909101810191909152604080516000818401527f53464f70656e53747265616d5461626c00000000000000000000000000000000603082015281518082039093018352810190526102419061052a906116a2565b82610683565b606061053a6106dc565b156105515761054a84848461075a565b90506105d6565b6040517fd03edb8c000000000000000000000000000000000000000000000000000000008152339063d03edb8c9061059190879087908790600401611704565b600060405180830381865afa1580156105ae573d6000803e3d6000fd5b505050506040513d6000823e601f3d908101601f1916820160405261054a9190810190611754565b9392505050565b818101602001515b92915050565b6105f36106dc565b15610609576106048484848461077e565b610443565b6040517f114a7266000000000000000000000000000000000000000000000000000000008152339063114a72669061064b90879087908790879060040161182d565b600060405180830381600087803b15801561066557600080fd5b505af1158015610679573d6000803e3d6000fd5b5050505050505050565b61068b6106dc565b1561069e5761069a8282610972565b5050565b6040517f505a181d000000000000000000000000000000000000000000000000000000008152339063505a181d9061016f9085908590600401611861565b6000303b8082036106ef57600191505090565b3073ffffffffffffffffffffffffffffffffffffffff1663a5c2f0076040518163ffffffff1660e01b815260040160006040518083038186803b15801561073557600080fd5b505afa925050508015610746575060015b61075257600091505090565b600191505090565b6060600061076785610b08565b905061077585858584610b5d565b95945050505050565b600061078985610b08565b90507fd01f9f1368f831528fc9fe6442366b2b7d957fbfff3bcf7c24d9ab5fe51f8c46858585856040516107c0949392919061182d565b60405180910390a160006107d386610b9c565b905060005b81518110156108845760008282815181106107f5576107f561168c565b602002602001015190508073ffffffffffffffffffffffffffffffffffffffff1663469b7ee2898989896040518563ffffffff1660e01b815260040161083e949392919061182d565b600060405180830381600087803b15801561085857600080fd5b505af115801561086c573d6000803e3d6000fd5b5050505050808061087c90611890565b9150506107d8565b5061088e82610c5b565b60ff168460ff1610156108ad576108a88686848787610c6c565b6108ba565b6108ba8686848787610d17565b60005b81518110156109695760008282815181106108da576108da61168c565b602002602001015190508073ffffffffffffffffffffffffffffffffffffffff16636b3d7d5f898989896040518563ffffffff1660e01b8152600401610923949392919061182d565b600060405180830381600087803b15801561093d57600080fd5b505af1158015610951573d6000803e3d6000fd5b5050505050808061096190611890565b9150506108bd565b50505050505050565b600061097d83610b08565b90507f2cc8610b80ef19409ae51ecbdd9c137960fb22ae9ef2d817d36ec1b685d68ecd83836040516109b0929190611861565b60405180910390a160006109c384610b9c565b905060005b8151811015610a705760008282815181106109e5576109e561168c565b602002602001015190508073ffffffffffffffffffffffffffffffffffffffff1663b51fef6c87876040518363ffffffff1660e01b8152600401610a2a929190611861565b600060405180830381600087803b158015610a4457600080fd5b505af1158015610a58573d6000803e3d6000fd5b50505050508080610a6890611890565b9150506109c8565b506000610a7d8585610d54565b9050610ad7816000610a8f8660f01c90565b67ffffffffffffffff811115610aa757610aa7611676565b6040519080825280601f01601f191660200182016040528015610ad1576020820181803683370190505b50610daa565b610ae083610dbf565b60ff16600003610af1575050505050565b6000610afd8686610dcb565b60008155905061019d565b6000610b1382610e02565b905080610b585781610b2483610ec7565b6040517fd623a70d0000000000000000000000000000000000000000000000000000000081526004016100e09291906118aa565b919050565b6060610b6882610c5b565b60ff168360ff161015610b8857610b8185858585610ef2565b9050610b94565b610b8185858585610f52565b949350505050565b60408051600180825281830190925260609160009190602080830190803683370190505090508281600081518110610bd657610bd661168c565b602090810291909101810191909152604080517f6d756473746f7265000000000000000000000000000000000000000000000000928101929092527f486f6f6b730000000000000000000000000000000000000000000000000000006030830152600091610c4491016102cf565b9050610b94610c568260008451610fab565b61103b565b6000601082901b5b60f81c92915050565b6000610c7b8460ff851661104c565b90508151610c998260c5811115610c9457610c946118c3565b611078565b14610cf057610cb38160c5811115610c9457610c946118c3565b82516040517f521b3d33000000000000000000000000000000000000000000000000000000008152600481019290925260248201526044016100e0565b6000610cfc8787610d54565b90506000610d0a8686611129565b9050610679828286610daa565b6000610d2284610c5b565b610d2c90846118d9565b9050610d3b868683855161117d565b6000610d488787846111af565b90506109698184611208565b60007f86425bff6b57326c7859e89024fe4f238ca327a1ae4a230180dd2f0e88aaa7d98383604051602001610d8b939291906118f2565b60408051601f1981840301815291905280516020909101209392505050565b60006020820190506104438484838551611214565b6000601882901b610c63565b60007f86425bff6b57326c7859e89024fe4f238ca327a1ae4a230180dd2f0e88aaa7d98383604051602001610d8b93929190611911565b604080516001808252818301909252600091829190602080830190803683370190505090508281600081518110610e3b57610e3b61168c565b602090810291909101810191909152604080517f6d756473746f7265000000000000000000000000000000000000000000000000818401527f736368656d61000000000000000000000000000000000000000000000000000060308201528151808203909301835281019052600090610ebd90610eb7906116a2565b83610d54565b9050610b94815490565b606081604051602001610edc91815260200190565b6040516020818303038152906040529050919050565b60606000610f038360ff861661104c565b90506000610f1c8260c5811115610c9457610c946118c3565b90506000610f2a8888610d54565b90506000610f388688611129565b9050610f458284836112d2565b9998505050505050505050565b60606000610f5f83610c5b565b610f6990856118d9565b90506000610f788787846111af565b90506000610f938360ff16610f8d8a8a61132a565b90611337565b9050610f9f8282611369565b98975050505050505050565b6000818311158015610fbe575083518211155b610ffa578383836040517f23230fa30000000000000000000000000000000000000000000000000000000081526004016100e093929190611971565b602084016110088482611996565b9050600061101685856119a9565b6fffffffffffffffffffffffffffffffff1660809290921b9190911795945050505050565b606060006105d68360146000611377565b60006110648361105d846004611996565b6008021b90565b60f81c60c58111156105d6576105d66118c3565b6000808260c581111561108d5761108d6118c3565b60ff16905060208110156110a6576105d6816001611996565b60408110156110c65760206110bc826001611996565b6105d691906119a9565b60608110156110dc5760406110bc826001611996565b60608360c58111156110f0576110f06118c3565b036110fe5750600192915050565b60618360c5811115611112576111126118c3565b036111205750601492915050565b50600092915050565b600080805b8360ff1681101561117557611157611146868361104c565b60c5811115610c9457610c946118c3565b6111619083611996565b91508061116d81611890565b91505061112e565b509392505050565b60006111898585610dcb565b90506000611195825490565b90506111a58160ff8616856114ba565b808355905061019d565b60007f86425bff6b57326c7859e89024fe4f238ca327a1ae4a230180dd2f0e88aaa7d98484846040516020016111e894939291906119bc565b60408051601f198184030181529190528051602090910120949350505050565b61069a82600083610daa565b60208304840193506020838161122c5761122c6119ef565b06925082156112855760208390036000600019600884021c1990506008850281811c91508451811c9050811987541682821617875550818311611270575050610443565b61127b600187611996565b9550509182019190035b602081106112ae578151845561129c600185611996565b935060209190910190601f1901611285565b8015610443576000600019600883021c198554845182169119161785555050505050565b60608267ffffffffffffffff8111156112ed576112ed611676565b6040519080825280601f01601f191660200182016040528015611317576020820181803683370190505b509050602081016111758585858461158b565b600080610ebd8484610dcb565b600080611345836005611a05565b611350906007611996565b905061135e84826008021b90565b60d81c949350505050565b60606105d6838360006112d2565b606060006113858560801c90565b90506fffffffffffffffffffffffffffffffff85166000846113bd576113ac866008611a05565b6113b8906101006119a9565b6113c0565b60005b905060008683816113d3576113d36119ef565b0490506113e08784611a1c565b1561146d576040517f08c379a000000000000000000000000000000000000000000000000000000000815260206004820152603d60248201527f756e7061636b546f41727261793a207061636b65644c656e677468206d75737460448201527f2062652061206d756c7469706c65206f6620656c656d656e7453697a6500000060648201526084016100e0565b602080820201604051955080860160405250808552600060208601855b838310156114ac578051851c825260019290920191602090910190890161148a565b505050505050509392505050565b600083816114c88260c81c90565b905060006114d9878760ff16611337565b90508085106114fd576114ec81866119a9565b6114f69083611996565b9150611514565b61150785826119a9565b61151190836119a9565b91505b6000611521876005611a05565b61152c906007611996565b905078ffffffffffffffffffffffffffffffffffffffffffffffffff841660c884901b1793507fffffffffff0000000000000000000000000000000000000000000000000000006008820290811c19851660d888901b90911c17610f9f565b6020820484019350602082816115a3576115a36119ef565b06915081156115f45760208290036000600019600883021c1990508554600885021b8119845116828216178452508185116115df575050610443565b6115ea600187611996565b9550509283900392015b6020831061161c578354815261160b600185611996565b9350601f19909201916020016115f4565b8215610443576000600019600885021c198251865482169119161782525050505050565b60006020828403121561165257600080fd5b813573ffffffffffffffffffffffffffffffffffffffff811681146105d657600080fd5b634e487b7160e01b600052604160045260246000fd5b634e487b7160e01b600052603260045260246000fd5b805160208083015191908110156116c3576000198160200360031b1b821691505b50919050565b600081518084526020808501945080840160005b838110156116f9578151875295820195908201906001016116dd565b509495945050505050565b83815260606020820152600061171d60608301856116c9565b905060ff83166040830152949350505050565b60005b8381101561174b578181015183820152602001611733565b50506000910152565b60006020828403121561176657600080fd5b815167ffffffffffffffff8082111561177e57600080fd5b818401915084601f83011261179257600080fd5b8151818111156117a4576117a4611676565b604051601f8201601f19908116603f011681019083821181831017156117cc576117cc611676565b816040528281528760208487010111156117e557600080fd5b6117f6836020830160208801611730565b979650505050505050565b60008151808452611819816020860160208601611730565b601f01601f19169290920160200192915050565b84815260806020820152600061184660808301866116c9565b60ff8516604084015282810360608401526117f68185611801565b828152604060208201526000610b9460408301846116c9565b634e487b7160e01b600052601160045260246000fd5b600060001982036118a3576118a361187a565b5060010190565b828152604060208201526000610b946040830184611801565b634e487b7160e01b600052602160045260246000fd5b60ff82811682821603908111156105e5576105e561187a565b83815282602082015260606040820152600061077560608301846116c9565b83815282602082015260806040820152600061193060808301846116c9565b8281036060840152600681527f6c656e6774680000000000000000000000000000000000000000000000000000602082015260408101915050949350505050565b6060815260006119846060830186611801565b60208301949094525060400152919050565b808201808211156105e5576105e561187a565b818103818111156105e5576105e561187a565b8481528360208201526080604082015260006119db60808301856116c9565b905060ff8316606083015295945050505050565b634e487b7160e01b600052601260045260246000fd5b80820281158282048414176105e5576105e561187a565b600082611a3957634e487b7160e01b600052601260045260246000fd5b50069056fea2646970667358221220d9136fba5641d7563cb82b496fd1e61430f64998ec5f8abf508f76173482ba7064736f6c63430008130033","linkReferences":{}},"methodIdentifiers":{"deleteSapphireStream(address)":"e9926139","setSapphireStream()":"d7ba1ce9"},"id":166}