{"abi":[{"type":"constructor","inputs":[{"name":"resolver","type":"address","internalType":"contract IResolver"}],"stateMutability":"nonpayable"},{"type":"function","name":"loadFramework","inputs":[{"name":"releaseVersion","type":"string","internalType":"string"}],"outputs":[{"name":"result","type":"tuple","internalType":"struct SuperfluidLoader.Framework","components":[{"name":"superfluid","type":"address","internalType":"contract ISuperfluid"},{"name":"superTokenFactory","type":"address","internalType":"contract ISuperTokenFactory"},{"name":"agreementCFAv1","type":"address","internalType":"contract ISuperAgreement"},{"name":"agreementIDAv1","type":"address","internalType":"contract ISuperAgreement"}]}],"stateMutability":"view"}],"bytecode":{"object":"0x60a060405234801561001057600080fd5b506040516105c03803806105c083398101604081905261002f91610040565b6001600160a01b0316608052610070565b60006020828403121561005257600080fd5b81516001600160a01b038116811461006957600080fd5b9392505050565b60805161053661008a600039600060c201526105366000f3fe608060405234801561001057600080fd5b506004361061002b5760003560e01c8063f490e2f014610030575b600080fd5b61004361003e3660046103a0565b61009c565b6040516100939190815173ffffffffffffffffffffffffffffffffffffffff9081168252602080840151821690830152604080840151821690830152606092830151169181019190915260800190565b60405180910390f35b6040805160808101825260008082526020820181905291810182905260608101919091527f000000000000000000000000000000000000000000000000000000000000000073ffffffffffffffffffffffffffffffffffffffff1663693ec85e848460405160200161010f929190610412565b6040516020818303038152906040526040518263ffffffff1660e01b815260040161013a919061044b565b602060405180830381865afa158015610157573d6000803e3d6000fd5b505050506040513d601f19601f8201168201806040525081019061017b91906104dc565b73ffffffffffffffffffffffffffffffffffffffff16808252604080517f731aed6e000000000000000000000000000000000000000000000000000000008152905163731aed6e916004808201926020929091908290030181865afa1580156101e8573d6000803e3d6000fd5b505050506040513d601f19601f8201168201806040525081019061020c91906104dc565b73ffffffffffffffffffffffffffffffffffffffff908116602083015281516040517fb6d200de0000000000000000000000000000000000000000000000000000000081527fa9214cc96615e0085d3bb077758db69497dc2dce3b2b1e97bc93c3d18d83efd3600482015291169063b6d200de90602401602060405180830381865afa1580156102a0573d6000803e3d6000fd5b505050506040513d601f19601f820116820180604052508101906102c491906104dc565b73ffffffffffffffffffffffffffffffffffffffff908116604083810191909152825190517fb6d200de0000000000000000000000000000000000000000000000000000000081527f8aedc3b5d4bf031e11a7e2940f7251c005698405d58e02e1c247fed3b1b3a674600482015291169063b6d200de90602401602060405180830381865afa15801561035b573d6000803e3d6000fd5b505050506040513d601f19601f8201168201806040525081019061037f91906104dc565b73ffffffffffffffffffffffffffffffffffffffff16606082015292915050565b600080602083850312156103b357600080fd5b823567ffffffffffffffff808211156103cb57600080fd5b818501915085601f8301126103df57600080fd5b8135818111156103ee57600080fd5b86602082850101111561040057600080fd5b60209290920196919550909350505050565b7f5375706572666c7569642e00000000000000000000000000000000000000000081528183600b83013760009101600b01908152919050565b600060208083528351808285015260005b818110156104785785810183015185820160400152820161045c565b5060006040828601015260407fffffffffffffffffffffffffffffffffffffffffffffffffffffffffffffffe0601f8301168501019250505092915050565b73ffffffffffffffffffffffffffffffffffffffff811681146104d957600080fd5b50565b6000602082840312156104ee57600080fd5b81516104f9816104b7565b939250505056fea26469706673582212203df02b02e90ee24caedd7266463ece955cb4920f7f395b54f955a8b501fc68fd64736f6c63430008130033","linkReferences":{}},"methodIdentifiers":{"loadFramework(string)":"f490e2f0"},"id":125}