{"abi":[{"type":"fallback","stateMutability":"payable"},{"type":"receive","stateMutability":"payable"},{"type":"function","name":"downgradeToETH","inputs":[{"name":"wad","type":"uint256","internalType":"uint256"}],"outputs":[],"stateMutability":"nonpayable"},{"type":"function","name":"initializeProxy","inputs":[{"name":"initialAddress","type":"address","internalType":"address"}],"outputs":[],"stateMutability":"nonpayable"},{"type":"function","name":"upgradeByETH","inputs":[],"outputs":[],"stateMutability":"payable"},{"type":"function","name":"upgradeByETHTo","inputs":[{"name":"to","type":"address","internalType":"address"}],"outputs":[],"stateMutability":"payable"},{"type":"event","name":"TokenDowngraded","inputs":[{"name":"account","type":"address","indexed":true,"internalType":"address"},{"name":"amount","type":"uint256","indexed":false,"internalType":"uint256"}],"anonymous":false},{"type":"event","name":"TokenUpgraded","inputs":[{"name":"account","type":"address","indexed":true,"internalType":"address"},{"name":"amount","type":"uint256","indexed":false,"internalType":"uint256"}],"anonymous":false}],"bytecode":{"object":"0x608060405234801561001057600080fd5b5061069c806100206000396000f3fe6080604052600436106100435760003560e01c8063160e8be3146101085780634a0687ef146101285780637687d19b14610148578063cf81464b1461015b576100fe565b366100fe57604080516000815260208101918290527fc68d428300000000000000000000000000000000000000000000000000000000909152309063c68d42839061009590339034906024810161057f565b600060405180830381600087803b1580156100af57600080fd5b505af11580156100c3573d6000803e3d6000fd5b50506040513481523392507f25ca84076773b0455db53621c459ddc84fe40840e4932a62706a032566f399df915060200160405180910390a2005b610106610163565b005b34801561011457600080fd5b50610106610123366004610610565b610175565b34801561013457600080fd5b50610106610143366004610629565b61025b565b610106610156366004610629565b6103af565b610106610476565b61017361016e61052c565b61055b565b565b604080516000815260208101918290527f9d876741000000000000000000000000000000000000000000000000000000009091523090639d876741906101c290339085906024810161057f565b600060405180830381600087803b1580156101dc57600080fd5b505af11580156101f0573d6000803e3d6000fd5b505060405133925083156108fc02915083906000818181858888f19350505050158015610221573d6000803e3d6000fd5b5060405181815233907f3bc27981aebbb57f9247dc00fde9d6cd91e4b230083fec3238fedbcba1f9ab3d906020015b60405180910390a250565b73ffffffffffffffffffffffffffffffffffffffff81166102dd576040517f08c379a000000000000000000000000000000000000000000000000000000000815260206004820152601760248201527f5555505350726f78793a207a65726f206164647265737300000000000000000060448201526064015b60405180910390fd5b60006103077f360894a13ba1a3210667c828492db98dca3e2076cc3735a920a3ca505d382bbc5490565b73ffffffffffffffffffffffffffffffffffffffff1614610384576040517f08c379a000000000000000000000000000000000000000000000000000000000815260206004820152601e60248201527f5555505350726f78793a20616c726561647920696e697469616c697a6564000060448201526064016102d4565b6103ac817f360894a13ba1a3210667c828492db98dca3e2076cc3735a920a3ca505d382bbc55565b50565b604080516000815260208101918290527fc68d428300000000000000000000000000000000000000000000000000000000909152309063c68d4283906103fc90849034906024810161057f565b600060405180830381600087803b15801561041657600080fd5b505af115801561042a573d6000803e3d6000fd5b505050508073ffffffffffffffffffffffffffffffffffffffff167f25ca84076773b0455db53621c459ddc84fe40840e4932a62706a032566f399df3460405161025091815260200190565b604080516000815260208101918290527fc68d428300000000000000000000000000000000000000000000000000000000909152309063c68d4283906104c390339034906024810161057f565b600060405180830381600087803b1580156104dd57600080fd5b505af11580156104f1573d6000803e3d6000fd5b50506040513481523392507f25ca84076773b0455db53621c459ddc84fe40840e4932a62706a032566f399df915060200160405180910390a2565b60006105567f360894a13ba1a3210667c828492db98dca3e2076cc3735a920a3ca505d382bbc5490565b905090565b3660008037600080366000845af43d6000803e80801561057a573d6000f35b3d6000fd5b73ffffffffffffffffffffffffffffffffffffffff8416815260006020848184015260606040840152835180606085015260005b818110156105cf578581018301518582016080015282016105b3565b5060006080828601015260807fffffffffffffffffffffffffffffffffffffffffffffffffffffffffffffffe0601f83011685010192505050949350505050565b60006020828403121561062257600080fd5b5035919050565b60006020828403121561063b57600080fd5b813573ffffffffffffffffffffffffffffffffffffffff8116811461065f57600080fd5b939250505056fea2646970667358221220a1687069996251ffc98dd243ce0cfb3edd71b46e80d69055dc33263285e9397d64736f6c63430008130033","linkReferences":{}},"methodIdentifiers":{"downgradeToETH(uint256)":"160e8be3","initializeProxy(address)":"4a0687ef","upgradeByETH()":"cf81464b","upgradeByETHTo(address)":"7687d19b"},"id":117}