{"abi":[{"type":"constructor","inputs":[],"stateMutability":"nonpayable"},{"type":"function","name":"DEFAULT_REWARD_ADDRESS","inputs":[],"outputs":[{"name":"","type":"address","internalType":"address"}],"stateMutability":"view"},{"type":"function","name":"getFramework","inputs":[],"outputs":[{"name":"sf","type":"tuple","internalType":"struct SuperfluidFrameworkDeployer.Framework","components":[{"name":"governance","type":"address","internalType":"contract TestGovernance"},{"name":"host","type":"address","internalType":"contract Superfluid"},{"name":"cfa","type":"address","internalType":"contract ConstantFlowAgreementV1"},{"name":"cfaLib","type":"tuple","internalType":"struct CFAv1Library.InitData","components":[{"name":"host","type":"address","internalType":"contract ISuperfluid"},{"name":"cfa","type":"address","internalType":"contract IConstantFlowAgreementV1"}]},{"name":"ida","type":"address","internalType":"contract InstantDistributionAgreementV1"},{"name":"idaLib","type":"tuple","internalType":"struct IDAv1Library.InitData","components":[{"name":"host","type":"address","internalType":"contract ISuperfluid"},{"name":"ida","type":"address","internalType":"contract IInstantDistributionAgreementV1"}]},{"name":"superTokenFactory","type":"address","internalType":"contract SuperTokenFactory"},{"name":"resolver","type":"address","internalType":"contract TestResolver"},{"name":"superfluidLoader","type":"address","internalType":"contract SuperfluidLoader"},{"name":"cfaV1Forwarder","type":"address","internalType":"contract CFAv1Forwarder"}]}],"stateMutability":"view"},{"type":"function","name":"transferOwnership","inputs":[{"name":"newOwner","type":"address","internalType":"address"}],"outputs":[],"stateMutability":"nonpayable"}],"bytecode":{"object":"0x60806040523480156200001157600080fd5b5073__$660aaf2f8ea65054399036be95f254154c$__63c3acf1b36040518163ffffffff1660e01b8152600401602060405180830381865af41580156200005c573d6000803e3d6000fd5b505050506040513d601f19601f8201168201806040525081019062000082919062000f67565b600080546001600160a01b0319166001600160a01b03929092169182179055604051633f5b172b60e11b8152600481019190915230602482015273__$660aaf2f8ea65054399036be95f254154c$__90637eb62e569060440160006040518083038186803b158015620000f457600080fd5b505af415801562000109573d6000803e3d6000fd5b5050604051638a25422160e01b8152600160048201526000602482015273__$cbf423ce196350a4a2325d1d8bd3910a47$__9250638a2542219150604401602060405180830381865af415801562000165573d6000803e3d6000fd5b505050506040513d601f19601f820116820180604052508101906200018b919062000f67565b600180546001600160a01b0319166001600160a01b0392831690811790915560005460405163189acdbd60e31b8152921660048301529063c4d66de890602401600060405180830381600087803b158015620001e657600080fd5b505af1158015620001fb573d6000803e3d6000fd5b50600092508291506200020b9050565b60405190808252806020026020018201604052801562000235578160200160208202803683370190505b50600054600154604051630b520f0360e31b81529293506001600160a01b0391821692635a907818926200027b9216906045906138409061070890889060040162000fd4565b600060405180830381600087803b1580156200029657600080fd5b505af1158015620002ab573d6000803e3d6000fd5b5050600154604051637b38e54160e01b81526001600160a01b0390911660048201526000602482015273__$598b2a9e15c725938b271ee3af6cef2ec2$__9250637b38e5419150604401602060405180830381865af415801562000313573d6000803e3d6000fd5b505050506040513d601f19601f8201168201806040525081019062000339919062000f67565b600280546001600160a01b0319166001600160a01b0392831690811790915560005460015460405163cadf8f8560e01b8152908416600482015260248101929092529091169063cadf8f8590604401600060405180830381600087803b158015620003a357600080fd5b505af1158015620003b8573d6000803e3d6000fd5b50506001546040516001600160a01b039091169250620003d9915062000f08565b6001600160a01b039091168152602001604051809103906000f08015801562000406573d6000803e3d6000fd5b50600780546001600160a01b0319166001600160a01b03928316908117909155600080546001546040516355c2378d60e11b815290851660048201526024810192909252604482019290925291169063ab846f1a90606401600060405180830381600087803b1580156200047957600080fd5b505af11580156200048e573d6000803e3d6000fd5b5050600154604051630cce0ce360e31b81526001600160a01b03909116600482015273__$aca72bf8a5e84d49da2a1f1b430daa1df3$__925063667067189150602401602060405180830381865af4158015620004ef573d6000803e3d6000fd5b505050506040513d601f19601f8201168201806040525081019062000515919062000f67565b600380546001600160a01b0319166001600160a01b0392831690811790915560005460015460405163cadf8f8560e01b8152908416600482015260248101929092529091169063cadf8f8590604401600060405180830381600087803b1580156200057f57600080fd5b505af115801562000594573d6000803e3d6000fd5b505050506000604051620005a89062000f16565b604051809103906000f080158015620005c5573d6000803e3d6000fd5b5090506000604051620005d89062000f16565b604051809103906000f080158015620005f5573d6000803e3d6000fd5b506001546040519192506000916001600160a01b039091169083906200061b9062000f24565b6001600160a01b03928316815291166020820152606060408201819052600090820152608001604051809103906000f0801580156200065e573d6000803e3d6000fd5b509050806001600160a01b0316639903ad386040518163ffffffff1660e01b8152600401600060405180830381600087803b1580156200069d57600080fd5b505af1158015620006b2573d6000803e3d6000fd5b5050600154604051600093506001600160a01b0390911691508590620006d89062000f32565b6001600160a01b03928316815291166020820152606060408201819052600090820152608001604051809103906000f0801580156200071b573d6000803e3d6000fd5b509050806001600160a01b0316639903ad386040518163ffffffff1660e01b8152600401600060405180830381600087803b1580156200075a57600080fd5b505af11580156200076f573d6000803e3d6000fd5b5050604051634a0687ef60e01b81526001600160a01b03858116600483015287169250634a0687ef9150602401600060405180830381600087803b158015620007b757600080fd5b505af1158015620007cc573d6000803e3d6000fd5b5050604051634a0687ef60e01b81526001600160a01b03848116600483015286169250634a0687ef9150602401600060405180830381600087803b1580156200081457600080fd5b505af115801562000829573d6000803e3d6000fd5b50506040805163266c45bb60e11b81526004810191909152601460448201527f436f6e7374616e74204f7574666c6f77204e4654000000000000000000000000606482015260806024820152600360848201526221a7a360e91b60a48201526001600160a01b0387169250634cd88b76915060c401600060405180830381600087803b158015620008b957600080fd5b505af1158015620008ce573d6000803e3d6000fd5b50506040805163266c45bb60e11b81526004810191909152601360448201527f436f6e7374616e7420496e666c6f77204e465400000000000000000000000000606482015260806024820152600360848201526221a4a360e91b60a48201526001600160a01b0386169250634cd88b76915060c401600060405180830381600087803b1580156200095e57600080fd5b505af115801562000973573d6000803e3d6000fd5b5050600154604051630e07777960e31b81526001600160a01b039182166004820152878216602482015290861660448201526000925073__$57496c8a616b40be72793aece1f7116f6d$__915063703bbbc890606401602060405180830381865af4158015620009e7573d6000803e3d6000fd5b505050506040513d601f19601f8201168201806040525081019062000a0d919062000f67565b600154604051630243059d60e01b81526001600160a01b03918216600482015281831660248201528582166044820152908416606482015290915060009073__$5666eb9154dcc791d8d799a35829e46ed7$__90630243059d90608401602060405180830381865af415801562000a88573d6000803e3d6000fd5b505050506040513d601f19601f8201168201806040525081019062000aae919062000f67565b9050600060405162000ac09062000f16565b604051809103906000f08015801562000add573d6000803e3d6000fd5b50604051634a0687ef60e01b81526001600160a01b03848116600483015291925090821690634a0687ef90602401600060405180830381600087803b15801562000b2657600080fd5b505af115801562000b3b573d6000803e3d6000fd5b5050600480546001600160a01b0319166001600160a01b038581169182179092556000805460015460408051848152602081019182905263109e50a960e21b909152918516965063427942a4955062000b9a941692602482016200101b565b600060405180830381600087803b15801562000bb557600080fd5b505af115801562000bca573d6000803e3d6000fd5b5050604051632f0f279d60e01b815233600482015273__$5666eb9154dcc791d8d799a35829e46ed7$__9250632f0f279d9150602401602060405180830381865af415801562000c1e573d6000803e3d6000fd5b505050506040513d601f19601f8201168201806040525081019062000c44919062000f67565b600580546001600160a01b0319166001600160a01b0392909216918217905560405162000c719062000f40565b6001600160a01b039091168152602001604051809103906000f08015801562000c9e573d6000803e3d6000fd5b50600680546001600160a01b0319166001600160a01b039283161790556005546000546040805163a815ff1560e01b81526004810191909152601360448201527f54657374476f7665726e616e63652e74657374000000000000000000000000006064820152908316602482015291169063a815ff1590608401600060405180830381600087803b15801562000d3357600080fd5b505af115801562000d48573d6000803e3d6000fd5b50506005546001546040805163a815ff1560e01b81526004810191909152600f60448201526e14dd5c195c999b1d5a590b9d195cdd608a1b60648201526001600160a01b0391821660248201529116925063a815ff159150608401600060405180830381600087803b15801562000dbe57600080fd5b505af115801562000dd3573d6000803e3d6000fd5b50506005546006546040805163a815ff1560e01b81526004810191909152601360448201527f5375706572666c7569644c6f616465722d76310000000000000000000000000060648201526001600160a01b0391821660248201529116925063a815ff159150608401600060405180830381600087803b15801562000e5757600080fd5b505af115801562000e6c573d6000803e3d6000fd5b50506005546007546040805163a815ff1560e01b81526004810191909152600e60448201526d21a320bb18a337b93bb0b93232b960911b60648201526001600160a01b0391821660248201529116925063a815ff159150608401600060405180830381600087803b15801562000ee157600080fd5b505af115801562000ef6573d6000803e3d6000fd5b5050505050505050505050506200105b565b6119ef806200149d83390190565b6102a58062002e8c83390190565b612d3a806200313183390190565b6127d98062005e6b83390190565b6105c0806200864483390190565b6001600160a01b038116811462000f6457600080fd5b50565b60006020828403121562000f7a57600080fd5b815162000f878162000f4e565b9392505050565b600081518084526020808501945080840160005b8381101562000fc95781516001600160a01b03168752958201959082019060010162000fa2565b509495945050505050565b6001600160a01b03868116825285166020820152604081018490526060810183905260a060808201819052600090620010109083018462000f8e565b979650505050505050565b600060018060a01b03808716835280861660208401526080604084015262001047608084018662000f8e565b915080841660608401525095945050505050565b610432806200106b6000396000f3fe608060405234801561001057600080fd5b50600436106100415760003560e01c806393786bf014610046578063dfa98ad514610078578063f2fde38b146101a0575b600080fd5b61004e604581565b60405173ffffffffffffffffffffffffffffffffffffffff90911681526020015b60405180910390f35b610193604080516101408101825260008082526020808301829052828401829052835180850185528281528082018390526060840152608083018290528351808501909452818452830181905260a082019290925260c0810182905260e08101829052610100810182905261012081019190915250604080516101408101825260005473ffffffffffffffffffffffffffffffffffffffff908116825260015481166020808401829052600254831684860181905285518087018752838152808301919091526060850152600354831660808501819052855180870190965291855284015260a0820192909252600454821660c0820152600554821660e0820152600654821661010082015260075490911661012082015290565b60405161006f919061023d565b6101b36101ae3660046103bf565b6101b5565b005b6000546040517ff2fde38b00000000000000000000000000000000000000000000000000000000815273ffffffffffffffffffffffffffffffffffffffff83811660048301529091169063f2fde38b90602401600060405180830381600087803b15801561022257600080fd5b505af1158015610236573d6000803e3d6000fd5b5050505050565b815173ffffffffffffffffffffffffffffffffffffffff16815261018081016020830151610283602084018273ffffffffffffffffffffffffffffffffffffffff169052565b5060408301516102ab604084018273ffffffffffffffffffffffffffffffffffffffff169052565b5060608301516102e16060840182805173ffffffffffffffffffffffffffffffffffffffff908116835260209182015116910152565b50608083015173ffffffffffffffffffffffffffffffffffffffff811660a08401525060a0830151805173ffffffffffffffffffffffffffffffffffffffff90811660c085015260208201511660e08401525060c083015161010061035d8185018373ffffffffffffffffffffffffffffffffffffffff169052565b60e085015191506101206103888186018473ffffffffffffffffffffffffffffffffffffffff169052565b9085015173ffffffffffffffffffffffffffffffffffffffff90811661014086015294015190931661016090920191909152919050565b6000602082840312156103d157600080fd5b813573ffffffffffffffffffffffffffffffffffffffff811681146103f557600080fd5b939250505056fea2646970667358221220d6502bdf49299ff3880479ddc6b8c9502781905fd619087e71eb6d15a284b6cc64736f6c6343000813003360c06040523480156200001157600080fd5b50604051620019ef380380620019ef8339810160408190526200003491620000ef565b6001600160a01b0381166080819052604051635b69006f60e11b81527fa9214cc96615e0085d3bb077758db69497dc2dce3b2b1e97bc93c3d18d83efd3600482015263b6d200de90602401602060405180830381865afa1580156200009d573d6000803e3d6000fd5b505050506040513d601f19601f82011682018060405250810190620000c39190620000ef565b6001600160a01b031660a0525062000116565b6001600160a01b0381168114620000ec57600080fd5b50565b6000602082840312156200010257600080fd5b81516200010f81620000d6565b9392505050565b60805160a05161183c620001b3600039600081816102b3015281816103980152818161045e0152818161051a015281816105d8015281816106b9015281816107a0015281816108320152818161087601528181610932015281816109e501528181610a6301528181610bef01528181610c8901528181610d0d01528181610d500152610d8a015260008181610e720152610ef9015261183c6000f3fe608060405234801561001057600080fd5b50600436106100ea5760003560e01c8063308855911161008c5780637243fb93116100665780637243fb9314610222578063b4b333c614610235578063c5ad5c1a14610248578063e15536b61461025b57600080fd5b806330885591146101cd5780634d3f60f9146101e057806357e6aa361461020f57600080fd5b80630f1ac495116100c85780630f1ac4951461014b5780631d8b65261461018157806322c904d9146101a75780632860fd93146101ba57600080fd5b806309f0b495146100ef5780630bd0728d146101155780630c03399114610138575b600080fd5b6101026100fd36600461114d565b61026e565b6040519081526020015b60405180910390f35b610128610123366004611186565b610327565b604051901515815260200161010c565b610128610146366004611270565b610336565b61015e610159366004611186565b61034f565b60408051948552600b9390930b602085015291830152606082015260800161010c565b61019461018f3660046112f8565b610413565b604051600b9190910b815260200161010c565b6101946101b5366004611186565b6104d7565b61015e6101c83660046112f8565b610587565b6101286101db366004611352565b610654565b6101f36101ee3660046112f8565b61066d565b6040805160ff9093168352600b9190910b60208301520161010c565b61012861021d3660046113ae565b610730565b610128610230366004611186565b61073e565b6101286102433660046113ee565b610759565b610128610256366004611463565b610767565b610128610269366004611270565b610775565b6040517f8d997f6e0000000000000000000000000000000000000000000000000000000081526001600160a01b038381166004830152600b83900b60248301526000917f000000000000000000000000000000000000000000000000000000000000000090911690638d997f6e90604401602060405180830381865afa1580156102fc573d6000803e3d6000fd5b505050506040513d601f19601f8201168201806040525081019061032091906114a4565b9392505050565b60006103208383600080610784565b60006103458686868686610859565b9695505050505050565b6040517f0f1ac4950000000000000000000000000000000000000000000000000000000081526001600160a01b03838116600483015282811660248301526000918291829182917f00000000000000000000000000000000000000000000000000000000000000001690630f1ac49590604401608060405180830381865afa1580156103df573d6000803e3d6000fd5b505050506040513d601f19601f8201168201806040525081019061040391906114bd565b9299919850965090945092505050565b6040517fe6a1e8880000000000000000000000000000000000000000000000000000000081526001600160a01b038481166004830152838116602483015282811660448301526000917f00000000000000000000000000000000000000000000000000000000000000009091169063e6a1e88890606401608060405180830381865afa1580156104a7573d6000803e3d6000fd5b505050506040513d601f19601f820116820180604052508101906104cb91906114bd565b50909695505050505050565b6040517fe8e7e2d10000000000000000000000000000000000000000000000000000000081526001600160a01b03838116600483015282811660248301526000917f00000000000000000000000000000000000000000000000000000000000000009091169063e8e7e2d190604401602060405180830381865afa158015610563573d6000803e3d6000fd5b505050506040513d601f19601f8201168201806040525081019061032091906114fb565b6040517fe6a1e8880000000000000000000000000000000000000000000000000000000081526001600160a01b038481166004830152838116602483015282811660448301526000918291829182917f0000000000000000000000000000000000000000000000000000000000000000169063e6a1e88890606401608060405180830381865afa15801561061f573d6000803e3d6000fd5b505050506040513d601f19601f8201168201806040525081019061064391906114bd565b929a91995097509095509350505050565b600061066285858585610784565b90505b949350505050565b6040517e422bbe0000000000000000000000000000000000000000000000000000000081526001600160a01b0384811660048301528381166024830152828116604483015260009182917f0000000000000000000000000000000000000000000000000000000000000000169062422bbe90606401606060405180830381865afa1580156106ff573d6000803e3d6000fd5b505050506040513d601f19601f820116820180604052508101906107239190611518565b9097909650945050505050565b600061066584338585610a16565b6000610320838360076b7fffffffffffffffffffffff610784565b600061066285858585610bb0565b600061066285858585610a16565b60006103458686868686610d33565b6040805160008082526020820190925281906001600160a01b037f0000000000000000000000000000000000000000000000000000000000000000169063811b3d40906107dc908990899089908990604481016115a0565b60408051601f19818403018152918152602080830180517bffffffffffffffffffffffffffffffffffffffffffffffffffffffff1660e09590951b949094179093528051600081529283019052925061034591507f0000000000000000000000000000000000000000000000000000000000000000908390610db9565b6000806001600160a01b0386163314610928576001600160a01b037f00000000000000000000000000000000000000000000000000000000000000001663354b95908888888860005b6040519080825280601f01601f1916602001820160405280156108cc576020820181803683370190505b506040516024016108e19594939291906115de565b604051602081830303815290604052915060e01b6020820180517bffffffffffffffffffffffffffffffffffffffffffffffffffffffff83818316178352505050506109de565b6001600160a01b037f0000000000000000000000000000000000000000000000000000000000000000166350209a6288878760005b6040519080825280601f01601f191660200182016040528015610987576020820181803683370190505b5060405160240161099b949392919061161b565b604051602081830303815290604052915060e01b6020820180517bffffffffffffffffffffffffffffffffffffffffffffffffffffffff83818316178352505050505b9050610a0b7f00000000000000000000000000000000000000000000000000000000000000008285610db9565b979650505050505050565b6040517fe6a1e8880000000000000000000000000000000000000000000000000000000081526001600160a01b0385811660048301528481166024830152838116604483015260009182917f0000000000000000000000000000000000000000000000000000000000000000169063e6a1e88890606401608060405180830381865afa158015610aaa573d6000803e3d6000fd5b505050506040513d601f19601f82011682018060405250810190610ace91906114bd565b5050915050600083600b0b1315610b495780600b0b600003610b1257604080516000815260208101909152610b0a908790879087908790610d33565b915050610665565b82600b0b81600b0b14610b3f57604080516000815260208101909152610b0a908790879087908790610859565b6001915050610665565b82600b0b600003610b7e57600081600b0b1315610b3f57604080516000815260208101909152610b0a90879087908790610bb0565b6040517fcea9aa5f00000000000000000000000000000000000000000000000000000000815260040160405180910390fd5b6000806001600160a01b038516331480610bd257506001600160a01b03841633145b610c70576040805160008152602081019091526001600160a01b037f00000000000000000000000000000000000000000000000000000000000000001690634c8b181f90610c299089908990899060448101611650565b604051602081830303815290604052915060e01b6020820180517bffffffffffffffffffffffffffffffffffffffffffffffffffffffff8381831617835250505050610d06565b6040805160008152602081019091526001600160a01b037f0000000000000000000000000000000000000000000000000000000000000000169063b4b333c690610cc39089908990899060448101611650565b604051602081830303815290604052915060e01b6020820180517bffffffffffffffffffffffffffffffffffffffffffffffffffffffff83818316178352505050505b90506103457f00000000000000000000000000000000000000000000000000000000000000008285610db9565b6000806001600160a01b0386163314610d80576001600160a01b037f0000000000000000000000000000000000000000000000000000000000000000166394229ecb8888888860006108a2565b6001600160a01b037f0000000000000000000000000000000000000000000000000000000000000000166362fc305e888787600061095d565b604080516001808252818301909252600091829190816020015b60408051606080820183526000808352602083015291810191909152815260200190600190039081610dd3579050509050604051806060016040528060c963ffffffff168152602001866001600160a01b031681526020018585604051602001610e3e929190611684565b60405160208183030381529060405281525081600081518110610e6357610e636116b2565b602002602001018190525060007f00000000000000000000000000000000000000000000000000000000000000006001600160a01b031663670e77e383604051602401610eb091906116e1565b604051602081830303815290604052915060e01b6020820180517bffffffffffffffffffffffffffffffffffffffffffffffffffffffff838183161783525050505090506000807f00000000000000000000000000000000000000000000000000000000000000006001600160a01b03168333604051602001610f3492919061178d565b60408051601f1981840301815290829052610f4e916117d7565b6000604051808303816000865af19150503d8060008114610f8b576040519150601f19603f3d011682016040523d82523d6000602084013e610f90565b606091505b509150915081610fa357610fa381610fb1565b506001979650505050505050565b600481511015611022576040517f08c379a000000000000000000000000000000000000000000000000000000000815260206004820152601a60248201527f43616c6c5574696c733a2074617267657420726576657274282900000000000060448201526064015b60405180910390fd5b60208101517fb1b7848f000000000000000000000000000000000000000000000000000000007fffffffff0000000000000000000000000000000000000000000000000000000082160161111d5760408051808201825260208082527f43616c6c5574696c733a207461726765742070616e69636b65643a2030785f5f90820190815260248501517f43616c6c5574696c733a207461726765742070616e69636b65643a2030780000600482811c600f908116603090810160081b91851601179190911790925292517f08c379a0000000000000000000000000000000000000000000000000000000008152919291611019918491016117f3565b81518060208401fd5b50565b6001600160a01b038116811461112657600080fd5b80600b0b811461112657600080fd5b6000806040838503121561116057600080fd5b823561116b81611129565b9150602083013561117b8161113e565b809150509250929050565b6000806040838503121561119957600080fd5b82356111a481611129565b9150602083013561117b81611129565b7f4e487b7100000000000000000000000000000000000000000000000000000000600052604160045260246000fd5b600082601f8301126111f457600080fd5b813567ffffffffffffffff8082111561120f5761120f6111b4565b604051601f8301601f19908116603f01168101908282118183101715611237576112376111b4565b8160405283815286602085880101111561125057600080fd5b836020870160208301376000602085830101528094505050505092915050565b600080600080600060a0868803121561128857600080fd5b853561129381611129565b945060208601356112a381611129565b935060408601356112b381611129565b925060608601356112c38161113e565b9150608086013567ffffffffffffffff8111156112df57600080fd5b6112eb888289016111e3565b9150509295509295909350565b60008060006060848603121561130d57600080fd5b833561131881611129565b9250602084013561132881611129565b9150604084013561133881611129565b809150509250925092565b60ff8116811461112657600080fd5b6000806000806080858703121561136857600080fd5b843561137381611129565b9350602085013561138381611129565b9250604085013561139381611343565b915060608501356113a38161113e565b939692955090935050565b6000806000606084860312156113c357600080fd5b83356113ce81611129565b925060208401356113de81611129565b915060408401356113388161113e565b6000806000806080858703121561140457600080fd5b843561140f81611129565b9350602085013561141f81611129565b9250604085013561142f81611129565b9150606085013567ffffffffffffffff81111561144b57600080fd5b611457878288016111e3565b91505092959194509250565b6000806000806080858703121561147957600080fd5b843561148481611129565b9350602085013561149481611129565b9250604085013561139381611129565b6000602082840312156114b657600080fd5b5051919050565b600080600080608085870312156114d357600080fd5b8451935060208501516114e58161113e565b6040860151606090960151949790965092505050565b60006020828403121561150d57600080fd5b81516103208161113e565b60008060006060848603121561152d57600080fd5b83519250602084015161153f81611343565b60408501519092506113388161113e565b60005b8381101561156b578181015183820152602001611553565b50506000910152565b6000815180845261158c816020860160208601611550565b601f01601f19169290920160200192915050565b60006001600160a01b03808816835280871660208401525060ff8516604083015283600b0b606083015260a06080830152610a0b60a0830184611574565b60006001600160a01b038088168352808716602084015280861660408401525083600b0b606083015260a06080830152610a0b60a0830184611574565b60006001600160a01b03808716835280861660208401525083600b0b6040830152608060608301526103456080830184611574565b60006001600160a01b0380871683528086166020840152808516604084015250608060608301526103456080830184611574565b6040815260006116976040830185611574565b82810360208401526116a98185611574565b95945050505050565b7f4e487b7100000000000000000000000000000000000000000000000000000000600052603260045260246000fd5b60006020808301818452808551808352604092508286019150828160051b87010184880160005b8381101561177f578883037fffffffffffffffffffffffffffffffffffffffffffffffffffffffffffffffc00185528151805163ffffffff168452878101516001600160a01b031688850152860151606087850181905261176b81860183611574565b968901969450505090860190600101611708565b509098975050505050505050565b6000835161179f818460208801611550565b60609390931b7fffffffffffffffffffffffffffffffffffffffff000000000000000000000000169190920190815260140192915050565b600082516117e9818460208701611550565b9190910192915050565b602081526000610320602083018461157456fea2646970667358221220f23f18e519123b35dd5bf151c8e859be1f1b174c6d55f19a324353746414687f64736f6c63430008130033608060405234801561001057600080fd5b50610285806100206000396000f3fe6080604052600436106100225760003560e01c80634a0687ef1461003957610031565b366100315761002f610059565b005b61002f610059565b34801561004557600080fd5b5061002f610054366004610212565b61006b565b6100696100646101bf565b6101ee565b565b73ffffffffffffffffffffffffffffffffffffffff81166100ed576040517f08c379a000000000000000000000000000000000000000000000000000000000815260206004820152601760248201527f5555505350726f78793a207a65726f206164647265737300000000000000000060448201526064015b60405180910390fd5b60006101177f360894a13ba1a3210667c828492db98dca3e2076cc3735a920a3ca505d382bbc5490565b73ffffffffffffffffffffffffffffffffffffffff1614610194576040517f08c379a000000000000000000000000000000000000000000000000000000000815260206004820152601e60248201527f5555505350726f78793a20616c726561647920696e697469616c697a6564000060448201526064016100e4565b6101bc817f360894a13ba1a3210667c828492db98dca3e2076cc3735a920a3ca505d382bbc55565b50565b60006101e97f360894a13ba1a3210667c828492db98dca3e2076cc3735a920a3ca505d382bbc5490565b905090565b3660008037600080366000845af43d6000803e80801561020d573d6000f35b3d6000fd5b60006020828403121561022457600080fd5b813573ffffffffffffffffffffffffffffffffffffffff8116811461024857600080fd5b939250505056fea2646970667358221220b1f2ca985180c629edb9bce81d6b02d8a4835f0279987bb5101c9c28acf2598664736f6c6343000813003360e06040523480156200001157600080fd5b5060405162002d3a38038062002d3a833981016040819052620000349162000127565b6001600160a01b03831660a0819052604051635b69006f60e11b81527fa9214cc96615e0085d3bb077758db69497dc2dce3b2b1e97bc93c3d18d83efd360048201528491839163b6d200de90602401602060405180830381865afa158015620000a1573d6000803e3d6000fd5b505050506040513d601f19601f82011682018060405250810190620000c7919062000227565b6001600160a01b03166080526003620000e18282620002dd565b505050506001600160a01b031660c05250620003a9565b6001600160a01b03811681146200010e57600080fd5b50565b634e487b7160e01b600052604160045260246000fd5b6000806000606084860312156200013d57600080fd5b83516200014a81620000f8565b809350506020808501516200015f81620000f8565b60408601519093506001600160401b03808211156200017d57600080fd5b818701915087601f8301126200019257600080fd5b815181811115620001a757620001a762000111565b604051601f8201601f19908116603f01168101908382118183101715620001d257620001d262000111565b816040528281528a86848701011115620001eb57600080fd5b600093505b828410156200020f5784840186015181850187015292850192620001f0565b60008684830101528096505050505050509250925092565b6000602082840312156200023a57600080fd5b81516200024781620000f8565b9392505050565b600181811c908216806200026357607f821691505b6020821081036200028457634e487b7160e01b600052602260045260246000fd5b50919050565b601f821115620002d857600081815260208120601f850160051c81016020861015620002b35750805b601f850160051c820191505b81811015620002d457828155600101620002bf565b5050505b505050565b81516001600160401b03811115620002f957620002f962000111565b62000311816200030a84546200024e565b846200028a565b602080601f831160018114620003495760008415620003305750858301515b600019600386901b1c1916600185901b178555620002d4565b600085815260208120601f198616915b828110156200037a5788860151825594840194600190910190840162000359565b5085821015620003995787850151600019600388901b60f8161c191681555b5050505050600190811b01905550565b60805160a05160c05161292962000411600039600081816102da01528181610d7e01528181610edc01526110570152600081816102b3015261081401526000818161024001528181610c8d01528181610df401528181610f54015261161901526129296000f3fe608060405234801561001057600080fd5b50600436106101b95760003560e01c806352d1902d116100f9578063a22cb46511610097578063e985e9c511610071578063e985e9c5146104b0578063eb54a7ca146104ec578063ef1f0237146104ff578063f7e3d9831461051257600080fd5b8063a22cb46514610477578063b88d4fde1461048a578063c87b56dd1461049d57600080fd5b806389f71d2d116100d357806389f71d2d1461036e5780638d47859e1461038157806395d89b41146104675780639903ad381461046f57600080fd5b806352d1902d146103175780636352211e1461034757806370a082311461035a57600080fd5b80632f3885601161016657806349f289dc1161014057806349f289dc146102ae5780634c5c0c85146102d55780634cd88b76146102fc57806350d75d251461030f57600080fd5b80632f3885601461027557806342842e0e14610288578063469519541461029b57600080fd5b8063095ea7b311610197578063095ea7b314610226578063181561011461023b57806323b872dd1461026257600080fd5b806301ffc9a7146101be57806306fdde03146101e6578063081812fc146101fb575b600080fd5b6101d16101cc366004611fc9565b610525565b60405190151581526020015b60405180910390f35b6101ee61060a565b6040516101dd919061202f565b61020e610209366004612062565b61069c565b6040516001600160a01b0390911681526020016101dd565b610239610234366004612090565b6106c3565b005b61020e7f000000000000000000000000000000000000000000000000000000000000000081565b6102396102703660046120bc565b61079e565b610239610283366004612062565b6107e9565b6102396102963660046120bc565b6107f5565b6102396102a93660046120fd565b610810565b61020e7f000000000000000000000000000000000000000000000000000000000000000081565b61020e7f000000000000000000000000000000000000000000000000000000000000000081565b61023961030a3660046121e7565b6108e5565b61020e610a1d565b7f87e44dce6a0d65a5ccf441783661f5727c2624b1f0088bbe957ce2c95406b7845b6040519081526020016101dd565b61020e610355366004612062565b610a4c565b6103396103683660046120fd565b50600190565b61033961037c36600461224b565b610a9e565b61042161038f366004612062565b60408051608081018252600080825260208201819052918101829052606081019190915250600090815260166020908152604091829020825160808101845281546001600160a01b03908116825260018301548116938201939093526002909101549182169281019290925274010000000000000000000000000000000000000000900463ffffffff16606082015290565b6040805182516001600160a01b03908116825260208085015182169083015283830151169181019190915260609182015163ffffffff16918101919091526080016101dd565b6101ee610af1565b610239610b00565b610239610485366004612296565b610c18565b6102396104983660046122d4565b610c23565b6101ee6104ab366004612062565b610c75565b6101d16104be366004612354565b6001600160a01b03918216600090815260056020908152604080832093909416825291909152205460ff1690565b6102396104fa36600461224b565b610c82565b61023961050d36600461224b565b610de9565b61023961052036600461224b565b610f49565b60007f01ffc9a7000000000000000000000000000000000000000000000000000000007fffffffff00000000000000000000000000000000000000000000000000000000831614806105b857507f80ac58cd000000000000000000000000000000000000000000000000000000007fffffffff000000000000000000000000000000000000000000000000000000008316145b8061060457507f5b5e139f000000000000000000000000000000000000000000000000000000007fffffffff000000000000000000000000000000000000000000000000000000008316145b92915050565b60606001805461061990612382565b80601f016020809104026020016040519081016040528092919081815260200182805461064590612382565b80156106925780601f1061066757610100808354040283529160200191610692565b820191906000526020600020905b81548152906001019060200180831161067557829003601f168201915b5050505050905090565b60006106a782611086565b506000908152600460205260409020546001600160a01b031690565b60006106ce82610a4c565b9050806001600160a01b0316836001600160a01b03160361071b576040517fe4790b2500000000000000000000000000000000000000000000000000000000815260040160405180910390fd5b336001600160a01b0382161480159061075857506001600160a01b038116600090815260056020908152604080832033845290915290205460ff16155b1561078f576040517fa335258200000000000000000000000000000000000000000000000000000000815260040160405180910390fd5b61079983836110d7565b505050565b6107a83382611159565b6107de576040517f2551d60600000000000000000000000000000000000000000000000000000000815260040160405180910390fd5b6107998383836111d7565b6107f281611209565b50565b61079983838360405180602001604052806000815250610c23565b60007f00000000000000000000000000000000000000000000000000000000000000006001600160a01b031663731aed6e6040518163ffffffff1660e01b8152600401602060405180830381865afa158015610870573d6000803e3d6000fd5b505050506040513d601f19601f8201168201806040525081019061089491906123bc565b9050336001600160a01b038216146108d8576040517febb7505b00000000000000000000000000000000000000000000000000000000815260040160405180910390fd5b6108e182611239565b5050565b600054610100900460ff16158080156109055750600054600160ff909116105b8061091f5750303b15801561091f575060005460ff166001145b6109965760405162461bcd60e51b815260206004820152602e60248201527f496e697469616c697a61626c653a20636f6e747261637420697320616c72656160448201527f647920696e697469616c697a656400000000000000000000000000000000000060648201526084015b60405180910390fd5b6000805460ff1916600117905580156109b9576000805461ff0019166101001790555b60016109c58482612427565b5060026109d28382612427565b508015610799576000805461ff0019169055604051600181527f7f26b83ff96e1f2b6a682f133852f6798a09c465da95921460cefb38474024989060200160405180910390a1505050565b6000610a477f360894a13ba1a3210667c828492db98dca3e2076cc3735a920a3ca505d382bbc5490565b905090565b6000818152601660205260408120600101546001600160a01b031680610604576040517feab95e3b00000000000000000000000000000000000000000000000000000000815260040160405180910390fd5b60408051466020808301919091526001600160a01b0380871683850152808616606084015284166080808401919091528351808403909101815260a090920190925280519101206000905b949350505050565b60606002805461061990612382565b600054610100900460ff1615808015610b205750600054600160ff909116105b80610b3a5750303b158015610b3a575060005460ff166001145b610bac5760405162461bcd60e51b815260206004820152602e60248201527f496e697469616c697a61626c653a20636f6e747261637420697320616c72656160448201527f647920696e697469616c697a6564000000000000000000000000000000000000606482015260840161098d565b6000805460ff191660011790558015610bcf576000805461ff0019166101001790555b80156107f2576000805461ff0019169055604051600181527f7f26b83ff96e1f2b6a682f133852f6798a09c465da95921460cefb3847402498906020015b60405180910390a150565b6108e133838361148d565b610c2d3383611159565b610c63576040517f2551d60600000000000000000000000000000000000000000000000000000000815260040160405180910390fd5b610c6f84848484611545565b50505050565b6060610604826000611550565b336001600160a01b037f00000000000000000000000000000000000000000000000000000000000000001614610ce4576040517fd367b64f00000000000000000000000000000000000000000000000000000000815260040160405180910390fd5b60408051466020808301919091526001600160a01b038681168385015285811660608401528481166080808501919091528451808503909101815260a0909301845282519282019290922060008181526016909252929020600101541615610c6f57610d4f81611209565b6040517f2f388560000000000000000000000000000000000000000000000000000000008152600481018290527f00000000000000000000000000000000000000000000000000000000000000006001600160a01b031690632f388560906024015b600060405180830381600087803b158015610dcb57600080fd5b505af1158015610ddf573d6000803e3d6000fd5b5050505050505050565b336001600160a01b037f00000000000000000000000000000000000000000000000000000000000000001614610e4b576040517fd367b64f00000000000000000000000000000000000000000000000000000000815260040160405180910390fd5b60408051466020808301919091526001600160a01b038681168385015285811660608401528481166080808501919091528451808503909101815260a0909301845282519282019290922060008181526016909252929020600101541615610c6f576040517f42966c68000000000000000000000000000000000000000000000000000000008152600481018290527f00000000000000000000000000000000000000000000000000000000000000006001600160a01b0316906342966c6890602401600060405180830381600087803b158015610f2857600080fd5b505af1158015610f3c573d6000803e3d6000fd5b50505050610c6f81611751565b336001600160a01b037f00000000000000000000000000000000000000000000000000000000000000001614610fab576040517fd367b64f00000000000000000000000000000000000000000000000000000000815260040160405180910390fd5b60408051466020808301919091526001600160a01b038681168385015285811660608401528481166080808501919091528451808503909101815260a09093018452825192820192909220600081815260169092529290206001015416610c6f5761101884848484611835565b6040517f40c10f190000000000000000000000000000000000000000000000000000000081526001600160a01b038381166004830152602482018390527f000000000000000000000000000000000000000000000000000000000000000016906340c10f1990604401610db1565b6000818152601660205260409020600101546001600160a01b03166107f2576040517feab95e3b00000000000000000000000000000000000000000000000000000000815260040160405180910390fd5b600081815260046020908152604080832080547fffffffffffffffffffffffff0000000000000000000000000000000000000000166001600160a01b038781169182179092556016909352818420600101549151859492909116917f8c5be1e5ebec7d5bd14f71427d1e84f3dd0314c0f7b2291e5b200ac8c7c3b92591a45050565b60008061116583610a4c565b9050806001600160a01b0316846001600160a01b031614806111ac57506001600160a01b0380821660009081526005602090815260408083209388168352929052205460ff165b80610ae95750836001600160a01b03166111c58461069c565b6001600160a01b031614949350505050565b6040517faa747eca00000000000000000000000000000000000000000000000000000000815260040160405180910390fd5b6040518181527ff8e1a15aba9398e019f0b49df1a4fde98ee17ae345cb5f6b5e2c27f5033e8ce790602001610c0d565b60006112637f360894a13ba1a3210667c828492db98dca3e2076cc3735a920a3ca505d382bbc5490565b6001600160a01b0316036112b95760405162461bcd60e51b815260206004820152601d60248201527f5555505350726f786961626c653a206e6f742075706772616461626c65000000604482015260640161098d565b806001600160a01b03166352d1902d6040518163ffffffff1660e01b8152600401602060405180830381865afa1580156112f7573d6000803e3d6000fd5b505050506040513d601f19601f8201168201806040525081019061131b91906124e7565b7f87e44dce6a0d65a5ccf441783661f5727c2624b1f0088bbe957ce2c95406b784146113af5760405162461bcd60e51b815260206004820152602360248201527f5555505350726f786961626c653a206e6f7420636f6d70617469626c65206c6f60448201527f6769630000000000000000000000000000000000000000000000000000000000606482015260840161098d565b6001600160a01b03811630036114075760405162461bcd60e51b815260206004820152601960248201527f5555505350726f786961626c653a2070726f7879206c6f6f7000000000000000604482015260640161098d565b61142f817f360894a13ba1a3210667c828492db98dca3e2076cc3735a920a3ca505d382bbc55565b7fe011bc04c286c344a8fcbb8de77f953da762c3e25d8cdea984147fc4168a5dcc7f87e44dce6a0d65a5ccf441783661f5727c2624b1f0088bbe957ce2c95406b784604080519182526001600160a01b038416602083015201610c0d565b816001600160a01b0316836001600160a01b0316036114d8576040517fd3c7732900000000000000000000000000000000000000000000000000000000815260040160405180910390fd5b6001600160a01b03838116600081815260056020908152604080832094871680845294825291829020805460ff191686151590811790915591519182527f17307eab39ab6107e8899845ad3d59bd9653f200f220920489ca2b5937696c31910160405180910390a3505050565b610c6f8484846111d7565b6040805160808082018352600080835260208084018290528385018290526060938401829052868252601681528482208551808501875281546001600160a01b0390811680835260018401548216948301859052600290930154808216838a018190527401000000000000000000000000000000000000000090910463ffffffff168389015288517fe6a1e888000000000000000000000000000000000000000000000000000000008152600481018590526024810195909552604485015296519596909591947f00000000000000000000000000000000000000000000000000000000000000009091169263e6a1e88892606480830193928290030181865afa158015611662573d6000803e3d6000fd5b505050506040513d601f19601f820116820180604052508101906116869190612500565b5050915050600361169687611a23565b6116ad836bffffffffffffffffffffffff16611c17565b876116ed576040518060400160405280600581526020017f66616c7365000000000000000000000000000000000000000000000000000000815250611724565b6040518060400160405280600481526020017f74727565000000000000000000000000000000000000000000000000000000008152505b6040516020016117379493929190612560565b604051602081830303815290604052935050505092915050565b600061175c82610a4c565b600083815260046020526040902080547fffffffffffffffffffffffff0000000000000000000000000000000000000000169055905060008281526016602052604080822080547fffffffffffffffffffffffff00000000000000000000000000000000000000009081168255600182018054909116905560020180547fffffffffffffffff000000000000000000000000000000000000000000000000169055518391906001600160a01b038416907fddf252ad1be2c89b69c2b068fc378daa952ba7f163c4a11628f55a4df523b3ef908390a45050565b6001600160a01b038316611875576040517f43d05e5100000000000000000000000000000000000000000000000000000000815260040160405180910390fd5b816001600160a01b0316836001600160a01b0316036118c0576040517fa07fa90900000000000000000000000000000000000000000000000000000000815260040160405180910390fd5b6000818152601660205260409020600101546001600160a01b031615611912576040517fe248018300000000000000000000000000000000000000000000000000000000815260040160405180910390fd5b604080516080810182526001600160a01b038087168252858116602080840182815287841685870190815263ffffffff4281166060880190815260008a81526016909552888520975188549088167fffffffffffffffffffffffff000000000000000000000000000000000000000091821617895593516001890180549189169190951617909355905160029096018054925190911674010000000000000000000000000000000000000000027fffffffffffffffff0000000000000000000000000000000000000000000000009092169590941694909417939093179091559151839291907fddf252ad1be2c89b69c2b068fc378daa952ba7f163c4a11628f55a4df523b3ef908290a450505050565b6040805160808082018352600080835260208084018290528385018290526060938401829052858252601681528482208551938401865280546001600160a01b039081168552600182015481169285019290925260020154908116948301949094527401000000000000000000000000000000000000000090930463ffffffff1681830152909150611ac381600001516001600160a01b03166014611cb7565b611acc46611c17565b82600001516001600160a01b03166395d89b416040518163ffffffff1660e01b8152600401600060405180830381865afa158015611b0e573d6000803e3d6000fd5b505050506040513d6000823e601f3d908101601f19168201604052611b369190810190612651565b611b4e84602001516001600160a01b03166014611cb7565b611b6685604001516001600160a01b03166014611cb7565b611bd786600001516001600160a01b031663313ce5676040518163ffffffff1660e01b8152600401602060405180830381865afa158015611bab573d6000803e3d6000fd5b505050506040513d601f19601f82011682018060405250810190611bcf91906126c8565b60ff16611c17565b611bea876060015163ffffffff16611c17565b604051602001611c0097969594939291906126eb565b604051602081830303815290604052915050919050565b60606000611c2483611ee7565b600101905060008167ffffffffffffffff811115611c4457611c4461211a565b6040519080825280601f01601f191660200182016040528015611c6e576020820181803683370190505b5090508181016020015b600019017f3031323334353637383961626364656600000000000000000000000000000000600a86061a8153600a8504945084611c7857509392505050565b60606000611cc683600261289c565b611cd19060026128b3565b67ffffffffffffffff811115611ce957611ce961211a565b6040519080825280601f01601f191660200182016040528015611d13576020820181803683370190505b5090507f300000000000000000000000000000000000000000000000000000000000000081600081518110611d4a57611d4a6128c6565b60200101907effffffffffffffffffffffffffffffffffffffffffffffffffffffffffffff1916908160001a9053507f780000000000000000000000000000000000000000000000000000000000000081600181518110611dad57611dad6128c6565b60200101907effffffffffffffffffffffffffffffffffffffffffffffffffffffffffffff1916908160001a9053506000611de984600261289c565b611df49060016128b3565b90505b6001811115611e91577f303132333435363738396162636465660000000000000000000000000000000085600f1660108110611e3557611e356128c6565b1a60f81b828281518110611e4b57611e4b6128c6565b60200101907effffffffffffffffffffffffffffffffffffffffffffffffffffffffffffff1916908160001a90535060049490941c93611e8a816128dc565b9050611df7565b508315611ee05760405162461bcd60e51b815260206004820181905260248201527f537472696e67733a20686578206c656e67746820696e73756666696369656e74604482015260640161098d565b9392505050565b6000807a184f03e93ff9f4daa797ed6e38ed64bf6a1f0100000000000000008310611f30577a184f03e93ff9f4daa797ed6e38ed64bf6a1f010000000000000000830492506040015b6d04ee2d6d415b85acef81000000008310611f5c576d04ee2d6d415b85acef8100000000830492506020015b662386f26fc100008310611f7a57662386f26fc10000830492506010015b6305f5e1008310611f92576305f5e100830492506008015b6127108310611fa657612710830492506004015b60648310611fb8576064830492506002015b600a83106106045760010192915050565b600060208284031215611fdb57600080fd5b81357fffffffff0000000000000000000000000000000000000000000000000000000081168114611ee057600080fd5b60005b8381101561202657818101518382015260200161200e565b50506000910152565b602081526000825180602084015261204e81604085016020870161200b565b601f01601f19169190910160400192915050565b60006020828403121561207457600080fd5b5035919050565b6001600160a01b03811681146107f257600080fd5b600080604083850312156120a357600080fd5b82356120ae8161207b565b946020939093013593505050565b6000806000606084860312156120d157600080fd5b83356120dc8161207b565b925060208401356120ec8161207b565b929592945050506040919091013590565b60006020828403121561210f57600080fd5b8135611ee08161207b565b634e487b7160e01b600052604160045260246000fd5b604051601f8201601f1916810167ffffffffffffffff811182821017156121595761215961211a565b604052919050565b600067ffffffffffffffff82111561217b5761217b61211a565b50601f01601f191660200190565b600061219c61219784612161565b612130565b90508281528383830111156121b057600080fd5b828260208301376000602084830101529392505050565b600082601f8301126121d857600080fd5b611ee083833560208501612189565b600080604083850312156121fa57600080fd5b823567ffffffffffffffff8082111561221257600080fd5b61221e868387016121c7565b9350602085013591508082111561223457600080fd5b50612241858286016121c7565b9150509250929050565b60008060006060848603121561226057600080fd5b833561226b8161207b565b9250602084013561227b8161207b565b9150604084013561228b8161207b565b809150509250925092565b600080604083850312156122a957600080fd5b82356122b48161207b565b9150602083013580151581146122c957600080fd5b809150509250929050565b600080600080608085870312156122ea57600080fd5b84356122f58161207b565b935060208501356123058161207b565b925060408501359150606085013567ffffffffffffffff81111561232857600080fd5b8501601f8101871361233957600080fd5b61234887823560208401612189565b91505092959194509250565b6000806040838503121561236757600080fd5b82356123728161207b565b915060208301356122c98161207b565b600181811c9082168061239657607f821691505b6020821081036123b657634e487b7160e01b600052602260045260246000fd5b50919050565b6000602082840312156123ce57600080fd5b8151611ee08161207b565b601f82111561079957600081815260208120601f850160051c810160208610156124005750805b601f850160051c820191505b8181101561241f5782815560010161240c565b505050505050565b815167ffffffffffffffff8111156124415761244161211a565b6124558161244f8454612382565b846123d9565b602080601f83116001811461248a57600084156124725750858301515b600019600386901b1c1916600185901b17855561241f565b600085815260208120601f198616915b828110156124b95788860151825594840194600190910190840161249a565b50858210156124d75787850151600019600388901b60f8161c191681555b5050505050600190811b01905550565b6000602082840312156124f957600080fd5b5051919050565b6000806000806080858703121561251657600080fd5b84519350602085015180600b0b811461252e57600080fd5b6040860151606090960151949790965092505050565b6000815161255681856020860161200b565b9290920192915050565b600080865461256e81612382565b60018281168015612586576001811461259b576125ca565b60ff19841687528215158302870194506125ca565b8a60005260208060002060005b858110156125c15781548a8201529084019082016125a8565b50505082870194505b5050505085516125de818360208a0161200b565b7f26666c6f77526174653d000000000000000000000000000000000000000000009101908152612646612640612617600a840188612544565b7f2669735f696e666c6f773d0000000000000000000000000000000000000000008152600b0190565b85612544565b979650505050505050565b60006020828403121561266357600080fd5b815167ffffffffffffffff81111561267a57600080fd5b8201601f8101841361268b57600080fd5b805161269961219782612161565b8181528560208385010111156126ae57600080fd5b6126bf82602083016020860161200b565b95945050505050565b6000602082840312156126da57600080fd5b815160ff81168114611ee057600080fd5b7f26746f6b656e5f616464726573733d000000000000000000000000000000000081526000885161272381600f850160208d0161200b565b7f3f636861696e5f69643d00000000000000000000000000000000000000000000600f918401918201528851612760816019840160208d0161200b565b7f26746f6b656e5f73796d626f6c3d00000000000000000000000000000000000060199290910191820152875161279e816027840160208c0161200b565b7f2673656e6465723d0000000000000000000000000000000000000000000000006027929091019182015286516127dc81602f840160208b0161200b565b7f2672656365697665723d00000000000000000000000000000000000000000000602f929091019182015261287861264061284f612849612820603986018b612544565b7f26746f6b656e5f646563696d616c733d00000000000000000000000000000000815260100190565b88612544565b7f2673746172745f646174653d00000000000000000000000000000000000000008152600c0190565b9a9950505050505050505050565b634e487b7160e01b600052601160045260246000fd5b808202811582820484141761060457610604612886565b8082018082111561060457610604612886565b634e487b7160e01b600052603260045260246000fd5b6000816128eb576128eb612886565b50600019019056fea264697066735822122002f7384311fccc340c471c3400edb66341956c8a18aa5e0cee42d3ad199427db64736f6c6343000813003360e06040523480156200001157600080fd5b50604051620027d9380380620027d9833981016040819052620000349162000127565b6001600160a01b03831660a0819052604051635b69006f60e11b81527fa9214cc96615e0085d3bb077758db69497dc2dce3b2b1e97bc93c3d18d83efd360048201528491839163b6d200de90602401602060405180830381865afa158015620000a1573d6000803e3d6000fd5b505050506040513d601f19601f82011682018060405250810190620000c7919062000227565b6001600160a01b03166080526003620000e18282620002dd565b505050506001600160a01b031660c05250620003a9565b6001600160a01b03811681146200010e57600080fd5b50565b634e487b7160e01b600052604160045260246000fd5b6000806000606084860312156200013d57600080fd5b83516200014a81620000f8565b809350506020808501516200015f81620000f8565b60408601519093506001600160401b03808211156200017d57600080fd5b818701915087601f8301126200019257600080fd5b815181811115620001a757620001a762000111565b604051601f8201601f19908116603f01168101908382118183101715620001d257620001d262000111565b816040528281528a86848701011115620001eb57600080fd5b600093505b828410156200020f5784840186015181850187015292850192620001f0565b60008684830101528096505050505050509250925092565b6000602082840312156200023a57600080fd5b81516200024781620000f8565b9392505050565b600181811c908216806200026357607f821691505b6020821081036200028457634e487b7160e01b600052602260045260246000fd5b50919050565b601f821115620002d857600081815260208120601f850160051c81016020861015620002b35750805b601f850160051c820191505b81811015620002d457828155600101620002bf565b5050505b505050565b81516001600160401b03811115620002f957620002f962000111565b62000311816200030a84546200024e565b846200028a565b602080601f831160018114620003495760008415620003305750858301515b600019600386901b1c1916600185901b178555620002d4565b600085815260208120601f198616915b828110156200037a5788860151825594840194600190910190840162000359565b5085821015620003995787850151600019600388901b60f8161c191681555b5050505050600190811b01905550565b60805160a05160c0516123dd620003fc6000396000818161045801528181610755015281816107e00152610b700152600081816102ce0152610844015260008181610235015261136f01526123dd6000f3fe608060405234801561001057600080fd5b50600436106101ae5760003560e01c806350d75d25116100ee57806395d89b4111610097578063b88d4fde11610071578063b88d4fde146103f1578063c87b56dd14610404578063e985e9c514610417578063ef43d2c61461045357600080fd5b806395d89b41146103ce5780639903ad38146103d6578063a22cb465146103de57600080fd5b806370a08231116100c857806370a082311461034e57806389f71d2d146103625780638d47859e1461037557600080fd5b806350d75d251461030357806352d1902d1461030b5780636352211e1461033b57600080fd5b80632f3885601161015b57806342966c681161013557806342966c68146102a357806346951954146102b657806349f289dc146102c95780634cd88b76146102f057600080fd5b80632f3885601461026a57806340c10f191461027d57806342842e0e1461029057600080fd5b8063095ea7b31161018c578063095ea7b31461021b578063181561011461023057806323b872dd1461025757600080fd5b806301ffc9a7146101b357806306fdde03146101db578063081812fc146101f0575b600080fd5b6101c66101c13660046119ef565b61047a565b60405190151581526020015b60405180910390f35b6101e361055f565b6040516101d29190611a55565b6102036101fe366004611a88565b6105f1565b6040516001600160a01b0390911681526020016101d2565b61022e610229366004611ab6565b610618565b005b6102037f000000000000000000000000000000000000000000000000000000000000000081565b61022e610265366004611ae2565b6106f3565b61022e610278366004611a88565b61073e565b61022e61028b366004611ab6565b61074a565b61022e61029e366004611ae2565b6107ba565b61022e6102b1366004611a88565b6107d5565b61022e6102c4366004611b23565b610840565b6102037f000000000000000000000000000000000000000000000000000000000000000081565b61022e6102fe366004611c0d565b610911565b610203610a49565b7f9a61ea3469d742a522f41a67608e442d2c27902bed81123f00ba6d3e12e9871e5b6040519081526020016101d2565b610203610349366004611a88565b610a78565b61032d61035c366004611b23565b50600190565b61032d610370366004611c71565b610ac6565b610388610383366004611a88565b610b19565b6040805182516001600160a01b03908116825260208085015182169083015283830151169181019190915260609182015163ffffffff16918101919091526080016101d2565b6101e3610bdb565b61022e610bea565b61022e6103ec366004611cbc565b610d02565b61022e6103ff366004611cfa565b610d0d565b6101e3610412366004611a88565b610d5f565b6101c6610425366004611d7a565b6001600160a01b03918216600090815260056020908152604080832093909416825291909152205460ff1690565b6102037f000000000000000000000000000000000000000000000000000000000000000081565b60007f01ffc9a7000000000000000000000000000000000000000000000000000000007fffffffff000000000000000000000000000000000000000000000000000000008316148061050d57507f80ac58cd000000000000000000000000000000000000000000000000000000007fffffffff000000000000000000000000000000000000000000000000000000008316145b8061055957507f5b5e139f000000000000000000000000000000000000000000000000000000007fffffffff000000000000000000000000000000000000000000000000000000008316145b92915050565b60606001805461056e90611da8565b80601f016020809104026020016040519081016040528092919081815260200182805461059a90611da8565b80156105e75780601f106105bc576101008083540402835291602001916105e7565b820191906000526020600020905b8154815290600101906020018083116105ca57829003601f168201915b5050505050905090565b60006105fc82610d6c565b506000908152600460205260409020546001600160a01b031690565b600061062382610a78565b9050806001600160a01b0316836001600160a01b031603610670576040517fe4790b2500000000000000000000000000000000000000000000000000000000815260040160405180910390fd5b336001600160a01b038216148015906106ad57506001600160a01b038116600090815260056020908152604080832033845290915290205460ff16155b156106e4576040517fa335258200000000000000000000000000000000000000000000000000000000815260040160405180910390fd5b6106ee8383610dab565b505050565b6106fd3382610e31565b610733576040517f2551d60600000000000000000000000000000000000000000000000000000000815260040160405180910390fd5b6106ee838383610eaf565b61074781610ee1565b50565b336001600160a01b037f000000000000000000000000000000000000000000000000000000000000000016146107ac576040517fe81ef57a00000000000000000000000000000000000000000000000000000000815260040160405180910390fd5b6107b68282610f11565b5050565b6106ee83838360405180602001604052806000815250610d0d565b336001600160a01b037f00000000000000000000000000000000000000000000000000000000000000001614610837576040517fe81ef57a00000000000000000000000000000000000000000000000000000000815260040160405180910390fd5b61074781610f4d565b60007f00000000000000000000000000000000000000000000000000000000000000006001600160a01b031663731aed6e6040518163ffffffff1660e01b8152600401602060405180830381865afa1580156108a0573d6000803e3d6000fd5b505050506040513d601f19601f820116820180604052508101906108c49190611de2565b9050336001600160a01b03821614610908576040517febb7505b00000000000000000000000000000000000000000000000000000000815260040160405180910390fd5b6107b682610fd8565b600054610100900460ff16158080156109315750600054600160ff909116105b8061094b5750303b15801561094b575060005460ff166001145b6109c25760405162461bcd60e51b815260206004820152602e60248201527f496e697469616c697a61626c653a20636f6e747261637420697320616c72656160448201527f647920696e697469616c697a656400000000000000000000000000000000000060648201526084015b60405180910390fd5b6000805460ff1916600117905580156109e5576000805461ff0019166101001790555b60016109f18482611e4d565b5060026109fe8382611e4d565b5080156106ee576000805461ff0019169055604051600181527f7f26b83ff96e1f2b6a682f133852f6798a09c465da95921460cefb38474024989060200160405180910390a1505050565b6000610a737f360894a13ba1a3210667c828492db98dca3e2076cc3735a920a3ca505d382bbc5490565b905090565b600080610a848361122c565b90506001600160a01b038116610559576040517feab95e3b00000000000000000000000000000000000000000000000000000000815260040160405180910390fd5b60408051466020808301919091526001600160a01b0380871683850152808616606084015284166080808401919091528351808403909101815260a090920190925280519101206000905b949350505050565b60408051608081018252600080825260208201819052818301819052606082015290517f8d47859e000000000000000000000000000000000000000000000000000000008152600481018390526001600160a01b037f00000000000000000000000000000000000000000000000000000000000000001690638d47859e90602401608060405180830381865afa158015610bb7573d6000803e3d6000fd5b505050506040513d601f19601f820116820180604052508101906105599190611f0d565b60606002805461056e90611da8565b600054610100900460ff1615808015610c0a5750600054600160ff909116105b80610c245750303b158015610c24575060005460ff166001145b610c965760405162461bcd60e51b815260206004820152602e60248201527f496e697469616c697a61626c653a20636f6e747261637420697320616c72656160448201527f647920696e697469616c697a656400000000000000000000000000000000000060648201526084016109b9565b6000805460ff191660011790558015610cb9576000805461ff0019166101001790555b8015610747576000805461ff0019169055604051600181527f7f26b83ff96e1f2b6a682f133852f6798a09c465da95921460cefb3847402498906020015b60405180910390a150565b6107b6338383611243565b610d173383610e31565b610d4d576040517f2551d60600000000000000000000000000000000000000000000000000000000815260040160405180910390fd5b610d59848484846112fb565b50505050565b6060610559826001611306565b610d75816114a5565b610747576040517feab95e3b00000000000000000000000000000000000000000000000000000000815260040160405180910390fd5b600081815260046020526040902080547fffffffffffffffffffffffff0000000000000000000000000000000000000000166001600160a01b0384169081179091558190610df88261122c565b6001600160a01b03167f8c5be1e5ebec7d5bd14f71427d1e84f3dd0314c0f7b2291e5b200ac8c7c3b92560405160405180910390a45050565b600080610e3d83610a78565b9050806001600160a01b0316846001600160a01b03161480610e8457506001600160a01b0380821660009081526005602090815260408083209388168352929052205460ff165b80610b115750836001600160a01b0316610e9d846105f1565b6001600160a01b031614949350505050565b6040517faa747eca00000000000000000000000000000000000000000000000000000000815260040160405180910390fd5b6040518181527ff8e1a15aba9398e019f0b49df1a4fde98ee17ae345cb5f6b5e2c27f5033e8ce790602001610cf7565b60405181906001600160a01b038416906000907fddf252ad1be2c89b69c2b068fc378daa952ba7f163c4a11628f55a4df523b3ef908290a45050565b6000610f5882610b19565b600083815260046020526040902080547fffffffffffffffffffffffff000000000000000000000000000000000000000016905590508160006001600160a01b031682604001516001600160a01b03167fddf252ad1be2c89b69c2b068fc378daa952ba7f163c4a11628f55a4df523b3ef60405160405180910390a45050565b60006110027f360894a13ba1a3210667c828492db98dca3e2076cc3735a920a3ca505d382bbc5490565b6001600160a01b0316036110585760405162461bcd60e51b815260206004820152601d60248201527f5555505350726f786961626c653a206e6f742075706772616461626c6500000060448201526064016109b9565b806001600160a01b03166352d1902d6040518163ffffffff1660e01b8152600401602060405180830381865afa158015611096573d6000803e3d6000fd5b505050506040513d601f19601f820116820180604052508101906110ba9190611f9b565b7f9a61ea3469d742a522f41a67608e442d2c27902bed81123f00ba6d3e12e9871e1461114e5760405162461bcd60e51b815260206004820152602360248201527f5555505350726f786961626c653a206e6f7420636f6d70617469626c65206c6f60448201527f676963000000000000000000000000000000000000000000000000000000000060648201526084016109b9565b6001600160a01b03811630036111a65760405162461bcd60e51b815260206004820152601960248201527f5555505350726f786961626c653a2070726f7879206c6f6f700000000000000060448201526064016109b9565b6111ce817f360894a13ba1a3210667c828492db98dca3e2076cc3735a920a3ca505d382bbc55565b7fe011bc04c286c344a8fcbb8de77f953da762c3e25d8cdea984147fc4168a5dcc7f9a61ea3469d742a522f41a67608e442d2c27902bed81123f00ba6d3e12e9871e604080519182526001600160a01b038416602083015201610cf7565b60008061123883610b19565b604001519392505050565b816001600160a01b0316836001600160a01b03160361128e576040517fd3c7732900000000000000000000000000000000000000000000000000000000815260040160405180910390fd5b6001600160a01b03838116600081815260056020908152604080832094871680845294825291829020805460ff191686151590811790915591519182527f17307eab39ab6107e8899845ad3d59bd9653f200f220920489ca2b5937696c31910160405180910390a3505050565b610d59848484610eaf565b6060600061131384610b19565b8051602082015160408084015190517fe6a1e8880000000000000000000000000000000000000000000000000000000081526001600160a01b0380851660048301529283166024820152908216604482015292935090916000917f0000000000000000000000000000000000000000000000000000000000000000169063e6a1e88890606401608060405180830381865afa1580156113b6573d6000803e3d6000fd5b505050506040513d601f19601f820116820180604052508101906113da9190611fb4565b505091505060036113ea876114c2565b611401836bffffffffffffffffffffffff1661163d565b87611441576040518060400160405280600581526020017f66616c7365000000000000000000000000000000000000000000000000000000815250611478565b6040518060400160405280600481526020017f74727565000000000000000000000000000000000000000000000000000000008152505b60405160200161148b9493929190612014565b604051602081830303815290604052935050505092915050565b6000806114b18361122c565b6001600160a01b0316141592915050565b606060006114cf83610b19565b90506114e981600001516001600160a01b031660146116dd565b6114f24661163d565b82600001516001600160a01b03166395d89b416040518163ffffffff1660e01b8152600401600060405180830381865afa158015611534573d6000803e3d6000fd5b505050506040513d6000823e601f3d908101601f1916820160405261155c9190810190612105565b61157484602001516001600160a01b031660146116dd565b61158c85604001516001600160a01b031660146116dd565b6115fd86600001516001600160a01b031663313ce5676040518163ffffffff1660e01b8152600401602060405180830381865afa1580156115d1573d6000803e3d6000fd5b505050506040513d601f19601f820116820180604052508101906115f5919061217c565b60ff1661163d565b611610876060015163ffffffff1661163d565b604051602001611626979695949392919061219f565b604051602081830303815290604052915050919050565b6060600061164a8361190d565b600101905060008167ffffffffffffffff81111561166a5761166a611b40565b6040519080825280601f01601f191660200182016040528015611694576020820181803683370190505b5090508181016020015b600019017f3031323334353637383961626364656600000000000000000000000000000000600a86061a8153600a850494508461169e57509392505050565b606060006116ec836002612350565b6116f7906002612367565b67ffffffffffffffff81111561170f5761170f611b40565b6040519080825280601f01601f191660200182016040528015611739576020820181803683370190505b5090507f3000000000000000000000000000000000000000000000000000000000000000816000815181106117705761177061237a565b60200101907effffffffffffffffffffffffffffffffffffffffffffffffffffffffffffff1916908160001a9053507f7800000000000000000000000000000000000000000000000000000000000000816001815181106117d3576117d361237a565b60200101907effffffffffffffffffffffffffffffffffffffffffffffffffffffffffffff1916908160001a905350600061180f846002612350565b61181a906001612367565b90505b60018111156118b7577f303132333435363738396162636465660000000000000000000000000000000085600f166010811061185b5761185b61237a565b1a60f81b8282815181106118715761187161237a565b60200101907effffffffffffffffffffffffffffffffffffffffffffffffffffffffffffff1916908160001a90535060049490941c936118b081612390565b905061181d565b5083156119065760405162461bcd60e51b815260206004820181905260248201527f537472696e67733a20686578206c656e67746820696e73756666696369656e7460448201526064016109b9565b9392505050565b6000807a184f03e93ff9f4daa797ed6e38ed64bf6a1f0100000000000000008310611956577a184f03e93ff9f4daa797ed6e38ed64bf6a1f010000000000000000830492506040015b6d04ee2d6d415b85acef81000000008310611982576d04ee2d6d415b85acef8100000000830492506020015b662386f26fc1000083106119a057662386f26fc10000830492506010015b6305f5e10083106119b8576305f5e100830492506008015b61271083106119cc57612710830492506004015b606483106119de576064830492506002015b600a83106105595760010192915050565b600060208284031215611a0157600080fd5b81357fffffffff000000000000000000000000000000000000000000000000000000008116811461190657600080fd5b60005b83811015611a4c578181015183820152602001611a34565b50506000910152565b6020815260008251806020840152611a74816040850160208701611a31565b601f01601f19169190910160400192915050565b600060208284031215611a9a57600080fd5b5035919050565b6001600160a01b038116811461074757600080fd5b60008060408385031215611ac957600080fd5b8235611ad481611aa1565b946020939093013593505050565b600080600060608486031215611af757600080fd5b8335611b0281611aa1565b92506020840135611b1281611aa1565b929592945050506040919091013590565b600060208284031215611b3557600080fd5b813561190681611aa1565b634e487b7160e01b600052604160045260246000fd5b604051601f8201601f1916810167ffffffffffffffff81118282101715611b7f57611b7f611b40565b604052919050565b600067ffffffffffffffff821115611ba157611ba1611b40565b50601f01601f191660200190565b6000611bc2611bbd84611b87565b611b56565b9050828152838383011115611bd657600080fd5b828260208301376000602084830101529392505050565b600082601f830112611bfe57600080fd5b61190683833560208501611baf565b60008060408385031215611c2057600080fd5b823567ffffffffffffffff80821115611c3857600080fd5b611c4486838701611bed565b93506020850135915080821115611c5a57600080fd5b50611c6785828601611bed565b9150509250929050565b600080600060608486031215611c8657600080fd5b8335611c9181611aa1565b92506020840135611ca181611aa1565b91506040840135611cb181611aa1565b809150509250925092565b60008060408385031215611ccf57600080fd5b8235611cda81611aa1565b915060208301358015158114611cef57600080fd5b809150509250929050565b60008060008060808587031215611d1057600080fd5b8435611d1b81611aa1565b93506020850135611d2b81611aa1565b925060408501359150606085013567ffffffffffffffff811115611d4e57600080fd5b8501601f81018713611d5f57600080fd5b611d6e87823560208401611baf565b91505092959194509250565b60008060408385031215611d8d57600080fd5b8235611d9881611aa1565b91506020830135611cef81611aa1565b600181811c90821680611dbc57607f821691505b602082108103611ddc57634e487b7160e01b600052602260045260246000fd5b50919050565b600060208284031215611df457600080fd5b815161190681611aa1565b601f8211156106ee57600081815260208120601f850160051c81016020861015611e265750805b601f850160051c820191505b81811015611e4557828155600101611e32565b505050505050565b815167ffffffffffffffff811115611e6757611e67611b40565b611e7b81611e758454611da8565b84611dff565b602080601f831160018114611eb05760008415611e985750858301515b600019600386901b1c1916600185901b178555611e45565b600085815260208120601f198616915b82811015611edf57888601518255948401946001909101908401611ec0565b5085821015611efd5787850151600019600388901b60f8161c191681555b5050505050600190811b01905550565b600060808284031215611f1f57600080fd5b6040516080810181811067ffffffffffffffff82111715611f4257611f42611b40565b6040528251611f5081611aa1565b81526020830151611f6081611aa1565b60208201526040830151611f7381611aa1565b6040820152606083015163ffffffff81168114611f8f57600080fd5b60608201529392505050565b600060208284031215611fad57600080fd5b5051919050565b60008060008060808587031215611fca57600080fd5b84519350602085015180600b0b8114611fe257600080fd5b6040860151606090960151949790965092505050565b6000815161200a818560208601611a31565b9290920192915050565b600080865461202281611da8565b6001828116801561203a576001811461204f5761207e565b60ff198416875282151583028701945061207e565b8a60005260208060002060005b858110156120755781548a82015290840190820161205c565b50505082870194505b505050508551612092818360208a01611a31565b7f26666c6f77526174653d0000000000000000000000000000000000000000000091019081526120fa6120f46120cb600a840188611ff8565b7f2669735f696e666c6f773d0000000000000000000000000000000000000000008152600b0190565b85611ff8565b979650505050505050565b60006020828403121561211757600080fd5b815167ffffffffffffffff81111561212e57600080fd5b8201601f8101841361213f57600080fd5b805161214d611bbd82611b87565b81815285602083850101111561216257600080fd5b612173826020830160208601611a31565b95945050505050565b60006020828403121561218e57600080fd5b815160ff8116811461190657600080fd5b7f26746f6b656e5f616464726573733d00000000000000000000000000000000008152600088516121d781600f850160208d01611a31565b7f3f636861696e5f69643d00000000000000000000000000000000000000000000600f918401918201528851612214816019840160208d01611a31565b7f26746f6b656e5f73796d626f6c3d000000000000000000000000000000000000601992909101918201528751612252816027840160208c01611a31565b7f2673656e6465723d00000000000000000000000000000000000000000000000060279290910191820152865161229081602f840160208b01611a31565b7f2672656365697665723d00000000000000000000000000000000000000000000602f929091019182015261232c6120f46123036122fd6122d4603986018b611ff8565b7f26746f6b656e5f646563696d616c733d00000000000000000000000000000000815260100190565b88611ff8565b7f2673746172745f646174653d00000000000000000000000000000000000000008152600c0190565b9a9950505050505050505050565b634e487b7160e01b600052601160045260246000fd5b80820281158282048414176105595761055961233a565b808201808211156105595761055961233a565b634e487b7160e01b600052603260045260246000fd5b60008161239f5761239f61233a565b50600019019056fea2646970667358221220b2748bd0c3b0b2007cac4a66816fa77a7e080016e47d719a5ace719940b619a064736f6c6343000813003360a060405234801561001057600080fd5b506040516105c03803806105c083398101604081905261002f91610040565b6001600160a01b0316608052610070565b60006020828403121561005257600080fd5b81516001600160a01b038116811461006957600080fd5b9392505050565b60805161053661008a600039600060c201526105366000f3fe608060405234801561001057600080fd5b506004361061002b5760003560e01c8063f490e2f014610030575b600080fd5b61004361003e3660046103a0565b61009c565b6040516100939190815173ffffffffffffffffffffffffffffffffffffffff9081168252602080840151821690830152604080840151821690830152606092830151169181019190915260800190565b60405180910390f35b6040805160808101825260008082526020820181905291810182905260608101919091527f000000000000000000000000000000000000000000000000000000000000000073ffffffffffffffffffffffffffffffffffffffff1663693ec85e848460405160200161010f929190610412565b6040516020818303038152906040526040518263ffffffff1660e01b815260040161013a919061044b565b602060405180830381865afa158015610157573d6000803e3d6000fd5b505050506040513d601f19601f8201168201806040525081019061017b91906104dc565b73ffffffffffffffffffffffffffffffffffffffff16808252604080517f731aed6e000000000000000000000000000000000000000000000000000000008152905163731aed6e916004808201926020929091908290030181865afa1580156101e8573d6000803e3d6000fd5b505050506040513d601f19601f8201168201806040525081019061020c91906104dc565b73ffffffffffffffffffffffffffffffffffffffff908116602083015281516040517fb6d200de0000000000000000000000000000000000000000000000000000000081527fa9214cc96615e0085d3bb077758db69497dc2dce3b2b1e97bc93c3d18d83efd3600482015291169063b6d200de90602401602060405180830381865afa1580156102a0573d6000803e3d6000fd5b505050506040513d601f19601f820116820180604052508101906102c491906104dc565b73ffffffffffffffffffffffffffffffffffffffff908116604083810191909152825190517fb6d200de0000000000000000000000000000000000000000000000000000000081527f8aedc3b5d4bf031e11a7e2940f7251c005698405d58e02e1c247fed3b1b3a674600482015291169063b6d200de90602401602060405180830381865afa15801561035b573d6000803e3d6000fd5b505050506040513d601f19601f8201168201806040525081019061037f91906104dc565b73ffffffffffffffffffffffffffffffffffffffff16606082015292915050565b600080602083850312156103b357600080fd5b823567ffffffffffffffff808211156103cb57600080fd5b818501915085601f8301126103df57600080fd5b8135818111156103ee57600080fd5b86602082850101111561040057600080fd5b60209290920196919550909350505050565b7f5375706572666c7569642e00000000000000000000000000000000000000000081528183600b83013760009101600b01908152919050565b600060208083528351808285015260005b818110156104785785810183015185820160400152820161045c565b5060006040828601015260407fffffffffffffffffffffffffffffffffffffffffffffffffffffffffffffffe0601f8301168501019250505092915050565b73ffffffffffffffffffffffffffffffffffffffff811681146104d957600080fd5b50565b6000602082840312156104ee57600080fd5b81516104f9816104b7565b939250505056fea26469706673582212203df02b02e90ee24caedd7266463ece955cb4920f7f395b54f955a8b501fc68fd64736f6c63430008130033","linkReferences":{"node_modules/@superfluid-finance/ethereum-contracts/contracts/utils/SuperfluidFrameworkDeployer.sol":{"SuperTokenDeployerLibrary":[{"start":2475,"length":20}],"SuperfluidCFAv1DeployerLibrary":[{"start":726,"length":20}],"SuperfluidGovDeployerLibrary":[{"start":20,"length":20},{"start":190,"length":20}],"SuperfluidHostDeployerLibrary":[{"start":296,"length":20}],"SuperfluidIDAv1DeployerLibrary":[{"start":1202,"length":20}],"SuperfluidPeripheryDeployerLibrary":[{"start":2637,"length":20},{"start":3041,"length":20}]}}},"methodIdentifiers":{"DEFAULT_REWARD_ADDRESS()":"93786bf0","getFramework()":"dfa98ad5","transferOwnership(address)":"f2fde38b"},"id":124}