{"abi":[{"type":"constructor","inputs":[{"name":"_superToken","type":"address","internalType":"contract ISuperToken"},{"name":"_rateOfGeneration","type":"int96","internalType":"int96"}],"stateMutability":"nonpayable"},{"type":"function","name":"changeRateOfGeneration","inputs":[{"name":"newRateOfGeneration","type":"int96","internalType":"int96"}],"outputs":[],"stateMutability":"nonpayable"},{"type":"function","name":"closeStream","inputs":[{"name":"receiver","type":"address","internalType":"address"}],"outputs":[],"stateMutability":"nonpayable"},{"type":"function","name":"openStream","inputs":[{"name":"receiver","type":"address","internalType":"address"}],"outputs":[],"stateMutability":"nonpayable"},{"type":"function","name":"rateOfGeneration","inputs":[],"outputs":[{"name":"","type":"int96","internalType":"int96"}],"stateMutability":"view"},{"type":"function","name":"superToken","inputs":[],"outputs":[{"name":"","type":"address","internalType":"contract ISuperToken"}],"stateMutability":"view"},{"type":"event","name":"RateOfGenerationChanged","inputs":[{"name":"newRate","type":"int96","indexed":false,"internalType":"int96"}],"anonymous":false},{"type":"event","name":"StreamClosed","inputs":[{"name":"receiver","type":"address","indexed":true,"internalType":"address"}],"anonymous":false},{"type":"event","name":"StreamOpened","inputs":[{"name":"receiver","type":"address","indexed":true,"internalType":"address"}],"anonymous":false}],"bytecode":{"object":"0x608060405234801561001057600080fd5b50604051610aec380380610aec83398101604081905261002f9161013d565b600081600b0b136100ad5760405162461bcd60e51b815260206004820152603460248201527f5265736f7572636547656e657261746f723a20726174654f6647656e6572617460448201527f696f6e206d75737420626520706f73697469766500000000000000000000000060648201526084015b60405180910390fd5b6001600160a01b03821661011a5760405162461bcd60e51b815260206004820152602e60248201527f5265736f7572636547656e657261746f723a207375706572546f6b656e206d7560448201526d7374206265206e6f6e2d7a65726f60901b60648201526084016100a4565b6001600160601b0316600160a01b026001600160a01b039091161760005561018a565b6000806040838503121561015057600080fd5b82516001600160a01b038116811461016757600080fd5b80925050602083015180600b0b811461017f57600080fd5b809150509250929050565b610953806101996000396000f3fe608060405234801561001057600080fd5b50600436106100675760003560e01c8063b76a305b11610050578063b76a305b146100b1578063bfe2d8aa146100c4578063de4b9e93146100fc57600080fd5b80632b4116f71461006c578063763b8ffe1461009c575b600080fd5b60005461007f906001600160a01b031681565b6040516001600160a01b0390911681526020015b60405180910390f35b6100af6100aa3660046106b7565b61010f565b005b6100af6100bf3660046106db565b61017b565b6000546100e990740100000000000000000000000000000000000000009004600b0b81565b604051600b9190910b8152602001610093565b6100af61010a3660046106b7565b610282565b600054610143906001600160a01b038116908390740100000000000000000000000000000000000000009004600b0b6102d1565b506040516001600160a01b038216907f3f3d8bd8d62e5a6211dc69e18f9b7a1c4e7a67f3f17cfb109ac4c7e6710ac49490600090a250565b600081600b0b13610212576040517f08c379a000000000000000000000000000000000000000000000000000000000815260206004820152603460248201527f5265736f7572636547656e657261746f723a20726174654f6647656e6572617460448201527f696f6e206d75737420626520706f736974697665000000000000000000000000606482015260840160405180910390fd5b600080546001600160a01b0316740100000000000000000000000000000000000000006bffffffffffffffffffffffff841602179055604051600b82900b81527fbd04a6b0d47e81ee81f6d9b5372727db5cfc1cddff100d104ee1aea4284923099060200160405180910390a150565b600054610299906001600160a01b03163083610433565b506040516001600160a01b038216907fb0c3d8faa4c2fabbbe312d93f5e42e75eb3109cd263b879d52a910e68a3ebf3090600090a250565b60008060006102df866104bf565b91509150816001600160a01b03166339255d5b82836001600160a01b03166362fc305e8a8a8a600067ffffffffffffffff81111561031f5761031f6106fe565b6040519080825280601f01601f191660200182016040528015610349576020820181803683370190505b5060405160240161035d949392919061077d565b60408051601f19818403018152918152602080830180517bffffffffffffffffffffffffffffffffffffffffffffffffffffffff1660e095861b179052815160008152908101918290529286901b7fffffffff000000000000000000000000000000000000000000000000000000001690526103df93925090602481016107bc565b6000604051808303816000875af11580156103fe573d6000803e3d6000fd5b505050506040513d6000823e601f3d908101601f1916820160405261042691908101906107f0565b5060019695505050505050565b6000806000610441866104bf565b91509150816001600160a01b03166339255d5b82836001600160a01b031663b4b333c68a8a8a600067ffffffffffffffff811115610481576104816106fe565b6040519080825280601f01601f1916602001820160405280156104ab576020820181803683370190505b5060405160240161035d949392919061089d565b7f65599bf746e17a00ea62e3610586992d88101b78eec3cf380706621fb97ea837547fb969d79d88acd02d04ed7ee7d43b949e7daf093d363abcfbbc43dfdfd1ce969a546001600160a01b03811661066e576001600160a01b03821661058457826001600160a01b03166320bc44256040518163ffffffff1660e01b8152600401602060405180830381865afa15801561055d573d6000803e3d6000fd5b505050506040513d601f19601f8201168201806040525081019061058191906108d1565b91505b6040517fb6d200de0000000000000000000000000000000000000000000000000000000081527fa9214cc96615e0085d3bb077758db69497dc2dce3b2b1e97bc93c3d18d83efd360048201526001600160a01b0383169063b6d200de90602401602060405180830381865afa158015610601573d6000803e3d6000fd5b505050506040513d601f19601f8201168201806040525081019061062591906108d1565b9050817f65599bf746e17a00ea62e3610586992d88101b78eec3cf380706621fb97ea83755807fb969d79d88acd02d04ed7ee7d43b949e7daf093d363abcfbbc43dfdfd1ce969a555b6001600160a01b038216610684576106846108ee565b6001600160a01b03811661069a5761069a6108ee565b915091565b6001600160a01b03811681146106b457600080fd5b50565b6000602082840312156106c957600080fd5b81356106d48161069f565b9392505050565b6000602082840312156106ed57600080fd5b813580600b0b81146106d457600080fd5b7f4e487b7100000000000000000000000000000000000000000000000000000000600052604160045260246000fd5b60005b83811015610748578181015183820152602001610730565b50506000910152565b6000815180845261076981602086016020860161072d565b601f01601f19169290920160200192915050565b60006001600160a01b03808716835280861660208401525083600b0b6040830152608060608301526107b26080830184610751565b9695505050505050565b6001600160a01b03841681526060602082015260006107de6060830185610751565b82810360408401526107b28185610751565b60006020828403121561080257600080fd5b815167ffffffffffffffff8082111561081a57600080fd5b818401915084601f83011261082e57600080fd5b815181811115610840576108406106fe565b604051601f8201601f19908116603f01168101908382118183101715610868576108686106fe565b8160405282815287602084870101111561088157600080fd5b61089283602083016020880161072d565b979650505050505050565b60006001600160a01b0380871683528086166020840152808516604084015250608060608301526107b26080830184610751565b6000602082840312156108e357600080fd5b81516106d48161069f565b7f4e487b7100000000000000000000000000000000000000000000000000000000600052600160045260246000fdfea26469706673582212205b49bd920487c2ab86bfce6105be0d8517cd354ba1a53f181944d9271450803264736f6c63430008130033","linkReferences":{}},"methodIdentifiers":{"changeRateOfGeneration(int96)":"b76a305b","closeStream(address)":"de4b9e93","openStream(address)":"763b8ffe","rateOfGeneration()":"bfe2d8aa","superToken()":"2b4116f7"},"id":162}