{"abi":[{"type":"constructor","inputs":[{"name":"host","type":"address","internalType":"contract ISuperfluid"},{"name":"constantOutflowNFT","type":"address","internalType":"contract IConstantOutflowNFT"},{"name":"baseURI","type":"string","internalType":"string"}],"stateMutability":"nonpayable"},{"type":"function","name":"CONSTANT_FLOW_AGREEMENT_V1","inputs":[],"outputs":[{"name":"","type":"address","internalType":"contract IConstantFlowAgreementV1"}],"stateMutability":"view"},{"type":"function","name":"CONSTANT_OUTFLOW_NFT","inputs":[],"outputs":[{"name":"","type":"address","internalType":"contract IConstantOutflowNFT"}],"stateMutability":"view"},{"type":"function","name":"HOST","inputs":[],"outputs":[{"name":"","type":"address","internalType":"contract ISuperfluid"}],"stateMutability":"view"},{"type":"function","name":"approve","inputs":[{"name":"to","type":"address","internalType":"address"},{"name":"tokenId","type":"uint256","internalType":"uint256"}],"outputs":[],"stateMutability":"nonpayable"},{"type":"function","name":"balanceOf","inputs":[{"name":"","type":"address","internalType":"address"}],"outputs":[{"name":"balance","type":"uint256","internalType":"uint256"}],"stateMutability":"pure"},{"type":"function","name":"burn","inputs":[{"name":"tokenId","type":"uint256","internalType":"uint256"}],"outputs":[],"stateMutability":"nonpayable"},{"type":"function","name":"castrate","inputs":[],"outputs":[],"stateMutability":"nonpayable"},{"type":"function","name":"flowDataByTokenId","inputs":[{"name":"tokenId","type":"uint256","internalType":"uint256"}],"outputs":[{"name":"flowData","type":"tuple","internalType":"struct IFlowNFTBase.FlowNFTData","components":[{"name":"superToken","type":"address","internalType":"address"},{"name":"flowSender","type":"address","internalType":"address"},{"name":"flowReceiver","type":"address","internalType":"address"},{"name":"flowStartDate","type":"uint32","internalType":"uint32"}]}],"stateMutability":"view"},{"type":"function","name":"getApproved","inputs":[{"name":"tokenId","type":"uint256","internalType":"uint256"}],"outputs":[{"name":"","type":"address","internalType":"address"}],"stateMutability":"view"},{"type":"function","name":"getCodeAddress","inputs":[],"outputs":[{"name":"codeAddress","type":"address","internalType":"address"}],"stateMutability":"view"},{"type":"function","name":"getTokenId","inputs":[{"name":"superToken","type":"address","internalType":"address"},{"name":"sender","type":"address","internalType":"address"},{"name":"receiver","type":"address","internalType":"address"}],"outputs":[{"name":"tokenId","type":"uint256","internalType":"uint256"}],"stateMutability":"view"},{"type":"function","name":"initialize","inputs":[{"name":"nftName","type":"string","internalType":"string"},{"name":"nftSymbol","type":"string","internalType":"string"}],"outputs":[],"stateMutability":"nonpayable"},{"type":"function","name":"isApprovedForAll","inputs":[{"name":"owner","type":"address","internalType":"address"},{"name":"operator","type":"address","internalType":"address"}],"outputs":[{"name":"","type":"bool","internalType":"bool"}],"stateMutability":"view"},{"type":"function","name":"mint","inputs":[{"name":"to","type":"address","internalType":"address"},{"name":"newTokenId","type":"uint256","internalType":"uint256"}],"outputs":[],"stateMutability":"nonpayable"},{"type":"function","name":"name","inputs":[],"outputs":[{"name":"","type":"string","internalType":"string"}],"stateMutability":"view"},{"type":"function","name":"ownerOf","inputs":[{"name":"tokenId","type":"uint256","internalType":"uint256"}],"outputs":[{"name":"","type":"address","internalType":"address"}],"stateMutability":"view"},{"type":"function","name":"proxiableUUID","inputs":[],"outputs":[{"name":"","type":"bytes32","internalType":"bytes32"}],"stateMutability":"pure"},{"type":"function","name":"safeTransferFrom","inputs":[{"name":"from","type":"address","internalType":"address"},{"name":"to","type":"address","internalType":"address"},{"name":"tokenId","type":"uint256","internalType":"uint256"}],"outputs":[],"stateMutability":"nonpayable"},{"type":"function","name":"safeTransferFrom","inputs":[{"name":"from","type":"address","internalType":"address"},{"name":"to","type":"address","internalType":"address"},{"name":"tokenId","type":"uint256","internalType":"uint256"},{"name":"data","type":"bytes","internalType":"bytes"}],"outputs":[],"stateMutability":"nonpayable"},{"type":"function","name":"setApprovalForAll","inputs":[{"name":"operator","type":"address","internalType":"address"},{"name":"approved","type":"bool","internalType":"bool"}],"outputs":[],"stateMutability":"nonpayable"},{"type":"function","name":"supportsInterface","inputs":[{"name":"interfaceId","type":"bytes4","internalType":"bytes4"}],"outputs":[{"name":"","type":"bool","internalType":"bool"}],"stateMutability":"pure"},{"type":"function","name":"symbol","inputs":[],"outputs":[{"name":"","type":"string","internalType":"string"}],"stateMutability":"view"},{"type":"function","name":"tokenURI","inputs":[{"name":"tokenId","type":"uint256","internalType":"uint256"}],"outputs":[{"name":"","type":"string","internalType":"string"}],"stateMutability":"view"},{"type":"function","name":"transferFrom","inputs":[{"name":"from","type":"address","internalType":"address"},{"name":"to","type":"address","internalType":"address"},{"name":"tokenId","type":"uint256","internalType":"uint256"}],"outputs":[],"stateMutability":"nonpayable"},{"type":"function","name":"triggerMetadataUpdate","inputs":[{"name":"tokenId","type":"uint256","internalType":"uint256"}],"outputs":[],"stateMutability":"nonpayable"},{"type":"function","name":"updateCode","inputs":[{"name":"newAddress","type":"address","internalType":"address"}],"outputs":[],"stateMutability":"nonpayable"},{"type":"event","name":"Approval","inputs":[{"name":"owner","type":"address","indexed":true,"internalType":"address"},{"name":"approved","type":"address","indexed":true,"internalType":"address"},{"name":"tokenId","type":"uint256","indexed":true,"internalType":"uint256"}],"anonymous":false},{"type":"event","name":"ApprovalForAll","inputs":[{"name":"owner","type":"address","indexed":true,"internalType":"address"},{"name":"operator","type":"address","indexed":true,"internalType":"address"},{"name":"approved","type":"bool","indexed":false,"internalType":"bool"}],"anonymous":false},{"type":"event","name":"CodeUpdated","inputs":[{"name":"uuid","type":"bytes32","indexed":false,"internalType":"bytes32"},{"name":"codeAddress","type":"address","indexed":false,"internalType":"address"}],"anonymous":false},{"type":"event","name":"Initialized","inputs":[{"name":"version","type":"uint8","indexed":false,"internalType":"uint8"}],"anonymous":false},{"type":"event","name":"MetadataUpdate","inputs":[{"name":"tokenId","type":"uint256","indexed":false,"internalType":"uint256"}],"anonymous":false},{"type":"event","name":"Transfer","inputs":[{"name":"from","type":"address","indexed":true,"internalType":"address"},{"name":"to","type":"address","indexed":true,"internalType":"address"},{"name":"tokenId","type":"uint256","indexed":true,"internalType":"uint256"}],"anonymous":false},{"type":"error","name":"CFA_NFT_APPROVE_CALLER_NOT_OWNER_OR_APPROVED_FOR_ALL","inputs":[]},{"type":"error","name":"CFA_NFT_APPROVE_TO_CALLER","inputs":[]},{"type":"error","name":"CFA_NFT_APPROVE_TO_CURRENT_OWNER","inputs":[]},{"type":"error","name":"CFA_NFT_INVALID_TOKEN_ID","inputs":[]},{"type":"error","name":"CFA_NFT_ONLY_SUPER_TOKEN_FACTORY","inputs":[]},{"type":"error","name":"CFA_NFT_TRANSFER_CALLER_NOT_OWNER_OR_APPROVED_FOR_ALL","inputs":[]},{"type":"error","name":"CFA_NFT_TRANSFER_FROM_INCORRECT_OWNER","inputs":[]},{"type":"error","name":"CFA_NFT_TRANSFER_IS_NOT_ALLOWED","inputs":[]},{"type":"error","name":"CFA_NFT_TRANSFER_TO_ZERO_ADDRESS","inputs":[]},{"type":"error","name":"CIF_NFT_ONLY_CONSTANT_OUTFLOW","inputs":[]}],"bytecode":{"object":"0x60e06040523480156200001157600080fd5b50604051620027d9380380620027d9833981016040819052620000349162000127565b6001600160a01b03831660a0819052604051635b69006f60e11b81527fa9214cc96615e0085d3bb077758db69497dc2dce3b2b1e97bc93c3d18d83efd360048201528491839163b6d200de90602401602060405180830381865afa158015620000a1573d6000803e3d6000fd5b505050506040513d601f19601f82011682018060405250810190620000c7919062000227565b6001600160a01b03166080526003620000e18282620002dd565b505050506001600160a01b031660c05250620003a9565b6001600160a01b03811681146200010e57600080fd5b50565b634e487b7160e01b600052604160045260246000fd5b6000806000606084860312156200013d57600080fd5b83516200014a81620000f8565b809350506020808501516200015f81620000f8565b60408601519093506001600160401b03808211156200017d57600080fd5b818701915087601f8301126200019257600080fd5b815181811115620001a757620001a762000111565b604051601f8201601f19908116603f01168101908382118183101715620001d257620001d262000111565b816040528281528a86848701011115620001eb57600080fd5b600093505b828410156200020f5784840186015181850187015292850192620001f0565b60008684830101528096505050505050509250925092565b6000602082840312156200023a57600080fd5b81516200024781620000f8565b9392505050565b600181811c908216806200026357607f821691505b6020821081036200028457634e487b7160e01b600052602260045260246000fd5b50919050565b601f821115620002d857600081815260208120601f850160051c81016020861015620002b35750805b601f850160051c820191505b81811015620002d457828155600101620002bf565b5050505b505050565b81516001600160401b03811115620002f957620002f962000111565b62000311816200030a84546200024e565b846200028a565b602080601f831160018114620003495760008415620003305750858301515b600019600386901b1c1916600185901b178555620002d4565b600085815260208120601f198616915b828110156200037a5788860151825594840194600190910190840162000359565b5085821015620003995787850151600019600388901b60f8161c191681555b5050505050600190811b01905550565b60805160a05160c0516123dd620003fc6000396000818161045801528181610755015281816107e00152610b700152600081816102ce0152610844015260008181610235015261136f01526123dd6000f3fe608060405234801561001057600080fd5b50600436106101ae5760003560e01c806350d75d25116100ee57806395d89b4111610097578063b88d4fde11610071578063b88d4fde146103f1578063c87b56dd14610404578063e985e9c514610417578063ef43d2c61461045357600080fd5b806395d89b41146103ce5780639903ad38146103d6578063a22cb465146103de57600080fd5b806370a08231116100c857806370a082311461034e57806389f71d2d146103625780638d47859e1461037557600080fd5b806350d75d251461030357806352d1902d1461030b5780636352211e1461033b57600080fd5b80632f3885601161015b57806342966c681161013557806342966c68146102a357806346951954146102b657806349f289dc146102c95780634cd88b76146102f057600080fd5b80632f3885601461026a57806340c10f191461027d57806342842e0e1461029057600080fd5b8063095ea7b31161018c578063095ea7b31461021b578063181561011461023057806323b872dd1461025757600080fd5b806301ffc9a7146101b357806306fdde03146101db578063081812fc146101f0575b600080fd5b6101c66101c13660046119ef565b61047a565b60405190151581526020015b60405180910390f35b6101e361055f565b6040516101d29190611a55565b6102036101fe366004611a88565b6105f1565b6040516001600160a01b0390911681526020016101d2565b61022e610229366004611ab6565b610618565b005b6102037f000000000000000000000000000000000000000000000000000000000000000081565b61022e610265366004611ae2565b6106f3565b61022e610278366004611a88565b61073e565b61022e61028b366004611ab6565b61074a565b61022e61029e366004611ae2565b6107ba565b61022e6102b1366004611a88565b6107d5565b61022e6102c4366004611b23565b610840565b6102037f000000000000000000000000000000000000000000000000000000000000000081565b61022e6102fe366004611c0d565b610911565b610203610a49565b7f9a61ea3469d742a522f41a67608e442d2c27902bed81123f00ba6d3e12e9871e5b6040519081526020016101d2565b610203610349366004611a88565b610a78565b61032d61035c366004611b23565b50600190565b61032d610370366004611c71565b610ac6565b610388610383366004611a88565b610b19565b6040805182516001600160a01b03908116825260208085015182169083015283830151169181019190915260609182015163ffffffff16918101919091526080016101d2565b6101e3610bdb565b61022e610bea565b61022e6103ec366004611cbc565b610d02565b61022e6103ff366004611cfa565b610d0d565b6101e3610412366004611a88565b610d5f565b6101c6610425366004611d7a565b6001600160a01b03918216600090815260056020908152604080832093909416825291909152205460ff1690565b6102037f000000000000000000000000000000000000000000000000000000000000000081565b60007f01ffc9a7000000000000000000000000000000000000000000000000000000007fffffffff000000000000000000000000000000000000000000000000000000008316148061050d57507f80ac58cd000000000000000000000000000000000000000000000000000000007fffffffff000000000000000000000000000000000000000000000000000000008316145b8061055957507f5b5e139f000000000000000000000000000000000000000000000000000000007fffffffff000000000000000000000000000000000000000000000000000000008316145b92915050565b60606001805461056e90611da8565b80601f016020809104026020016040519081016040528092919081815260200182805461059a90611da8565b80156105e75780601f106105bc576101008083540402835291602001916105e7565b820191906000526020600020905b8154815290600101906020018083116105ca57829003601f168201915b5050505050905090565b60006105fc82610d6c565b506000908152600460205260409020546001600160a01b031690565b600061062382610a78565b9050806001600160a01b0316836001600160a01b031603610670576040517fe4790b2500000000000000000000000000000000000000000000000000000000815260040160405180910390fd5b336001600160a01b038216148015906106ad57506001600160a01b038116600090815260056020908152604080832033845290915290205460ff16155b156106e4576040517fa335258200000000000000000000000000000000000000000000000000000000815260040160405180910390fd5b6106ee8383610dab565b505050565b6106fd3382610e31565b610733576040517f2551d60600000000000000000000000000000000000000000000000000000000815260040160405180910390fd5b6106ee838383610eaf565b61074781610ee1565b50565b336001600160a01b037f000000000000000000000000000000000000000000000000000000000000000016146107ac576040517fe81ef57a00000000000000000000000000000000000000000000000000000000815260040160405180910390fd5b6107b68282610f11565b5050565b6106ee83838360405180602001604052806000815250610d0d565b336001600160a01b037f00000000000000000000000000000000000000000000000000000000000000001614610837576040517fe81ef57a00000000000000000000000000000000000000000000000000000000815260040160405180910390fd5b61074781610f4d565b60007f00000000000000000000000000000000000000000000000000000000000000006001600160a01b031663731aed6e6040518163ffffffff1660e01b8152600401602060405180830381865afa1580156108a0573d6000803e3d6000fd5b505050506040513d601f19601f820116820180604052508101906108c49190611de2565b9050336001600160a01b03821614610908576040517febb7505b00000000000000000000000000000000000000000000000000000000815260040160405180910390fd5b6107b682610fd8565b600054610100900460ff16158080156109315750600054600160ff909116105b8061094b5750303b15801561094b575060005460ff166001145b6109c25760405162461bcd60e51b815260206004820152602e60248201527f496e697469616c697a61626c653a20636f6e747261637420697320616c72656160448201527f647920696e697469616c697a656400000000000000000000000000000000000060648201526084015b60405180910390fd5b6000805460ff1916600117905580156109e5576000805461ff0019166101001790555b60016109f18482611e4d565b5060026109fe8382611e4d565b5080156106ee576000805461ff0019169055604051600181527f7f26b83ff96e1f2b6a682f133852f6798a09c465da95921460cefb38474024989060200160405180910390a1505050565b6000610a737f360894a13ba1a3210667c828492db98dca3e2076cc3735a920a3ca505d382bbc5490565b905090565b600080610a848361122c565b90506001600160a01b038116610559576040517feab95e3b00000000000000000000000000000000000000000000000000000000815260040160405180910390fd5b60408051466020808301919091526001600160a01b0380871683850152808616606084015284166080808401919091528351808403909101815260a090920190925280519101206000905b949350505050565b60408051608081018252600080825260208201819052818301819052606082015290517f8d47859e000000000000000000000000000000000000000000000000000000008152600481018390526001600160a01b037f00000000000000000000000000000000000000000000000000000000000000001690638d47859e90602401608060405180830381865afa158015610bb7573d6000803e3d6000fd5b505050506040513d601f19601f820116820180604052508101906105599190611f0d565b60606002805461056e90611da8565b600054610100900460ff1615808015610c0a5750600054600160ff909116105b80610c245750303b158015610c24575060005460ff166001145b610c965760405162461bcd60e51b815260206004820152602e60248201527f496e697469616c697a61626c653a20636f6e747261637420697320616c72656160448201527f647920696e697469616c697a656400000000000000000000000000000000000060648201526084016109b9565b6000805460ff191660011790558015610cb9576000805461ff0019166101001790555b8015610747576000805461ff0019169055604051600181527f7f26b83ff96e1f2b6a682f133852f6798a09c465da95921460cefb3847402498906020015b60405180910390a150565b6107b6338383611243565b610d173383610e31565b610d4d576040517f2551d60600000000000000000000000000000000000000000000000000000000815260040160405180910390fd5b610d59848484846112fb565b50505050565b6060610559826001611306565b610d75816114a5565b610747576040517feab95e3b00000000000000000000000000000000000000000000000000000000815260040160405180910390fd5b600081815260046020526040902080547fffffffffffffffffffffffff0000000000000000000000000000000000000000166001600160a01b0384169081179091558190610df88261122c565b6001600160a01b03167f8c5be1e5ebec7d5bd14f71427d1e84f3dd0314c0f7b2291e5b200ac8c7c3b92560405160405180910390a45050565b600080610e3d83610a78565b9050806001600160a01b0316846001600160a01b03161480610e8457506001600160a01b0380821660009081526005602090815260408083209388168352929052205460ff165b80610b115750836001600160a01b0316610e9d846105f1565b6001600160a01b031614949350505050565b6040517faa747eca00000000000000000000000000000000000000000000000000000000815260040160405180910390fd5b6040518181527ff8e1a15aba9398e019f0b49df1a4fde98ee17ae345cb5f6b5e2c27f5033e8ce790602001610cf7565b60405181906001600160a01b038416906000907fddf252ad1be2c89b69c2b068fc378daa952ba7f163c4a11628f55a4df523b3ef908290a45050565b6000610f5882610b19565b600083815260046020526040902080547fffffffffffffffffffffffff000000000000000000000000000000000000000016905590508160006001600160a01b031682604001516001600160a01b03167fddf252ad1be2c89b69c2b068fc378daa952ba7f163c4a11628f55a4df523b3ef60405160405180910390a45050565b60006110027f360894a13ba1a3210667c828492db98dca3e2076cc3735a920a3ca505d382bbc5490565b6001600160a01b0316036110585760405162461bcd60e51b815260206004820152601d60248201527f5555505350726f786961626c653a206e6f742075706772616461626c6500000060448201526064016109b9565b806001600160a01b03166352d1902d6040518163ffffffff1660e01b8152600401602060405180830381865afa158015611096573d6000803e3d6000fd5b505050506040513d601f19601f820116820180604052508101906110ba9190611f9b565b7f9a61ea3469d742a522f41a67608e442d2c27902bed81123f00ba6d3e12e9871e1461114e5760405162461bcd60e51b815260206004820152602360248201527f5555505350726f786961626c653a206e6f7420636f6d70617469626c65206c6f60448201527f676963000000000000000000000000000000000000000000000000000000000060648201526084016109b9565b6001600160a01b03811630036111a65760405162461bcd60e51b815260206004820152601960248201527f5555505350726f786961626c653a2070726f7879206c6f6f700000000000000060448201526064016109b9565b6111ce817f360894a13ba1a3210667c828492db98dca3e2076cc3735a920a3ca505d382bbc55565b7fe011bc04c286c344a8fcbb8de77f953da762c3e25d8cdea984147fc4168a5dcc7f9a61ea3469d742a522f41a67608e442d2c27902bed81123f00ba6d3e12e9871e604080519182526001600160a01b038416602083015201610cf7565b60008061123883610b19565b604001519392505050565b816001600160a01b0316836001600160a01b03160361128e576040517fd3c7732900000000000000000000000000000000000000000000000000000000815260040160405180910390fd5b6001600160a01b03838116600081815260056020908152604080832094871680845294825291829020805460ff191686151590811790915591519182527f17307eab39ab6107e8899845ad3d59bd9653f200f220920489ca2b5937696c31910160405180910390a3505050565b610d59848484610eaf565b6060600061131384610b19565b8051602082015160408084015190517fe6a1e8880000000000000000000000000000000000000000000000000000000081526001600160a01b0380851660048301529283166024820152908216604482015292935090916000917f0000000000000000000000000000000000000000000000000000000000000000169063e6a1e88890606401608060405180830381865afa1580156113b6573d6000803e3d6000fd5b505050506040513d601f19601f820116820180604052508101906113da9190611fb4565b505091505060036113ea876114c2565b611401836bffffffffffffffffffffffff1661163d565b87611441576040518060400160405280600581526020017f66616c7365000000000000000000000000000000000000000000000000000000815250611478565b6040518060400160405280600481526020017f74727565000000000000000000000000000000000000000000000000000000008152505b60405160200161148b9493929190612014565b604051602081830303815290604052935050505092915050565b6000806114b18361122c565b6001600160a01b0316141592915050565b606060006114cf83610b19565b90506114e981600001516001600160a01b031660146116dd565b6114f24661163d565b82600001516001600160a01b03166395d89b416040518163ffffffff1660e01b8152600401600060405180830381865afa158015611534573d6000803e3d6000fd5b505050506040513d6000823e601f3d908101601f1916820160405261155c9190810190612105565b61157484602001516001600160a01b031660146116dd565b61158c85604001516001600160a01b031660146116dd565b6115fd86600001516001600160a01b031663313ce5676040518163ffffffff1660e01b8152600401602060405180830381865afa1580156115d1573d6000803e3d6000fd5b505050506040513d601f19601f820116820180604052508101906115f5919061217c565b60ff1661163d565b611610876060015163ffffffff1661163d565b604051602001611626979695949392919061219f565b604051602081830303815290604052915050919050565b6060600061164a8361190d565b600101905060008167ffffffffffffffff81111561166a5761166a611b40565b6040519080825280601f01601f191660200182016040528015611694576020820181803683370190505b5090508181016020015b600019017f3031323334353637383961626364656600000000000000000000000000000000600a86061a8153600a850494508461169e57509392505050565b606060006116ec836002612350565b6116f7906002612367565b67ffffffffffffffff81111561170f5761170f611b40565b6040519080825280601f01601f191660200182016040528015611739576020820181803683370190505b5090507f3000000000000000000000000000000000000000000000000000000000000000816000815181106117705761177061237a565b60200101907effffffffffffffffffffffffffffffffffffffffffffffffffffffffffffff1916908160001a9053507f7800000000000000000000000000000000000000000000000000000000000000816001815181106117d3576117d361237a565b60200101907effffffffffffffffffffffffffffffffffffffffffffffffffffffffffffff1916908160001a905350600061180f846002612350565b61181a906001612367565b90505b60018111156118b7577f303132333435363738396162636465660000000000000000000000000000000085600f166010811061185b5761185b61237a565b1a60f81b8282815181106118715761187161237a565b60200101907effffffffffffffffffffffffffffffffffffffffffffffffffffffffffffff1916908160001a90535060049490941c936118b081612390565b905061181d565b5083156119065760405162461bcd60e51b815260206004820181905260248201527f537472696e67733a20686578206c656e67746820696e73756666696369656e7460448201526064016109b9565b9392505050565b6000807a184f03e93ff9f4daa797ed6e38ed64bf6a1f0100000000000000008310611956577a184f03e93ff9f4daa797ed6e38ed64bf6a1f010000000000000000830492506040015b6d04ee2d6d415b85acef81000000008310611982576d04ee2d6d415b85acef8100000000830492506020015b662386f26fc1000083106119a057662386f26fc10000830492506010015b6305f5e10083106119b8576305f5e100830492506008015b61271083106119cc57612710830492506004015b606483106119de576064830492506002015b600a83106105595760010192915050565b600060208284031215611a0157600080fd5b81357fffffffff000000000000000000000000000000000000000000000000000000008116811461190657600080fd5b60005b83811015611a4c578181015183820152602001611a34565b50506000910152565b6020815260008251806020840152611a74816040850160208701611a31565b601f01601f19169190910160400192915050565b600060208284031215611a9a57600080fd5b5035919050565b6001600160a01b038116811461074757600080fd5b60008060408385031215611ac957600080fd5b8235611ad481611aa1565b946020939093013593505050565b600080600060608486031215611af757600080fd5b8335611b0281611aa1565b92506020840135611b1281611aa1565b929592945050506040919091013590565b600060208284031215611b3557600080fd5b813561190681611aa1565b634e487b7160e01b600052604160045260246000fd5b604051601f8201601f1916810167ffffffffffffffff81118282101715611b7f57611b7f611b40565b604052919050565b600067ffffffffffffffff821115611ba157611ba1611b40565b50601f01601f191660200190565b6000611bc2611bbd84611b87565b611b56565b9050828152838383011115611bd657600080fd5b828260208301376000602084830101529392505050565b600082601f830112611bfe57600080fd5b61190683833560208501611baf565b60008060408385031215611c2057600080fd5b823567ffffffffffffffff80821115611c3857600080fd5b611c4486838701611bed565b93506020850135915080821115611c5a57600080fd5b50611c6785828601611bed565b9150509250929050565b600080600060608486031215611c8657600080fd5b8335611c9181611aa1565b92506020840135611ca181611aa1565b91506040840135611cb181611aa1565b809150509250925092565b60008060408385031215611ccf57600080fd5b8235611cda81611aa1565b915060208301358015158114611cef57600080fd5b809150509250929050565b60008060008060808587031215611d1057600080fd5b8435611d1b81611aa1565b93506020850135611d2b81611aa1565b925060408501359150606085013567ffffffffffffffff811115611d4e57600080fd5b8501601f81018713611d5f57600080fd5b611d6e87823560208401611baf565b91505092959194509250565b60008060408385031215611d8d57600080fd5b8235611d9881611aa1565b91506020830135611cef81611aa1565b600181811c90821680611dbc57607f821691505b602082108103611ddc57634e487b7160e01b600052602260045260246000fd5b50919050565b600060208284031215611df457600080fd5b815161190681611aa1565b601f8211156106ee57600081815260208120601f850160051c81016020861015611e265750805b601f850160051c820191505b81811015611e4557828155600101611e32565b505050505050565b815167ffffffffffffffff811115611e6757611e67611b40565b611e7b81611e758454611da8565b84611dff565b602080601f831160018114611eb05760008415611e985750858301515b600019600386901b1c1916600185901b178555611e45565b600085815260208120601f198616915b82811015611edf57888601518255948401946001909101908401611ec0565b5085821015611efd5787850151600019600388901b60f8161c191681555b5050505050600190811b01905550565b600060808284031215611f1f57600080fd5b6040516080810181811067ffffffffffffffff82111715611f4257611f42611b40565b6040528251611f5081611aa1565b81526020830151611f6081611aa1565b60208201526040830151611f7381611aa1565b6040820152606083015163ffffffff81168114611f8f57600080fd5b60608201529392505050565b600060208284031215611fad57600080fd5b5051919050565b60008060008060808587031215611fca57600080fd5b84519350602085015180600b0b8114611fe257600080fd5b6040860151606090960151949790965092505050565b6000815161200a818560208601611a31565b9290920192915050565b600080865461202281611da8565b6001828116801561203a576001811461204f5761207e565b60ff198416875282151583028701945061207e565b8a60005260208060002060005b858110156120755781548a82015290840190820161205c565b50505082870194505b505050508551612092818360208a01611a31565b7f26666c6f77526174653d0000000000000000000000000000000000000000000091019081526120fa6120f46120cb600a840188611ff8565b7f2669735f696e666c6f773d0000000000000000000000000000000000000000008152600b0190565b85611ff8565b979650505050505050565b60006020828403121561211757600080fd5b815167ffffffffffffffff81111561212e57600080fd5b8201601f8101841361213f57600080fd5b805161214d611bbd82611b87565b81815285602083850101111561216257600080fd5b612173826020830160208601611a31565b95945050505050565b60006020828403121561218e57600080fd5b815160ff8116811461190657600080fd5b7f26746f6b656e5f616464726573733d00000000000000000000000000000000008152600088516121d781600f850160208d01611a31565b7f3f636861696e5f69643d00000000000000000000000000000000000000000000600f918401918201528851612214816019840160208d01611a31565b7f26746f6b656e5f73796d626f6c3d000000000000000000000000000000000000601992909101918201528751612252816027840160208c01611a31565b7f2673656e6465723d00000000000000000000000000000000000000000000000060279290910191820152865161229081602f840160208b01611a31565b7f2672656365697665723d00000000000000000000000000000000000000000000602f929091019182015261232c6120f46123036122fd6122d4603986018b611ff8565b7f26746f6b656e5f646563696d616c733d00000000000000000000000000000000815260100190565b88611ff8565b7f2673746172745f646174653d00000000000000000000000000000000000000008152600c0190565b9a9950505050505050505050565b634e487b7160e01b600052601160045260246000fd5b80820281158282048414176105595761055961233a565b808201808211156105595761055961233a565b634e487b7160e01b600052603260045260246000fd5b60008161239f5761239f61233a565b50600019019056fea2646970667358221220b2748bd0c3b0b2007cac4a66816fa77a7e080016e47d719a5ace719940b619a064736f6c63430008130033","linkReferences":{}},"methodIdentifiers":{"CONSTANT_FLOW_AGREEMENT_V1()":"18156101","CONSTANT_OUTFLOW_NFT()":"ef43d2c6","HOST()":"49f289dc","approve(address,uint256)":"095ea7b3","balanceOf(address)":"70a08231","burn(uint256)":"42966c68","castrate()":"9903ad38","flowDataByTokenId(uint256)":"8d47859e","getApproved(uint256)":"081812fc","getCodeAddress()":"50d75d25","getTokenId(address,address,address)":"89f71d2d","initialize(string,string)":"4cd88b76","isApprovedForAll(address,address)":"e985e9c5","mint(address,uint256)":"40c10f19","name()":"06fdde03","ownerOf(uint256)":"6352211e","proxiableUUID()":"52d1902d","safeTransferFrom(address,address,uint256)":"42842e0e","safeTransferFrom(address,address,uint256,bytes)":"b88d4fde","setApprovalForAll(address,bool)":"a22cb465","supportsInterface(bytes4)":"01ffc9a7","symbol()":"95d89b41","tokenURI(uint256)":"c87b56dd","transferFrom(address,address,uint256)":"23b872dd","triggerMetadataUpdate(uint256)":"2f388560","updateCode(address)":"46951954"},"id":108}