{"abi":[{"type":"function","name":"move","inputs":[{"name":"x","type":"int32","internalType":"int32"},{"name":"y","type":"int32","internalType":"int32"}],"outputs":[],"stateMutability":"nonpayable"},{"type":"function","name":"spawn","inputs":[{"name":"x","type":"int32","internalType":"int32"},{"name":"y","type":"int32","internalType":"int32"}],"outputs":[],"stateMutability":"nonpayable"},{"type":"error","name":"Slice_OutOfBounds","inputs":[{"name":"data","type":"bytes","internalType":"bytes"},{"name":"start","type":"uint256","internalType":"uint256"},{"name":"end","type":"uint256","internalType":"uint256"}]},{"type":"error","name":"StoreCore_InvalidDataLength","inputs":[{"name":"expected","type":"uint256","internalType":"uint256"},{"name":"received","type":"uint256","internalType":"uint256"}]},{"type":"error","name":"StoreCore_TableNotFound","inputs":[{"name":"tableId","type":"bytes32","internalType":"bytes32"},{"name":"tableIdString","type":"string","internalType":"string"}]}],"bytecode":{"object":"0x608060405234801561001057600080fd5b50611397806100206000396000f3fe608060405234801561001057600080fd5b50600436106100365760003560e01c806320119d0b1461003b578063b591186e14610050575b600080fd5b61004e610049366004610f7e565b610063565b005b61004e61005e366004610f7e565b61009c565b60006100896100706100b6565b73ffffffffffffffffffffffffffffffffffffffff1690565b905061009781600f806100e8565b505050565b60006100a96100706100b6565b90506100978184846100e8565b7fffffffffffffffffffffffffffffffffffffffffffffffffffffffffffffffec36013560601c806100e55750335b90565b60006100f48383610196565b6040805160018082528183019092529192506000919060208083019080368337019050509050848160008151811061012e5761012e610fc7565b602090810291909101810191909152604080516000818401527f506f736974696f6e0000000000000000000000000000000000000000000000006030820152815180820390930183528101905261018f9061018890610fdd565b82846101c5565b5050505050565b6040805160e084811b602083015283901b60248201528151600881830301815260289091019091525b92915050565b6101cd610254565b156101dd576100978383836102d2565b6040517f8ed41f2f0000000000000000000000000000000000000000000000000000000081523390638ed41f2f9061021d9086908690869060040161108f565b600060405180830381600087803b15801561023757600080fd5b505af115801561024b573d6000803e3d6000fd5b50505050505050565b6000303b80820361026757600191505090565b3073ffffffffffffffffffffffffffffffffffffffff1663a5c2f0076040518163ffffffff1660e01b815260040160006040518083038186803b1580156102ad57600080fd5b505afa9250505080156102be575060015b6102ca57600091505090565b600191505090565b60006102dd846104b3565b90506000806102ec8385610511565b915091507f912af873e852235aae78a1d25ae9bb28b616a67c36898c53a14fd8184504ee328686866040516103239392919061108f565b60405180910390a16000610336876105af565b905060005b81518110156103e557600082828151811061035857610358610fc7565b602002602001015190508073ffffffffffffffffffffffffffffffffffffffff166382b6745f8a8a8a6040518463ffffffff1660e01b815260040161039f9392919061108f565b600060405180830381600087803b1580156103b957600080fd5b505af11580156103cd573d6000803e3d6000fd5b505050505080806103dd906110da565b91505061033b565b5060006103f2888861068c565b90506020860161040582600083886106e2565b6104108560206110f4565b61041a90826110f4565b90506104258661079e565b60ff1660000361043a57505050505050505050565b60006104468a8a6107af565b858155905060008060005b61045a8a61079e565b60ff168160ff1610156104a4576104728d8d836107e6565b92506104818860ff8316610842565b915061049083600087856106e2565b61049a82866110f4565b9450600101610451565b50505050505050505050505050565b60006104be82610874565b90508061050c57816104cf83610939565b6040517fd623a70d000000000000000000000000000000000000000000000000000000008152600401610503929190611107565b60405180910390fd5b919050565b60008061051e8460f01c90565b915081600061052c8661079e565b60ff161115610560578284016020015191506105488260c81c90565b6105539060206110f4565b61055d90826110f4565b90505b835181146105a75783516040517f521b3d33000000000000000000000000000000000000000000000000000000008152610503918391600401918252602082015260400190565b509250929050565b604080516001808252818301909252606091600091906020808301908036833701905050905082816000815181106105e9576105e9610fc7565b602090810291909101810191909152604080517f6d756473746f7265000000000000000000000000000000000000000000000000818401527f486f6f6b730000000000000000000000000000000000000000000000000000006030820152815180820390930183528101905260009061066d9061066590610fdd565b836000610964565b905061068461067f8260008451610a0a565b610a9a565b949350505050565b60007f86425bff6b57326c7859e89024fe4f238ca327a1ae4a230180dd2f0e88aaa7d983836040516020016106c393929190611120565b60408051601f1981840301815291905280516020909101209392505050565b6020830484019350602083816106fa576106fa61113f565b06925082156107535760208390036000600019600884021c1990506008850281811c91508451811c905081198754168282161787555081831161073e575050610798565b6107496001876110f4565b9550509182019190035b6020811061077c578151845561076a6001856110f4565b935060209190910190601f1901610753565b80156107985783548251600019600884021c9182169119161784555b50505050565b6000601882901b5b60f81c92915050565b60007f86425bff6b57326c7859e89024fe4f238ca327a1ae4a230180dd2f0e88aaa7d983836040516020016106c393929190611155565b60007f86425bff6b57326c7859e89024fe4f238ca327a1ae4a230180dd2f0e88aaa7d984848460405160200161081f94939291906111b5565b6040516020818303038152906040528051906020012060001c90505b9392505050565b6000806108508360056111e8565b61085b9060076110f4565b905061086984826008021b90565b60d81c949350505050565b6040805160018082528183019092526000918291906020808301908036833701905050905082816000815181106108ad576108ad610fc7565b602090810291909101810191909152604080517f6d756473746f7265000000000000000000000000000000000000000000000000818401527f736368656d6100000000000000000000000000000000000000000000000000006030820152815180820390930183528101905260009061092f9061092990610fdd565b8361068c565b9050610684815490565b60608160405160200161094e91815260200190565b6040516020818303038152906040529050919050565b606061096e610254565b156109855761097e848484610aab565b905061083b565b6040517fd03edb8c000000000000000000000000000000000000000000000000000000008152339063d03edb8c906109c5908790879087906004016111ff565b600060405180830381865afa1580156109e2573d6000803e3d6000fd5b505050506040513d6000823e601f3d908101601f1916820160405261097e919081019061122b565b6000818311158015610a1d575083518211155b610a59578383836040517f23230fa3000000000000000000000000000000000000000000000000000000008152600401610503939291906112d8565b60208401610a6784826110f4565b90506000610a7585856112fd565b6fffffffffffffffffffffffffffffffff1660809290921b9190911795945050505050565b6060600061083b8360146000610acf565b60606000610ab8856104b3565b9050610ac685858584610c12565b95945050505050565b60606000610add8560801c90565b90506fffffffffffffffffffffffffffffffff8516600084610b1557610b048660086111e8565b610b10906101006112fd565b610b18565b60005b90506000868381610b2b57610b2b61113f565b049050610b388784611310565b15610bc5576040517f08c379a000000000000000000000000000000000000000000000000000000000815260206004820152603d60248201527f756e7061636b546f41727261793a207061636b65644c656e677468206d75737460448201527f2062652061206d756c7469706c65206f6620656c656d656e7453697a650000006064820152608401610503565b602080820201604051955080860160405250808552600060208601855b83831015610c04578051851c8252600192909201916020909101908901610be2565b505050505050509392505050565b6060610c1d82610c49565b60ff168360ff161015610c3d57610c3685858585610c55565b9050610684565b610c3685858585610cba565b6000601082901b6107a6565b60606000610c668360ff8616610d13565b90506000610c848260c5811115610c7f57610c7f611332565b610d3f565b90506000610c92888861068c565b90506000610ca08688610df0565b9050610cad828483610e44565b9998505050505050505050565b60606000610cc783610c49565b610cd19085611348565b90506000610ce08787846107e6565b90506000610cfb8360ff16610cf58a8a610e9c565b90610842565b9050610d078282610ea9565b98975050505050505050565b6000610d2b83610d248460046110f4565b6008021b90565b60f81c60c581111561083b5761083b611332565b6000808260c5811115610d5457610d54611332565b60ff1690506020811015610d6d5761083b8160016110f4565b6040811015610d8d576020610d838260016110f4565b61083b91906112fd565b6060811015610da3576040610d838260016110f4565b60608360c5811115610db757610db7611332565b03610dc55750600192915050565b60618360c5811115610dd957610dd9611332565b03610de75750601492915050565b50600092915050565b600080805b8360ff16811015610e3c57610e1e610e0d8683610d13565b60c5811115610c7f57610c7f611332565b610e2890836110f4565b915080610e34816110da565b915050610df5565b509392505050565b60608267ffffffffffffffff811115610e5f57610e5f610fb1565b6040519080825280601f01601f191660200182016040528015610e89576020820181803683370190505b50905060208101610e3c85858584610eb7565b60008061092f84846107af565b606061083b83836000610e44565b602082048401935060208281610ecf57610ecf61113f565b0691508115610f205760208290036000600019600883021c1990508554600885021b811984511682821617845250818511610f0b575050610798565b610f166001876110f4565b9550509283900392015b60208310610f485783548152610f376001856110f4565b9350601f1990920191602001610f20565b8215610798576000600019600885021c198251865482169119161782525050505050565b8035600381900b811461050c57600080fd5b60008060408385031215610f9157600080fd5b610f9a83610f6c565b9150610fa860208401610f6c565b90509250929050565b634e487b7160e01b600052604160045260246000fd5b634e487b7160e01b600052603260045260246000fd5b80516020808301519190811015610ffe576000198160200360031b1b821691505b50919050565b600081518084526020808501945080840160005b8381101561103457815187529582019590820190600101611018565b509495945050505050565b60005b8381101561105a578181015183820152602001611042565b50506000910152565b6000815180845261107b81602086016020860161103f565b601f01601f19169290920160200192915050565b8381526060602082015260006110a86060830185611004565b82810360408401526110ba8185611063565b9695505050505050565b634e487b7160e01b600052601160045260246000fd5b600060001982036110ed576110ed6110c4565b5060010190565b808201808211156101bf576101bf6110c4565b8281526040602082015260006106846040830184611063565b838152826020820152606060408201526000610ac66060830184611004565b634e487b7160e01b600052601260045260246000fd5b8381528260208201526080604082015260006111746080830184611004565b8281036060840152600681527f6c656e6774680000000000000000000000000000000000000000000000000000602082015260408101915050949350505050565b8481528360208201526080604082015260006111d46080830185611004565b905060ff8316606083015295945050505050565b80820281158282048414176101bf576101bf6110c4565b8381526060602082015260006112186060830185611004565b905060ff83166040830152949350505050565b60006020828403121561123d57600080fd5b815167ffffffffffffffff8082111561125557600080fd5b818401915084601f83011261126957600080fd5b81518181111561127b5761127b610fb1565b604051601f8201601f19908116603f011681019083821181831017156112a3576112a3610fb1565b816040528281528760208487010111156112bc57600080fd5b6112cd83602083016020880161103f565b979650505050505050565b6060815260006112eb6060830186611063565b60208301949094525060400152919050565b818103818111156101bf576101bf6110c4565b60008261132d57634e487b7160e01b600052601260045260246000fd5b500690565b634e487b7160e01b600052602160045260246000fd5b60ff82811682821603908111156101bf576101bf6110c456fea26469706673582212207a6c0bf2a4b42b752da7aba9fee5174af511fa66de8899d3e4bfa9003e2f1ac464736f6c63430008130033","linkReferences":{}},"methodIdentifiers":{"move(int32,int32)":"b591186e","spawn(int32,int32)":"20119d0b"},"id":165}