{"abi":[{"type":"fallback","stateMutability":"payable"},{"type":"receive","stateMutability":"payable"},{"type":"function","name":"initializeProxy","inputs":[{"name":"initialAddress","type":"address","internalType":"address"}],"outputs":[],"stateMutability":"nonpayable"}],"bytecode":{"object":"0x608060405234801561001057600080fd5b50610285806100206000396000f3fe6080604052600436106100225760003560e01c80634a0687ef1461003957610031565b366100315761002f610059565b005b61002f610059565b34801561004557600080fd5b5061002f610054366004610212565b61006b565b6100696100646101bf565b6101ee565b565b73ffffffffffffffffffffffffffffffffffffffff81166100ed576040517f08c379a000000000000000000000000000000000000000000000000000000000815260206004820152601760248201527f5555505350726f78793a207a65726f206164647265737300000000000000000060448201526064015b60405180910390fd5b60006101177f360894a13ba1a3210667c828492db98dca3e2076cc3735a920a3ca505d382bbc5490565b73ffffffffffffffffffffffffffffffffffffffff1614610194576040517f08c379a000000000000000000000000000000000000000000000000000000000815260206004820152601e60248201527f5555505350726f78793a20616c726561647920696e697469616c697a6564000060448201526064016100e4565b6101bc817f360894a13ba1a3210667c828492db98dca3e2076cc3735a920a3ca505d382bbc55565b50565b60006101e97f360894a13ba1a3210667c828492db98dca3e2076cc3735a920a3ca505d382bbc5490565b905090565b3660008037600080366000845af43d6000803e80801561020d573d6000f35b3d6000fd5b60006020828403121561022457600080fd5b813573ffffffffffffffffffffffffffffffffffffffff8116811461024857600080fd5b939250505056fea2646970667358221220b1f2ca985180c629edb9bce81d6b02d8a4835f0279987bb5101c9c28acf2598664736f6c63430008130033","linkReferences":{}},"methodIdentifiers":{"initializeProxy(address)":"4a0687ef"},"id":119}