{"abi":[{"type":"constructor","inputs":[{"name":"_additionalAdmin","type":"address","internalType":"address"}],"stateMutability":"nonpayable"},{"type":"function","name":"DEFAULT_ADMIN_ROLE","inputs":[],"outputs":[{"name":"","type":"bytes32","internalType":"bytes32"}],"stateMutability":"view"},{"type":"function","name":"addAdmin","inputs":[{"name":"_additionalAdmin","type":"address","internalType":"address"}],"outputs":[],"stateMutability":"nonpayable"},{"type":"function","name":"get","inputs":[{"name":"name","type":"string","internalType":"string"}],"outputs":[{"name":"","type":"address","internalType":"address"}],"stateMutability":"view"},{"type":"function","name":"getRoleAdmin","inputs":[{"name":"role","type":"bytes32","internalType":"bytes32"}],"outputs":[{"name":"","type":"bytes32","internalType":"bytes32"}],"stateMutability":"view"},{"type":"function","name":"getRoleMember","inputs":[{"name":"role","type":"bytes32","internalType":"bytes32"},{"name":"index","type":"uint256","internalType":"uint256"}],"outputs":[{"name":"","type":"address","internalType":"address"}],"stateMutability":"view"},{"type":"function","name":"getRoleMemberCount","inputs":[{"name":"role","type":"bytes32","internalType":"bytes32"}],"outputs":[{"name":"","type":"uint256","internalType":"uint256"}],"stateMutability":"view"},{"type":"function","name":"grantRole","inputs":[{"name":"role","type":"bytes32","internalType":"bytes32"},{"name":"account","type":"address","internalType":"address"}],"outputs":[],"stateMutability":"nonpayable"},{"type":"function","name":"hasRole","inputs":[{"name":"role","type":"bytes32","internalType":"bytes32"},{"name":"account","type":"address","internalType":"address"}],"outputs":[{"name":"","type":"bool","internalType":"bool"}],"stateMutability":"view"},{"type":"function","name":"renounceRole","inputs":[{"name":"role","type":"bytes32","internalType":"bytes32"},{"name":"account","type":"address","internalType":"address"}],"outputs":[],"stateMutability":"nonpayable"},{"type":"function","name":"revokeRole","inputs":[{"name":"role","type":"bytes32","internalType":"bytes32"},{"name":"account","type":"address","internalType":"address"}],"outputs":[],"stateMutability":"nonpayable"},{"type":"function","name":"set","inputs":[{"name":"name","type":"string","internalType":"string"},{"name":"target","type":"address","internalType":"address"}],"outputs":[],"stateMutability":"nonpayable"},{"type":"function","name":"supportsInterface","inputs":[{"name":"interfaceId","type":"bytes4","internalType":"bytes4"}],"outputs":[{"name":"","type":"bool","internalType":"bool"}],"stateMutability":"view"},{"type":"event","name":"RoleAdminChanged","inputs":[{"name":"role","type":"bytes32","indexed":true,"internalType":"bytes32"},{"name":"previousAdminRole","type":"bytes32","indexed":true,"internalType":"bytes32"},{"name":"newAdminRole","type":"bytes32","indexed":true,"internalType":"bytes32"}],"anonymous":false},{"type":"event","name":"RoleGranted","inputs":[{"name":"role","type":"bytes32","indexed":true,"internalType":"bytes32"},{"name":"account","type":"address","indexed":true,"internalType":"address"},{"name":"sender","type":"address","indexed":true,"internalType":"address"}],"anonymous":false},{"type":"event","name":"RoleRevoked","inputs":[{"name":"role","type":"bytes32","indexed":true,"internalType":"bytes32"},{"name":"account","type":"address","indexed":true,"internalType":"address"},{"name":"sender","type":"address","indexed":true,"internalType":"address"}],"anonymous":false},{"type":"event","name":"Set","inputs":[{"name":"name","type":"string","indexed":true,"internalType":"string"},{"name":"target","type":"address","indexed":false,"internalType":"address"}],"anonymous":false}],"bytecode":{"object":"0x60806040523480156200001157600080fd5b50604051620010d0380380620010d08339810160408190526200003491620001a2565b6200004160003362000055565b6200004e60008262000055565b50620001d4565b62000061828262000065565b5050565b62000071828262000090565b60008281526001602052604090206200008b908262000130565b505050565b6000828152602081815260408083206001600160a01b038516845290915290205460ff1662000061576000828152602081815260408083206001600160a01b03851684529091529020805460ff19166001179055620000ec3390565b6001600160a01b0316816001600160a01b0316837f2f8788117e7eff1d82e926ec794901d17c78024a50270940304540a733656f0d60405160405180910390a45050565b600062000147836001600160a01b03841662000150565b90505b92915050565b600081815260018301602052604081205462000199575081546001818101845560008481526020808220909301849055845484825282860190935260409020919091556200014a565b5060006200014a565b600060208284031215620001b557600080fd5b81516001600160a01b0381168114620001cd57600080fd5b9392505050565b610eec80620001e46000396000f3fe608060405234801561001057600080fd5b50600436106100d45760003560e01c80639010d07c11610081578063a815ff151161005b578063a815ff15146101ea578063ca15c873146101fd578063d547741f1461021057600080fd5b80639010d07c1461019857806391d14854146101ab578063a217fddf146101e257600080fd5b806336568abe116100b257806336568abe14610147578063693ec85e1461015a578063704802751461018557600080fd5b806301ffc9a7146100d9578063248a9ca3146101015780632f2ff15d14610132575b600080fd5b6100ec6100e7366004610b45565b610223565b60405190151581526020015b60405180910390f35b61012461010f366004610b87565b60009081526020819052604090206001015490565b6040519081526020016100f8565b610145610140366004610bbc565b61027f565b005b610145610155366004610bbc565b6102a9565b61016d610168366004610c31565b61033a565b6040516001600160a01b0390911681526020016100f8565b610145610193366004610c73565b61036f565b61016d6101a6366004610c8e565b61037d565b6100ec6101b9366004610bbc565b6000918252602082815260408084206001600160a01b0393909316845291905290205460ff1690565b610124600081565b6101456101f8366004610cb0565b61039c565b61012461020b366004610b87565b6104a3565b61014561021e366004610bbc565b6104ba565b60007fffffffff0000000000000000000000000000000000000000000000000000000082167f5a05180f0000000000000000000000000000000000000000000000000000000014806102795750610279826104df565b92915050565b60008281526020819052604090206001015461029a81610576565b6102a48383610580565b505050565b6001600160a01b038116331461032c5760405162461bcd60e51b815260206004820152602f60248201527f416363657373436f6e74726f6c3a2063616e206f6e6c792072656e6f756e636560448201527f20726f6c657320666f722073656c66000000000000000000000000000000000060648201526084015b60405180910390fd5b61033682826105a2565b5050565b60006002838360405161034e929190610d04565b908152604051908190036020019020546001600160a01b0316905092915050565b61037a6000826105c4565b50565b600082815260016020526040812061039590836105ce565b9392505050565b6103a76000336101b9565b6103f35760405162461bcd60e51b815260206004820152601660248201527f43616c6c6572206973206e6f7420616e2061646d696e000000000000000000006044820152606401610323565b8060028484604051610406929190610d04565b90815260405190819003602001812080546001600160a01b03939093167fffffffffffffffffffffffff00000000000000000000000000000000000000009093169290921790915561045b9084908490610d04565b6040519081900381206001600160a01b0383168252907f496595ced95720268cf8bc60bae3f35024ff2a130f73ac4e20f5c1eaca35db999060200160405180910390a2505050565b6000818152600160205260408120610279906105da565b6000828152602081905260409020600101546104d581610576565b6102a483836105a2565b60007fffffffff0000000000000000000000000000000000000000000000000000000082167f7965db0b00000000000000000000000000000000000000000000000000000000148061027957507f01ffc9a7000000000000000000000000000000000000000000000000000000007fffffffff00000000000000000000000000000000000000000000000000000000831614610279565b61037a81336105e4565b61058a8282610657565b60008281526001602052604090206102a490826106f5565b6105ac828261070a565b60008281526001602052604090206102a49082610789565b6103368282610580565b6000610395838361079e565b6000610279825490565b6000828152602081815260408083206001600160a01b038516845290915290205460ff1661033657610615816107c8565b6106208360206107da565b604051602001610631929190610d38565b60408051601f198184030181529082905262461bcd60e51b825261032391600401610db9565b6000828152602081815260408083206001600160a01b038516845290915290205460ff16610336576000828152602081815260408083206001600160a01b03851684529091529020805460ff191660011790556106b13390565b6001600160a01b0316816001600160a01b0316837f2f8788117e7eff1d82e926ec794901d17c78024a50270940304540a733656f0d60405160405180910390a45050565b6000610395836001600160a01b038416610a03565b6000828152602081815260408083206001600160a01b038516845290915290205460ff1615610336576000828152602081815260408083206001600160a01b0385168085529252808320805460ff1916905551339285917ff6391f5c32d9c69d2a47ea670b442974b53935d1edc7fd64eb21e047a839171b9190a45050565b6000610395836001600160a01b038416610a52565b60008260000182815481106107b5576107b5610dec565b9060005260206000200154905092915050565b60606102796001600160a01b03831660145b606060006107e9836002610e18565b6107f4906002610e2f565b67ffffffffffffffff81111561080c5761080c610e42565b6040519080825280601f01601f191660200182016040528015610836576020820181803683370190505b5090507f30000000000000000000000000000000000000000000000000000000000000008160008151811061086d5761086d610dec565b60200101907effffffffffffffffffffffffffffffffffffffffffffffffffffffffffffff1916908160001a9053507f7800000000000000000000000000000000000000000000000000000000000000816001815181106108d0576108d0610dec565b60200101907effffffffffffffffffffffffffffffffffffffffffffffffffffffffffffff1916908160001a905350600061090c846002610e18565b610917906001610e2f565b90505b60018111156109b4577f303132333435363738396162636465660000000000000000000000000000000085600f166010811061095857610958610dec565b1a60f81b82828151811061096e5761096e610dec565b60200101907effffffffffffffffffffffffffffffffffffffffffffffffffffffffffffff1916908160001a90535060049490941c936109ad81610e58565b905061091a565b5083156103955760405162461bcd60e51b815260206004820181905260248201527f537472696e67733a20686578206c656e67746820696e73756666696369656e746044820152606401610323565b6000818152600183016020526040812054610a4a57508154600181810184556000848152602080822090930184905584548482528286019093526040902091909155610279565b506000610279565b60008181526001830160205260408120548015610b3b576000610a76600183610e8d565b8554909150600090610a8a90600190610e8d565b9050818114610aef576000866000018281548110610aaa57610aaa610dec565b9060005260206000200154905080876000018481548110610acd57610acd610dec565b6000918252602080832090910192909255918252600188019052604090208390555b8554869080610b0057610b00610ea0565b600190038181906000526020600020016000905590558560010160008681526020019081526020016000206000905560019350505050610279565b6000915050610279565b600060208284031215610b5757600080fd5b81357fffffffff000000000000000000000000000000000000000000000000000000008116811461039557600080fd5b600060208284031215610b9957600080fd5b5035919050565b80356001600160a01b0381168114610bb757600080fd5b919050565b60008060408385031215610bcf57600080fd5b82359150610bdf60208401610ba0565b90509250929050565b60008083601f840112610bfa57600080fd5b50813567ffffffffffffffff811115610c1257600080fd5b602083019150836020828501011115610c2a57600080fd5b9250929050565b60008060208385031215610c4457600080fd5b823567ffffffffffffffff811115610c5b57600080fd5b610c6785828601610be8565b90969095509350505050565b600060208284031215610c8557600080fd5b61039582610ba0565b60008060408385031215610ca157600080fd5b50508035926020909101359150565b600080600060408486031215610cc557600080fd5b833567ffffffffffffffff811115610cdc57600080fd5b610ce886828701610be8565b9094509250610cfb905060208501610ba0565b90509250925092565b8183823760009101908152919050565b60005b83811015610d2f578181015183820152602001610d17565b50506000910152565b7f416363657373436f6e74726f6c3a206163636f756e7420000000000000000000815260008351610d70816017850160208801610d14565b7f206973206d697373696e6720726f6c65200000000000000000000000000000006017918401918201528351610dad816028840160208801610d14565b01602801949350505050565b6020815260008251806020840152610dd8816040850160208701610d14565b601f01601f19169190910160400192915050565b634e487b7160e01b600052603260045260246000fd5b634e487b7160e01b600052601160045260246000fd5b808202811582820484141761027957610279610e02565b8082018082111561027957610279610e02565b634e487b7160e01b600052604160045260246000fd5b600081610e6757610e67610e02565b507fffffffffffffffffffffffffffffffffffffffffffffffffffffffffffffffff0190565b8181038181111561027957610279610e02565b634e487b7160e01b600052603160045260246000fdfea26469706673582212209af4006ef1eb7631abf2d893298a97b368445b41027639c998bbf790e43dda7864736f6c63430008130033","linkReferences":{}},"methodIdentifiers":{"DEFAULT_ADMIN_ROLE()":"a217fddf","addAdmin(address)":"70480275","get(string)":"693ec85e","getRoleAdmin(bytes32)":"248a9ca3","getRoleMember(bytes32,uint256)":"9010d07c","getRoleMemberCount(bytes32)":"ca15c873","grantRole(bytes32,address)":"2f2ff15d","hasRole(bytes32,address)":"91d14854","renounceRole(bytes32,address)":"36568abe","revokeRole(bytes32,address)":"d547741f","set(string,address)":"a815ff15","supportsInterface(bytes4)":"01ffc9a7"},"id":127}