{"abi":[{"type":"constructor","inputs":[{"name":"host","type":"address","internalType":"contract ISuperfluid"},{"name":"_hookAddress","type":"address","internalType":"contract IConstantFlowAgreementHook"}],"stateMutability":"nonpayable"},{"type":"function","name":"CFA_HOOK_GAS_LIMIT","inputs":[],"outputs":[{"name":"","type":"uint64","internalType":"uint64"}],"stateMutability":"view"},{"type":"function","name":"DEFAULT_MINIMUM_DEPOSIT","inputs":[],"outputs":[{"name":"","type":"uint256","internalType":"uint256"}],"stateMutability":"view"},{"type":"function","name":"MAXIMUM_DEPOSIT","inputs":[],"outputs":[{"name":"","type":"uint256","internalType":"uint256"}],"stateMutability":"view"},{"type":"function","name":"MAXIMUM_FLOW_RATE","inputs":[],"outputs":[{"name":"","type":"uint256","internalType":"uint256"}],"stateMutability":"view"},{"type":"function","name":"agreementType","inputs":[],"outputs":[{"name":"","type":"bytes32","internalType":"bytes32"}],"stateMutability":"pure"},{"type":"function","name":"authorizeFlowOperatorWithFullControl","inputs":[{"name":"token","type":"address","internalType":"contract ISuperfluidToken"},{"name":"flowOperator","type":"address","internalType":"address"},{"name":"ctx","type":"bytes","internalType":"bytes"}],"outputs":[{"name":"newCtx","type":"bytes","internalType":"bytes"}],"stateMutability":"nonpayable"},{"type":"function","name":"castrate","inputs":[],"outputs":[],"stateMutability":"nonpayable"},{"type":"function","name":"constantFlowAgreementHook","inputs":[],"outputs":[{"name":"","type":"address","internalType":"contract IConstantFlowAgreementHook"}],"stateMutability":"view"},{"type":"function","name":"createFlow","inputs":[{"name":"token","type":"address","internalType":"contract ISuperfluidToken"},{"name":"receiver","type":"address","internalType":"address"},{"name":"flowRate","type":"int96","internalType":"int96"},{"name":"ctx","type":"bytes","internalType":"bytes"}],"outputs":[{"name":"newCtx","type":"bytes","internalType":"bytes"}],"stateMutability":"nonpayable"},{"type":"function","name":"createFlowByOperator","inputs":[{"name":"token","type":"address","internalType":"contract ISuperfluidToken"},{"name":"sender","type":"address","internalType":"address"},{"name":"receiver","type":"address","internalType":"address"},{"name":"flowRate","type":"int96","internalType":"int96"},{"name":"ctx","type":"bytes","internalType":"bytes"}],"outputs":[{"name":"newCtx","type":"bytes","internalType":"bytes"}],"stateMutability":"nonpayable"},{"type":"function","name":"decreaseFlowRateAllowance","inputs":[{"name":"token","type":"address","internalType":"contract ISuperfluidToken"},{"name":"flowOperator","type":"address","internalType":"address"},{"name":"subtractedFlowRateAllowance","type":"int96","internalType":"int96"},{"name":"ctx","type":"bytes","internalType":"bytes"}],"outputs":[{"name":"newCtx","type":"bytes","internalType":"bytes"}],"stateMutability":"nonpayable"},{"type":"function","name":"deleteFlow","inputs":[{"name":"token","type":"address","internalType":"contract ISuperfluidToken"},{"name":"sender","type":"address","internalType":"address"},{"name":"receiver","type":"address","internalType":"address"},{"name":"ctx","type":"bytes","internalType":"bytes"}],"outputs":[{"name":"newCtx","type":"bytes","internalType":"bytes"}],"stateMutability":"nonpayable"},{"type":"function","name":"deleteFlowByOperator","inputs":[{"name":"token","type":"address","internalType":"contract ISuperfluidToken"},{"name":"sender","type":"address","internalType":"address"},{"name":"receiver","type":"address","internalType":"address"},{"name":"ctx","type":"bytes","internalType":"bytes"}],"outputs":[{"name":"newCtx","type":"bytes","internalType":"bytes"}],"stateMutability":"nonpayable"},{"type":"function","name":"getAccountFlowInfo","inputs":[{"name":"token","type":"address","internalType":"contract ISuperfluidToken"},{"name":"account","type":"address","internalType":"address"}],"outputs":[{"name":"timestamp","type":"uint256","internalType":"uint256"},{"name":"flowRate","type":"int96","internalType":"int96"},{"name":"deposit","type":"uint256","internalType":"uint256"},{"name":"owedDeposit","type":"uint256","internalType":"uint256"}],"stateMutability":"view"},{"type":"function","name":"getCodeAddress","inputs":[],"outputs":[{"name":"codeAddress","type":"address","internalType":"address"}],"stateMutability":"view"},{"type":"function","name":"getDepositRequiredForFlowRate","inputs":[{"name":"token","type":"address","internalType":"contract ISuperfluidToken"},{"name":"flowRate","type":"int96","internalType":"int96"}],"outputs":[{"name":"deposit","type":"uint256","internalType":"uint256"}],"stateMutability":"view"},{"type":"function","name":"getFlow","inputs":[{"name":"token","type":"address","internalType":"contract ISuperfluidToken"},{"name":"sender","type":"address","internalType":"address"},{"name":"receiver","type":"address","internalType":"address"}],"outputs":[{"name":"timestamp","type":"uint256","internalType":"uint256"},{"name":"flowRate","type":"int96","internalType":"int96"},{"name":"deposit","type":"uint256","internalType":"uint256"},{"name":"owedDeposit","type":"uint256","internalType":"uint256"}],"stateMutability":"view"},{"type":"function","name":"getFlowByID","inputs":[{"name":"token","type":"address","internalType":"contract ISuperfluidToken"},{"name":"flowId","type":"bytes32","internalType":"bytes32"}],"outputs":[{"name":"timestamp","type":"uint256","internalType":"uint256"},{"name":"flowRate","type":"int96","internalType":"int96"},{"name":"deposit","type":"uint256","internalType":"uint256"},{"name":"owedDeposit","type":"uint256","internalType":"uint256"}],"stateMutability":"view"},{"type":"function","name":"getFlowOperatorData","inputs":[{"name":"token","type":"address","internalType":"contract ISuperfluidToken"},{"name":"sender","type":"address","internalType":"address"},{"name":"flowOperator","type":"address","internalType":"address"}],"outputs":[{"name":"flowOperatorId","type":"bytes32","internalType":"bytes32"},{"name":"permissions","type":"uint8","internalType":"uint8"},{"name":"flowRateAllowance","type":"int96","internalType":"int96"}],"stateMutability":"view"},{"type":"function","name":"getFlowOperatorDataByID","inputs":[{"name":"token","type":"address","internalType":"contract ISuperfluidToken"},{"name":"flowOperatorId","type":"bytes32","internalType":"bytes32"}],"outputs":[{"name":"permissions","type":"uint8","internalType":"uint8"},{"name":"flowRateAllowance","type":"int96","internalType":"int96"}],"stateMutability":"view"},{"type":"function","name":"getMaximumFlowRateFromDeposit","inputs":[{"name":"token","type":"address","internalType":"contract ISuperfluidToken"},{"name":"deposit","type":"uint256","internalType":"uint256"}],"outputs":[{"name":"flowRate","type":"int96","internalType":"int96"}],"stateMutability":"view"},{"type":"function","name":"getNetFlow","inputs":[{"name":"token","type":"address","internalType":"contract ISuperfluidToken"},{"name":"account","type":"address","internalType":"address"}],"outputs":[{"name":"flowRate","type":"int96","internalType":"int96"}],"stateMutability":"view"},{"type":"function","name":"increaseFlowRateAllowance","inputs":[{"name":"token","type":"address","internalType":"contract ISuperfluidToken"},{"name":"flowOperator","type":"address","internalType":"address"},{"name":"addedFlowRateAllowance","type":"int96","internalType":"int96"},{"name":"ctx","type":"bytes","internalType":"bytes"}],"outputs":[{"name":"newCtx","type":"bytes","internalType":"bytes"}],"stateMutability":"nonpayable"},{"type":"function","name":"isPatricianPeriod","inputs":[{"name":"token","type":"address","internalType":"contract ISuperfluidToken"},{"name":"account","type":"address","internalType":"address"},{"name":"timestamp","type":"uint256","internalType":"uint256"}],"outputs":[{"name":"","type":"bool","internalType":"bool"}],"stateMutability":"view"},{"type":"function","name":"isPatricianPeriodNow","inputs":[{"name":"token","type":"address","internalType":"contract ISuperfluidToken"},{"name":"account","type":"address","internalType":"address"}],"outputs":[{"name":"isCurrentlyPatricianPeriod","type":"bool","internalType":"bool"},{"name":"timestamp","type":"uint256","internalType":"uint256"}],"stateMutability":"view"},{"type":"function","name":"proxiableUUID","inputs":[],"outputs":[{"name":"","type":"bytes32","internalType":"bytes32"}],"stateMutability":"view"},{"type":"function","name":"realtimeBalanceOf","inputs":[{"name":"token","type":"address","internalType":"contract ISuperfluidToken"},{"name":"account","type":"address","internalType":"address"},{"name":"time","type":"uint256","internalType":"uint256"}],"outputs":[{"name":"dynamicBalance","type":"int256","internalType":"int256"},{"name":"deposit","type":"uint256","internalType":"uint256"},{"name":"owedDeposit","type":"uint256","internalType":"uint256"}],"stateMutability":"view"},{"type":"function","name":"revokeFlowOperatorWithFullControl","inputs":[{"name":"token","type":"address","internalType":"contract ISuperfluidToken"},{"name":"flowOperator","type":"address","internalType":"address"},{"name":"ctx","type":"bytes","internalType":"bytes"}],"outputs":[{"name":"newCtx","type":"bytes","internalType":"bytes"}],"stateMutability":"nonpayable"},{"type":"function","name":"updateCode","inputs":[{"name":"newAddress","type":"address","internalType":"address"}],"outputs":[],"stateMutability":"nonpayable"},{"type":"function","name":"updateFlow","inputs":[{"name":"token","type":"address","internalType":"contract ISuperfluidToken"},{"name":"receiver","type":"address","internalType":"address"},{"name":"flowRate","type":"int96","internalType":"int96"},{"name":"ctx","type":"bytes","internalType":"bytes"}],"outputs":[{"name":"newCtx","type":"bytes","internalType":"bytes"}],"stateMutability":"nonpayable"},{"type":"function","name":"updateFlowByOperator","inputs":[{"name":"token","type":"address","internalType":"contract ISuperfluidToken"},{"name":"sender","type":"address","internalType":"address"},{"name":"receiver","type":"address","internalType":"address"},{"name":"flowRate","type":"int96","internalType":"int96"},{"name":"ctx","type":"bytes","internalType":"bytes"}],"outputs":[{"name":"newCtx","type":"bytes","internalType":"bytes"}],"stateMutability":"nonpayable"},{"type":"function","name":"updateFlowOperatorPermissions","inputs":[{"name":"token","type":"address","internalType":"contract ISuperfluidToken"},{"name":"flowOperator","type":"address","internalType":"address"},{"name":"permissions","type":"uint8","internalType":"uint8"},{"name":"flowRateAllowance","type":"int96","internalType":"int96"},{"name":"ctx","type":"bytes","internalType":"bytes"}],"outputs":[{"name":"newCtx","type":"bytes","internalType":"bytes"}],"stateMutability":"nonpayable"},{"type":"event","name":"CodeUpdated","inputs":[{"name":"uuid","type":"bytes32","indexed":false,"internalType":"bytes32"},{"name":"codeAddress","type":"address","indexed":false,"internalType":"address"}],"anonymous":false},{"type":"event","name":"FlowOperatorUpdated","inputs":[{"name":"token","type":"address","indexed":true,"internalType":"contract ISuperfluidToken"},{"name":"sender","type":"address","indexed":true,"internalType":"address"},{"name":"flowOperator","type":"address","indexed":true,"internalType":"address"},{"name":"permissions","type":"uint8","indexed":false,"internalType":"uint8"},{"name":"flowRateAllowance","type":"int96","indexed":false,"internalType":"int96"}],"anonymous":false},{"type":"event","name":"FlowUpdated","inputs":[{"name":"token","type":"address","indexed":true,"internalType":"contract ISuperfluidToken"},{"name":"sender","type":"address","indexed":true,"internalType":"address"},{"name":"receiver","type":"address","indexed":true,"internalType":"address"},{"name":"flowRate","type":"int96","indexed":false,"internalType":"int96"},{"name":"totalSenderFlowRate","type":"int256","indexed":false,"internalType":"int256"},{"name":"totalReceiverFlowRate","type":"int256","indexed":false,"internalType":"int256"},{"name":"userData","type":"bytes","indexed":false,"internalType":"bytes"}],"anonymous":false},{"type":"event","name":"FlowUpdatedExtension","inputs":[{"name":"flowOperator","type":"address","indexed":true,"internalType":"address"},{"name":"deposit","type":"uint256","indexed":false,"internalType":"uint256"}],"anonymous":false},{"type":"event","name":"Initialized","inputs":[{"name":"version","type":"uint8","indexed":false,"internalType":"uint8"}],"anonymous":false},{"type":"error","name":"AGREEMENT_BASE_ONLY_HOST","inputs":[]},{"type":"error","name":"APP_RULE","inputs":[{"name":"_code","type":"uint256","internalType":"uint256"}]},{"type":"error","name":"CFA_ACL_FLOW_RATE_ALLOWANCE_EXCEEDED","inputs":[]},{"type":"error","name":"CFA_ACL_NO_NEGATIVE_ALLOWANCE","inputs":[]},{"type":"error","name":"CFA_ACL_NO_SENDER_CREATE","inputs":[]},{"type":"error","name":"CFA_ACL_NO_SENDER_FLOW_OPERATOR","inputs":[]},{"type":"error","name":"CFA_ACL_NO_SENDER_UPDATE","inputs":[]},{"type":"error","name":"CFA_ACL_OPERATOR_NO_CREATE_PERMISSIONS","inputs":[]},{"type":"error","name":"CFA_ACL_OPERATOR_NO_DELETE_PERMISSIONS","inputs":[]},{"type":"error","name":"CFA_ACL_OPERATOR_NO_UPDATE_PERMISSIONS","inputs":[]},{"type":"error","name":"CFA_ACL_UNCLEAN_PERMISSIONS","inputs":[]},{"type":"error","name":"CFA_DEPOSIT_TOO_BIG","inputs":[]},{"type":"error","name":"CFA_FLOW_ALREADY_EXISTS","inputs":[]},{"type":"error","name":"CFA_FLOW_DOES_NOT_EXIST","inputs":[]},{"type":"error","name":"CFA_FLOW_RATE_TOO_BIG","inputs":[]},{"type":"error","name":"CFA_HOOK_OUT_OF_GAS","inputs":[]},{"type":"error","name":"CFA_INSUFFICIENT_BALANCE","inputs":[]},{"type":"error","name":"CFA_INVALID_FLOW_RATE","inputs":[]},{"type":"error","name":"CFA_NON_CRITICAL_SENDER","inputs":[]},{"type":"error","name":"CFA_NO_SELF_FLOW","inputs":[]},{"type":"error","name":"CFA_ZERO_ADDRESS_RECEIVER","inputs":[]},{"type":"error","name":"CFA_ZERO_ADDRESS_SENDER","inputs":[]},{"type":"error","name":"OUT_OF_GAS","inputs":[]}],"bytecode":{"object":"0x60c06040523480156200001157600080fd5b5060405162005dfb38038062005dfb833981016040819052620000349162000065565b6001600160a01b039182166080521660a052620000a4565b6001600160a01b03811681146200006257600080fd5b50565b600080604083850312156200007957600080fd5b825162000086816200004c565b602084015190925062000099816200004c565b809150509250929050565b60805160a051615d07620000f460003960006102f601526000818161082a01528181610a6d0152818161110f015281816111a60152818161126401528181611a1c0152611ab30152615d076000f3fe608060405234801561001057600080fd5b50600436106101ef5760003560e01c806354b770e31161010f5780639b2e48bc116100a2578063b4b333c611610071578063b4b333c6146104e2578063bf3fbc28146104f5578063e6a1e88814610518578063e8e7e2d11461052b57600080fd5b80639b2e48bc1461048e5780639cb28b7214610330578063aabd2668146104bc578063ac5f5d00146104cf57600080fd5b8063811b3d40116100de578063811b3d401461044d5780638d997f6e1461046057806394229ecb146104735780639903ad381461048657600080fd5b806354b770e3146103ee5780635f51fb231461040157806362fc305e146104145780637730599e1461042757600080fd5b8063354b9590116101875780634fe9c291116101565780634fe9c291146103a157806350209a62146103cb57806350d75d25146103de57806352d1902d146103e657600080fd5b8063354b95901461034357806346951954146103565780634b839e0b1461036b5780634c8b181f1461038e57600080fd5b806309d256ef116101c357806309d256ef1461028c5780630f1ac495146102bb5780630f2f8f3c146102f157806326b0f5361461033057600080fd5b8062422bbe146101f457806304aafa491461022c5780630602f7db14610246578063062e56ec1461026c575b600080fd5b610207610202366004614ff6565b61053e565b6040805193845260ff9092166020840152600b0b908201526060015b60405180910390f35b61023864010000000081565b604051908152602001610223565b610259610254366004615041565b610574565b604051600b9190910b8152602001610223565b61027f61027a3660046150af565b610595565b6040516102239190615164565b61029f61029a366004615041565b6105af565b6040805160ff9093168352600b9190910b602083015201610223565b6102ce6102c9366004615177565b6105d3565b60408051948552600b9390930b6020850152918301526060820152608001610223565b6103187f000000000000000000000000000000000000000000000000000000000000000081565b6040516001600160a01b039091168152602001610223565b6102386b7fffffffffffffffffffffff81565b61027f6103513660046151c2565b610609565b61036961036436600461524e565b61081f565b005b61037e61037936600461526b565b61088d565b6040519015158152602001610223565b61027f61039c3660046152ac565b610964565b6103b46103af366004615177565b610a68565b604080519215158352602083019190915201610223565b61027f6103d9366004615328565b610b03565b610318610bc2565b610238610bf1565b61027f6103fc3660046150af565b610c55565b61027f61040f366004615328565b610c72565b61027f610422366004615328565b610e23565b7fa9214cc96615e0085d3bb077758db69497dc2dce3b2b1e97bc93c3d18d83efd3610238565b61027f61045b366004615378565b610ec7565b61023861046e3660046153bc565b6110f6565b61027f6104813660046151c2565b611330565b610369611504565b6104a161049c36600461526b565b61163f565b60408051938452602084019290925290820152606001610223565b6102ce6104ca366004615041565b611699565b61027f6104dd366004615328565b6116ab565b61027f6104f03660046152ac565b6117d2565b6104ff6203d09081565b60405167ffffffffffffffff9091168152602001610223565b6102ce610526366004614ff6565b611866565b610259610539366004615177565b6118a1565b600080600061054d85856118bb565b9250600061055b8785611937565b8051602090910151959990985094965093945050505050565b60008061058084611a15565b50905061058d8184611b72565b949350505050565b60606105a685856000808787610ec7565b95945050505050565b60008060006105be8585611937565b80516020909101519097909650945050505050565b60008060008060006105e58787611beb565b805160208201516040830151606090930151919b909a509198509650945050505050565b6060600061064d8885858080601f016020809104026020016040519081016040528093929190818152602001838380828437600092019190915250611cd692505050565b9050866001600160a01b031681606001516001600160a01b03160361069e576040517fedfa0d3b00000000000000000000000000000000000000000000000000000000815260040160405180910390fd5b6000806106b48a6106af8b8b611f3a565b611f62565b9150915060008060006106cc8d8d886060015161053e565b9250925092506106dd826001611fdb565b610713576040517fac434b5f00000000000000000000000000000000000000000000000000000000815260040160405180910390fd5b6000600b82900b6b7fffffffffffffffffffffff148061073d57508a600b0b8560200151600b0b12155b61075f576020850151610750908c615407565b61075a9083615407565b610761565b815b9050600081600b0b12156107a1576040517fa0645c1f00000000000000000000000000000000000000000000000000000000815260040160405180910390fd5b6107ad8e858584612036565b505060408051608081018252600080825260208201819052918101829052606081019190915291506107dc9050565b6001600160a01b03808c1682528a8116602083015289166040820152600b88900b60608201526108108183858a8a896120bf565b9b9a5050505050505050505050565b336001600160a01b037f00000000000000000000000000000000000000000000000000000000000000001614610881576040517f1601d91e00000000000000000000000000000000000000000000000000000000815260040160405180910390fd5b61088a81612243565b50565b604051633acd4df360e21b81526001600160a01b03838116600483015260248201839052600091829186169063eb3537cc90604401606060405180830381865afa1580156108df573d6000803e3d6000fd5b505050506040513d601f19601f820116820180604052508101906109039190615451565b505090506000811261091957600191505061095d565b60008061092587611a15565b9150915060006109358888611beb565b91505060006109478260400151612465565b905061095585828686612501565b955050505050505b9392505050565b606060006109a88785858080601f016020809104026020016040519081016040528093929190818152602001838380828437600092019190915250611cd692505050565b905060006109bb8888846060015161053e565b5091505060006109cc826002611fdb565b905080610a05576040517fe30f1bff00000000000000000000000000000000000000000000000000000000815260040160405180910390fd5b6040805160808101825260008082526020820181905291810182905260608101919091525b6001600160a01b03808b16825289811660208301528816604082015260006060820152610a5a818389898861254f565b9a9950505050505050505050565b6000807f00000000000000000000000000000000000000000000000000000000000000006001600160a01b031663bbe4fd506040518163ffffffff1660e01b8152600401602060405180830381865afa158015610ac9573d6000803e3d6000fd5b505050506040513d601f19601f82011682018060405250810190610aed919061547f565b9050610afa84848361088d565b91509250929050565b60606000610b478785858080601f016020809104026020016040519081016040528093929190818152602001838380828437600092019190915250611cd692505050565b6040805160808101825260006020820181815292820181815260608084018381526001600160a01b038e8116865291870151821695869052908c1691829052600b8b900b905293945090929091610b9d91611f3a565b9050600080610bb0846000015184611f62565b915091506108108482848b8b8a6120bf565b6000610bec7f360894a13ba1a3210667c828492db98dca3e2076cc3735a920a3ca505d382bbc5490565b905090565b6000306001600160a01b0316637730599e6040518163ffffffff1660e01b8152600401602060405180830381865afa158015610c31573d6000803e3d6000fd5b505050506040513d601f19601f82011682018060405250810190610bec919061547f565b60606105a6858560076b7fffffffffffffffffffffff8787610ec7565b606082828080601f0160208091040260200160405190810160405280939291908181526020018383808284376000920182905250604080516020601f8a018190048102820181019092528881529596509094610cee94508b935091508790879081908401838280828437600092019190915250611cd692505050565b9050856001600160a01b031681606001516001600160a01b031603610d3f576040517fb0ed394d00000000000000000000000000000000000000000000000000000000815260040160405180910390fd5b600085600b0b1215610d64576040516386e0377d60e01b815260040160405180910390fd5b6000806000610d788a85606001518b61053e565b919450925090506000610d8b8983615407565b9050600081600b0b1215610db2576040516386e0377d60e01b815260040160405180910390fd5b610dbe8b858584612036565b60608501516040805160ff86168152600b84900b60208201526001600160a01b03808e1693811692908f16917fc0d5d3a6ac18cc1769788c925e6e7fc89cd47e4270a42884736fa9b3ec09f3a8910160405180910390a4505050505095945050505050565b60606000610e678785858080601f016020809104026020016040519081016040528093929190818152602001838380828437600092019190915250611cd692505050565b6040805160808101825260006020820181815292820181815260608084019283526001600160a01b038d81168552908601518116909452928a16909252600b88900b909152909150610ebb81868685612cf0565b98975050505050505050565b606082828080601f016020809104026020016040519081016040528093929190818152602001838380828437600092019190915250929350610f0e9250879150612e8a9050565b610f44576040517f7939d66c00000000000000000000000000000000000000000000000000000000815260040160405180910390fd5b6000610f868885858080601f016020809104026020016040519081016040528093929190818152602001838380828437600092019190915250611cd692505050565b9050866001600160a01b031681606001516001600160a01b031603610fd7576040517fb0ed394d00000000000000000000000000000000000000000000000000000000815260040160405180910390fd5b600085600b0b1215610ffc576040516386e0377d60e01b815260040160405180910390fd5b6040805180820190915260ff87168152600b86900b60208201526060820151600090611028908a6118bb565b9050896001600160a01b031663a1b2bf8b8261104385612e91565b6040518363ffffffff1660e01b81526004016110609291906154d3565b600060405180830381600087803b15801561107a57600080fd5b505af115801561108e573d6000803e3d6000fd5b50505060608401516040805160ff8c168152600b8b900b60208201526001600160a01b03808e169450928316928e16917fc0d5d3a6ac18cc1769788c925e6e7fc89cd47e4270a42884736fa9b3ec09f3a8910160405180910390a45050509695505050505050565b600081600b0b60000361110b5750600061132a565b60007f00000000000000000000000000000000000000000000000000000000000000006001600160a01b031663289b3c0d6040518163ffffffff1660e01b8152600401602060405180830381865afa15801561116b573d6000803e3d6000fd5b505050506040513d601f19601f8201168201806040525081019061118f91906154ec565b60405163407b865d60e11b81526001600160a01b037f00000000000000000000000000000000000000000000000000000000000000008116600483015286811660248301527feae305fa863b373417e615b1044222e2806cefc7788d169ce6748a443c3f6cc460448301529192506000918316906380f70cba90606401602060405180830381865afa158015611229573d6000803e3d6000fd5b505050506040513d601f19601f8201168201806040525081019061124d919061547f565b60405163407b865d60e11b81526001600160a01b037f00000000000000000000000000000000000000000000000000000000000000008116600483015287811660248301527fe420d96e81cb4a6b2abb2366c4f93312d4e2ae878a7d4b22e73472fdad891f7860448301529192506000918416906380f70cba90606401602060405180830381865afa1580156112e7573d6000803e3d6000fd5b505050506040513d601f19601f8201168201806040525081019061130b919061547f565b9050602081901c63ffffffff16611323838288612f07565b9450505050505b92915050565b606060006113748885858080601f016020809104026020016040519081016040528093929190818152602001838380828437600092019190915250611cd692505050565b9050866001600160a01b031681606001516001600160a01b0316036113c5576040517f4b99313600000000000000000000000000000000000000000000000000000000815260040160405180910390fd5b60008060006113d98b8b866060015161053e565b9250925092506113ea826000611fdb565b611420576040517fa3eab6ac00000000000000000000000000000000000000000000000000000000815260040160405180910390fd5b6000600b82900b6b7fffffffffffffffffffffff14611448576114438983615407565b61144a565b815b9050600081600b0b121561148a576040517fa0645c1f00000000000000000000000000000000000000000000000000000000815260040160405180910390fd5b6114968c858584612036565b505060408051608081018252600080825260208201819052918101829052606081019190915291506114c59050565b6001600160a01b03808a168252888116602083015287166040820152600b86900b60608201526114f781868685612cf0565b9998505050505050505050565b600054610100900460ff16158080156115245750600054600160ff909116105b8061153e5750303b15801561153e575060005460ff166001145b6115b55760405162461bcd60e51b815260206004820152602e60248201527f496e697469616c697a61626c653a20636f6e747261637420697320616c72656160448201527f647920696e697469616c697a656400000000000000000000000000000000000060648201526084015b60405180910390fd5b600080547fffffffffffffffffffffffffffffffffffffffffffffffffffffffffffffff0016600117905580156115f6576000805461ff0019166101001790555b801561088a576000805461ff0019169055604051600181527f7f26b83ff96e1f2b6a682f133852f6798a09c465da95921460cefb3847402498906020015b60405180910390a150565b60008060008060006116518888611beb565b91509150811561168e578060200151600b0b8160000151876116739190615509565b61167d9190615530565b945080604001519350806060015192505b505093509350939050565b60008060008060006105e58787611f62565b606082828080601f0160208091040260200160405190810160405280939291908181526020018383808284376000920182905250604080516020601f8a01819004810282018101909252888152959650909461172794508b935091508790879081908401838280828437600092019190915250611cd692505050565b9050856001600160a01b031681606001516001600160a01b031603611778576040517fb0ed394d00000000000000000000000000000000000000000000000000000000815260040160405180910390fd5b600085600b0b121561179d576040516386e0377d60e01b815260040160405180910390fd5b60008060006117b18a85606001518b61053e565b9194509250905060006117c4898361557c565b9050610dbe8b858584612036565b606060006118168785858080601f016020809104026020016040519081016040528093929190818152602001838380828437600092019190915250611cd692505050565b905060006118298888846060015161053e565b50915050600061183a826002611fdb565b604080516080810182526000808252602082018190529181018290526060810191909152909150610a2a565b600080600080600061187c886106af8989611f3a565b805160208201516040830151606090930151919c909b50919950975095505050505050565b6000806118ae8484611beb565b6020015195945050505050565b600082826040516020016119199291906060808252600c908201527f666c6f774f70657261746f72000000000000000000000000000000000000000060808201526001600160a01b0392831660208201529116604082015260a00190565b60405160208183030381529060405280519060200120905092915050565b60408051808201825260008082526020820181905291517f6c2d9f2f000000000000000000000000000000000000000000000000000000008152306004820152602481018490526001604482015282906001600160a01b03861690636c2d9f2f90606401600060405180830381865afa1580156119b8573d6000803e3d6000fd5b505050506040513d6000823e601f3d908101601f191682016040526119e09190810190615637565b9050611a08816000815181106119f8576119f86156d1565b602002602001015160001c612fb1565b92509250505b9250929050565b60008060007f00000000000000000000000000000000000000000000000000000000000000006001600160a01b031663289b3c0d6040518163ffffffff1660e01b8152600401602060405180830381865afa158015611a78573d6000803e3d6000fd5b505050506040513d601f19601f82011682018060405250810190611a9c91906154ec565b60405163407b865d60e11b81526001600160a01b037f00000000000000000000000000000000000000000000000000000000000000008116600483015286811660248301527fe420d96e81cb4a6b2abb2366c4f93312d4e2ae878a7d4b22e73472fdad891f7860448301529192506000918316906380f70cba90606401602060405180830381865afa158015611b36573d6000803e3d6000fd5b505050506040513d601f19601f82011682018060405250810190611b5a919061547f565b63ffffffff602082901c811697911695509350505050565b60006b7fffffffffffffffffffffff821115611bba576040517f752c2b9c00000000000000000000000000000000000000000000000000000000815260040160405180910390fd5b7fffffffffffffffffffffffffffffffffffffffffffffffffffffffff0000000082169150600061058d84846156fd565b60408051608081018252600080825260208201819052918101829052606081018290526040517f4b61cc330000000000000000000000000000000000000000000000000000000081523060048201526001600160a01b038481166024830152600060448301819052600160648401529190861690634b61cc33906084015b600060405180830381865afa158015611c86573d6000803e3d6000fd5b505050506040513d6000823e601f3d908101601f19168201604052611cae9190810190615637565b9050611a0881600081518110611cc657611cc66156d1565b602002602001015160001c612ff6565b604080516101608101825260008082526020820181905291810182905260608082018390526080820183905260a082015260c0810182905260e0810182905261010081018290526101208101829052610140810191909152336001600160a01b0316836001600160a01b03166320bc44256040518163ffffffff1660e01b8152600401602060405180830381865afa158015611d76573d6000803e3d6000fd5b505050506040513d601f19601f82011682018060405250810190611d9a91906154ec565b6001600160a01b031614611df05760405162461bcd60e51b815260206004820152601160248201527f756e617574686f72697a656420686f737400000000000000000000000000000060448201526064016115ac565b6040517fbf428734000000000000000000000000000000000000000000000000000000008152339063bf42873490611e2c908590600401615164565b602060405180830381865afa158015611e49573d6000803e3d6000fd5b505050506040513d601f19601f82011682018060405250810190611e6d919061572c565b611eb95760405162461bcd60e51b815260206004820152600b60248201527f696e76616c69642063747800000000000000000000000000000000000000000060448201526064016115ac565b6040517f3f6c923a0000000000000000000000000000000000000000000000000000000081523390633f6c923a90611ef5908590600401615164565b600060405180830381865afa158015611f12573d6000803e3d6000fd5b505050506040513d6000823e601f3d908101601f1916820160405261095d91908101906157e6565b604080516001600160a01b038085166020830152831691810191909152600090606001611919565b60408051608081018252600080825260208201819052918101829052606081018290526040517f6c2d9f2f00000000000000000000000000000000000000000000000000000000815230600482015260248101849052600160448201526000906001600160a01b03861690636c2d9f2f90606401611c69565b600080826002811115611ff057611ff06158ed565b03612001575060018281161461132a565b6001826002811115612015576120156158ed565b036120285750600182811c81161461132a565b505060021c60019081161490565b6040805180820190915260ff83168152600b82900b60208201526001600160a01b03851663a1b2bf8b8561206984612e91565b6040518363ffffffff1660e01b81526004016120869291906154d3565b600060405180830381600087803b1580156120a057600080fd5b505af11580156120b4573d6000803e3d6000fd5b505050505050505050565b606060006120cd888461306f565b91505085612107576040517f5a32bf2400000000000000000000000000000000000000000000000000000000815260040160405180910390fd5b6040888101519051631e51d6a760e11b81526001600160a01b0390911660048201523390633ca3ad4e90602401602060405180830381865afa158015612151573d6000803e3d6000fd5b505050506040513d601f19601f82011682018060405250810190612175919061572c565b156121d1576121ca88604001518960000151838a89898080601f0160208091040260200160405190810160405280939291908181526020018383808284376000920191909152508b9250600191506131bb9050565b915061221c565b6122198860000151828988888080601f0160208091040260200160405190810160405280939291908181526020018383808284376000920191909152508a92506139e3915050565b91505b61222f8860000151896020015185613ae8565b61223888613bdb565b509695505050505050565b600061226d7f360894a13ba1a3210667c828492db98dca3e2076cc3735a920a3ca505d382bbc5490565b6001600160a01b0316036122c35760405162461bcd60e51b815260206004820152601d60248201527f5555505350726f786961626c653a206e6f742075706772616461626c6500000060448201526064016115ac565b806001600160a01b03166352d1902d6040518163ffffffff1660e01b8152600401602060405180830381865afa158015612301573d6000803e3d6000fd5b505050506040513d601f19601f82011682018060405250810190612325919061547f565b61232d610bf1565b146123a05760405162461bcd60e51b815260206004820152602360248201527f5555505350726f786961626c653a206e6f7420636f6d70617469626c65206c6f60448201527f676963000000000000000000000000000000000000000000000000000000000060648201526084016115ac565b6001600160a01b03811630036123f85760405162461bcd60e51b815260206004820152601960248201527f5555505350726f786961626c653a2070726f7879206c6f6f700000000000000060448201526064016115ac565b612420817f360894a13ba1a3210667c828492db98dca3e2076cc3735a920a3ca505d382bbc55565b7fe011bc04c286c344a8fcbb8de77f953da762c3e25d8cdea984147fc4168a5dcc612449610bf1565b604080519182526001600160a01b038416602083015201611634565b60007f7fffffffffffffffffffffffffffffffffffffffffffffffffffffffffffffff8211156124fd5760405162461bcd60e51b815260206004820152602860248201527f53616665436173743a2076616c756520646f65736e27742066697420696e206160448201527f6e20696e7432353600000000000000000000000000000000000000000000000060648201526084016115ac565b5090565b6000836000036125135750600061058d565b600061251f8587615903565b9050600061252d858761592b565b90506125398486615975565b612543828461592b565b13979650505050505050565b6040805160c0810182526000808252602082018190529181018290526060818101839052608082019290925260a0810182905260208701516001600160a01b03166125c6576040517f1ce9b06700000000000000000000000000000000000000000000000000000000815260040160405180910390fd5b60408701516001600160a01b031661260a576040517f78e02b2a00000000000000000000000000000000000000000000000000000000815260040160405180910390fd5b61261c87602001518860400151611f3a565b8082526020808901516001600160a01b03908116918401919091526040808a01518216908401526060808601519091169083015260006080830181905260a0808601519084015288519091829161267291611f62565b91509150816126ad576040517f5a32bf2400000000000000000000000000000000000000000000000000000000815260040160405180910390fd5b885160208a01516040808801519051633acd4df360e21b81526000936001600160a01b03169263eb3537cc926126f9926004016001600160a01b03929092168252602082015260400190565b606060405180830381865afa158015612716573d6000803e3d6000fd5b505050506040513d601f19601f8201168201806040525081019061273a9190615451565b5050905089602001516001600160a01b031686606001516001600160a01b031614158015612782575089604001516001600160a01b031686606001516001600160a01b031614155b801561278c575088155b156128e85760208a01516040517f6b4f33350000000000000000000000000000000000000000000000000000000081526001600160a01b0390911660048201523390636b4f333590602401602060405180830381865afa1580156127f4573d6000803e3d6000fd5b505050506040513d601f19601f82011682018060405250810190612818919061572c565b1580156128a9575060408a81015190517f6b4f33350000000000000000000000000000000000000000000000000000000081526001600160a01b0390911660048201523390636b4f333590602401602060405180830381865afa158015612883573d6000803e3d6000fd5b505050506040513d601f19601f820116820180604052508101906128a7919061572c565b155b156128e857600081126128e8576040517fce11b5d100000000000000000000000000000000000000000000000000000000815260040160405180910390fd5b6000811215612906576129068a600001518286858a60600151613c97565b87878080601f01602080910402602001604051908101604052809392919081815260200183838082843760009201919091525050505060208b015160608801519196506001600160a01b039081169116036129fc5760408a8101519051631e51d6a760e11b81526001600160a01b0390911660048201523390633ca3ad4e90602401602060405180830381865afa1580156129a5573d6000803e3d6000fd5b505050506040513d601f19601f820116820180604052508101906129c9919061572c565b156129ed576129e68a604001518b600001518685898b60026131bb565b9450612cda565b89516129e6908584888a6139e3565b89604001516001600160a01b031686606001516001600160a01b031603612b305760208a0151604051631e51d6a760e11b81526001600160a01b0390911660048201523390633ca3ad4e90602401602060405180830381865afa158015612a67573d6000803e3d6000fd5b505050506040513d601f19601f82011682018060405250810190612a8b919061572c565b15612aa8576129e68a602001518b600001518685898b60026131bb565b60408a8101519051631e51d6a760e11b81526001600160a01b0390911660048201523390633ca3ad4e90602401602060405180830381865afa158015612af2573d6000803e3d6000fd5b505050506040513d601f19601f82011682018060405250810190612b16919061572c565b156129ed576129e660008b600001518685898b60026131bb565b60208a0151604051631e51d6a760e11b81526001600160a01b0390911660048201523390633ca3ad4e90602401602060405180830381865afa158015612b7a573d6000803e3d6000fd5b505050506040513d601f19601f82011682018060405250810190612b9e919061572c565b8015612baa5750600081125b15612c3d5760208a01516040517fb724211e000000000000000000000000000000000000000000000000000000008152339163b724211e91612bf3918991600b90600401615988565b6000604051808303816000875af1158015612c12573d6000803e3d6000fd5b505050506040513d6000823e601f3d908101601f19168201604052612c3a91908101906159b6565b94505b60408a8101519051631e51d6a760e11b81526001600160a01b0390911660048201523390633ca3ad4e90602401602060405180830381865afa158015612c87573d6000803e3d6000fd5b505050506040513d601f19601f82011682018060405250810190612cab919061572c565b15612cc8576129e68a604001518b600001518685898b60026131bb565b8951612cd7908584888a6139e3565b94505b612ce38a613ea3565b5050505095945050505050565b6060600080612cff878561306f565b91509150600080612d14896000015185611f62565b915091508115612d50576040517f801b686300000000000000000000000000000000000000000000000000000000815260040160405180910390fd5b6040898101519051631e51d6a760e11b81526001600160a01b0390911660048201523390633ca3ad4e90602401602060405180830381865afa158015612d9a573d6000803e3d6000fd5b505050506040513d601f19601f82011682018060405250810190612dbe919061572c565b15612e1757612e1089604001518a6000015185848c8c8080601f01602080910402602001604051908101604052809392919081815260200183838082843760009201829052508f935091506131bb9050565b9450612e62565b612e5f896000015184838b8b8080601f0160208091040260200160405190810160405280939291908181526020018383808284376000920191909152508d92506139e3915050565b94505b612e7589600001518a6020015188613ae8565b612e7e89613f2b565b50505050949350505050565b60f8161590565b606060008260200151600b0b1215612eab57612eab6159eb565b60408051600180825281830190925290602080830190803683370190505090508160200151600b0b6080836000015160ff16901b1760001b81600081518110612ef657612ef66156d1565b602002602001018181525050919050565b60008082600b0b1215612f46576040517f91acad1600000000000000000000000000000000000000000000000000000000815260040160405180910390fd5b6b7fffffffffffffffffffffff612f6184600b85900b615a01565b1115612f99576040517f0c9c55c100000000000000000000000000000000000000000000000000000000815260040160405180910390fd5b6000612fa58385613fb3565b90506105a68582613ffc565b6040805180820190915260008082526020820152811580159190612ff1576b7fffffffffffffffffffffff8316600b0b6020820152608083901c60ff1681525b915091565b6040805160808101825260008082526020820181905291810182905260608101829052821580159250612ff15760e083901c8152608083901c6bffffffffffffffffffffffff16600b0b6020808301919091526bffffffffffffffff0000000084821c811660408401529084901b166060820152915091565b6040805160c08101825260008082526020820181905291810182905260608082018390526080820183905260a082015260408401516001600160a01b03166130e3576040517f78e02b2a00000000000000000000000000000000000000000000000000000000815260040160405180910390fd5b6130f584602001518560400151611f3a565b8082526020808601516001600160a01b0390811691840182905260408088015182169085018190526060808801519092168286015290870151600b0b608085015260a080870151908501529193500361317a576040517fa47338ef00000000000000000000000000000000000000000000000000000000815260040160405180910390fd5b60008160800151600b0b13611a0e576040517f91acad1600000000000000000000000000000000000000000000000000000000815260040160405180910390fd5b826131c4614f43565b6001600160a01b038916156134ce576000613259898b8a600001518b602001518c6040015160405160200161320f9291906001600160a01b0392831681529116602082015260400190565b60408051601f1981840301815260e08301825260006080840181905260a0840181905260c08401526001600160a01b03958616835293909416602082015292830152606082015290565b9050600084600281111561326f5761326f6158ed565b036132845764010000000060c08201526132b9565b6001846002811115613298576132986158ed565b036132ad5764040000000060c08201526132b9565b64100000000060c08201525b6132c38187614012565b82600001819052506000336001600160a01b031663289b3c0d6040518163ffffffff1660e01b8152600401602060405180830381865afa15801561330b573d6000803e3d6000fd5b505050506040513d601f19601f8201168201806040525081019061332f91906154ec565b905061334786604001518761014001518c8c8c614228565b5060808401525060405163407b865d60e11b81523360048201526001600160a01b038b811660248301527feae305fa863b373417e615b1044222e2806cefc7788d169ce6748a443c3f6cc46044830152600091908316906380f70cba90606401602060405180830381865afa1580156133c4573d6000803e3d6000fd5b505050506040513d601f19601f820116820180604052508101906133e8919061547f565b90506000836080015160001461340c5761340764010000000083613ffc565b61340f565b60005b90508084608001516134219190615a18565b608085015260608a015161343490612465565b60a0850152600087600281111561344d5761344d6158ed565b036134625764020000000060c0850152613497565b6001876002811115613476576134766158ed565b0361348b5764080000000060c0850152613497565b64200000000060c08501525b6134a684866000015188614638565b60408701919091528b519096506134be908d90611f62565b6020870152506134ec9350505050565b6134e484604001518561014001518a8a8a614228565b602084015250505b60006134fb8760600151612465565b8260400151610100015161350f9190615509565b905061353581613526846020015160400151612465565b6135309190615903565b614948565b8260200151604001818152505061355781613526846020015160600151612465565b60208301805160600191909152885190516001600160a01b038b169163a1b2bf8b916135829061499a565b6040518363ffffffff1660e01b815260040161359f9291906154d3565b600060405180830381600087803b1580156135b957600080fd5b505af11580156135cd573d6000803e3d6000fd5b505050506135e989896020015160008460008a60400151614a0b565b50613601898960400151600080858a60400151614a0b565b506101408501516001600160a01b031615806136335750886001600160a01b03168561014001516001600160a01b0316145b156136c0576040517f59a2914100000000000000000000000000000000000000000000000000000000815233906359a29141906136769086908590600401615a2b565b6000604051808303816000875af1158015613695573d6000803e3d6000fd5b505050506040513d6000823e601f3d908101601f191682016040526136bd91908101906159b6565b92505b6040888101519051631e51d6a760e11b81526001600160a01b0390911660048201523390633ca3ad4e90602401602060405180830381865afa15801561370a573d6000803e3d6000fd5b505050506040513d601f19601f8201168201806040525081019061372e919061572c565b156139d657604088810151868201519151633acd4df360e21b81526001600160a01b0391821660048201526024810192909252600091908b169063eb3537cc90604401606060405180830381865afa15801561378e573d6000803e3d6000fd5b505050506040513d601f19601f820116820180604052508101906137b29190615451565b509091505060008112156139d45760028560028111156137d4576137d46158ed565b0361399f576040808a015190517fb724211e000000000000000000000000000000000000000000000000000000008152339163b724211e9161381d918891600c90600401615988565b6000604051808303816000875af115801561383c573d6000803e3d6000fd5b505050506040513d6000823e601f3d908101601f1916820160405261386491908101906159b6565b9350600061388261387483615a4d565b61387d85615a4d565b614b95565b90508a6001600160a01b031663cf97256d8b60200151836138a290615a4d565b6040517fffffffff0000000000000000000000000000000000000000000000000000000060e085901b1681526001600160a01b0390921660048301526024820152604401600060405180830381600087803b15801561390057600080fd5b505af1158015613914573d6000803e3d6000fd5b5050505060408a81015190517fcf97256d0000000000000000000000000000000000000000000000000000000081526001600160a01b03918216600482015260248101839052908c169063cf97256d90604401600060405180830381600087803b15801561398157600080fd5b505af1158015613995573d6000803e3d6000fd5b50505050506139d4565b6040517fa85ba64f000000000000000000000000000000000000000000000000000000008152600c60048201526024016115ac565b505b5050979650505050505050565b606083810151156139f6576139f66159eb565b6040805160808101825260008082526020820181905291810182905260608101829052613a2f84604001518561014001518a8a8a614228565b6101408701519294509250506001600160a01b03808a16911603613ad9576040517f59a2914100000000000000000000000000000000000000000000000000000000815233906359a2914190613a8b9088908690600401615a2b565b6000604051808303816000875af1158015613aaa573d6000803e3d6000fd5b505050506040513d6000823e601f3d908101601f19168201604052613ad291908101906159b6565b9250613add565b8492505b505095945050505050565b602081015160ff166003141580613b165750826001600160a01b03168161014001516001600160a01b031614155b15613bd6576040808201519051633acd4df360e21b81526001600160a01b038481166004830152602482019290925260009185169063eb3537cc90604401606060405180830381865afa158015613b71573d6000803e3d6000fd5b505050506040513d601f19601f82011682018060405250810190613b959190615451565b505090506000811215613bd4576040517fea76c9b300000000000000000000000000000000000000000000000000000000815260040160405180910390fd5b505b505050565b60005a90506000613bef8360000151614baa565b90506001600160a01b03811615613bd6578251602084015160408086015190517feb54a7ca0000000000000000000000000000000000000000000000000000000081526001600160a01b0393841660048201529183166024830152821660448201529082169063eb54a7ca906064015b600060405180830381600087803b158015613c7957600080fd5b505af1925050508015613c8a575060015b613bd657613bd682614c87565b6000613ca7868560200151611beb565b9150506000613cb98460400151612465565b90506000613cca8360400151612465565b90506060600080613cdb848b615903565b9050600080613ce98d611a15565b91509150613cf98c878484612501565b9350505060008112613de457600084613d128388615530565b613d1c919061592b565b9050600183613d2c576001613d2f565b60005b6040805160ff9384166020820152929091169082015260600160405160208183030381529060405293508b6001600160a01b0316631863e8098b60000151868b878f60200151613d7e88614948565b613d8a89600019615530565b6040518863ffffffff1660e01b8152600401613dac9796959493929190615a85565b600060405180830381600087803b158015613dc657600080fd5b505af1158015613dda573d6000803e3d6000fd5b5050505050613e96565b6040805160016020820152600291810191909152859060600160405160208183030381529060405293508b6001600160a01b0316631863e8098b60000151868b60008f60200151613e3488614948565b613e408a600019615530565b6040518863ffffffff1660e01b8152600401613e629796959493929190615a85565b600060405180830381600087803b158015613e7c57600080fd5b505af1158015613e90573d6000803e3d6000fd5b50505050505b5050505050505050505050565b60005a90506000613eb78360000151614baa565b90506001600160a01b03811615613bd6578251602084015160408086015190517fef1f02370000000000000000000000000000000000000000000000000000000081526001600160a01b0393841660048201529183166024830152821660448201529082169063ef1f023790606401613c5f565b60005a90506000613f3f8360000151614baa565b90506001600160a01b03811615613bd6578251602084015160408086015190517ff7e3d9830000000000000000000000000000000000000000000000000000000081526001600160a01b0393841660048201529183166024830152821660448201529082169063f7e3d98390606401613c5f565b600082600b0b600003613fc85750600061132a565b6b7fffffffffffffffffffffff821115613fe457613fe46159eb565b613fee8284615ad2565b600b0b905061095d81614cc7565b600081831161400b578161095d565b5090919050565b60208201516040517ff9f522f40000000000000000000000000000000000000000000000000000000081526001600160a01b03909116600482015260609060009081908190339063f9f522f490602401606060405180830381865afa15801561407f573d6000803e3d6000fd5b505050506040513d601f19601f820116820180604052508101906140a39190615af2565b919450925090508280156140b5575081155b1561421f5760006140c68688614cfb565b90508660c0015182166000036142115760006140e58860c00151614d92565b88516040808b015160608c01518251600081526020810190935261411193923092919060448101615b2e565b60408051601f19818403018152918152602080830180517bffffffffffffffffffffffffffffffffffffffffffffffffffffffff167fffffffff0000000000000000000000000000000000000000000000000000000090951694909417909352918a015160c08b015192517f74041e0200000000000000000000000000000000000000000000000000000000815291935033926374041e02926141c69291869164100000000091909114908890600401615b72565b6000604051808303816000875af11580156141e5573d6000803e3d6000fd5b505050506040513d6000823e601f3d908101601f1916820160405261420d91908101906159b6565b9550505b61421c866000614ebf565b50505b50505092915050565b6000806142596040518060800160405280600081526020016000600b0b815260200160008152602001600081525090565b600080600061426789611a15565b5090506000336001600160a01b031663289b3c0d6040518163ffffffff1660e01b8152600401602060405180830381865afa1580156142aa573d6000803e3d6000fd5b505050506040513d601f19601f820116820180604052508101906142ce91906154ec565b60405163407b865d60e11b81523360048201526001600160a01b038c811660248301527feae305fa863b373417e615b1044222e2806cefc7788d169ce6748a443c3f6cc46044830152919250908216906380f70cba90606401602060405180830381865afa158015614344573d6000803e3d6000fd5b505050506040513d601f19601f82011682018060405250810190614368919061547f565b9250614378896080015183613fb3565b955050506143898660600151612465565b6143968760400151612465565b61439f86612465565b6143a99190615509565b6143b39190615903565b94506143c6856135268860400151612465565b915080821080156143de575060008760800151600b0b135b15614420576143f08660600151612465565b6143fd8760400151612465565b61440683612465565b6144109190615509565b61441a9190615903565b94508091505b6001600160a01b0389161580159061444a5750876001600160a01b0316896001600160a01b031614155b1561445457600093505b604051806080016040528060008960800151600b0b13614475576000614477565b8b5b81526020018860800151600b0b815260200183815260200187606001518152509250876001600160a01b031663a1b2bf8b88600001516144b68661499a565b6040518363ffffffff1660e01b81526004016144d39291906154d3565b600060405180830381600087803b1580156144ed57600080fd5b505af1158015614501573d6000803e3d6000fd5b505060408051808201909152600080825260208201529250614521915050565b6145478888602001518960800151896020015161453e9190615407565b8860008f614a0b565b600b0b8152604087015160208701516080890151614576928b92909161456d9190615407565b6000808f614a0b565b600b0b60208083018290526040808a0151918a015160808b0151855160a08d015193516001600160a01b0395861696938616958f16947f57269d2ebcccecdcc0d9d2c0a0b80ead95f344e28ec20f50f709811f209d4e0e946145dc949392909190615bb9565b60405180910390a486606001516001600160a01b03167f71e0c98e270fc3084227b473f176924d5303ece8c639e679998a2d7dc8e70f748360405161462391815260200190565b60405180910390a25050955095509592505050565b60408051610160810182526000808252602080830182905282840182905260608084018390526080840183905260a0840181905260c0840183905260e084018390526101008401839052610120840183905261014084018390529087015193517ff9f522f40000000000000000000000000000000000000000000000000000000081526001600160a01b039094166004850152919281908190339063f9f522f490602401606060405180830381865afa1580156146f9573d6000803e3d6000fd5b505050506040513d601f19601f8201168201806040525081019061471d9190615af2565b88965091945092509050828015614732575081155b1561493d576147418489614cfb565b93508760c00151811660000361492b5760006147608960c00151614d92565b89516040808c015160608d01518251600081526020810190935261478e9392309291908e9060448101615bf1565b60408051601f19818403018152918152602080830180517bffffffffffffffffffffffffffffffffffffffffffffffffffffffff167fffffffff0000000000000000000000000000000000000000000000000000000090951694909417909352918b015160c08c015192517f1e6d0a840000000000000000000000000000000000000000000000000000000081529193503392631e6d0a84926148439291869164200000000091909114908b90600401615b72565b6000604051808303816000875af1158015614862573d6000803e3d6000fd5b505050506040513d6000823e601f3d908101601f1916820160405261488a91908101906159b6565b6040517f3f6c923a0000000000000000000000000000000000000000000000000000000081529095503390633f6c923a906148c9908890600401615164565b600060405180830381865afa1580156148e6573d6000803e3d6000fd5b505050506040513d6000823e601f3d908101601f1916820160405261490e91908101906157e6565b95506149238960800151876101000151614f00565b610100870152505b61493a86866101000151614ebf565b93505b505050935093915050565b6000808212156124fd5760405162461bcd60e51b815260206004820181905260248201527f53616665436173743a2076616c7565206d75737420626520706f73697469766560448201526064016115ac565b6040805160018082528183019092526060916020808301908036833701905050905060208260600151901c604060208460400151901c901b608084602001516bffffffffffffffffffffffff16901b60e08560000151901b17171760001b81600081518110612ef657612ef66156d1565b600080614a188888611beb565b91505060008160200151600b0b614a3d836000015186614a389190615975565b612465565b614a479190615530565b90508015614acb576040517fcf97256d0000000000000000000000000000000000000000000000000000000081526001600160a01b038981166004830152602482018390528a169063cf97256d90604401600060405180830381600087803b158015614ab257600080fd5b505af1158015614ac6573d6000803e3d6000fd5b505050505b868260200151614adb919061557c565b600b0b60208301528382526040820151614afa90879061352690612465565b60408301526060820151614b1390869061352690612465565b60608301526001600160a01b03891663090c415e896000614b338661499a565b6040518463ffffffff1660e01b8152600401614b5193929190615c49565b600060405180830381600087803b158015614b6b57600080fd5b505af1158015614b7f573d6000803e3d6000fd5b5050506020909201519998505050505050505050565b6000818313614ba4578261095d565b50919050565b60408051600481526024810182526020810180517bffffffffffffffffffffffffffffffffffffffffffffffffffffffff167fef43d2c6000000000000000000000000000000000000000000000000000000001790529051600091829182916001600160a01b03861691614c1e9190615c71565b600060405180830381855afa9150503d8060008114614c59576040519150601f19603f3d011682016040523d82523d6000602084013e614c5e565b606091505b50915091508115614c805780806020019051810190614c7d91906154ec565b92505b5050919050565b614c9081614f1e565b1561088a576040517f20afada500000000000000000000000000000000000000000000000000000000815260040160405180910390fd5b60008063ffffffff8316614cdc576000614cdf565b60015b60ff1690506020614cf28285831c615a18565b901b9392505050565b6020810151608082015160a083015183516040517f768fabb0000000000000000000000000000000000000000000000000000000008152606094339463768fabb094614d4b948a94600401615c8d565b6000604051808303816000875af1158015614d6a573d6000803e3d6000fd5b505050506040513d6000823e601f3d908101601f1916820160405261095d91908101906159b6565b60006401000000008203614dc757507f30d9c91500000000000000000000000000000000000000000000000000000000919050565b6404000000008203614dfa57507f884d1f4000000000000000000000000000000000000000000000000000000000919050565b6410000000008203614e2d57507f5f9e7d7700000000000000000000000000000000000000000000000000000000919050565b6402000000008203614e6057507fd86ed3e500000000000000000000000000000000000000000000000000000000919050565b6408000000008203614e9357507f230dbd2900000000000000000000000000000000000000000000000000000000919050565b507f53c11f9900000000000000000000000000000000000000000000000000000000919050565b919050565b6040517f989b0c3e000000000000000000000000000000000000000000000000000000008152606090339063989b0c3e90614d4b9086908690600401615a2b565b600061095d6000614f19614f1386612465565b85614b95565b614f34565b6000614f2b603f836156fd565b5a111592915050565b600081831361400b578161095d565b604051806060016040528060608152602001614f836040518060800160405280600081526020016000600b0b815260200160008152602001600081525090565b815260408051610160810182526000808252602082810182905292820181905260608083018290526080830182905260a083015260c0820181905260e082018190526101008201819052610120820181905261014082015291015290565b6001600160a01b038116811461088a57600080fd5b60008060006060848603121561500b57600080fd5b833561501681614fe1565b9250602084013561502681614fe1565b9150604084013561503681614fe1565b809150509250925092565b6000806040838503121561505457600080fd5b823561505f81614fe1565b946020939093013593505050565b60008083601f84011261507f57600080fd5b50813567ffffffffffffffff81111561509757600080fd5b602083019150836020828501011115611a0e57600080fd5b600080600080606085870312156150c557600080fd5b84356150d081614fe1565b935060208501356150e081614fe1565b9250604085013567ffffffffffffffff8111156150fc57600080fd5b6151088782880161506d565b95989497509550505050565b60005b8381101561512f578181015183820152602001615117565b50506000910152565b60008151808452615150816020860160208601615114565b601f01601f19169290920160200192915050565b60208152600061095d6020830184615138565b6000806040838503121561518a57600080fd5b823561519581614fe1565b915060208301356151a581614fe1565b809150509250929050565b8035600b81900b8114614eba57600080fd5b60008060008060008060a087890312156151db57600080fd5b86356151e681614fe1565b955060208701356151f681614fe1565b9450604087013561520681614fe1565b9350615214606088016151b0565b9250608087013567ffffffffffffffff81111561523057600080fd5b61523c89828a0161506d565b979a9699509497509295939492505050565b60006020828403121561526057600080fd5b813561095d81614fe1565b60008060006060848603121561528057600080fd5b833561528b81614fe1565b9250602084013561529b81614fe1565b929592945050506040919091013590565b6000806000806000608086880312156152c457600080fd5b85356152cf81614fe1565b945060208601356152df81614fe1565b935060408601356152ef81614fe1565b9250606086013567ffffffffffffffff81111561530b57600080fd5b6153178882890161506d565b969995985093965092949392505050565b60008060008060006080868803121561534057600080fd5b853561534b81614fe1565b9450602086013561535b81614fe1565b93506152ef604087016151b0565b60ff8116811461088a57600080fd5b60008060008060008060a0878903121561539157600080fd5b863561539c81614fe1565b955060208701356153ac81614fe1565b9450604087013561520681615369565b600080604083850312156153cf57600080fd5b82356153da81614fe1565b91506153e8602084016151b0565b90509250929050565b634e487b7160e01b600052601160045260246000fd5b600b82810b9082900b037fffffffffffffffffffffffffffffffffffffffff80000000000000000000000081126b7fffffffffffffffffffffff8213171561132a5761132a6153f1565b60008060006060848603121561546657600080fd5b8351925060208401519150604084015190509250925092565b60006020828403121561549157600080fd5b5051919050565b600081518084526020808501945080840160005b838110156154c8578151875295820195908201906001016154ac565b509495945050505050565b82815260406020820152600061058d6040830184615498565b6000602082840312156154fe57600080fd5b815161095d81614fe1565b8181036000831280158383131683831282161715615529576155296153f1565b5092915050565b808202600082127f800000000000000000000000000000000000000000000000000000000000000084141615615568576155686153f1565b818105831482151761132a5761132a6153f1565b600b81810b9083900b016b7fffffffffffffffffffffff81137fffffffffffffffffffffffffffffffffffffffff8000000000000000000000008212171561132a5761132a6153f1565b634e487b7160e01b600052604160045260246000fd5b604051610160810167ffffffffffffffff81118282101715615600576156006155c6565b60405290565b604051601f8201601f1916810167ffffffffffffffff8111828210171561562f5761562f6155c6565b604052919050565b6000602080838503121561564a57600080fd5b825167ffffffffffffffff8082111561566257600080fd5b818501915085601f83011261567657600080fd5b815181811115615688576156886155c6565b8060051b9150615699848301615606565b81815291830184019184810190888411156156b357600080fd5b938501935b83851015610ebb578451825293850193908501906156b8565b634e487b7160e01b600052603260045260246000fd5b634e487b7160e01b600052601260045260246000fd5b60008261570c5761570c6156e7565b500490565b8051614eba81614fe1565b80518015158114614eba57600080fd5b60006020828403121561573e57600080fd5b61095d8261571c565b8051614eba81615369565b80517fffffffff0000000000000000000000000000000000000000000000000000000081168114614eba57600080fd5b600082601f83011261579357600080fd5b815167ffffffffffffffff8111156157ad576157ad6155c6565b6157c06020601f19601f84011601615606565b8181528460208386010111156157d557600080fd5b61058d826020830160208701615114565b6000602082840312156157f857600080fd5b815167ffffffffffffffff8082111561581057600080fd5b90830190610160828603121561582557600080fd5b61582d6155dc565b61583683615747565b815261584460208401615747565b60208201526040830151604082015261585f60608401615711565b606082015261587060808401615752565b608082015260a08301518281111561588757600080fd5b61589387828601615782565b60a08301525060c083015160c082015260e083015160e08201526101009150818301518282015261012091506158ca828401615711565b8282015261014091506158de828401615711565b91810191909152949350505050565b634e487b7160e01b600052602160045260246000fd5b8082018281126000831280158216821582161715615923576159236153f1565b505092915050565b60008261593a5761593a6156e7565b60001983147f800000000000000000000000000000000000000000000000000000000000000083141615615970576159706153f1565b500590565b8181038181111561132a5761132a6153f1565b60608152600061599b6060830186615138565b6001600160a01b039490941660208301525060400152919050565b6000602082840312156159c857600080fd5b815167ffffffffffffffff8111156159df57600080fd5b61058d84828501615782565b634e487b7160e01b600052600160045260246000fd5b808202811582820484141761132a5761132a6153f1565b8082018082111561132a5761132a6153f1565b604081526000615a3e6040830185615138565b90508260208301529392505050565b60007f80000000000000000000000000000000000000000000000000000000000000008203615a7e57615a7e6153f1565b5060000390565b87815260e060208201526000615a9e60e0830189615138565b6001600160a01b03978816604084015295151560608301525092909416608083015260a082015260c0019190915292915050565b600082600b0b82600b0b0280600b0b9150808214615529576155296153f1565b600080600060608486031215615b0757600080fd5b615b108461571c565b9250615b1e6020850161571c565b9150604084015190509250925092565b60006001600160a01b03808816835280871660208401525084604083015260a06060830152615b6060a0830185615138565b8281036080840152610ebb8185615138565b6001600160a01b0385168152608060208201526000615b946080830186615138565b84151560408401528281036060840152615bae8185615138565b979650505050505050565b84600b0b815283600b0b602082015282600b0b6040820152608060608201526000615be76080830184615138565b9695505050505050565b60006001600160a01b03808916835280881660208401525085604083015260c06060830152615c2360c0830186615138565b8281036080840152615c358186615138565b905082810360a08401526114f78185615138565b6001600160a01b03841681528260208201526060604082015260006105a66060830184615498565b60008251615c83818460208701615114565b9190910192915050565b60a081526000615ca060a0830188615138565b90506001600160a01b038087166020840152856040840152846060840152808416608084015250969550505050505056fea26469706673582212208d3efc587f03b66a436975111a171d7209fa970c9628da7feac074218df7f45464736f6c63430008130033","linkReferences":{}},"methodIdentifiers":{"CFA_HOOK_GAS_LIMIT()":"bf3fbc28","DEFAULT_MINIMUM_DEPOSIT()":"04aafa49","MAXIMUM_DEPOSIT()":"9cb28b72","MAXIMUM_FLOW_RATE()":"26b0f536","agreementType()":"7730599e","authorizeFlowOperatorWithFullControl(address,address,bytes)":"54b770e3","castrate()":"9903ad38","constantFlowAgreementHook()":"0f2f8f3c","createFlow(address,address,int96,bytes)":"62fc305e","createFlowByOperator(address,address,address,int96,bytes)":"94229ecb","decreaseFlowRateAllowance(address,address,int96,bytes)":"5f51fb23","deleteFlow(address,address,address,bytes)":"b4b333c6","deleteFlowByOperator(address,address,address,bytes)":"4c8b181f","getAccountFlowInfo(address,address)":"0f1ac495","getCodeAddress()":"50d75d25","getDepositRequiredForFlowRate(address,int96)":"8d997f6e","getFlow(address,address,address)":"e6a1e888","getFlowByID(address,bytes32)":"aabd2668","getFlowOperatorData(address,address,address)":"00422bbe","getFlowOperatorDataByID(address,bytes32)":"09d256ef","getMaximumFlowRateFromDeposit(address,uint256)":"0602f7db","getNetFlow(address,address)":"e8e7e2d1","increaseFlowRateAllowance(address,address,int96,bytes)":"ac5f5d00","isPatricianPeriod(address,address,uint256)":"4b839e0b","isPatricianPeriodNow(address,address)":"4fe9c291","proxiableUUID()":"52d1902d","realtimeBalanceOf(address,address,uint256)":"9b2e48bc","revokeFlowOperatorWithFullControl(address,address,bytes)":"062e56ec","updateCode(address)":"46951954","updateFlow(address,address,int96,bytes)":"50209a62","updateFlowByOperator(address,address,address,int96,bytes)":"354b9590","updateFlowOperatorPermissions(address,address,uint8,int96,bytes)":"811b3d40"},"id":71}