{"abi":[{"type":"constructor","inputs":[{"name":"host","type":"address","internalType":"contract ISuperfluid"},{"name":"constantOutflowNFT","type":"address","internalType":"contract IConstantOutflowNFT"},{"name":"constantInflowNFT","type":"address","internalType":"contract IConstantInflowNFT"}],"stateMutability":"nonpayable"},{"type":"function","name":"CONSTANT_INFLOW_NFT","inputs":[],"outputs":[{"name":"","type":"address","internalType":"contract IConstantInflowNFT"}],"stateMutability":"view"},{"type":"function","name":"CONSTANT_OUTFLOW_NFT","inputs":[],"outputs":[{"name":"","type":"address","internalType":"contract IConstantOutflowNFT"}],"stateMutability":"view"},{"type":"function","name":"allowance","inputs":[{"name":"account","type":"address","internalType":"address"},{"name":"spender","type":"address","internalType":"address"}],"outputs":[{"name":"","type":"uint256","internalType":"uint256"}],"stateMutability":"view"},{"type":"function","name":"approve","inputs":[{"name":"spender","type":"address","internalType":"address"},{"name":"amount","type":"uint256","internalType":"uint256"}],"outputs":[{"name":"","type":"bool","internalType":"bool"}],"stateMutability":"nonpayable"},{"type":"function","name":"authorizeOperator","inputs":[{"name":"operator","type":"address","internalType":"address"}],"outputs":[],"stateMutability":"nonpayable"},{"type":"function","name":"balanceOf","inputs":[{"name":"account","type":"address","internalType":"address"}],"outputs":[{"name":"balance","type":"uint256","internalType":"uint256"}],"stateMutability":"view"},{"type":"function","name":"burn","inputs":[{"name":"amount","type":"uint256","internalType":"uint256"},{"name":"data","type":"bytes","internalType":"bytes"}],"outputs":[],"stateMutability":"nonpayable"},{"type":"function","name":"castrate","inputs":[],"outputs":[],"stateMutability":"nonpayable"},{"type":"function","name":"createAgreement","inputs":[{"name":"id","type":"bytes32","internalType":"bytes32"},{"name":"data","type":"bytes32[]","internalType":"bytes32[]"}],"outputs":[],"stateMutability":"nonpayable"},{"type":"function","name":"decimals","inputs":[],"outputs":[{"name":"","type":"uint8","internalType":"uint8"}],"stateMutability":"pure"},{"type":"function","name":"decreaseAllowance","inputs":[{"name":"spender","type":"address","internalType":"address"},{"name":"subtractedValue","type":"uint256","internalType":"uint256"}],"outputs":[{"name":"","type":"bool","internalType":"bool"}],"stateMutability":"nonpayable"},{"type":"function","name":"defaultOperators","inputs":[],"outputs":[{"name":"","type":"address[]","internalType":"address[]"}],"stateMutability":"view"},{"type":"function","name":"downgrade","inputs":[{"name":"amount","type":"uint256","internalType":"uint256"}],"outputs":[],"stateMutability":"nonpayable"},{"type":"function","name":"downgradeTo","inputs":[{"name":"to","type":"address","internalType":"address"},{"name":"amount","type":"uint256","internalType":"uint256"}],"outputs":[],"stateMutability":"nonpayable"},{"type":"function","name":"getAccountActiveAgreements","inputs":[{"name":"account","type":"address","internalType":"address"}],"outputs":[{"name":"","type":"address[]","internalType":"contract ISuperAgreement[]"}],"stateMutability":"view"},{"type":"function","name":"getAgreementData","inputs":[{"name":"agreementClass","type":"address","internalType":"address"},{"name":"id","type":"bytes32","internalType":"bytes32"},{"name":"dataLength","type":"uint256","internalType":"uint256"}],"outputs":[{"name":"data","type":"bytes32[]","internalType":"bytes32[]"}],"stateMutability":"view"},{"type":"function","name":"getAgreementStateSlot","inputs":[{"name":"agreementClass","type":"address","internalType":"address"},{"name":"account","type":"address","internalType":"address"},{"name":"slotId","type":"uint256","internalType":"uint256"},{"name":"dataLength","type":"uint256","internalType":"uint256"}],"outputs":[{"name":"slotData","type":"bytes32[]","internalType":"bytes32[]"}],"stateMutability":"view"},{"type":"function","name":"getCodeAddress","inputs":[],"outputs":[{"name":"codeAddress","type":"address","internalType":"address"}],"stateMutability":"view"},{"type":"function","name":"getHost","inputs":[],"outputs":[{"name":"host","type":"address","internalType":"address"}],"stateMutability":"view"},{"type":"function","name":"getUnderlyingToken","inputs":[],"outputs":[{"name":"","type":"address","internalType":"address"}],"stateMutability":"view"},{"type":"function","name":"granularity","inputs":[],"outputs":[{"name":"","type":"uint256","internalType":"uint256"}],"stateMutability":"pure"},{"type":"function","name":"increaseAllowance","inputs":[{"name":"spender","type":"address","internalType":"address"},{"name":"addedValue","type":"uint256","internalType":"uint256"}],"outputs":[{"name":"","type":"bool","internalType":"bool"}],"stateMutability":"nonpayable"},{"type":"function","name":"initialize","inputs":[{"name":"underlyingToken","type":"address","internalType":"contract IERC20"},{"name":"underlyingDecimals","type":"uint8","internalType":"uint8"},{"name":"n","type":"string","internalType":"string"},{"name":"s","type":"string","internalType":"string"}],"outputs":[],"stateMutability":"nonpayable"},{"type":"function","name":"isAccountCritical","inputs":[{"name":"account","type":"address","internalType":"address"},{"name":"timestamp","type":"uint256","internalType":"uint256"}],"outputs":[{"name":"isCritical","type":"bool","internalType":"bool"}],"stateMutability":"view"},{"type":"function","name":"isAccountCriticalNow","inputs":[{"name":"account","type":"address","internalType":"address"}],"outputs":[{"name":"isCritical","type":"bool","internalType":"bool"}],"stateMutability":"view"},{"type":"function","name":"isAccountSolvent","inputs":[{"name":"account","type":"address","internalType":"address"},{"name":"timestamp","type":"uint256","internalType":"uint256"}],"outputs":[{"name":"isSolvent","type":"bool","internalType":"bool"}],"stateMutability":"view"},{"type":"function","name":"isAccountSolventNow","inputs":[{"name":"account","type":"address","internalType":"address"}],"outputs":[{"name":"isSolvent","type":"bool","internalType":"bool"}],"stateMutability":"view"},{"type":"function","name":"isOperatorFor","inputs":[{"name":"operator","type":"address","internalType":"address"},{"name":"tokenHolder","type":"address","internalType":"address"}],"outputs":[{"name":"","type":"bool","internalType":"bool"}],"stateMutability":"view"},{"type":"function","name":"makeLiquidationPayoutsV2","inputs":[{"name":"id","type":"bytes32","internalType":"bytes32"},{"name":"liquidationTypeData","type":"bytes","internalType":"bytes"},{"name":"liquidatorAccount","type":"address","internalType":"address"},{"name":"useDefaultRewardAccount","type":"bool","internalType":"bool"},{"name":"targetAccount","type":"address","internalType":"address"},{"name":"rewardAmount","type":"uint256","internalType":"uint256"},{"name":"targetAccountBalanceDelta","type":"int256","internalType":"int256"}],"outputs":[],"stateMutability":"nonpayable"},{"type":"function","name":"name","inputs":[],"outputs":[{"name":"","type":"string","internalType":"string"}],"stateMutability":"view"},{"type":"function","name":"operationApprove","inputs":[{"name":"account","type":"address","internalType":"address"},{"name":"spender","type":"address","internalType":"address"},{"name":"amount","type":"uint256","internalType":"uint256"}],"outputs":[],"stateMutability":"nonpayable"},{"type":"function","name":"operationDecreaseAllowance","inputs":[{"name":"account","type":"address","internalType":"address"},{"name":"spender","type":"address","internalType":"address"},{"name":"subtractedValue","type":"uint256","internalType":"uint256"}],"outputs":[],"stateMutability":"nonpayable"},{"type":"function","name":"operationDowngrade","inputs":[{"name":"account","type":"address","internalType":"address"},{"name":"amount","type":"uint256","internalType":"uint256"}],"outputs":[],"stateMutability":"nonpayable"},{"type":"function","name":"operationIncreaseAllowance","inputs":[{"name":"account","type":"address","internalType":"address"},{"name":"spender","type":"address","internalType":"address"},{"name":"addedValue","type":"uint256","internalType":"uint256"}],"outputs":[],"stateMutability":"nonpayable"},{"type":"function","name":"operationSend","inputs":[{"name":"spender","type":"address","internalType":"address"},{"name":"recipient","type":"address","internalType":"address"},{"name":"amount","type":"uint256","internalType":"uint256"},{"name":"userData","type":"bytes","internalType":"bytes"}],"outputs":[],"stateMutability":"nonpayable"},{"type":"function","name":"operationTransferFrom","inputs":[{"name":"account","type":"address","internalType":"address"},{"name":"spender","type":"address","internalType":"address"},{"name":"recipient","type":"address","internalType":"address"},{"name":"amount","type":"uint256","internalType":"uint256"}],"outputs":[],"stateMutability":"nonpayable"},{"type":"function","name":"operationUpgrade","inputs":[{"name":"account","type":"address","internalType":"address"},{"name":"amount","type":"uint256","internalType":"uint256"}],"outputs":[],"stateMutability":"nonpayable"},{"type":"function","name":"operatorBurn","inputs":[{"name":"account","type":"address","internalType":"address"},{"name":"amount","type":"uint256","internalType":"uint256"},{"name":"data","type":"bytes","internalType":"bytes"},{"name":"operatorData","type":"bytes","internalType":"bytes"}],"outputs":[],"stateMutability":"nonpayable"},{"type":"function","name":"operatorSend","inputs":[{"name":"sender","type":"address","internalType":"address"},{"name":"recipient","type":"address","internalType":"address"},{"name":"amount","type":"uint256","internalType":"uint256"},{"name":"data","type":"bytes","internalType":"bytes"},{"name":"operatorData","type":"bytes","internalType":"bytes"}],"outputs":[],"stateMutability":"nonpayable"},{"type":"function","name":"proxiableUUID","inputs":[],"outputs":[{"name":"","type":"bytes32","internalType":"bytes32"}],"stateMutability":"pure"},{"type":"function","name":"realtimeBalanceOf","inputs":[{"name":"account","type":"address","internalType":"address"},{"name":"timestamp","type":"uint256","internalType":"uint256"}],"outputs":[{"name":"availableBalance","type":"int256","internalType":"int256"},{"name":"deposit","type":"uint256","internalType":"uint256"},{"name":"owedDeposit","type":"uint256","internalType":"uint256"}],"stateMutability":"view"},{"type":"function","name":"realtimeBalanceOfNow","inputs":[{"name":"account","type":"address","internalType":"address"}],"outputs":[{"name":"availableBalance","type":"int256","internalType":"int256"},{"name":"deposit","type":"uint256","internalType":"uint256"},{"name":"owedDeposit","type":"uint256","internalType":"uint256"},{"name":"timestamp","type":"uint256","internalType":"uint256"}],"stateMutability":"view"},{"type":"function","name":"revokeOperator","inputs":[{"name":"operator","type":"address","internalType":"address"}],"outputs":[],"stateMutability":"nonpayable"},{"type":"function","name":"selfApproveFor","inputs":[{"name":"account","type":"address","internalType":"address"},{"name":"spender","type":"address","internalType":"address"},{"name":"amount","type":"uint256","internalType":"uint256"}],"outputs":[],"stateMutability":"nonpayable"},{"type":"function","name":"selfBurn","inputs":[{"name":"account","type":"address","internalType":"address"},{"name":"amount","type":"uint256","internalType":"uint256"},{"name":"userData","type":"bytes","internalType":"bytes"}],"outputs":[],"stateMutability":"nonpayable"},{"type":"function","name":"selfMint","inputs":[{"name":"account","type":"address","internalType":"address"},{"name":"amount","type":"uint256","internalType":"uint256"},{"name":"userData","type":"bytes","internalType":"bytes"}],"outputs":[],"stateMutability":"nonpayable"},{"type":"function","name":"selfTransferFrom","inputs":[{"name":"holder","type":"address","internalType":"address"},{"name":"spender","type":"address","internalType":"address"},{"name":"recipient","type":"address","internalType":"address"},{"name":"amount","type":"uint256","internalType":"uint256"}],"outputs":[],"stateMutability":"nonpayable"},{"type":"function","name":"send","inputs":[{"name":"recipient","type":"address","internalType":"address"},{"name":"amount","type":"uint256","internalType":"uint256"},{"name":"data","type":"bytes","internalType":"bytes"}],"outputs":[],"stateMutability":"nonpayable"},{"type":"function","name":"settleBalance","inputs":[{"name":"account","type":"address","internalType":"address"},{"name":"delta","type":"int256","internalType":"int256"}],"outputs":[],"stateMutability":"nonpayable"},{"type":"function","name":"symbol","inputs":[],"outputs":[{"name":"","type":"string","internalType":"string"}],"stateMutability":"view"},{"type":"function","name":"terminateAgreement","inputs":[{"name":"id","type":"bytes32","internalType":"bytes32"},{"name":"dataLength","type":"uint256","internalType":"uint256"}],"outputs":[],"stateMutability":"nonpayable"},{"type":"function","name":"totalSupply","inputs":[],"outputs":[{"name":"","type":"uint256","internalType":"uint256"}],"stateMutability":"view"},{"type":"function","name":"transfer","inputs":[{"name":"recipient","type":"address","internalType":"address"},{"name":"amount","type":"uint256","internalType":"uint256"}],"outputs":[{"name":"","type":"bool","internalType":"bool"}],"stateMutability":"nonpayable"},{"type":"function","name":"transferAll","inputs":[{"name":"recipient","type":"address","internalType":"address"}],"outputs":[],"stateMutability":"nonpayable"},{"type":"function","name":"transferFrom","inputs":[{"name":"holder","type":"address","internalType":"address"},{"name":"recipient","type":"address","internalType":"address"},{"name":"amount","type":"uint256","internalType":"uint256"}],"outputs":[{"name":"","type":"bool","internalType":"bool"}],"stateMutability":"nonpayable"},{"type":"function","name":"updateAgreementData","inputs":[{"name":"id","type":"bytes32","internalType":"bytes32"},{"name":"data","type":"bytes32[]","internalType":"bytes32[]"}],"outputs":[],"stateMutability":"nonpayable"},{"type":"function","name":"updateAgreementStateSlot","inputs":[{"name":"account","type":"address","internalType":"address"},{"name":"slotId","type":"uint256","internalType":"uint256"},{"name":"slotData","type":"bytes32[]","internalType":"bytes32[]"}],"outputs":[],"stateMutability":"nonpayable"},{"type":"function","name":"updateCode","inputs":[{"name":"newAddress","type":"address","internalType":"address"}],"outputs":[],"stateMutability":"nonpayable"},{"type":"function","name":"upgrade","inputs":[{"name":"amount","type":"uint256","internalType":"uint256"}],"outputs":[],"stateMutability":"nonpayable"},{"type":"function","name":"upgradeTo","inputs":[{"name":"to","type":"address","internalType":"address"},{"name":"amount","type":"uint256","internalType":"uint256"},{"name":"data","type":"bytes","internalType":"bytes"}],"outputs":[],"stateMutability":"nonpayable"},{"type":"event","name":"AgreementCreated","inputs":[{"name":"agreementClass","type":"address","indexed":true,"internalType":"address"},{"name":"id","type":"bytes32","indexed":false,"internalType":"bytes32"},{"name":"data","type":"bytes32[]","indexed":false,"internalType":"bytes32[]"}],"anonymous":false},{"type":"event","name":"AgreementLiquidated","inputs":[{"name":"agreementClass","type":"address","indexed":true,"internalType":"address"},{"name":"id","type":"bytes32","indexed":false,"internalType":"bytes32"},{"name":"penaltyAccount","type":"address","indexed":true,"internalType":"address"},{"name":"rewardAccount","type":"address","indexed":true,"internalType":"address"},{"name":"rewardAmount","type":"uint256","indexed":false,"internalType":"uint256"}],"anonymous":false},{"type":"event","name":"AgreementLiquidatedBy","inputs":[{"name":"liquidatorAccount","type":"address","indexed":false,"internalType":"address"},{"name":"agreementClass","type":"address","indexed":true,"internalType":"address"},{"name":"id","type":"bytes32","indexed":false,"internalType":"bytes32"},{"name":"penaltyAccount","type":"address","indexed":true,"internalType":"address"},{"name":"bondAccount","type":"address","indexed":true,"internalType":"address"},{"name":"rewardAmount","type":"uint256","indexed":false,"internalType":"uint256"},{"name":"bailoutAmount","type":"uint256","indexed":false,"internalType":"uint256"}],"anonymous":false},{"type":"event","name":"AgreementLiquidatedV2","inputs":[{"name":"agreementClass","type":"address","indexed":true,"internalType":"address"},{"name":"id","type":"bytes32","indexed":false,"internalType":"bytes32"},{"name":"liquidatorAccount","type":"address","indexed":true,"internalType":"address"},{"name":"targetAccount","type":"address","indexed":true,"internalType":"address"},{"name":"rewardAmountReceiver","type":"address","indexed":false,"internalType":"address"},{"name":"rewardAmount","type":"uint256","indexed":false,"internalType":"uint256"},{"name":"targetAccountBalanceDelta","type":"int256","indexed":false,"internalType":"int256"},{"name":"liquidationTypeData","type":"bytes","indexed":false,"internalType":"bytes"}],"anonymous":false},{"type":"event","name":"AgreementStateUpdated","inputs":[{"name":"agreementClass","type":"address","indexed":true,"internalType":"address"},{"name":"account","type":"address","indexed":true,"internalType":"address"},{"name":"slotId","type":"uint256","indexed":false,"internalType":"uint256"}],"anonymous":false},{"type":"event","name":"AgreementTerminated","inputs":[{"name":"agreementClass","type":"address","indexed":true,"internalType":"address"},{"name":"id","type":"bytes32","indexed":false,"internalType":"bytes32"}],"anonymous":false},{"type":"event","name":"AgreementUpdated","inputs":[{"name":"agreementClass","type":"address","indexed":true,"internalType":"address"},{"name":"id","type":"bytes32","indexed":false,"internalType":"bytes32"},{"name":"data","type":"bytes32[]","indexed":false,"internalType":"bytes32[]"}],"anonymous":false},{"type":"event","name":"Approval","inputs":[{"name":"owner","type":"address","indexed":true,"internalType":"address"},{"name":"spender","type":"address","indexed":true,"internalType":"address"},{"name":"value","type":"uint256","indexed":false,"internalType":"uint256"}],"anonymous":false},{"type":"event","name":"AuthorizedOperator","inputs":[{"name":"operator","type":"address","indexed":true,"internalType":"address"},{"name":"tokenHolder","type":"address","indexed":true,"internalType":"address"}],"anonymous":false},{"type":"event","name":"Bailout","inputs":[{"name":"bailoutAccount","type":"address","indexed":true,"internalType":"address"},{"name":"bailoutAmount","type":"uint256","indexed":false,"internalType":"uint256"}],"anonymous":false},{"type":"event","name":"Burned","inputs":[{"name":"operator","type":"address","indexed":true,"internalType":"address"},{"name":"from","type":"address","indexed":true,"internalType":"address"},{"name":"amount","type":"uint256","indexed":false,"internalType":"uint256"},{"name":"data","type":"bytes","indexed":false,"internalType":"bytes"},{"name":"operatorData","type":"bytes","indexed":false,"internalType":"bytes"}],"anonymous":false},{"type":"event","name":"CodeUpdated","inputs":[{"name":"uuid","type":"bytes32","indexed":false,"internalType":"bytes32"},{"name":"codeAddress","type":"address","indexed":false,"internalType":"address"}],"anonymous":false},{"type":"event","name":"ConstantInflowNFTCreated","inputs":[{"name":"constantInflowNFT","type":"address","indexed":true,"internalType":"contract IConstantInflowNFT"}],"anonymous":false},{"type":"event","name":"ConstantOutflowNFTCreated","inputs":[{"name":"constantOutflowNFT","type":"address","indexed":true,"internalType":"contract IConstantOutflowNFT"}],"anonymous":false},{"type":"event","name":"Initialized","inputs":[{"name":"version","type":"uint8","indexed":false,"internalType":"uint8"}],"anonymous":false},{"type":"event","name":"Minted","inputs":[{"name":"operator","type":"address","indexed":true,"internalType":"address"},{"name":"to","type":"address","indexed":true,"internalType":"address"},{"name":"amount","type":"uint256","indexed":false,"internalType":"uint256"},{"name":"data","type":"bytes","indexed":false,"internalType":"bytes"},{"name":"operatorData","type":"bytes","indexed":false,"internalType":"bytes"}],"anonymous":false},{"type":"event","name":"RevokedOperator","inputs":[{"name":"operator","type":"address","indexed":true,"internalType":"address"},{"name":"tokenHolder","type":"address","indexed":true,"internalType":"address"}],"anonymous":false},{"type":"event","name":"Sent","inputs":[{"name":"operator","type":"address","indexed":true,"internalType":"address"},{"name":"from","type":"address","indexed":true,"internalType":"address"},{"name":"to","type":"address","indexed":true,"internalType":"address"},{"name":"amount","type":"uint256","indexed":false,"internalType":"uint256"},{"name":"data","type":"bytes","indexed":false,"internalType":"bytes"},{"name":"operatorData","type":"bytes","indexed":false,"internalType":"bytes"}],"anonymous":false},{"type":"event","name":"TokenDowngraded","inputs":[{"name":"account","type":"address","indexed":true,"internalType":"address"},{"name":"amount","type":"uint256","indexed":false,"internalType":"uint256"}],"anonymous":false},{"type":"event","name":"TokenUpgraded","inputs":[{"name":"account","type":"address","indexed":true,"internalType":"address"},{"name":"amount","type":"uint256","indexed":false,"internalType":"uint256"}],"anonymous":false},{"type":"event","name":"Transfer","inputs":[{"name":"from","type":"address","indexed":true,"internalType":"address"},{"name":"to","type":"address","indexed":true,"internalType":"address"},{"name":"value","type":"uint256","indexed":false,"internalType":"uint256"}],"anonymous":false},{"type":"error","name":"SF_TOKEN_AGREEMENT_ALREADY_EXISTS","inputs":[]},{"type":"error","name":"SF_TOKEN_AGREEMENT_DOES_NOT_EXIST","inputs":[]},{"type":"error","name":"SF_TOKEN_BURN_INSUFFICIENT_BALANCE","inputs":[]},{"type":"error","name":"SF_TOKEN_MOVE_INSUFFICIENT_BALANCE","inputs":[]},{"type":"error","name":"SF_TOKEN_ONLY_HOST","inputs":[]},{"type":"error","name":"SF_TOKEN_ONLY_LISTED_AGREEMENT","inputs":[]},{"type":"error","name":"SUPER_TOKEN_APPROVE_FROM_ZERO_ADDRESS","inputs":[]},{"type":"error","name":"SUPER_TOKEN_APPROVE_TO_ZERO_ADDRESS","inputs":[]},{"type":"error","name":"SUPER_TOKEN_BURN_FROM_ZERO_ADDRESS","inputs":[]},{"type":"error","name":"SUPER_TOKEN_CALLER_IS_NOT_OPERATOR_FOR_HOLDER","inputs":[]},{"type":"error","name":"SUPER_TOKEN_INFLATIONARY_DEFLATIONARY_NOT_SUPPORTED","inputs":[]},{"type":"error","name":"SUPER_TOKEN_MINT_TO_ZERO_ADDRESS","inputs":[]},{"type":"error","name":"SUPER_TOKEN_NFT_PROXY_ADDRESS_CHANGED","inputs":[]},{"type":"error","name":"SUPER_TOKEN_NOT_ERC777_TOKENS_RECIPIENT","inputs":[]},{"type":"error","name":"SUPER_TOKEN_NO_UNDERLYING_TOKEN","inputs":[]},{"type":"error","name":"SUPER_TOKEN_ONLY_GOV_OWNER","inputs":[]},{"type":"error","name":"SUPER_TOKEN_ONLY_HOST","inputs":[]},{"type":"error","name":"SUPER_TOKEN_ONLY_SELF","inputs":[]},{"type":"error","name":"SUPER_TOKEN_TRANSFER_FROM_ZERO_ADDRESS","inputs":[]},{"type":"error","name":"SUPER_TOKEN_TRANSFER_TO_ZERO_ADDRESS","inputs":[]}],"bytecode":{"object":"0x60e06040523480156200001157600080fd5b5060405162005203380380620052038339810160408190526200003491620000cf565b6001600160a01b0380841660805282811660a081905290821660c0526040517fcf554eb342edf010a94e07701ae91e99e90b769f649f03aeb1153654ddd43c0190600090a26040516001600160a01b038216907f8837af285f4d380af9227df9ebafa13d992b487fa6d7a4366bd4154576085b8990600090a250505062000123565b6001600160a01b0381168114620000cc57600080fd5b50565b600080600060608486031215620000e557600080fd5b8351620000f281620000b6565b60208501519093506200010581620000b6565b60408501519092506200011881620000b6565b809150509250925092565b60805160a05160c051615024620001df600039600081816105d101526115ca01526000818161087d015261152d01526000818161047401528181610bed01528181610c7501528181610f310152818161109901528181611181015281816114600152818161162e015281816117c6015281816119b201528181611e1201528181611ed501528181611f6d01528181611fd50152818161207601528181612942015281816129f201528181613ce20152613f4a01526150246000f3fe608060405234801561001057600080fd5b50600436106103a45760003560e01c806366a12fb6116101e9578063bb0d196e1161010f578063d9d078d6116100ad578063ef43d2c61161007c578063ef43d2c614610878578063fad8b32a1461089f578063fc673c4f146108b2578063fe9d9303146108c557600080fd5b8063d9d078d6146107ed578063dd62ed3e14610800578063eb3537cc14610839578063ee719bc81461086757600080fd5b8063ca0c1e7f116100e9578063ca0c1e7f146107a1578063ca789464146107b4578063cf97256d146107c7578063d95b6371146107da57600080fd5b8063bb0d196e14610768578063c68d42831461077b578063c780fd821461078e57600080fd5b80639903ad3811610187578063a3a7e7f311610156578063a3a7e7f31461071c578063a457c2d71461072f578063a9059cbb14610742578063b84cdd4a1461075557600080fd5b80639903ad38146106db5780639bd9bbc6146106e35780639d876741146106f6578063a1b2bf8b1461070957600080fd5b806379359f6f116101c357806379359f6f1461069a57806383ba2525146106ad578063959b8c3f146106c057806395d89b41146106d357600080fd5b806366a12fb6146106615780636c2d9f2f1461067457806370a082311461068757600080fd5b8063386fa221116102ce5780634b61cc331161026c578063556f0dc71161023b578063556f0dc7146106215780635b9d09cc1461062857806362aa52871461063b57806362ad1b831461064e57600080fd5b80634b61cc33146105ac5780634c5c0c85146105cc57806350d75d25146105f357806352d1902d146105fb57600080fd5b806342fe0980116102a857806342fe09801461056057806345977d031461057357806346951954146105865780634b2763b31461059957600080fd5b8063386fa22114610527578063395093511461053a57806341b706be1461054d57600080fd5b806318160ddd11610346578063245887fc11610315578063245887fc146104bf57806327048397146104d25780632ec8eec7146104e5578063313ce5671461051857600080fd5b806318160ddd1461044d5780631863e8091461045f57806320bc44251461047257806323b872dd146104ac57600080fd5b8063095ea7b311610382578063095ea7b3146103f157806311bcc81e1461041457806312a6a3f81461042757806316d055d61461043a57600080fd5b806306e48538146103a957806306fdde03146103c7578063090c415e146103dc575b600080fd5b6103b16108d8565b6040516103be919061417d565b60405180910390f35b6103cf6108e9565b6040516103be919061421a565b6103ef6103ea36600461428e565b61097b565b005b6104046103ff3660046142ea565b610a75565b60405190151581526020016103be565b6103ef610422366004614316565b610a8c565b6103ef61043536600461432f565b610abb565b6103ef61044836600461437b565b610beb565b6003545b6040519081526020016103be565b6103ef61046d366004614491565b610c47565b7f00000000000000000000000000000000000000000000000000000000000000005b6040516001600160a01b0390911681526020016103be565b6104046104ba366004614524565b610f19565b6103ef6104cd3660046142ea565b610f2f565b6103ef6104e0366004614565565b610fa8565b6104f86104f3366004614587565b611091565b6040805194855260208501939093529183015260608201526080016103be565b604051601281526020016103be565b6103b1610535366004614587565b611134565b6104046105483660046142ea565b6111f0565b6103ef61055b36600461437b565b61122c565b6103ef61056e3660046145e6565b611258565b6103ef610581366004614316565b611429565b6103ef610594366004614587565b611455565b6103ef6105a7366004614524565b61162c565b6105bf6105ba366004614681565b6116b3565b6040516103be91906146c7565b6104947f000000000000000000000000000000000000000000000000000000000000000081565b610494611743565b7f6bfbb132610e56cb96575dba244667b9d6dbfeffe22b68a79fa16f2d18eb0019610451565b6001610451565b6103ef6106363660046146ff565b61176d565b6103ef610649366004614524565b6117c4565b6103ef61065c36600461474f565b611818565b6103ef61066f366004614524565b6118df565b6105bf6106823660046147ee565b6118ff565b610451610695366004614587565b611981565b6104046106a8366004614587565b6119aa565b6103ef6106bb3660046142ea565b611a32565b6103ef6106ce366004614587565b611a5e565b6103cf611aaf565b6103ef611abe565b6103ef6106f13660046146ff565b611bd6565b6103ef610704366004614823565b611c2a565b6103ef61071736600461432f565b611c6a565b6103ef61072a366004614587565b611d48565b61040461073d3660046142ea565b611d5c565b6104046107503660046142ea565b611dab565b6104046107633660046142ea565b611db9565b610404610776366004614587565b611e0a565b6103ef610789366004614823565b611e92565b6103ef61079c366004614524565b611ed3565b6103ef6107af36600461487c565b611f6b565b6103ef6107c23660046142ea565b611fd3565b6103ef6107d53660046142ea565b612048565b6104046107e83660046148e8565b612163565b6104046107fb3660046142ea565b612171565b61045161080e3660046148e8565b6001600160a01b03918216600090815260116020908152604080832093909416825291909152205490565b61084c6108473660046142ea565b61218b565b604080519384526020840192909252908201526060016103be565b600e546001600160a01b0316610494565b6104947f000000000000000000000000000000000000000000000000000000000000000081565b6103ef6108ad366004614587565b6122de565b6103ef6108c0366004614921565b61232f565b6103ef6108d3366004614969565b6123e9565b60606108e4601261243a565b905090565b6060600f80546108f8906149a8565b80601f0160208091040260200160405190810160405280929190818152602001828054610924906149a8565b80156109715780601f1061094657610100808354040283529160200191610971565b820191906000526020600020905b81548152906001019060200180831161095457829003601f168201915b5050505050905090565b60408051608060208201819052600e60a08301527f41677265656d656e74537461746500000000000000000000000000000000000060c083015233928201929092526001600160a01b038616606082015290810184905260009060e001604051602081830303815290604052805190602001209050610a2d818484808060200260200160405190810160405280939291908181526020018383602002808284376000920191909152506124a092505050565b6040518481526001600160a01b0386169033907f30f416fa68fca014a0f334464c64b000ba53e99b6d2afdea9d5ca756372d5985906020015b60405180910390a35050505050565b6000610a823384846124e1565b5060015b92915050565b610ab83333338460405180602001604052806000815250604051806020016040528060008152506125c3565b50565b60408051606060208201819052600d60808301527f41677265656d656e74446174610000000000000000000000000000000000000060a083015233928201839052810185905260009060c00160408051601f1981840301815291905280516020909101209050610b2b81846127af565b15610b62576040517ff05521f600000000000000000000000000000000000000000000000000000000815260040160405180910390fd5b610b9f818585808060200260200160405190810160405280939291908181526020018383602002808284376000920191909152506124a092505050565b816001600160a01b03167f770ea40a13a4644573ed785e5c7116890709947918747febc5add46feb531e2d868686604051610bdc939291906149e2565b60405180910390a25050505050565b7f00000000000000000000000000000000000000000000000000000000000000006001600160a01b03163314610c345760405163c51efddd60e01b815260040160405180910390fd5b610c40848484846127eb565b5050505050565b6040517f8ca484840000000000000000000000000000000000000000000000000000000081523360048201527f00000000000000000000000000000000000000000000000000000000000000006001600160a01b031690638ca4848490602401602060405180830381865afa158015610cc4573d6000803e3d6000fd5b505050506040513d601f19601f82011682018060405250810190610ce89190614a3b565b610d1e576040517fc9ff664400000000000000000000000000000000000000000000000000000000815260040160405180910390fd5b6000610d2861293d565b90506001600160a01b038116610d3b5750845b600085610d485786610d4a565b815b905060008313610de757610d5d83614a6e565b610d6685612a9b565b14610d7357610d73614aa6565b610d7c84612a9b565b6001600160a01b03821660009081526002602052604081208054909190610da4908490614abc565b90915550506001600160a01b03851660009081526002602052604081208054859290610dd1908490614abc565b90915550610de29050858286612b37565b610eb1565b8515610df557610df5614aa6565b82610dff85612a9b565b610e099190614abc565b6001600160a01b03831660009081526002602052604081208054909190610e31908490614ae4565b90915550610e40905084612a9b565b6001600160a01b03881660009081526002602052604081208054909190610e68908490614abc565b90915550506001600160a01b03851660009081526002602052604081208054859290610e95908490614abc565b90915550610ea69050828886612b37565b610eb1828685612b37565b846001600160a01b0316876001600160a01b0316336001600160a01b03167fb8381a3ce157650e06186e3e8f4dd4dc29236f2688b6eed1893d0a60d7c6386f8c8589898f604051610f06959493929190614b04565b60405180910390a4505050505050505050565b6000610f27338585856127eb565b949350505050565b7f00000000000000000000000000000000000000000000000000000000000000006001600160a01b03163314610f785760405163c51efddd60e01b815260040160405180910390fd5b610fa43383848460405180602001604052806000815250604051806020016040528060008152506125c3565b5050565b60408051606060208201819052600d60808301527f41677265656d656e74446174610000000000000000000000000000000000000060a083015233928201839052810184905260009060c00160405160208183030381529060405280519060200120905061101681846127af565b61104c576040517fdae1880900000000000000000000000000000000000000000000000000000000815260040160405180910390fd5b6110568184612b7c565b60405184815233907f71a63dc095de07aa5512ad57a7596a39516317e316981a1cd71000057be1537b9060200160405180910390a250505050565b6000806000807f00000000000000000000000000000000000000000000000000000000000000006001600160a01b031663bbe4fd506040518163ffffffff1660e01b8152600401602060405180830381865afa1580156110f5573d6000803e3d6000fd5b505050506040513d601f19601f820116820180604052508101906111199190614b38565b9050611125858261218b565b91979096509094509092509050565b6001600160a01b03818116600090815260016020526040908190205490517fc56a069d000000000000000000000000000000000000000000000000000000008152901960048201526060917f0000000000000000000000000000000000000000000000000000000000000000169063c56a069d90602401600060405180830381865afa1580156111c8573d6000803e3d6000fd5b505050506040513d6000823e601f3d908101601f19168201604052610a869190810190614b51565b3360008181526011602090815260408083206001600160a01b03871684529091528120549091610a82918590611227908690614c03565b6124e1565b33301461124c57604051630fff4cc960e31b815260040160405180910390fd5b610c40838584846127eb565b600054610100900460ff16158080156112785750600054600160ff909116105b806112925750303b158015611292575060005460ff166001145b6113095760405162461bcd60e51b815260206004820152602e60248201527f496e697469616c697a61626c653a20636f6e747261637420697320616c72656160448201527f647920696e697469616c697a656400000000000000000000000000000000000060648201526084015b60405180910390fd5b6000805460ff19166001179055801561132c576000805461ff0019166101001790555b600e805460ff881674010000000000000000000000000000000000000000027fffffffffffffffffffffff0000000000000000000000000000000000000000009091166001600160a01b038a1617179055600f61138a858783614c64565b506010611398838583614c64565b506113a230612b9d565b60405160008082529081907fddf252ad1be2c89b69c2b068fc378daa952ba7f163c4a11628f55a4df523b3ef9060200160405180910390a38015611420576000805461ff0019169055604051600181527f7f26b83ff96e1f2b6a682f133852f6798a09c465da95921460cefb38474024989060200160405180910390a15b50505050505050565b610ab8333333846040518060200160405280600081525060405180602001604052806000815250612cfd565b336001600160a01b037f000000000000000000000000000000000000000000000000000000000000000016146114b7576040517f98f7370400000000000000000000000000000000000000000000000000000000815260040160405180910390fd5b6114c081612edf565b806001600160a01b031663ef43d2c66040518163ffffffff1660e01b8152600401602060405180830381865afa1580156114fe573d6000803e3d6000fd5b505050506040513d601f19601f820116820180604052508101906115229190614d24565b6001600160a01b03167f00000000000000000000000000000000000000000000000000000000000000006001600160a01b03161415806115f55750806001600160a01b0316634c5c0c856040518163ffffffff1660e01b8152600401602060405180830381865afa15801561159b573d6000803e3d6000fd5b505050506040513d601f19601f820116820180604052508101906115bf9190614d24565b6001600160a01b03167f00000000000000000000000000000000000000000000000000000000000000006001600160a01b031614155b15610ab8576040517fef1b6ddf00000000000000000000000000000000000000000000000000000000815260040160405180910390fd5b7f00000000000000000000000000000000000000000000000000000000000000006001600160a01b031633146116755760405163c51efddd60e01b815260040160405180910390fd5b6001600160a01b038084166000908152601160209081526040808320938616835292905220546116ae9084908490611227908590614c03565b505050565b60408051608060208201819052600e60a08301527f41677265656d656e74537461746500000000000000000000000000000000000060c08301526001600160a01b038088169383019390935291851660608281019190915291810184905260009060e0016040516020818303038152906040528051906020012090506117398184613133565b9695505050505050565b60006108e47f360894a13ba1a3210667c828492db98dca3e2076cc3735a920a3ca505d382bbc5490565b6117be3333868686868080601f016020809104026020016040519081016040528093929190818152602001838380828437600092018290525060408051602081019091529081529250612cfd915050565b50505050565b7f00000000000000000000000000000000000000000000000000000000000000006001600160a01b0316331461180d5760405163c51efddd60e01b815260040160405180910390fd5b6116ae8383836124e1565b336118256012828a6131c3565b61185b576040517ff7f0222700000000000000000000000000000000000000000000000000000000815260040160405180910390fd5b6118d58189898989898080601f01602080910402602001604051908101604052809392919081815260200183838082843760009201919091525050604080516020601f8d018190048102820181019092528b815292508b91508a90819084018382808284376000920191909152506001925061326c915050565b5050505050505050565b33301461180d57604051630fff4cc960e31b815260040160405180910390fd5b60408051606060208201819052600d60808301527f41677265656d656e74446174610000000000000000000000000000000000000060a08301526001600160a01b0386169282019290925280820184905260009060c0016040516020818303038152906040528051906020012090506119788184613133565b95945050505050565b60008061198d83611091565b5050509050600081126119a057806119a3565b60005b9392505050565b6000610a86827f00000000000000000000000000000000000000000000000000000000000000006001600160a01b031663bbe4fd506040518163ffffffff1660e01b8152600401602060405180830381865afa158015611a0e573d6000803e3d6000fd5b505050506040513d601f19601f820116820180604052508101906107fb9190614b38565b610fa43333848460405180602001604052806000815250604051806020016040528060008152506125c3565b33611a6b60128284613317565b806001600160a01b0316826001600160a01b03167ff4caeb2d6ca8932a215a353d0703c326ec2d81fc68170f320eb2ab49e9df61f960405160405180910390a35050565b6060601080546108f8906149a8565b600054610100900460ff1615808015611ade5750600054600160ff909116105b80611af85750303b158015611af8575060005460ff166001145b611b6a5760405162461bcd60e51b815260206004820152602e60248201527f496e697469616c697a61626c653a20636f6e747261637420697320616c72656160448201527f647920696e697469616c697a65640000000000000000000000000000000000006064820152608401611300565b6000805460ff191660011790558015611b8d576000805461ff0019166101001790555b8015610ab8576000805461ff0019169055604051600181527f7f26b83ff96e1f2b6a682f133852f6798a09c465da95921460cefb3847402498906020015b60405180910390a150565b6117be3333868686868080601f0160208091040260200160405190810160405280939291908181526020018383808284376000920182905250604080516020810190915290815292506001915061326c9050565b333014611c4a57604051630fff4cc960e31b815260040160405180910390fd5b6040805160008152602081019091526116ae90339085908590859061342b565b60408051606060208201819052600d60808301527f41677265656d656e74446174610000000000000000000000000000000000000060a083015233928201839052810185905260009060c001604051602081830303815290604052805190602001209050611d0b818585808060200260200160405190810160405280939291908181526020018383602002808284376000920191909152506124a092505050565b336001600160a01b03167f0c4c547b3a4fcaa5be8353b3111472b124155bccc86de811d4a481c9e6e9faca868686604051610bdc939291906149e2565b610fa4333383611d5733611981565b6127eb565b6000610a823384611227856040518060600160405280602a8152602001614f98602a91393360009081526011602090815260408083206001600160a01b038d1684529091529020549190613511565b60006119a3333385856127eb565b600080600080611dc9868661218b565b9250925092506000611df1828411611de2576000612a9b565b611dec8385614d41565b612a9b565b611dfb9085614abc565b60001315979650505050505050565b6000610a86827f00000000000000000000000000000000000000000000000000000000000000006001600160a01b031663bbe4fd506040518163ffffffff1660e01b8152600401602060405180830381865afa158015611e6e573d6000803e3d6000fd5b505050506040513d601f19601f820116820180604052508101906107639190614b38565b333014611eb257604051630fff4cc960e31b815260040160405180910390fd5b604080516000808252602082019092526116ae91339186918691869061353d565b7f00000000000000000000000000000000000000000000000000000000000000006001600160a01b03163314611f1c5760405163c51efddd60e01b815260040160405180910390fd5b6116ae8383611227846040518060600160405280602a8152602001614f98602a91396001600160a01b03808a166000908152601160209081526040808320938c16835292905220549190613511565b7f00000000000000000000000000000000000000000000000000000000000000006001600160a01b03163314611fb45760405163c51efddd60e01b815260040160405180910390fd5b6117be338585858560405180602001604052806000815250600161326c565b7f00000000000000000000000000000000000000000000000000000000000000006001600160a01b0316331461201c5760405163c51efddd60e01b815260040160405180910390fd5b610fa4338384846040518060200160405280600081525060405180602001604052806000815250612cfd565b6040517f8ca484840000000000000000000000000000000000000000000000000000000081523360048201527f00000000000000000000000000000000000000000000000000000000000000006001600160a01b031690638ca4848490602401602060405180830381865afa1580156120c5573d6000803e3d6000fd5b505050506040513d601f19601f820116820180604052508101906120e99190614a3b565b61211f576040517fc9ff664400000000000000000000000000000000000000000000000000000000815260040160405180910390fd5b6001600160a01b038216600090815260026020526040902054612143908290614abc565b6001600160a01b0390921660009081526002602052604090209190915550565b60006119a3601284846131c3565b60008061217e848461218b565b5050600013949350505050565b6001600160a01b0382166000908152600260205260408120549080806121b086611134565b905060005b81518110156122d55760008060008484815181106121d5576121d5614d54565b60209081029190910101516040517f9b2e48bc0000000000000000000000000000000000000000000000000000000081523060048201526001600160a01b038c81166024830152604482018c905290911690639b2e48bc90606401606060405180830381865afa15801561224d573d6000803e3d6000fd5b505050506040513d601f19601f820116820180604052508101906122719190614d6a565b919450925090506122828288614c03565b965061228e8187614c03565b95506122ab8183116122a1576000612a9b565b611dec8284614d41565b6122b5848a614abc565b6122bf9190614ae4565b9750505050806122ce90614d98565b90506121b5565b50509250925092565b336122eb60128284613630565b806001600160a01b0316826001600160a01b03167f50546e66e5f44d728365dc3908c63bc5cfeeab470722c1677e3073a6ac294aa160405160405180910390a35050565b3361233c601282896131c3565b612372576040517ff7f0222700000000000000000000000000000000000000000000000000000000815260040160405180910390fd5b6114208188898989898080601f01602080910402602001604051908101604052809392919081815260200183838082843760009201919091525050604080516020601f8d018190048102820181019092528b815292508b91508a90819084018382808284376000920191909152506125c392505050565b6116ae3333338686868080601f0160208091040260200160405190810160405280939291908181526020018383808284376000920182905250604080516020810190915290815292506125c3915050565b60608160000180548060200260200160405190810160405280929190818152602001828054801561249457602002820191906000526020600020905b81546001600160a01b03168152600190910190602001808311612476575b50505050509050919050565b60005b81518110156116ae5760008282815181106124c0576124c0614d54565b60200260200101519050808285015550806124da90614d98565b90506124a3565b6001600160a01b038316612521576040517f8163862700000000000000000000000000000000000000000000000000000000815260040160405180910390fd5b6001600160a01b038216612561576040517fdf07027400000000000000000000000000000000000000000000000000000000815260040160405180910390fd5b6001600160a01b0383811660008181526011602090815260408083209487168084529482529182902085905590518481527f8c5be1e5ebec7d5bd14f71427d1e84f3dd0314c0f7b2291e5b200ac8c7c3b92591015b60405180910390a3505050565b600e546001600160a01b0316612605576040517ff79cf65600000000000000000000000000000000000000000000000000000000815260040160405180910390fd5b6000806126118561373b565b91509150612622888883878761342b565b600e546040516370a0823160e01b81523060048201526000916001600160a01b0316906370a0823190602401602060405180830381865afa15801561266b573d6000803e3d6000fd5b505050506040513d601f19601f8201168201806040525081019061268f9190614b38565b600e549091506126a9906001600160a01b0316888561383b565b600e546040516370a0823160e01b81523060048201526000916001600160a01b0316906370a0823190602401602060405180830381865afa1580156126f2573d6000803e3d6000fd5b505050506040513d601f19601f820116820180604052508101906127169190614b38565b905060006127248284614d41565b905080851461275f576040517fe3e1369800000000000000000000000000000000000000000000000000000000815260040160405180910390fd5b896001600160a01b03167f3bc27981aebbb57f9247dc00fde9d6cd91e4b230083fec3238fedbcba1f9ab3d8560405161279a91815260200190565b60405180910390a25050505050505050505050565b6000805b828110156127e1578381015480156127d057600192505050610a86565b506127da81614d98565b90506127b3565b5060009392505050565b60006001600160a01b03841661282d576040517feecd6c9b00000000000000000000000000000000000000000000000000000000815260040160405180910390fd5b6001600160a01b03831661286d576040517fe219bd3900000000000000000000000000000000000000000000000000000000815260040160405180910390fd5b600033905061289e8186868660405180602001604052806000815250604051806020016040528060008152506138e4565b846001600160a01b0316866001600160a01b031614612931576129318587611227866040518060600160405280602d8152602001614fc2602d9139601160008c6001600160a01b03166001600160a01b0316815260200190815260200160002060008d6001600160a01b03166001600160a01b03168152602001908152602001600020546135119092919063ffffffff16565b50600195945050505050565b6000807f00000000000000000000000000000000000000000000000000000000000000006001600160a01b031663289b3c0d6040518163ffffffff1660e01b8152600401602060405180830381865afa15801561299e573d6000803e3d6000fd5b505050506040513d601f19601f820116820180604052508101906129c29190614d24565b6040517f8369a0f10000000000000000000000000000000000000000000000000000000081526001600160a01b037f0000000000000000000000000000000000000000000000000000000000000000811660048301523060248301527f9f60ae461adf056670e03ae602566409933242392cb06744f5747c9f38b05d09604483015291925090821690638369a0f190606401602060405180830381865afa158015612a71573d6000803e3d6000fd5b505050506040513d601f19601f82011682018060405250810190612a959190614d24565b91505090565b60007f7fffffffffffffffffffffffffffffffffffffffffffffffffffffffffffffff821115612b335760405162461bcd60e51b815260206004820152602860248201527f53616665436173743a2076616c756520646f65736e27742066697420696e206160448201527f6e20696e743235360000000000000000000000000000000000000000000000006064820152608401611300565b5090565b816001600160a01b0316836001600160a01b03167fddf252ad1be2c89b69c2b068fc378daa952ba7f163c4a11628f55a4df523b3ef836040516125b691815260200190565b60005b818110156116ae57600083820155612b9681614d98565b9050612b7f565b6040517f29965a1d0000000000000000000000000000000000000000000000000000000081526001600160a01b03821660048201527fac7fbab5f54a3ca8194167523c6753bfeb96a445279294b6125b68cce21770546024820152306044820152731820a4b7618bde71dce8cdc73aab6c95905fad24906329965a1d90606401600060405180830381600087803b158015612c3757600080fd5b505af1158015612c4b573d6000803e3d6000fd5b50506040517f29965a1d0000000000000000000000000000000000000000000000000000000081526001600160a01b03841660048201527faea199e31a596269b42cdafd93407f14436db6e4cad65417994c2eb37381e05a6024820152306044820152731820a4b7618bde71dce8cdc73aab6c95905fad2492506329965a1d9150606401600060405180830381600087803b158015612ce957600080fd5b505af1158015610c40573d6000803e3d6000fd5b600e546001600160a01b0316612d3f576040517ff79cf65600000000000000000000000000000000000000000000000000000000815260040160405180910390fd5b600080612d4b8561373b565b600e546040516370a0823160e01b81523060048201529294509092506000916001600160a01b03909116906370a0823190602401602060405180830381865afa158015612d9c573d6000803e3d6000fd5b505050506040513d601f19601f82011682018060405250810190612dc09190614b38565b600e54909150612ddb906001600160a01b0316893086613995565b600e546040516370a0823160e01b81523060048201526000916001600160a01b0316906370a0823190602401602060405180830381865afa158015612e24573d6000803e3d6000fd5b505050506040513d601f19601f82011682018060405250810190612e489190614b38565b90506000612e568383614d41565b9050808514612e91576040517fe3e1369800000000000000000000000000000000000000000000000000000000815260040160405180910390fd5b612ea48b8a868a51600014158b8b61353d565b886001600160a01b03167f25ca84076773b0455db53621c459ddc84fe40840e4932a62706a032566f399df8560405161279a91815260200190565b6000612f097f360894a13ba1a3210667c828492db98dca3e2076cc3735a920a3ca505d382bbc5490565b6001600160a01b031603612f5f5760405162461bcd60e51b815260206004820152601d60248201527f5555505350726f786961626c653a206e6f742075706772616461626c650000006044820152606401611300565b806001600160a01b03166352d1902d6040518163ffffffff1660e01b8152600401602060405180830381865afa158015612f9d573d6000803e3d6000fd5b505050506040513d601f19601f82011682018060405250810190612fc19190614b38565b7f6bfbb132610e56cb96575dba244667b9d6dbfeffe22b68a79fa16f2d18eb0019146130555760405162461bcd60e51b815260206004820152602360248201527f5555505350726f786961626c653a206e6f7420636f6d70617469626c65206c6f60448201527f67696300000000000000000000000000000000000000000000000000000000006064820152608401611300565b6001600160a01b03811630036130ad5760405162461bcd60e51b815260206004820152601960248201527f5555505350726f786961626c653a2070726f7879206c6f6f70000000000000006044820152606401611300565b6130d5817f360894a13ba1a3210667c828492db98dca3e2076cc3735a920a3ca505d382bbc55565b7fe011bc04c286c344a8fcbb8de77f953da762c3e25d8cdea984147fc4168a5dcc7f6bfbb132610e56cb96575dba244667b9d6dbfeffe22b68a79fa16f2d18eb0019604080519182526001600160a01b038416602083015201611bcb565b60608167ffffffffffffffff81111561314e5761314e6143cc565b604051908082528060200260200182016040528015613177578160200160208202803683370190505b50905060005b828110156131bc576000818501549050808383815181106131a0576131a0614d54565b6020908102919091010152506131b581614d98565b905061317d565b5092915050565b6000816001600160a01b0316836001600160a01b0316148061323257506001600160a01b038316600090815260018501602052604090205460ff16801561323257506001600160a01b03808316600090815260038601602090815260408083209387168352929052205460ff16155b80610f2757506001600160a01b03808316600090815260028601602090815260408083209387168352929052205460ff1690509392505050565b6001600160a01b0386166132ac576040517feecd6c9b00000000000000000000000000000000000000000000000000000000815260040160405180910390fd5b6001600160a01b0385166132ec576040517fe219bd3900000000000000000000000000000000000000000000000000000000815260040160405180910390fd5b6132fa8787878787876139e6565b6133088787878787876138e4565b61142087878787878787613b3f565b806001600160a01b0316826001600160a01b03160361339e5760405162461bcd60e51b815260206004820152602d60248201527f4552433737374f70657261746f72733a20617574686f72697a696e672073656c60448201527f66206173206f70657261746f72000000000000000000000000000000000000006064820152608401611300565b6001600160a01b038116600090815260018401602052604090205460ff16156133f4576001600160a01b03918216600090815260039390930160209081526040808520929093168452529020805460ff19169055565b6001600160a01b0380831660009081526002850160209081526040808320938516835292905220805460ff19166001179055505050565b6001600160a01b03841661346b576040517fba2ab18400000000000000000000000000000000000000000000000000000000815260040160405180910390fd5b61347a858560008686866139e6565b6134848484613cda565b836001600160a01b0316856001600160a01b03167fa78a9be3a7b862d26933ad85fb11d80ef66b8f972d7cbba06621d583943a40988585856040516134cb93929190614db2565b60405180910390a36040518381526000906001600160a01b038616907fddf252ad1be2c89b69c2b068fc378daa952ba7f163c4a11628f55a4df523b3ef90602001610a66565b600081848411156135355760405162461bcd60e51b8152600401611300919061421a565b505050900390565b6001600160a01b03851661357d576040517f0d24315700000000000000000000000000000000000000000000000000000000815260040160405180910390fd5b6135878585613e03565b6135978660008787868689613b3f565b846001600160a01b0316866001600160a01b03167f2fe5be0146f74c5bce36c0b80911af6c7d86ff27e89d5cfa61fc681327954e5d8685856040516135de93929190614db2565b60405180910390a36040518481526001600160a01b038616906000907fddf252ad1be2c89b69c2b068fc378daa952ba7f163c4a11628f55a4df523b3ef906020015b60405180910390a3505050505050565b336001600160a01b038216036136ae5760405162461bcd60e51b815260206004820152602a60248201527f4552433737374f70657261746f72733a207265766f6b696e672073656c66206160448201527f73206f70657261746f72000000000000000000000000000000000000000000006064820152608401611300565b6001600160a01b038116600090815260018401602052604090205460ff1615613708576001600160a01b0380831660009081526003850160209081526040808320938516835292905220805460ff19166001179055505050565b6001600160a01b03918216600090815260029390930160209081526040808520929093168452529020805460ff19169055565b600e546000908190819060127401000000000000000000000000000000000000000090910460ff1610156137bc57600e546137929074010000000000000000000000000000000000000000900460ff166012614ddd565b61379d90600a614eda565b90506137a98185614ee9565b92506137b58184614f0b565b9150613835565b600e5460127401000000000000000000000000000000000000000090910460ff16111561382e57600e5461380d9060129074010000000000000000000000000000000000000000900460ff16614ddd565b61381890600a614eda565b90506138248185614f0b565b9250839150613835565b8391508192505b50915091565b6040516001600160a01b0383166024820152604481018290526116ae9084907fa9059cbb00000000000000000000000000000000000000000000000000000000906064015b60408051601f198184030181529190526020810180517bffffffffffffffffffffffffffffffffffffffffffffffffffffffff167fffffffff0000000000000000000000000000000000000000000000000000000090931692909217909152613e5d565b6138f785856138f286612a9b565b613f42565b836001600160a01b0316856001600160a01b0316876001600160a01b03167f06b541ddaa720db2b10a4d0cdac39b8d360425fc073085fac19bc8261467798786868660405161394893929190614db2565b60405180910390a4836001600160a01b0316856001600160a01b03167fddf252ad1be2c89b69c2b068fc378daa952ba7f163c4a11628f55a4df523b3ef8560405161362091815260200190565b6040516001600160a01b03808516602483015283166044820152606481018290526117be9085907f23b872dd0000000000000000000000000000000000000000000000000000000090608401613880565b6040517faabbb8ca0000000000000000000000000000000000000000000000000000000081526001600160a01b03861660048201527f29ddb589b1fb5fc7cf394961c1adf5f8c6454761adf795e67fe149f658abe8956024820152600090731820a4b7618bde71dce8cdc73aab6c95905fad249063aabbb8ca90604401602060405180830381865afa158015613a80573d6000803e3d6000fd5b505050506040513d601f19601f82011682018060405250810190613aa49190614d24565b90506001600160a01b03811615611420576040517f75ab97820000000000000000000000000000000000000000000000000000000081526001600160a01b038216906375ab978290613b04908a908a908a908a908a908a90600401614f22565b600060405180830381600087803b158015613b1e57600080fd5b505af1158015613b32573d6000803e3d6000fd5b5050505050505050505050565b6040517faabbb8ca0000000000000000000000000000000000000000000000000000000081526001600160a01b03861660048201527fb281fc8c12954d22544db45de3159a39272895b169a852b314f9cc762e44c53b6024820152600090731820a4b7618bde71dce8cdc73aab6c95905fad249063aabbb8ca90604401602060405180830381865afa158015613bd9573d6000803e3d6000fd5b505050506040513d601f19601f82011682018060405250810190613bfd9190614d24565b90506001600160a01b03811615613c92576040517e23de290000000000000000000000000000000000000000000000000000000081526001600160a01b038216906223de2990613c5b908b908b908b908b908b908b90600401614f22565b600060405180830381600087803b158015613c7557600080fd5b505af1158015613c89573d6000803e3d6000fd5b505050506118d5565b81156118d5576001600160a01b0386163b156118d5576040517ffe737d0500000000000000000000000000000000000000000000000000000000815260040160405180910390fd5b6000613d62837f00000000000000000000000000000000000000000000000000000000000000006001600160a01b031663bbe4fd506040518163ffffffff1660e01b8152600401602060405180830381865afa158015613d3e573d6000803e3d6000fd5b505050506040513d601f19601f820116820180604052508101906108479190614b38565b50509050613d6f82612a9b565b811215613da8576040517f10ecdf4400000000000000000000000000000000000000000000000000000000815260040160405180910390fd5b613db182612a9b565b6001600160a01b038416600090815260026020526040902054613dd49190614ae4565b6001600160a01b038416600090815260026020526040902055600354613dfb908390614d41565b600355505050565b613e0c81612a9b565b6001600160a01b038316600090815260026020526040902054613e2f9190614abc565b6001600160a01b038316600090815260026020526040902055600354613e56908290614c03565b6003555050565b6000613eb2826040518060400160405280602081526020017f5361666545524332303a206c6f772d6c6576656c2063616c6c206661696c6564815250856001600160a01b031661405a9092919063ffffffff16565b8051909150156116ae5780806020019051810190613ed09190614a3b565b6116ae5760405162461bcd60e51b815260206004820152602a60248201527f5361666545524332303a204552433230206f7065726174696f6e20646964206e60448201527f6f742073756363656564000000000000000000000000000000000000000000006064820152608401611300565b6000613fa6847f00000000000000000000000000000000000000000000000000000000000000006001600160a01b031663bbe4fd506040518163ffffffff1660e01b8152600401602060405180830381865afa158015613d3e573d6000803e3d6000fd5b5050905081811215613fe4576040517f2f4cb94100000000000000000000000000000000000000000000000000000000815260040160405180910390fd5b6001600160a01b038416600090815260026020526040902054614008908390614ae4565b6001600160a01b038086166000908152600260205260408082209390935590851681522054614038908390614abc565b6001600160a01b03909316600090815260026020526040902092909255505050565b6060610f27848460008585600080866001600160a01b031685876040516140819190614f7b565b60006040518083038185875af1925050503d80600081146140be576040519150601f19603f3d011682016040523d82523d6000602084013e6140c3565b606091505b50915091506140d4878383876140df565b979650505050505050565b6060831561414e578251600003614147576001600160a01b0385163b6141475760405162461bcd60e51b815260206004820152601d60248201527f416464726573733a2063616c6c20746f206e6f6e2d636f6e74726163740000006044820152606401611300565b5081610f27565b610f2783838151156141635781518083602001fd5b8060405162461bcd60e51b8152600401611300919061421a565b6020808252825182820181905260009190848201906040850190845b818110156141be5783516001600160a01b031683529284019291840191600101614199565b50909695505050505050565b60005b838110156141e55781810151838201526020016141cd565b50506000910152565b600081518084526142068160208601602086016141ca565b601f01601f19169290920160200192915050565b6020815260006119a360208301846141ee565b6001600160a01b0381168114610ab857600080fd5b60008083601f84011261425457600080fd5b50813567ffffffffffffffff81111561426c57600080fd5b6020830191508360208260051b850101111561428757600080fd5b9250929050565b600080600080606085870312156142a457600080fd5b84356142af8161422d565b935060208501359250604085013567ffffffffffffffff8111156142d257600080fd5b6142de87828801614242565b95989497509550505050565b600080604083850312156142fd57600080fd5b82356143088161422d565b946020939093013593505050565b60006020828403121561432857600080fd5b5035919050565b60008060006040848603121561434457600080fd5b83359250602084013567ffffffffffffffff81111561436257600080fd5b61436e86828701614242565b9497909650939450505050565b6000806000806080858703121561439157600080fd5b843561439c8161422d565b935060208501356143ac8161422d565b925060408501356143bc8161422d565b9396929550929360600135925050565b634e487b7160e01b600052604160045260246000fd5b604051601f8201601f1916810167ffffffffffffffff8111828210171561440b5761440b6143cc565b604052919050565b600082601f83011261442457600080fd5b813567ffffffffffffffff81111561443e5761443e6143cc565b6144516020601f19601f840116016143e2565b81815284602083860101111561446657600080fd5b816020850160208301376000918101602001919091529392505050565b8015158114610ab857600080fd5b600080600080600080600060e0888a0312156144ac57600080fd5b87359650602088013567ffffffffffffffff8111156144ca57600080fd5b6144d68a828b01614413565b96505060408801356144e78161422d565b945060608801356144f781614483565b935060808801356145078161422d565b9699959850939692959460a0840135945060c09093013592915050565b60008060006060848603121561453957600080fd5b83356145448161422d565b925060208401356145548161422d565b929592945050506040919091013590565b6000806040838503121561457857600080fd5b50508035926020909101359150565b60006020828403121561459957600080fd5b81356119a38161422d565b60008083601f8401126145b657600080fd5b50813567ffffffffffffffff8111156145ce57600080fd5b60208301915083602082850101111561428757600080fd5b600080600080600080608087890312156145ff57600080fd5b863561460a8161422d565b9550602087013560ff8116811461462057600080fd5b9450604087013567ffffffffffffffff8082111561463d57600080fd5b6146498a838b016145a4565b9096509450606089013591508082111561466257600080fd5b5061466f89828a016145a4565b979a9699509497509295939492505050565b6000806000806080858703121561469757600080fd5b84356146a28161422d565b935060208501356146b28161422d565b93969395505050506040820135916060013590565b6020808252825182820181905260009190848201906040850190845b818110156141be578351835292840192918401916001016146e3565b6000806000806060858703121561471557600080fd5b84356147208161422d565b935060208501359250604085013567ffffffffffffffff81111561474357600080fd5b6142de878288016145a4565b600080600080600080600060a0888a03121561476a57600080fd5b87356147758161422d565b965060208801356147858161422d565b955060408801359450606088013567ffffffffffffffff808211156147a957600080fd5b6147b58b838c016145a4565b909650945060808a01359150808211156147ce57600080fd5b506147db8a828b016145a4565b989b979a50959850939692959293505050565b60008060006060848603121561480357600080fd5b833561480e8161422d565b95602085013595506040909401359392505050565b60008060006060848603121561483857600080fd5b83356148438161422d565b925060208401359150604084013567ffffffffffffffff81111561486657600080fd5b61487286828701614413565b9150509250925092565b6000806000806080858703121561489257600080fd5b843561489d8161422d565b935060208501356148ad8161422d565b925060408501359150606085013567ffffffffffffffff8111156148d057600080fd5b6148dc87828801614413565b91505092959194509250565b600080604083850312156148fb57600080fd5b82356149068161422d565b915060208301356149168161422d565b809150509250929050565b6000806000806000806080878903121561493a57600080fd5b86356149458161422d565b955060208701359450604087013567ffffffffffffffff8082111561463d57600080fd5b60008060006040848603121561497e57600080fd5b83359250602084013567ffffffffffffffff81111561499c57600080fd5b61436e868287016145a4565b600181811c908216806149bc57607f821691505b6020821081036149dc57634e487b7160e01b600052602260045260246000fd5b50919050565b8381526040602082015281604082015260007f07ffffffffffffffffffffffffffffffffffffffffffffffffffffffffffffff831115614a2157600080fd5b8260051b8085606085013791909101606001949350505050565b600060208284031215614a4d57600080fd5b81516119a381614483565b634e487b7160e01b600052601160045260246000fd5b60007f80000000000000000000000000000000000000000000000000000000000000008203614a9f57614a9f614a58565b5060000390565b634e487b7160e01b600052600160045260246000fd5b8082018281126000831280158216821582161715614adc57614adc614a58565b505092915050565b81810360008312801583831316838312821617156131bc576131bc614a58565b8581526001600160a01b038516602082015283604082015282606082015260a0608082015260006140d460a08301846141ee565b600060208284031215614b4a57600080fd5b5051919050565b60006020808385031215614b6457600080fd5b825167ffffffffffffffff80821115614b7c57600080fd5b818501915085601f830112614b9057600080fd5b815181811115614ba257614ba26143cc565b8060051b9150614bb38483016143e2565b8181529183018401918481019088841115614bcd57600080fd5b938501935b83851015614bf75784519250614be78361422d565b8282529385019390850190614bd2565b98975050505050505050565b80820180821115610a8657610a86614a58565b601f8211156116ae57600081815260208120601f850160051c81016020861015614c3d5750805b601f850160051c820191505b81811015614c5c57828155600101614c49565b505050505050565b67ffffffffffffffff831115614c7c57614c7c6143cc565b614c9083614c8a83546149a8565b83614c16565b6000601f841160018114614cc45760008515614cac5750838201355b600019600387901b1c1916600186901b178355610c40565b600083815260209020601f19861690835b82811015614cf55786850135825560209485019460019092019101614cd5565b5086821015614d125760001960f88860031b161c19848701351681555b505060018560011b0183555050505050565b600060208284031215614d3657600080fd5b81516119a38161422d565b81810381811115610a8657610a86614a58565b634e487b7160e01b600052603260045260246000fd5b600080600060608486031215614d7f57600080fd5b8351925060208401519150604084015190509250925092565b60006000198203614dab57614dab614a58565b5060010190565b838152606060208201526000614dcb60608301856141ee565b828103604084015261173981856141ee565b60ff8281168282160390811115610a8657610a86614a58565b600181815b80851115614e31578160001904821115614e1757614e17614a58565b80851615614e2457918102915b93841c9390800290614dfb565b509250929050565b600082614e4857506001610a86565b81614e5557506000610a86565b8160018114614e6b5760028114614e7557614e91565b6001915050610a86565b60ff841115614e8657614e86614a58565b50506001821b610a86565b5060208310610133831016604e8410600b8410161715614eb4575081810a610a86565b614ebe8383614df6565b8060001904821115614ed257614ed2614a58565b029392505050565b60006119a360ff841683614e39565b600082614f0657634e487b7160e01b600052601260045260246000fd5b500490565b8082028115828204841417610a8657610a86614a58565b60006001600160a01b038089168352808816602084015280871660408401525084606083015260c06080830152614f5c60c08301856141ee565b82810360a0840152614f6e81856141ee565b9998505050505050505050565b60008251614f8d8184602087016141ca565b919091019291505056fe5375706572546f6b656e3a2064656372656173656420616c6c6f77616e63652062656c6f77207a65726f5375706572546f6b656e3a207472616e7366657220616d6f756e74206578636565647320616c6c6f77616e6365a2646970667358221220aef6c4bfb496f5a29dadb422a0660b21b89c53b5581ddbf207e89c94907c171064736f6c63430008130033","linkReferences":{}},"methodIdentifiers":{"CONSTANT_INFLOW_NFT()":"4c5c0c85","CONSTANT_OUTFLOW_NFT()":"ef43d2c6","allowance(address,address)":"dd62ed3e","approve(address,uint256)":"095ea7b3","authorizeOperator(address)":"959b8c3f","balanceOf(address)":"70a08231","burn(uint256,bytes)":"fe9d9303","castrate()":"9903ad38","createAgreement(bytes32,bytes32[])":"12a6a3f8","decimals()":"313ce567","decreaseAllowance(address,uint256)":"a457c2d7","defaultOperators()":"06e48538","downgrade(uint256)":"11bcc81e","downgradeTo(address,uint256)":"83ba2525","getAccountActiveAgreements(address)":"386fa221","getAgreementData(address,bytes32,uint256)":"6c2d9f2f","getAgreementStateSlot(address,address,uint256,uint256)":"4b61cc33","getCodeAddress()":"50d75d25","getHost()":"20bc4425","getUnderlyingToken()":"ee719bc8","granularity()":"556f0dc7","increaseAllowance(address,uint256)":"39509351","initialize(address,uint8,string,string)":"42fe0980","isAccountCritical(address,uint256)":"d9d078d6","isAccountCriticalNow(address)":"79359f6f","isAccountSolvent(address,uint256)":"b84cdd4a","isAccountSolventNow(address)":"bb0d196e","isOperatorFor(address,address)":"d95b6371","makeLiquidationPayoutsV2(bytes32,bytes,address,bool,address,uint256,int256)":"1863e809","name()":"06fdde03","operationApprove(address,address,uint256)":"62aa5287","operationDecreaseAllowance(address,address,uint256)":"c780fd82","operationDowngrade(address,uint256)":"245887fc","operationIncreaseAllowance(address,address,uint256)":"4b2763b3","operationSend(address,address,uint256,bytes)":"ca0c1e7f","operationTransferFrom(address,address,address,uint256)":"16d055d6","operationUpgrade(address,uint256)":"ca789464","operatorBurn(address,uint256,bytes,bytes)":"fc673c4f","operatorSend(address,address,uint256,bytes,bytes)":"62ad1b83","proxiableUUID()":"52d1902d","realtimeBalanceOf(address,uint256)":"eb3537cc","realtimeBalanceOfNow(address)":"2ec8eec7","revokeOperator(address)":"fad8b32a","selfApproveFor(address,address,uint256)":"66a12fb6","selfBurn(address,uint256,bytes)":"9d876741","selfMint(address,uint256,bytes)":"c68d4283","selfTransferFrom(address,address,address,uint256)":"41b706be","send(address,uint256,bytes)":"9bd9bbc6","settleBalance(address,int256)":"cf97256d","symbol()":"95d89b41","terminateAgreement(bytes32,uint256)":"27048397","totalSupply()":"18160ddd","transfer(address,uint256)":"a9059cbb","transferAll(address)":"a3a7e7f3","transferFrom(address,address,uint256)":"23b872dd","updateAgreementData(bytes32,bytes32[])":"a1b2bf8b","updateAgreementStateSlot(address,uint256,bytes32[])":"090c415e","updateCode(address)":"46951954","upgrade(uint256)":"45977d03","upgradeTo(address,uint256,bytes)":"5b9d09cc"},"id":112}