{"abi":[{"type":"constructor","inputs":[],"stateMutability":"nonpayable"},{"type":"function","name":"DEFAULT_ADMIN_ROLE","inputs":[],"outputs":[{"name":"","type":"bytes32","internalType":"bytes32"}],"stateMutability":"view"},{"type":"function","name":"get","inputs":[{"name":"name","type":"string","internalType":"string"}],"outputs":[{"name":"","type":"address","internalType":"address"}],"stateMutability":"view"},{"type":"function","name":"getRoleAdmin","inputs":[{"name":"role","type":"bytes32","internalType":"bytes32"}],"outputs":[{"name":"","type":"bytes32","internalType":"bytes32"}],"stateMutability":"view"},{"type":"function","name":"getRoleMember","inputs":[{"name":"role","type":"bytes32","internalType":"bytes32"},{"name":"index","type":"uint256","internalType":"uint256"}],"outputs":[{"name":"","type":"address","internalType":"address"}],"stateMutability":"view"},{"type":"function","name":"getRoleMemberCount","inputs":[{"name":"role","type":"bytes32","internalType":"bytes32"}],"outputs":[{"name":"","type":"uint256","internalType":"uint256"}],"stateMutability":"view"},{"type":"function","name":"grantRole","inputs":[{"name":"role","type":"bytes32","internalType":"bytes32"},{"name":"account","type":"address","internalType":"address"}],"outputs":[],"stateMutability":"nonpayable"},{"type":"function","name":"hasRole","inputs":[{"name":"role","type":"bytes32","internalType":"bytes32"},{"name":"account","type":"address","internalType":"address"}],"outputs":[{"name":"","type":"bool","internalType":"bool"}],"stateMutability":"view"},{"type":"function","name":"renounceRole","inputs":[{"name":"role","type":"bytes32","internalType":"bytes32"},{"name":"account","type":"address","internalType":"address"}],"outputs":[],"stateMutability":"nonpayable"},{"type":"function","name":"revokeRole","inputs":[{"name":"role","type":"bytes32","internalType":"bytes32"},{"name":"account","type":"address","internalType":"address"}],"outputs":[],"stateMutability":"nonpayable"},{"type":"function","name":"set","inputs":[{"name":"name","type":"string","internalType":"string"},{"name":"target","type":"address","internalType":"address"}],"outputs":[],"stateMutability":"nonpayable"},{"type":"function","name":"supportsInterface","inputs":[{"name":"interfaceId","type":"bytes4","internalType":"bytes4"}],"outputs":[{"name":"","type":"bool","internalType":"bool"}],"stateMutability":"view"},{"type":"event","name":"RoleAdminChanged","inputs":[{"name":"role","type":"bytes32","indexed":true,"internalType":"bytes32"},{"name":"previousAdminRole","type":"bytes32","indexed":true,"internalType":"bytes32"},{"name":"newAdminRole","type":"bytes32","indexed":true,"internalType":"bytes32"}],"anonymous":false},{"type":"event","name":"RoleGranted","inputs":[{"name":"role","type":"bytes32","indexed":true,"internalType":"bytes32"},{"name":"account","type":"address","indexed":true,"internalType":"address"},{"name":"sender","type":"address","indexed":true,"internalType":"address"}],"anonymous":false},{"type":"event","name":"RoleRevoked","inputs":[{"name":"role","type":"bytes32","indexed":true,"internalType":"bytes32"},{"name":"account","type":"address","indexed":true,"internalType":"address"},{"name":"sender","type":"address","indexed":true,"internalType":"address"}],"anonymous":false},{"type":"event","name":"Set","inputs":[{"name":"name","type":"string","indexed":true,"internalType":"string"},{"name":"target","type":"address","indexed":false,"internalType":"address"}],"anonymous":false}],"bytecode":{"object":"0x60806040523480156200001157600080fd5b506200001f60003362000025565b62000172565b62000031828262000035565b5050565b62000041828262000060565b60008281526001602052604090206200005b908262000100565b505050565b6000828152602081815260408083206001600160a01b038516845290915290205460ff1662000031576000828152602081815260408083206001600160a01b03851684529091529020805460ff19166001179055620000bc3390565b6001600160a01b0316816001600160a01b0316837f2f8788117e7eff1d82e926ec794901d17c78024a50270940304540a733656f0d60405160405180910390a45050565b600062000117836001600160a01b03841662000120565b90505b92915050565b600081815260018301602052604081205462000169575081546001818101845560008481526020808220909301849055845484825282860190935260409020919091556200011a565b5060006200011a565b610e9e80620001826000396000f3fe608060405234801561001057600080fd5b50600436106100c95760003560e01c80639010d07c11610081578063a815ff151161005b578063a815ff15146101cc578063ca15c873146101df578063d547741f146101f257600080fd5b80639010d07c1461017a57806391d148541461018d578063a217fddf146101c457600080fd5b80632f2ff15d116100b25780632f2ff15d1461012757806336568abe1461013c578063693ec85e1461014f57600080fd5b806301ffc9a7146100ce578063248a9ca3146100f6575b600080fd5b6100e16100dc366004610b12565b610205565b60405190151581526020015b60405180910390f35b610119610104366004610b54565b60009081526020819052604090206001015490565b6040519081526020016100ed565b61013a610135366004610b89565b610261565b005b61013a61014a366004610b89565b61028b565b61016261015d366004610bfe565b61031c565b6040516001600160a01b0390911681526020016100ed565b610162610188366004610c40565b610351565b6100e161019b366004610b89565b6000918252602082815260408084206001600160a01b0393909316845291905290205460ff1690565b610119600081565b61013a6101da366004610c62565b610370565b6101196101ed366004610b54565b610477565b61013a610200366004610b89565b61048e565b60007fffffffff0000000000000000000000000000000000000000000000000000000082167f5a05180f00000000000000000000000000000000000000000000000000000000148061025b575061025b826104b3565b92915050565b60008281526020819052604090206001015461027c8161054a565b6102868383610557565b505050565b6001600160a01b038116331461030e5760405162461bcd60e51b815260206004820152602f60248201527f416363657373436f6e74726f6c3a2063616e206f6e6c792072656e6f756e636560448201527f20726f6c657320666f722073656c66000000000000000000000000000000000060648201526084015b60405180910390fd5b6103188282610579565b5050565b600060028383604051610330929190610cb6565b908152604051908190036020019020546001600160a01b0316905092915050565b6000828152600160205260408120610369908361059b565b9392505050565b61037b60003361019b565b6103c75760405162461bcd60e51b815260206004820152601660248201527f43616c6c6572206973206e6f7420616e2061646d696e000000000000000000006044820152606401610305565b80600284846040516103da929190610cb6565b90815260405190819003602001812080546001600160a01b03939093167fffffffffffffffffffffffff00000000000000000000000000000000000000009093169290921790915561042f9084908490610cb6565b6040519081900381206001600160a01b0383168252907f496595ced95720268cf8bc60bae3f35024ff2a130f73ac4e20f5c1eaca35db999060200160405180910390a2505050565b600081815260016020526040812061025b906105a7565b6000828152602081905260409020600101546104a98161054a565b6102868383610579565b60007fffffffff0000000000000000000000000000000000000000000000000000000082167f7965db0b00000000000000000000000000000000000000000000000000000000148061025b57507f01ffc9a7000000000000000000000000000000000000000000000000000000007fffffffff0000000000000000000000000000000000000000000000000000000083161461025b565b61055481336105b1565b50565b6105618282610624565b600082815260016020526040902061028690826106c2565b61058382826106d7565b60008281526001602052604090206102869082610756565b6000610369838361076b565b600061025b825490565b6000828152602081815260408083206001600160a01b038516845290915290205460ff16610318576105e281610795565b6105ed8360206107a7565b6040516020016105fe929190610cea565b60408051601f198184030181529082905262461bcd60e51b825261030591600401610d6b565b6000828152602081815260408083206001600160a01b038516845290915290205460ff16610318576000828152602081815260408083206001600160a01b03851684529091529020805460ff1916600117905561067e3390565b6001600160a01b0316816001600160a01b0316837f2f8788117e7eff1d82e926ec794901d17c78024a50270940304540a733656f0d60405160405180910390a45050565b6000610369836001600160a01b0384166109d0565b6000828152602081815260408083206001600160a01b038516845290915290205460ff1615610318576000828152602081815260408083206001600160a01b0385168085529252808320805460ff1916905551339285917ff6391f5c32d9c69d2a47ea670b442974b53935d1edc7fd64eb21e047a839171b9190a45050565b6000610369836001600160a01b038416610a1f565b600082600001828154811061078257610782610d9e565b9060005260206000200154905092915050565b606061025b6001600160a01b03831660145b606060006107b6836002610dca565b6107c1906002610de1565b67ffffffffffffffff8111156107d9576107d9610df4565b6040519080825280601f01601f191660200182016040528015610803576020820181803683370190505b5090507f30000000000000000000000000000000000000000000000000000000000000008160008151811061083a5761083a610d9e565b60200101907effffffffffffffffffffffffffffffffffffffffffffffffffffffffffffff1916908160001a9053507f78000000000000000000000000000000000000000000000000000000000000008160018151811061089d5761089d610d9e565b60200101907effffffffffffffffffffffffffffffffffffffffffffffffffffffffffffff1916908160001a90535060006108d9846002610dca565b6108e4906001610de1565b90505b6001811115610981577f303132333435363738396162636465660000000000000000000000000000000085600f166010811061092557610925610d9e565b1a60f81b82828151811061093b5761093b610d9e565b60200101907effffffffffffffffffffffffffffffffffffffffffffffffffffffffffffff1916908160001a90535060049490941c9361097a81610e0a565b90506108e7565b5083156103695760405162461bcd60e51b815260206004820181905260248201527f537472696e67733a20686578206c656e67746820696e73756666696369656e746044820152606401610305565b6000818152600183016020526040812054610a175750815460018181018455600084815260208082209093018490558454848252828601909352604090209190915561025b565b50600061025b565b60008181526001830160205260408120548015610b08576000610a43600183610e3f565b8554909150600090610a5790600190610e3f565b9050818114610abc576000866000018281548110610a7757610a77610d9e565b9060005260206000200154905080876000018481548110610a9a57610a9a610d9e565b6000918252602080832090910192909255918252600188019052604090208390555b8554869080610acd57610acd610e52565b60019003818190600052602060002001600090559055856001016000868152602001908152602001600020600090556001935050505061025b565b600091505061025b565b600060208284031215610b2457600080fd5b81357fffffffff000000000000000000000000000000000000000000000000000000008116811461036957600080fd5b600060208284031215610b6657600080fd5b5035919050565b80356001600160a01b0381168114610b8457600080fd5b919050565b60008060408385031215610b9c57600080fd5b82359150610bac60208401610b6d565b90509250929050565b60008083601f840112610bc757600080fd5b50813567ffffffffffffffff811115610bdf57600080fd5b602083019150836020828501011115610bf757600080fd5b9250929050565b60008060208385031215610c1157600080fd5b823567ffffffffffffffff811115610c2857600080fd5b610c3485828601610bb5565b90969095509350505050565b60008060408385031215610c5357600080fd5b50508035926020909101359150565b600080600060408486031215610c7757600080fd5b833567ffffffffffffffff811115610c8e57600080fd5b610c9a86828701610bb5565b9094509250610cad905060208501610b6d565b90509250925092565b8183823760009101908152919050565b60005b83811015610ce1578181015183820152602001610cc9565b50506000910152565b7f416363657373436f6e74726f6c3a206163636f756e7420000000000000000000815260008351610d22816017850160208801610cc6565b7f206973206d697373696e6720726f6c65200000000000000000000000000000006017918401918201528351610d5f816028840160208801610cc6565b01602801949350505050565b6020815260008251806020840152610d8a816040850160208701610cc6565b601f01601f19169190910160400192915050565b634e487b7160e01b600052603260045260246000fd5b634e487b7160e01b600052601160045260246000fd5b808202811582820484141761025b5761025b610db4565b8082018082111561025b5761025b610db4565b634e487b7160e01b600052604160045260246000fd5b600081610e1957610e19610db4565b507fffffffffffffffffffffffffffffffffffffffffffffffffffffffffffffffff0190565b8181038181111561025b5761025b610db4565b634e487b7160e01b600052603160045260246000fdfea2646970667358221220dc1fe83ef7ec179db6ae1b9e0c7f2d7f0c611000e1259b33b55c8dbb0390b3c564736f6c63430008130033","linkReferences":{}},"methodIdentifiers":{"DEFAULT_ADMIN_ROLE()":"a217fddf","get(string)":"693ec85e","getRoleAdmin(bytes32)":"248a9ca3","getRoleMember(bytes32,uint256)":"9010d07c","getRoleMemberCount(bytes32)":"ca15c873","grantRole(bytes32,address)":"2f2ff15d","hasRole(bytes32,address)":"91d14854","renounceRole(bytes32,address)":"36568abe","revokeRole(bytes32,address)":"d547741f","set(string,address)":"a815ff15","supportsInterface(bytes4)":"01ffc9a7"},"id":122}