{"abi":[{"type":"fallback","stateMutability":"payable"},{"type":"receive","stateMutability":"payable"},{"type":"function","name":"initialize","inputs":[{"name":"name","type":"string","internalType":"string"},{"name":"symbol","type":"string","internalType":"string"},{"name":"initialSupply","type":"uint256","internalType":"uint256"}],"outputs":[],"stateMutability":"nonpayable"},{"type":"function","name":"initializeProxy","inputs":[{"name":"initialAddress","type":"address","internalType":"address"}],"outputs":[],"stateMutability":"nonpayable"}],"bytecode":{"object":"0x608060405234801561001057600080fd5b50610564806100206000396000f3fe60806040526004361061002d5760003560e01c80634a0687ef14610044578063b119490e146100645761003c565b3661003c5761003a610084565b005b61003a610084565b34801561005057600080fd5b5061003a61005f36600461033d565b610096565b34801561007057600080fd5b5061003a61007f3660046103c3565b6101ea565b61009461008f6102ea565b610319565b565b73ffffffffffffffffffffffffffffffffffffffff8116610118576040517f08c379a000000000000000000000000000000000000000000000000000000000815260206004820152601760248201527f5555505350726f78793a207a65726f206164647265737300000000000000000060448201526064015b60405180910390fd5b60006101427f360894a13ba1a3210667c828492db98dca3e2076cc3735a920a3ca505d382bbc5490565b73ffffffffffffffffffffffffffffffffffffffff16146101bf576040517f08c379a000000000000000000000000000000000000000000000000000000000815260206004820152601e60248201527f5555505350726f78793a20616c726561647920696e697469616c697a65640000604482015260640161010f565b6101e7817f360894a13ba1a3210667c828492db98dca3e2076cc3735a920a3ca505d382bbc55565b50565b6040517f42fe098000000000000000000000000000000000000000000000000000000000815230906342fe098090610232906000906012908a908a908a908a90600401610462565b600060405180830381600087803b15801561024c57600080fd5b505af1158015610260573d6000803e3d6000fd5b5050604080516000815260208101918290527fc68d42830000000000000000000000000000000000000000000000000000000090915230925063c68d428391506102b19033908590602481016104bb565b600060405180830381600087803b1580156102cb57600080fd5b505af11580156102df573d6000803e3d6000fd5b505050505050505050565b60006103147f360894a13ba1a3210667c828492db98dca3e2076cc3735a920a3ca505d382bbc5490565b905090565b3660008037600080366000845af43d6000803e808015610338573d6000f35b3d6000fd5b60006020828403121561034f57600080fd5b813573ffffffffffffffffffffffffffffffffffffffff8116811461037357600080fd5b9392505050565b60008083601f84011261038c57600080fd5b50813567ffffffffffffffff8111156103a457600080fd5b6020830191508360208285010111156103bc57600080fd5b9250929050565b6000806000806000606086880312156103db57600080fd5b853567ffffffffffffffff808211156103f357600080fd5b6103ff89838a0161037a565b9097509550602088013591508082111561041857600080fd5b506104258882890161037a565b96999598509660400135949350505050565b818352818160208501375060006020828401015260006020601f19601f840116840101905092915050565b73ffffffffffffffffffffffffffffffffffffffff8716815260ff8616602082015260806040820152600061049b608083018688610437565b82810360608401526104ae818587610437565b9998505050505050505050565b73ffffffffffffffffffffffffffffffffffffffff8416815260006020848184015260606040840152835180606085015260005b8181101561050b578581018301518582016080015282016104ef565b506000608082860101526080601f19601f8301168501019250505094935050505056fea26469706673582212204ca14f5d6b0e48c9d62c29041717d0daa908138125c989d61e2deeda805b1fb164736f6c63430008130033","linkReferences":{}},"methodIdentifiers":{"initialize(string,string,uint256)":"b119490e","initializeProxy(address)":"4a0687ef"},"id":116}