{"abi":[{"type":"fallback","stateMutability":"payable"},{"type":"receive","stateMutability":"payable"},{"type":"function","name":"initialize","inputs":[],"outputs":[],"stateMutability":"nonpayable"},{"type":"error","name":"FUSTP_ALREADY_INITIALIZED","inputs":[]}],"bytecode":{"object":"0x608060405234801561001057600080fd5b50610279806100206000396000f3fe6080604052600436106100225760003560e01c80638129fc1c1461003957610031565b366100315761002f61004e565b005b61002f61004e565b34801561004557600080fd5b5061002f610060565b61005e6100596100f6565b6101b3565b565b7fb8fcd5719b3ddf8626f3664705a89b7fc476129a58c1aa5eda57c600cc1821a05473ffffffffffffffffffffffffffffffffffffffff8116156100d0576040517f05c5d81900000000000000000000000000000000000000000000000000000000815260040160405180910390fd5b50337fb8fcd5719b3ddf8626f3664705a89b7fc476129a58c1aa5eda57c600cc1821a055565b7fb8fcd5719b3ddf8626f3664705a89b7fc476129a58c1aa5eda57c600cc1821a05460009073ffffffffffffffffffffffffffffffffffffffff811661013e5761013e6101d7565b8073ffffffffffffffffffffffffffffffffffffffff16639470a5b26040518163ffffffff1660e01b8152600401602060405180830381865afa158015610189573d6000803e3d6000fd5b505050506040513d601f19601f820116820180604052508101906101ad9190610206565b91505090565b3660008037600080366000845af43d6000803e8080156101d2573d6000f35b3d6000fd5b7f4e487b7100000000000000000000000000000000000000000000000000000000600052600160045260246000fd5b60006020828403121561021857600080fd5b815173ffffffffffffffffffffffffffffffffffffffff8116811461023c57600080fd5b939250505056fea26469706673582212207058819b103895dd844542fdbf65d07106d284dd61b770e3e5efa7bad08a13e964736f6c63430008130033","linkReferences":{}},"methodIdentifiers":{"initialize()":"8129fc1c"},"id":111}