{"abi":[{"type":"function","name":"listData","inputs":[{"name":"token","type":"ISuperfluidToken","internalType":"contract ISuperfluidToken"},{"name":"account","type":"address","internalType":"address"},{"name":"bitmapStateSlotId","type":"uint256","internalType":"uint256"},{"name":"dataStateSlotIDStart","type":"uint256","internalType":"uint256"}],"outputs":[{"name":"slotIds","type":"uint32[]","internalType":"uint32[]"},{"name":"dataList","type":"bytes32[]","internalType":"bytes32[]"}],"stateMutability":"view"}],"bytecode":{"object":"0x610c0261003a600b82828239805160001a60731461002d57634e487b7160e01b600052600060045260246000fd5b30600052607381538281f3fe730000000000000000000000000000000000000000301460806040526004361061004b5760003560e01c806306967a8c14610050578063a32470101461007a578063a9472bf8146100af575b600080fd5b61006361005e366004610863565b6100d1565b6040516100719291906108a9565b60405180910390f35b81801561008657600080fd5b5061009a61009536600461092a565b610378565b60405163ffffffff9091168152602001610071565b8180156100bb57600080fd5b506100cf6100ca36600461097b565b610677565b005b6040517f4b61cc3300000000000000000000000000000000000000000000000000000000815230600482015273ffffffffffffffffffffffffffffffffffffffff84811660248301526044820184905260016064830152606091829160009190881690634b61cc3390608401600060405180830381865afa15801561015a573d6000803e3d6000fd5b505050506040513d6000823e601f3d908101601f1916820160405261018291908101906109ed565b60008151811061019457610194610aab565b60209081029190910101516040805161010080825261202082019092529192508160200160208202803683375050604080516101008082526120208201909252929550905060208201612000803683370190505091506000805b61010063ffffffff8216101561036657600163ffffffff821684901c1615610356578085838151811061022357610223610aab565b602002602001019063ffffffff16908163ffffffff16815250508873ffffffffffffffffffffffffffffffffffffffff16634b61cc33308a8463ffffffff168a61026d9190610ad7565b6040517fffffffff0000000000000000000000000000000000000000000000000000000060e086901b16815273ffffffffffffffffffffffffffffffffffffffff9384166004820152929091166024830152604482015260016064820152608401600060405180830381865afa1580156102eb573d6000803e3d6000fd5b505050506040513d6000823e601f3d908101601f1916820160405261031391908101906109ed565b60008151811061032557610325610aab565b602002602001015184838151811061033f5761033f610aab565b602090810291909101015261035382610af0565b91505b61035f81610b28565b90506101ee565b50808452808352505094509492505050565b6040517f4b61cc3300000000000000000000000000000000000000000000000000000000815230600482015273ffffffffffffffffffffffffffffffffffffffff858116602483015260448201859052600160648301526000918291881690634b61cc3390608401600060405180830381865afa1580156103fd573d6000803e3d6000fd5b505050506040513d6000823e601f3d908101601f1916820160405261042591908101906109ed565b60008151811061043757610437610aab565b602002602001015160001c9050600091505b61010063ffffffff831610156105f8578163ffffffff1681901c6001166000036105e8576040805160018082528183019092526000916020808301908036833701905050905083816000815181106104a3576104a3610aab565b602090810291909101015273ffffffffffffffffffffffffffffffffffffffff881663090c415e886104db63ffffffff871689610ad7565b846040518463ffffffff1660e01b81526004016104fa93929190610b4b565b600060405180830381600087803b15801561051457600080fd5b505af1158015610528573d6000803e3d6000fd5b505050508263ffffffff166001901b821760001b8160008151811061054f5761054f610aab565b60209081029190910101526040517f090c415e00000000000000000000000000000000000000000000000000000000815273ffffffffffffffffffffffffffffffffffffffff89169063090c415e906105b0908a908a908690600401610b4b565b600060405180830381600087803b1580156105ca57600080fd5b505af11580156105de573d6000803e3d6000fd5b50505050506105f8565b6105f182610b28565b9150610449565b61010063ffffffff83161061066d576040517f08c379a000000000000000000000000000000000000000000000000000000000815260206004820152601760248201527f536c6f744269746d6170206f7574206f6620626f756e64000000000000000000604482015260640160405180910390fd5b5095945050505050565b6040517f4b61cc3300000000000000000000000000000000000000000000000000000000815230600482015273ffffffffffffffffffffffffffffffffffffffff8481166024830152604482018490526001606483015260009190861690634b61cc3390608401600060405180830381865afa1580156106fb573d6000803e3d6000fd5b505050506040513d6000823e601f3d908101601f1916820160405261072391908101906109ed565b60008151811061073557610735610aab565b6020908102919091018101516040805160018082528183019092529193506000928281019080368337019050509050600163ffffffff84161b821660000361077f5761077f610bb6565b8263ffffffff166001901b19821660001b816000815181106107a3576107a3610aab565b60209081029190910101526040517f090c415e00000000000000000000000000000000000000000000000000000000815273ffffffffffffffffffffffffffffffffffffffff87169063090c415e9061080490889088908690600401610b4b565b600060405180830381600087803b15801561081e57600080fd5b505af1158015610832573d6000803e3d6000fd5b50505050505050505050565b73ffffffffffffffffffffffffffffffffffffffff8116811461086057600080fd5b50565b6000806000806080858703121561087957600080fd5b84356108848161083e565b935060208501356108948161083e565b93969395505050506040820135916060013590565b604080825283519082018190526000906020906060840190828701845b828110156108e857815163ffffffff16845292840192908401906001016108c6565b5050508381038285015284518082528583019183019060005b8181101561091d57835183529284019291840191600101610901565b5090979650505050505050565b600080600080600060a0868803121561094257600080fd5b853561094d8161083e565b9450602086013561095d8161083e565b94979496505050506040830135926060810135926080909101359150565b6000806000806080858703121561099157600080fd5b843561099c8161083e565b935060208501356109ac8161083e565b925060408501359150606085013563ffffffff811681146109cc57600080fd5b939692955090935050565b634e487b7160e01b600052604160045260246000fd5b60006020808385031215610a0057600080fd5b825167ffffffffffffffff80821115610a1857600080fd5b818501915085601f830112610a2c57600080fd5b815181811115610a3e57610a3e6109d7565b8060051b604051601f19603f83011681018181108582111715610a6357610a636109d7565b604052918252848201925083810185019188831115610a8157600080fd5b938501935b82851015610a9f57845184529385019392850192610a86565b98975050505050505050565b634e487b7160e01b600052603260045260246000fd5b634e487b7160e01b600052601160045260246000fd5b80820180821115610aea57610aea610ac1565b92915050565b60007fffffffffffffffffffffffffffffffffffffffffffffffffffffffffffffffff8203610b2157610b21610ac1565b5060010190565b600063ffffffff808316818103610b4157610b41610ac1565b6001019392505050565b60006060820173ffffffffffffffffffffffffffffffffffffffff861683526020858185015260606040850152818551808452608086019150828701935060005b81811015610ba857845183529383019391830191600101610b8c565b509098975050505050505050565b634e487b7160e01b600052600160045260246000fdfea26469706673582212200649f7dad945022ac599686744a9ea4a1adb3e2c358dfc72354e30ae7534d13764736f6c63430008130033","linkReferences":{}},"methodIdentifiers":{"clearSlot(ISuperfluidToken,address,uint256,uint32)":"a9472bf8","findEmptySlotAndFill(ISuperfluidToken,address,uint256,uint256,bytes32)":"a3247010","listData(ISuperfluidToken,address,uint256,uint256)":"06967a8c"},"id":107}