{"abi":[{"type":"constructor","inputs":[{"name":"host","type":"address","internalType":"contract ISuperfluid"}],"stateMutability":"nonpayable"},{"type":"function","name":"SLOTS_BITMAP_LIBRARY_ADDRESS","inputs":[],"outputs":[{"name":"","type":"address","internalType":"address"}],"stateMutability":"view"},{"type":"function","name":"agreementType","inputs":[],"outputs":[{"name":"","type":"bytes32","internalType":"bytes32"}],"stateMutability":"pure"},{"type":"function","name":"approveSubscription","inputs":[{"name":"token","type":"address","internalType":"contract ISuperfluidToken"},{"name":"publisher","type":"address","internalType":"address"},{"name":"indexId","type":"uint32","internalType":"uint32"},{"name":"ctx","type":"bytes","internalType":"bytes"}],"outputs":[{"name":"newCtx","type":"bytes","internalType":"bytes"}],"stateMutability":"nonpayable"},{"type":"function","name":"calculateDistribution","inputs":[{"name":"token","type":"address","internalType":"contract ISuperfluidToken"},{"name":"publisher","type":"address","internalType":"address"},{"name":"indexId","type":"uint32","internalType":"uint32"},{"name":"amount","type":"uint256","internalType":"uint256"}],"outputs":[{"name":"actualAmount","type":"uint256","internalType":"uint256"},{"name":"newIndexValue","type":"uint128","internalType":"uint128"}],"stateMutability":"view"},{"type":"function","name":"castrate","inputs":[],"outputs":[],"stateMutability":"nonpayable"},{"type":"function","name":"claim","inputs":[{"name":"token","type":"address","internalType":"contract ISuperfluidToken"},{"name":"publisher","type":"address","internalType":"address"},{"name":"indexId","type":"uint32","internalType":"uint32"},{"name":"subscriber","type":"address","internalType":"address"},{"name":"ctx","type":"bytes","internalType":"bytes"}],"outputs":[{"name":"newCtx","type":"bytes","internalType":"bytes"}],"stateMutability":"nonpayable"},{"type":"function","name":"createIndex","inputs":[{"name":"token","type":"address","internalType":"contract ISuperfluidToken"},{"name":"indexId","type":"uint32","internalType":"uint32"},{"name":"ctx","type":"bytes","internalType":"bytes"}],"outputs":[{"name":"newCtx","type":"bytes","internalType":"bytes"}],"stateMutability":"nonpayable"},{"type":"function","name":"deleteSubscription","inputs":[{"name":"token","type":"address","internalType":"contract ISuperfluidToken"},{"name":"publisher","type":"address","internalType":"address"},{"name":"indexId","type":"uint32","internalType":"uint32"},{"name":"subscriber","type":"address","internalType":"address"},{"name":"ctx","type":"bytes","internalType":"bytes"}],"outputs":[{"name":"newCtx","type":"bytes","internalType":"bytes"}],"stateMutability":"nonpayable"},{"type":"function","name":"distribute","inputs":[{"name":"token","type":"address","internalType":"contract ISuperfluidToken"},{"name":"indexId","type":"uint32","internalType":"uint32"},{"name":"amount","type":"uint256","internalType":"uint256"},{"name":"ctx","type":"bytes","internalType":"bytes"}],"outputs":[{"name":"newCtx","type":"bytes","internalType":"bytes"}],"stateMutability":"nonpayable"},{"type":"function","name":"getCodeAddress","inputs":[],"outputs":[{"name":"codeAddress","type":"address","internalType":"address"}],"stateMutability":"view"},{"type":"function","name":"getIndex","inputs":[{"name":"token","type":"address","internalType":"contract ISuperfluidToken"},{"name":"publisher","type":"address","internalType":"address"},{"name":"indexId","type":"uint32","internalType":"uint32"}],"outputs":[{"name":"exist","type":"bool","internalType":"bool"},{"name":"indexValue","type":"uint128","internalType":"uint128"},{"name":"totalUnitsApproved","type":"uint128","internalType":"uint128"},{"name":"totalUnitsPending","type":"uint128","internalType":"uint128"}],"stateMutability":"view"},{"type":"function","name":"getSubscription","inputs":[{"name":"token","type":"address","internalType":"contract ISuperfluidToken"},{"name":"publisher","type":"address","internalType":"address"},{"name":"indexId","type":"uint32","internalType":"uint32"},{"name":"subscriber","type":"address","internalType":"address"}],"outputs":[{"name":"exist","type":"bool","internalType":"bool"},{"name":"approved","type":"bool","internalType":"bool"},{"name":"units","type":"uint128","internalType":"uint128"},{"name":"pendingDistribution","type":"uint256","internalType":"uint256"}],"stateMutability":"view"},{"type":"function","name":"getSubscriptionByID","inputs":[{"name":"token","type":"address","internalType":"contract ISuperfluidToken"},{"name":"agreementId","type":"bytes32","internalType":"bytes32"}],"outputs":[{"name":"publisher","type":"address","internalType":"address"},{"name":"indexId","type":"uint32","internalType":"uint32"},{"name":"approved","type":"bool","internalType":"bool"},{"name":"units","type":"uint128","internalType":"uint128"},{"name":"pendingDistribution","type":"uint256","internalType":"uint256"}],"stateMutability":"view"},{"type":"function","name":"listSubscriptions","inputs":[{"name":"token","type":"address","internalType":"contract ISuperfluidToken"},{"name":"subscriber","type":"address","internalType":"address"}],"outputs":[{"name":"publishers","type":"address[]","internalType":"address[]"},{"name":"indexIds","type":"uint32[]","internalType":"uint32[]"},{"name":"unitsList","type":"uint128[]","internalType":"uint128[]"}],"stateMutability":"view"},{"type":"function","name":"proxiableUUID","inputs":[],"outputs":[{"name":"","type":"bytes32","internalType":"bytes32"}],"stateMutability":"view"},{"type":"function","name":"realtimeBalanceOf","inputs":[{"name":"token","type":"address","internalType":"contract ISuperfluidToken"},{"name":"account","type":"address","internalType":"address"},{"name":"","type":"uint256","internalType":"uint256"}],"outputs":[{"name":"dynamicBalance","type":"int256","internalType":"int256"},{"name":"deposit","type":"uint256","internalType":"uint256"},{"name":"owedDeposit","type":"uint256","internalType":"uint256"}],"stateMutability":"view"},{"type":"function","name":"revokeSubscription","inputs":[{"name":"token","type":"address","internalType":"contract ISuperfluidToken"},{"name":"publisher","type":"address","internalType":"address"},{"name":"indexId","type":"uint32","internalType":"uint32"},{"name":"ctx","type":"bytes","internalType":"bytes"}],"outputs":[{"name":"newCtx","type":"bytes","internalType":"bytes"}],"stateMutability":"nonpayable"},{"type":"function","name":"updateCode","inputs":[{"name":"newAddress","type":"address","internalType":"address"}],"outputs":[],"stateMutability":"nonpayable"},{"type":"function","name":"updateIndex","inputs":[{"name":"token","type":"address","internalType":"contract ISuperfluidToken"},{"name":"indexId","type":"uint32","internalType":"uint32"},{"name":"indexValue","type":"uint128","internalType":"uint128"},{"name":"ctx","type":"bytes","internalType":"bytes"}],"outputs":[{"name":"newCtx","type":"bytes","internalType":"bytes"}],"stateMutability":"nonpayable"},{"type":"function","name":"updateSubscription","inputs":[{"name":"token","type":"address","internalType":"contract ISuperfluidToken"},{"name":"indexId","type":"uint32","internalType":"uint32"},{"name":"subscriber","type":"address","internalType":"address"},{"name":"units","type":"uint128","internalType":"uint128"},{"name":"ctx","type":"bytes","internalType":"bytes"}],"outputs":[{"name":"newCtx","type":"bytes","internalType":"bytes"}],"stateMutability":"nonpayable"},{"type":"event","name":"CodeUpdated","inputs":[{"name":"uuid","type":"bytes32","indexed":false,"internalType":"bytes32"},{"name":"codeAddress","type":"address","indexed":false,"internalType":"address"}],"anonymous":false},{"type":"event","name":"IndexCreated","inputs":[{"name":"token","type":"address","indexed":true,"internalType":"contract ISuperfluidToken"},{"name":"publisher","type":"address","indexed":true,"internalType":"address"},{"name":"indexId","type":"uint32","indexed":true,"internalType":"uint32"},{"name":"userData","type":"bytes","indexed":false,"internalType":"bytes"}],"anonymous":false},{"type":"event","name":"IndexDistributionClaimed","inputs":[{"name":"token","type":"address","indexed":true,"internalType":"contract ISuperfluidToken"},{"name":"publisher","type":"address","indexed":true,"internalType":"address"},{"name":"indexId","type":"uint32","indexed":true,"internalType":"uint32"},{"name":"subscriber","type":"address","indexed":false,"internalType":"address"},{"name":"amount","type":"uint256","indexed":false,"internalType":"uint256"}],"anonymous":false},{"type":"event","name":"IndexSubscribed","inputs":[{"name":"token","type":"address","indexed":true,"internalType":"contract ISuperfluidToken"},{"name":"publisher","type":"address","indexed":true,"internalType":"address"},{"name":"indexId","type":"uint32","indexed":true,"internalType":"uint32"},{"name":"subscriber","type":"address","indexed":false,"internalType":"address"},{"name":"userData","type":"bytes","indexed":false,"internalType":"bytes"}],"anonymous":false},{"type":"event","name":"IndexUnitsUpdated","inputs":[{"name":"token","type":"address","indexed":true,"internalType":"contract ISuperfluidToken"},{"name":"publisher","type":"address","indexed":true,"internalType":"address"},{"name":"indexId","type":"uint32","indexed":true,"internalType":"uint32"},{"name":"subscriber","type":"address","indexed":false,"internalType":"address"},{"name":"units","type":"uint128","indexed":false,"internalType":"uint128"},{"name":"userData","type":"bytes","indexed":false,"internalType":"bytes"}],"anonymous":false},{"type":"event","name":"IndexUnsubscribed","inputs":[{"name":"token","type":"address","indexed":true,"internalType":"contract ISuperfluidToken"},{"name":"publisher","type":"address","indexed":true,"internalType":"address"},{"name":"indexId","type":"uint32","indexed":true,"internalType":"uint32"},{"name":"subscriber","type":"address","indexed":false,"internalType":"address"},{"name":"userData","type":"bytes","indexed":false,"internalType":"bytes"}],"anonymous":false},{"type":"event","name":"IndexUpdated","inputs":[{"name":"token","type":"address","indexed":true,"internalType":"contract ISuperfluidToken"},{"name":"publisher","type":"address","indexed":true,"internalType":"address"},{"name":"indexId","type":"uint32","indexed":true,"internalType":"uint32"},{"name":"oldIndexValue","type":"uint128","indexed":false,"internalType":"uint128"},{"name":"newIndexValue","type":"uint128","indexed":false,"internalType":"uint128"},{"name":"totalUnitsPending","type":"uint128","indexed":false,"internalType":"uint128"},{"name":"totalUnitsApproved","type":"uint128","indexed":false,"internalType":"uint128"},{"name":"userData","type":"bytes","indexed":false,"internalType":"bytes"}],"anonymous":false},{"type":"event","name":"Initialized","inputs":[{"name":"version","type":"uint8","indexed":false,"internalType":"uint8"}],"anonymous":false},{"type":"event","name":"SubscriptionApproved","inputs":[{"name":"token","type":"address","indexed":true,"internalType":"contract ISuperfluidToken"},{"name":"subscriber","type":"address","indexed":true,"internalType":"address"},{"name":"publisher","type":"address","indexed":false,"internalType":"address"},{"name":"indexId","type":"uint32","indexed":false,"internalType":"uint32"},{"name":"userData","type":"bytes","indexed":false,"internalType":"bytes"}],"anonymous":false},{"type":"event","name":"SubscriptionDistributionClaimed","inputs":[{"name":"token","type":"address","indexed":true,"internalType":"contract ISuperfluidToken"},{"name":"subscriber","type":"address","indexed":true,"internalType":"address"},{"name":"publisher","type":"address","indexed":false,"internalType":"address"},{"name":"indexId","type":"uint32","indexed":false,"internalType":"uint32"},{"name":"amount","type":"uint256","indexed":false,"internalType":"uint256"}],"anonymous":false},{"type":"event","name":"SubscriptionRevoked","inputs":[{"name":"token","type":"address","indexed":true,"internalType":"contract ISuperfluidToken"},{"name":"subscriber","type":"address","indexed":true,"internalType":"address"},{"name":"publisher","type":"address","indexed":false,"internalType":"address"},{"name":"indexId","type":"uint32","indexed":false,"internalType":"uint32"},{"name":"userData","type":"bytes","indexed":false,"internalType":"bytes"}],"anonymous":false},{"type":"event","name":"SubscriptionUnitsUpdated","inputs":[{"name":"token","type":"address","indexed":true,"internalType":"contract ISuperfluidToken"},{"name":"subscriber","type":"address","indexed":true,"internalType":"address"},{"name":"publisher","type":"address","indexed":false,"internalType":"address"},{"name":"indexId","type":"uint32","indexed":false,"internalType":"uint32"},{"name":"units","type":"uint128","indexed":false,"internalType":"uint128"},{"name":"userData","type":"bytes","indexed":false,"internalType":"bytes"}],"anonymous":false},{"type":"error","name":"AGREEMENT_BASE_ONLY_HOST","inputs":[]},{"type":"error","name":"IDA_INDEX_ALREADY_EXISTS","inputs":[]},{"type":"error","name":"IDA_INDEX_DOES_NOT_EXIST","inputs":[]},{"type":"error","name":"IDA_INDEX_SHOULD_GROW","inputs":[]},{"type":"error","name":"IDA_INSUFFICIENT_BALANCE","inputs":[]},{"type":"error","name":"IDA_OPERATION_NOT_ALLOWED","inputs":[]},{"type":"error","name":"IDA_SUBSCRIPTION_ALREADY_APPROVED","inputs":[]},{"type":"error","name":"IDA_SUBSCRIPTION_DOES_NOT_EXIST","inputs":[]},{"type":"error","name":"IDA_SUBSCRIPTION_IS_NOT_APPROVED","inputs":[]},{"type":"error","name":"IDA_ZERO_ADDRESS_SUBSCRIBER","inputs":[]}],"bytecode":{"object":"0x60a06040523480156200001157600080fd5b5060405162005ded38038062005ded833981016040819052620000349162000046565b6001600160a01b031660805262000078565b6000602082840312156200005957600080fd5b81516001600160a01b03811681146200007157600080fd5b9392505050565b608051615d5962000094600039600061134b0152615d596000f3fe608060405234801561001057600080fd5b506004361061016c5760003560e01c80637fbc7639116100cd578063acf4a6c211610081578063b96731c211610066578063b96731c214610395578063cd7245c5146103a8578063d787840a1461040057600080fd5b8063acf4a6c214610360578063b6dacdb81461037357600080fd5b80639903ad38116100b25780639903ad38146103175780639b2e48bc1461031f578063acafa1b81461034d57600080fd5b80637fbc7639146102d4578063899baaec146102e757600080fd5b806350d75d25116101245780635b534051116101095780635b534051146102575780636041ae961461029b5780637730599e146102ae57600080fd5b806350d75d251461023957806352d1902d1461024157600080fd5b80632e5e74c6116101555780632e5e74c6146101de5780633fd4176a146101f1578063469519541461022457600080fd5b8063232d2b581461017157806323fc23f31461019a575b600080fd5b61018461017f366004614e7a565b610413565b6040516101919190614f56565b60405180910390f35b6101ad6101a8366004614f69565b610c38565b6040805194151585526001600160801b03938416602086015291831691840191909152166060820152608001610191565b6101846101ec366004614fb4565b610c9c565b61020c73__$3c6eb92c7cccddf84f4a4201d0479214da$__81565b6040516001600160a01b039091168152602001610191565b610237610232366004615008565b611340565b005b61020c6113ae565b6102496113dd565b604051908152602001610191565b61026a61026536600461502c565b611441565b6040516101919493929190931515845291151560208401526001600160801b03166040830152606082015260800190565b6101846102a9366004615088565b611534565b7f8aedc3b5d4bf031e11a7e2940f7251c005698405d58e02e1c247fed3b1b3a674610249565b6101846102e2366004615104565b611a55565b6102fa6102f5366004615145565b611b5b565b604080519283526001600160801b03909116602083015201610191565b610237611c19565b61033261032d366004615196565b611d54565b60408051938452602084019290925290820152606001610191565b61018461035b366004614fb4565b611fc3565b61018461036e366004615088565b6124ea565b6103866103813660046151d7565b612baf565b60405161019193929190615254565b6101846103a33660046152f1565b612e29565b6103bb6103b6366004615347565b612f29565b604080516001600160a01b03909616865263ffffffff9094166020860152911515928401929092526001600160801b039091166060830152608082015260a001610191565b61018461040e366004615373565b613083565b60606001600160a01b038516610455576040517fc90a467400000000000000000000000000000000000000000000000000000000815260040160405180910390fd5b6104cf6040805160c081018252600080825260208083018290528284018290528351606081810186528382529181018390529384019190915290919082019081526040805160a081018252600080825260208281018290529282018190526060820181905260808201529101908152602001606081525090565b6040805160e0810182526000808252602082018190529181018290526060808201526080810182905260a0810182905260c0810191909152606060008061054c8c89898080601f01602080910402602001604051908101604052809392919081815260200183838082843760009201919091525061325792505050565b90508060a001519250806060015191505061056b8b828b8d60006134c4565b60808901521515602080890191909152606088019190915260408088018390529287528251908101909252600082526105e6918d918c916040805160e08101825260006080820181905260a0820181905260c08201526001600160a01b03958616815293909416602084015292820152606081019190915290565b925086868080601f01602080910402602001604051908101604052809392919081815260200183838082843760009201919091525050506020860151919650501561064a5764040000000060c08401526106408386613609565b60a0850152610665565b64010000000060c084015261065f8386613609565b60a08501525b83602001518015610682575060808401515163ffffffff90811614155b1561075d576106d18460800151608001516001600160801b0316896001600160801b03168660600151602001516001600160801b03166106c291906153ee565b6106cc9190615401565b613807565b6060850180516001600160801b03909216602090920191909152845190516001600160a01b038d169163a1b2bf8b916107099061388a565b6040518363ffffffff1660e01b8152600401610726929190615444565b600060405180830381600087803b15801561074057600080fd5b505af1158015610754573d6000803e3d6000fd5b50505050610944565b8360200151156107da576107a28460800151608001516001600160801b0316896001600160801b03168660600151604001516001600160801b03166106c291906153ee565b6060850180516001600160801b03909216604090920191909152845190516001600160a01b038d169163a1b2bf8b916107099061388a565b6040518060a0016040528063ffffffff80168152602001826001600160a01b031681526020018b63ffffffff1681526020018560600151600001516001600160801b03168152602001896001600160801b031681525084608001819052508a6001600160a01b03166312a6a3f885604001516108598760800151613935565b6040518363ffffffff1660e01b8152600401610876929190615444565b600060405180830381600087803b15801561089057600080fd5b505af11580156108a4573d6000803e3d6000fd5b50505050878460600151604001516108bc919061545d565b6060850180516001600160801b03909216604090920191909152845190516001600160a01b038d169163a1b2bf8b916108f49061388a565b6040518363ffffffff1660e01b8152600401610911929190615444565b600060405180830381600087803b15801561092b57600080fd5b505af115801561093f573d6000803e3d6000fd5b505050505b60008460800151608001516001600160801b03168560800151606001518660600151600001516109749190615484565b6001600160801b031661098791906154a4565b905063ffffffff801685608001516000015163ffffffff1603610a2f576109b78c836109b2846154f0565b6139dc565b6001600160a01b038c1663cf97256d836109d0846154f0565b6040516001600160e01b031960e085901b1681526001600160a01b0390921660048301526024820152604401600060405180830381600087803b158015610a1657600080fd5b505af1158015610a2a573d6000803e3d6000fd5b505050505b60405163cf97256d60e01b81526001600160a01b038b81166004830152602482018390528d169063cf97256d90604401600060405180830381600087803b158015610a7957600080fd5b505af1158015610a8d573d6000803e3d6000fd5b50505050846020015115610b335760608086015151608080880180516001600160801b039384169401939093528251918c16910152604086015190516001600160a01b038e169163a1b2bf8b91610ae390613935565b6040518363ffffffff1660e01b8152600401610b00929190615444565b600060405180830381600087803b158015610b1a57600080fd5b505af1158015610b2e573d6000803e3d6000fd5b505050505b846020015115610b625764080000000060c085015260a0850151610b5990859088613b66565b9650610b829050565b64020000000060c085015260a0850151610b7e90859088613b66565b9650505b8a63ffffffff16826001600160a01b03168d6001600160a01b03167f0115987243fd19d615b5ea62a80372a06a2b37fec378b148ee7a507c5c4c0a398d8d88604051610bd093929190615528565b60405180910390a4896001600160a01b03168c6001600160a01b03167fe0707ac7efb8b59c22189af8d004ed17dc9e4379e71b9066119b62c182524977848e8d88604051610c219493929190615562565b60405180910390a350505050509695505050505050565b604080516060810182526000808252602082018190529181018290528190819081906000610c668888613e5e565b9050610c728982613eec565b90965091508515610c9157815160208301516040840151919650945092505b505093509350935093565b6060610d186040805160c081018252600080825260208083018290528284018290528351606081810186528382529181018390529384019190915290919082019081526040805160a081018252600080825260208281018290529282018190526060820181905260808201529101908152602001606081525090565b6040805160e0810182526000808252602082018190529181018290526060808201526080810182905260a0810182905260c0810191909152600060606000610d968c89898080601f01602080910402602001604051908101604052809392919081815260200183838082843760009201919091525061325792505050565b606081015160a0909101519093509150506001600160a01b038816610de7576040517fc90a467400000000000000000000000000000000000000000000000000000000815260040160405180910390fd5b896001600160a01b0316826001600160a01b031614610e32576040517f92da6d1700000000000000000000000000000000000000000000000000000000815260040160405180910390fd5b610e408b8b8a8c60016134c4565b6080890152506060870152604080870182905291865281516020810190925260008252610eaf918d918b916040805160e08101825260006080820181905260a0820181905260c08201526001600160a01b03958616815293909416602084015292820152606081019190915290565b925086868080601f0160208091040260200160405190810160405280939291908181526020018383808284376000920191909152505064100000000060c087015250909550610f0090508386613609565b60a08501526080808501519081015160609182015191860151516000926001600160801b0390921691610f3291615484565b6001600160801b0316610f4591906154a4565b60808601515190915063ffffffff90811614610f9257846080015160800151856060015160200151610f779190615484565b60608601516001600160801b03909116602090910152610fc5565b846080015160800151856060015160400151610fae9190615484565b60608601516001600160801b039091166040909101525b8b6001600160a01b031663a1b2bf8b8660000151610fe6886060015161388a565b6040518363ffffffff1660e01b8152600401611003929190615444565b600060405180830381600087803b15801561101d57600080fd5b505af1158015611031573d6000803e3d6000fd5b5050505060808501515163ffffffff9081161461105b5761105b8c8a876080015160000151614019565b60808501515163ffffffff1663fffffffe19016110f8576110808c8c6109b2846154f0565b6001600160a01b038c1663cf97256d8c611099846154f0565b6040516001600160e01b031960e085901b1681526001600160a01b0390921660048301526024820152604401600060405180830381600087803b1580156110df57600080fd5b505af11580156110f3573d6000803e3d6000fd5b505050505b60408581015190517f270483970000000000000000000000000000000000000000000000000000000081526004810191909152600260248201526001600160a01b038d1690632704839790604401600060405180830381600087803b15801561116057600080fd5b505af1158015611174573d6000803e3d6000fd5b505060405163cf97256d60e01b81526001600160a01b038c81166004830152602482018590528f16925063cf97256d9150604401600060405180830381600087803b1580156111c257600080fd5b505af11580156111d6573d6000803e3d6000fd5b505064200000000060c0870152505060a08501516111f690859088613b66565b9050809650508963ffffffff168b6001600160a01b03168d6001600160a01b03167fe1f8e9cd8061e5b251769965bda6ca9ef1674bc6541fb9131039fa53f024d1428c866040516112489291906155a9565b60405180910390a4886001600160a01b03168c6001600160a01b03167f9e02127550b99adc8cc6ee332a36f31338facdbc396cebefce9a047247cd04558d8d86604051611297939291906155cb565b60405180910390a38963ffffffff168b6001600160a01b03168d6001600160a01b03167f0115987243fd19d615b5ea62a80372a06a2b37fec378b148ee7a507c5c4c0a398c6000876040516112ee93929190615528565b60405180910390a4886001600160a01b03168c6001600160a01b03167fe0707ac7efb8b59c22189af8d004ed17dc9e4379e71b9066119b62c1825249778d8d600087604051610c219493929190615562565b336001600160a01b037f000000000000000000000000000000000000000000000000000000000000000016146113a2576040517f1601d91e00000000000000000000000000000000000000000000000000000000815260040160405180910390fd5b6113ab816140bd565b50565b60006113d87f360894a13ba1a3210667c828492db98dca3e2076cc3735a920a3ca505d382bbc5490565b905090565b6000306001600160a01b0316637730599e6040518163ffffffff1660e01b8152600401602060405180830381865afa15801561141d573d6000803e3d6000fd5b505050506040513d601f19601f820116820180604052508101906113d891906155f9565b60408051606081018252600080825260208201819052918101829052819081908190819081906040805160a0810182526000808252602082018190529181018290526060810182905260808101919091526114a08c8c8b8d60006134c4565b909b5092965090945092509050876114c957600080600080975097509750975050505050611529565b8051608082015163ffffffff91821690911415975095508661151f5780608001516001600160801b0316816060015183600001516115079190615484565b6001600160801b031661151a9190615612565b611522565b60005b9450505050505b945094509450949050565b60606115b06040805160c081018252600080825260208083018290528284018290528351606081810186528382529181018390529384019190915290919082019081526040805160a081018252600080825260208281018290529282018190526060820181905260808201529101908152602001606081525090565b6040805160e0810182526000808252602082018190529181018290526060808201526080810182905260a0810182905260c081019190915260006060600061162e8b89898080601f01602080910402602001604051908101604052809392919081815260200183838082843760009201919091525061325792505050565b9050806060015192508060a0015191505061164d8a8a848b60016134c4565b6080890181905260608901929092525060408701919091529085525163ffffffff1663fffffffe19016116ac576040517f3741257300000000000000000000000000000000000000000000000000000000815260040160405180910390fd5b61170a8a8a8660400151604051806020016040528060008152506040805160e08101825260006080820181905260a0820181905260c08201526001600160a01b03958616815293909416602084015292820152606081019190915290565b925086868080601f0160208091040260200160405190810160405280939291908181526020018383808284376000920191909152505064100000000060c08701525090955061175b90508386613609565b60a08501526080808501519081015160609182015191860151516000926001600160801b039092169161178d91615484565b6001600160801b03166117a091906154a4565b90508460800151608001518560600151602001516117be9190615484565b6060860180516001600160801b0390921660209092019190915260808087015101519051604001516117f0919061545d565b6060860180516001600160801b03909216604090920191909152855190516001600160a01b038d169163a1b2bf8b916118289061388a565b6040518363ffffffff1660e01b8152600401611845929190615444565b600060405180830381600087803b15801561185f57600080fd5b505af1158015611873573d6000803e3d6000fd5b5050505061188a8b84876080015160000151614019565b606080860151516080870180516001600160801b039092169190920152805163ffffffff9052604086015190516001600160a01b038d169163a1b2bf8b916118d190613935565b6040518363ffffffff1660e01b81526004016118ee929190615444565b600060405180830381600087803b15801561190857600080fd5b505af115801561191c573d6000803e3d6000fd5b505060405163cf97256d60e01b81526001600160a01b038681166004830152602482018590528e16925063cf97256d9150604401600060405180830381600087803b15801561196a57600080fd5b505af115801561197e573d6000803e3d6000fd5b505064200000000060c0870152505060a085015161199e90859088613b66565b9050809650508863ffffffff168a6001600160a01b03168c6001600160a01b03167fe1f8e9cd8061e5b251769965bda6ca9ef1674bc6541fb9131039fa53f024d14286866040516119f09291906155a9565b60405180910390a4826001600160a01b03168b6001600160a01b03167f9e02127550b99adc8cc6ee332a36f31338facdbc396cebefce9a047247cd04558c8c86604051611a3f939291906155cb565b60405180910390a3505050505095945050505050565b60606000611a998785858080601f01602080910402602001604051908101604052809392919081815260200183838082843760009201919091525061325792505050565b6060810151909150600080611aaf8a848b6142df565b9150915080600001516001600160801b0316886001600160801b03161015611b03576040517fcfdca72500000000000000000000000000000000000000000000000000000000815260040160405180910390fd5b611b168a848b85858d8a60a00151614357565b86868080601f016020809104026020016040519081016040528093929190818152602001838380828437600092019190915250929d9c50505050505050505050505050565b6000806000611b6a8686613e5e565b9050600080611b798984613eec565b9150915081611bb4576040517fedeaa63b00000000000000000000000000000000000000000000000000000000815260040160405180910390fd5b600081604001518260200151611bca919061545d565b6001600160801b031690506000611be46106cc838a615629565b8351909150611bf490829061545d565b9550611c09826001600160801b038316615612565b9650505050505094509492505050565b600054610100900460ff1615808015611c395750600054600160ff909116105b80611c535750303b158015611c53575060005460ff166001145b611cca5760405162461bcd60e51b815260206004820152602e60248201527f496e697469616c697a61626c653a20636f6e747261637420697320616c72656160448201527f647920696e697469616c697a656400000000000000000000000000000000000060648201526084015b60405180910390fd5b600080547fffffffffffffffffffffffffffffffffffffffffffffffffffffffffffffff001660011790558015611d0b576000805461ff0019166101001790555b80156113ab576000805461ff0019169055604051600181527f7f26b83ff96e1f2b6a682f133852f6798a09c465da95921460cefb3847402498906020015b60405180910390a150565b6000806000606080611d6688886145c7565b909250905060005b81518163ffffffff161015611fa7576040805160a0810182526000808252602082018190529181018290526060810182905260808101829052600080868563ffffffff1681518110611dc257611dc261564b565b60200260200101519050611df58d878763ffffffff1681518110611de857611de861564b565b60200260200101516146f4565b909450925083611e0757611e07615661565b8063ffffffff16836000015163ffffffff1614611e2657611e26615661565b6001600160a01b038d16634b61cc33308e611e5863ffffffff86167001000000000000000000000000000000006153ee565b6040516001600160e01b031960e086901b1681526001600160a01b039384166004820152929091166024830152604482015260016064820152608401600060405180830381865afa158015611eb1573d6000803e3d6000fd5b505050506040513d6000823e601f3d908101601f19168201604052611ed99190810190615777565b600081518110611eeb57611eeb61564b565b6020026020010151915050611f35604051806060016040528060006001600160801b0316815260200160006001600160801b0316815260200160006001600160801b031681525090565b611f3f8d83613eec565b909450905083611f5157611f51615661565b82608001516001600160801b031683606001518260000151611f739190615484565b6001600160801b0316611f8691906154a4565b611f90908b6157ac565b99505050505080611fa0906157d4565b9050611d6e565b50611fb28888614849565b935060009250505093509350939050565b60606120058784848080601f01602080910402602001604051908101604052809392919081815260200183838082843760009201919091525061325792505050565b506001600160a01b038416612046576040517fc90a467400000000000000000000000000000000000000000000000000000000815260040160405180910390fd5b6120c06040805160c081018252600080825260208083018290528284018290528351606081810186528382529181018390529384019190915290919082019081526040805160a081018252600080825260208281018290529282018190526060820181905260808201529101908152602001606081525090565b6040805160e0810182526000808252602082018190529181018290526060808201526080810182905260a0810182905260c08101919091526121068989888a60016134c4565b6080870181905260608701929092525060408501919091529083525163ffffffff90811614612161576040517f3eb2f84900000000000000000000000000000000000000000000000000000000815260040160405180910390fd5b60008260800151608001516001600160801b03168360800151606001518460600151600001516121919190615484565b6001600160801b03166121a49190615612565b90506122048a8a8560400151604051806020016040528060008152506040805160e08101825260006080820181905260a0820181905260c08201526001600160a01b03958616815293909416602084015292820152606081019190915290565b915085858080601f01602080910402602001604051908101604052809392919081815260200183838082843760009201919091525092965050821591506124a390505764040000000060c083015261225c8285613609565b60a084015261226f8a8a6109b2846154f0565b6001600160a01b038a1663cf97256d8a612288846154f0565b6040516001600160e01b031960e085901b1681526001600160a01b0390921660048301526024820152604401600060405180830381600087803b1580156122ce57600080fd5b505af11580156122e2573d6000803e3d6000fd5b50505050606083810151516080850180516001600160801b039092169190920152604084015190516001600160a01b038c169163a1b2bf8b9161232490613935565b6040518363ffffffff1660e01b8152600401612341929190615444565b600060405180830381600087803b15801561235b57600080fd5b505af115801561236f573d6000803e3d6000fd5b505060405163cf97256d60e01b81526001600160a01b038a81166004830152602482018590528d16925063cf97256d9150604401600060405180830381600087803b1580156123bd57600080fd5b505af11580156123d1573d6000803e3d6000fd5b5050604080516001600160a01b038b811682526020820186905263ffffffff8d169450808e1693508e16917f467eccd248ef31c8bcef16d94856855799a8783aeef10f3759e43614059a6bb1910160405180910390a4604080516001600160a01b038b8116825263ffffffff8b166020830152918101839052818916918c16907f48a3d91d4a07e4982b081260e24f922bd33bb965882772d6de19c922c3eabdea9060600160405180910390a364080000000060c083015260a083015161249a90839086613b66565b94506124dd9050565b85858080601f0160208091040260200160405190810160405280939291908181526020018383808284376000920191909152509296505050505b5050509695505050505050565b60606125666040805160c081018252600080825260208083018290528284018290528351606081810186528382529181018390529384019190915290919082019081526040805160a081018252600080825260208281018290529282018190526060820181905260808201529101908152602001606081525090565b6040805160e0810182526000808252602082018190529181018290526060808201526080810182905260a0810182905260c08101919091526000606060006125e48b89898080601f01602080910402602001604051908101604052809392919081815260200183838082843760009201919091525061325792505050565b9050806060015192508060a001519150506126038a8a848b60006134c4565b608089015215801560208901526060880191909152604087019190915290855261266c5760808401515163ffffffff9081161461266c576040517f3eb2f84900000000000000000000000000000000000000000000000000000000815260040160405180910390fd5b86868080601f01602080910402602001604051908101604052809392919081815260200183838082843760009201829052506040808a0151815160208101909252918152949950612704948f94508e93509091506040805160e08101825260006080820181905260a0820181905260c08201526001600160a01b03958616815293909416602084015292820152606081019190915290565b9250836020015161282d5764010000000060c08401526127248386613609565b60a08086019190915260408051918201815260008083526001600160a01b038c16602084015263ffffffff8b1691830191909152606080870151516001600160801b0316908301526080808301919091528501528351612787908b908490614916565b60808501805163ffffffff909216909152604085015190516001600160a01b038c16916312a6a3f8916127b990613935565b6040518363ffffffff1660e01b81526004016127d6929190615444565b600060405180830381600087803b1580156127f057600080fd5b505af1158015612804573d6000803e3d6000fd5b505064020000000060c0860152505060a084015161282490849087613b66565b9550612aff9050565b64040000000060c08401526128428386613609565b60a08501526080808501519081015160609182015191860151516000926001600160801b039092169161287491615484565b6001600160801b031661288791906154a4565b905084608001516080015185606001516020018181516128a7919061545d565b6001600160801b03169052506080808601510151606086015160400180516128d0908390615484565b6001600160801b0316905250845160608601516001600160a01b038d169163a1b2bf8b916128fd9061388a565b6040518363ffffffff1660e01b815260040161291a929190615444565b600060405180830381600087803b15801561293457600080fd5b505af1158015612948573d6000803e3d6000fd5b5050505061295b8b8b836109b2906154f0565b6001600160a01b038b1663cf97256d8b612974846154f0565b6040516001600160e01b031960e085901b1681526001600160a01b0390921660048301526024820152604401600060405180830381600087803b1580156129ba57600080fd5b505af11580156129ce573d6000803e3d6000fd5b505060405163cf97256d60e01b81526001600160a01b038681166004830152602482018590528e16925063cf97256d9150604401600060405180830381600087803b158015612a1c57600080fd5b505af1158015612a30573d6000803e3d6000fd5b5050506060808701515160808801516001600160801b03909116910152508451612a5d908c908590614916565b60808601805163ffffffff909216909152604086015190516001600160a01b038d169163a1b2bf8b91612a8f90613935565b6040518363ffffffff1660e01b8152600401612aac929190615444565b600060405180830381600087803b158015612ac657600080fd5b505af1158015612ada573d6000803e3d6000fd5b505064080000000060c0870152505060a0850151612afa90859088613b66565b965050505b8763ffffffff16896001600160a01b03168b6001600160a01b03167f492d2641617cfaf24ac7328f85bc5bdf5113537d78dc7671afa4f49a73f053c28585604051612b4b9291906155a9565b60405180910390a4816001600160a01b03168a6001600160a01b03167fc0b8396b655615cdb85fe462a9a1792480816f909cd46d9517a940b386dfbf6b8b8b85604051612b9a939291906155cb565b60405180910390a35050505095945050505050565b6060806060806060612bc187876145c7565b6040805160a081018252600080825260208201819052918101829052606081018290526080810182905292945090925090825167ffffffffffffffff811115612c0c57612c0c615677565b604051908082528060200260200182016040528015612c35578160200160208202803683370190505b509650825167ffffffffffffffff811115612c5257612c52615677565b604051908082528060200260200182016040528015612c7b578160200160208202803683370190505b509550825167ffffffffffffffff811115612c9857612c98615677565b604051908082528060200260200182016040528015612cc1578160200160208202803683370190505b50945060005b83518163ffffffff161015612e1d576000858263ffffffff1681518110612cf057612cf061564b565b602002602001015190506000858363ffffffff1681518110612d1457612d1461564b565b60200260200101519050612d288c826146f4565b909550935084612d3a57612d3a615661565b8163ffffffff16846000015163ffffffff1614612d5957612d59615661565b83602001518a8463ffffffff1681518110612d7657612d7661564b565b60200260200101906001600160a01b031690816001600160a01b0316815250508360400151898463ffffffff1681518110612db357612db361564b565b602002602001019063ffffffff16908163ffffffff16815250508360800151888463ffffffff1681518110612dea57612dea61564b565b60200260200101906001600160801b031690816001600160801b031681525050505080612e16906157d4565b9050612cc7565b50505050509250925092565b60606000612e6d8785858080601f01602080910402602001604051908101604052809392919081815260200183838082843760009201919091525061325792505050565b6060810151909150600080612e838a848b6142df565b91509150600081604001518260200151612e9d919061545d565b6001600160801b031690508015612ee3576000612ebd6106cc838c615629565b9050612ee18c868d8787868960000151612ed7919061545d565b8c60a00151614357565b505b87878080601f016020809104026020016040519081016040528093929190818152602001838380828437600092019190915250929e9d5050505050505050505050505050565b6000806000806000806000612f73604051806060016040528060006001600160801b0316815260200160006001600160801b0316815260200160006001600160801b031681525090565b6040805160a081018252600080825260208201819052918101829052606081018290526080810191909152612fa88b8b6146f4565b909450905083612fe4576040517fb6c8c98000000000000000000000000000000000000000000000000000000000815260040160405180910390fd5b8060200151985080604001519750612ffc8989613e5e565b92506130088b84613eec565b90945091508361301a5761301a615661565b8051608082015163ffffffff9182169091141597509550866130705780608001516001600160801b0316816060015183600001516130589190615484565b6001600160801b031661306b9190615612565b613073565b60005b9450505050509295509295909350565b606060006130c78685858080601f01602080910402602001604051908101604052809392919081815260200183838082843760009201919091525061325792505050565b606081015190915060006130db8288613e5e565b90506130e788826149e3565b1561311e576040517f5c02a51700000000000000000000000000000000000000000000000000000000815260040160405180910390fd5b876001600160a01b03166312a6a3f88261316f604051806060016040528060006001600160801b0316815260200160006001600160801b0316815260200160006001600160801b031681525061388a565b6040518363ffffffff1660e01b815260040161318c929190615444565b600060405180830381600087803b1580156131a657600080fd5b505af11580156131ba573d6000803e3d6000fd5b505050508663ffffffff16826001600160a01b0316896001600160a01b03167f01ab8663165edfb7390d9e5f75d960a66dacf4f01fa9787e3a731c870d0da9218660a0015160405161320c9190614f56565b60405180910390a485858080601f016020809104026020016040519081016040528093929190818152602001838380828437600092019190915250929b9a5050505050505050505050565b604080516101608101825260008082526020820181905291810182905260608082018390526080820183905260a082015260c0810182905260e0810182905261010081018290526101208101829052610140810191909152336001600160a01b0316836001600160a01b03166320bc44256040518163ffffffff1660e01b8152600401602060405180830381865afa1580156132f7573d6000803e3d6000fd5b505050506040513d601f19601f8201168201806040525081019061331b9190615802565b6001600160a01b0316146133715760405162461bcd60e51b815260206004820152601160248201527f756e617574686f72697a656420686f73740000000000000000000000000000006044820152606401611cc1565b6040517fbf428734000000000000000000000000000000000000000000000000000000008152339063bf428734906133ad908590600401614f56565b602060405180830381865afa1580156133ca573d6000803e3d6000fd5b505050506040513d601f19601f820116820180604052508101906133ee919061582f565b61343a5760405162461bcd60e51b815260206004820152600b60248201527f696e76616c6964206374780000000000000000000000000000000000000000006044820152606401611cc1565b6040517f3f6c923a0000000000000000000000000000000000000000000000000000000081523390633f6c923a90613476908590600401614f56565b600060405180830381865afa158015613493573d6000803e3d6000fd5b505050506040513d6000823e601f3d908101601f191682016040526134bb91908101906158d7565b90505b92915050565b6040805160608101825260008082526020820181905291810182905281906040805160a081018252600080825260208201819052918101829052606081018290526080810182905260006135188a89613e5e565b95506135248987614aa8565b94506135308b87613eec565b945090508061356b576040517fedeaa63b00000000000000000000000000000000000000000000000000000000815260040160405180910390fd5b6135758b866146f4565b909350915086156135fb57826135b7576040517fb6c8c98000000000000000000000000000000000000000000000000000000000815260040160405180910390fd5b896001600160a01b031682602001516001600160a01b0316146135dc576135dc615661565b8763ffffffff16826040015163ffffffff16146135fb576135fb615661565b509550955095509550959050565b60208201516040517ff9f522f40000000000000000000000000000000000000000000000000000000081526001600160a01b03909116600482015260609060009081908190339063f9f522f490602401606060405180830381865afa158015613676573d6000803e3d6000fd5b505050506040513d601f19601f8201168201806040525081019061369a91906159de565b919450925090508280156136ac575081155b156137fe5760006136bd8688614b0d565b90508660c0015182166000036137f05760006136dc8860c00151614ba4565b88516040808b015160608c01518251600081526020810190935261370893923092919060448101615a1a565b60408051601f19818403018152918152602080830180517bffffffffffffffffffffffffffffffffffffffffffffffffffffffff166001600160e01b031990951694909417909352918a015160c08b015192517f74041e0200000000000000000000000000000000000000000000000000000000815291935033926374041e02926137a59291869164100000000091909114908890600401615a5e565b6000604051808303816000875af11580156137c4573d6000803e3d6000fd5b505050506040513d6000823e601f3d908101601f191682016040526137ec9190810190615aa5565b9550505b6137fb866000614cd1565b50505b50505092915050565b60006001600160801b038211156138865760405162461bcd60e51b815260206004820152602760248201527f53616665436173743a2076616c756520646f65736e27742066697420696e203160448201527f32382062697473000000000000000000000000000000000000000000000000006064820152608401611cc1565b5090565b604080516002808252606080830184529260208301908036833701905050905081600001516001600160801b03167001000000000000000000000000000000001760001b816000815181106138e1576138e161564b565b602002602001018181525050608082604001516001600160801b0316901b82602001516001600160801b03161760001b816001815181106139245761392461564b565b602002602001018181525050919050565b6040805160028082526060808301845292602083019080368337019050509050816000015163ffffffff166020836040015163ffffffff16901b606084602001516001600160a01b0316901b171760001b816000815181106139995761399961564b565b602002602001018181525050608082608001516001600160801b0316901b82606001516001600160801b03161760001b816001815181106139245761392461564b565b806000036139e957505050565b6040517f4b61cc330000000000000000000000000000000000000000000000000000000081523060048201526001600160a01b03838116602483015264010000000060448301526001606483015260009190851690634b61cc3390608401600060405180830381865afa158015613a64573d6000803e3d6000fd5b505050506040513d6000823e601f3d908101601f19168201604052613a8c9190810190615777565b905081613ab582600081518110613aa557613aa561564b565b602002602001015160001c614d12565b613abf91906157ac565b60001b81600081518110613ad557613ad561564b565b60209081029190910101526040517f090c415e0000000000000000000000000000000000000000000000000000000081526001600160a01b0385169063090c415e90613b2e908690640100000000908690600401615ada565b600060405180830381600087803b158015613b4857600080fd5b505af1158015613b5c573d6000803e3d6000fd5b5050505050505050565b60408051610160810182526000808252602080830182905282840182905260608084018390526080840183905260a0840181905260c0840183905260e084018390526101008401839052610120840183905261014084018390529087015193517ff9f522f40000000000000000000000000000000000000000000000000000000081526001600160a01b039094166004850152919281908190339063f9f522f490602401606060405180830381865afa158015613c27573d6000803e3d6000fd5b505050506040513d601f19601f82011682018060405250810190613c4b91906159de565b88965091945092509050828015613c60575081155b15613e5357613c6f8489614b0d565b93508760c001518116600003613e41576000613c8e8960c00151614ba4565b89516040808c015160608d015182516000815260208101909352613cbc9392309291908e9060448101615b02565b60408051601f19818403018152918152602080830180517bffffffffffffffffffffffffffffffffffffffffffffffffffffffff166001600160e01b031990951694909417909352918b015160c08c015192517f1e6d0a840000000000000000000000000000000000000000000000000000000081529193503392631e6d0a8492613d599291869164200000000091909114908b90600401615a5e565b6000604051808303816000875af1158015613d78573d6000803e3d6000fd5b505050506040513d6000823e601f3d908101601f19168201604052613da09190810190615aa5565b6040517f3f6c923a0000000000000000000000000000000000000000000000000000000081529095503390633f6c923a90613ddf908890600401614f56565b600060405180830381865afa158015613dfc573d6000803e3d6000fd5b505050506040513d6000823e601f3d908101601f19168201604052613e2491908101906158d7565b9550613e398960800151876101000151614daa565b610100870152505b613e5086866101000151614cd1565b93505b505050935093915050565b6040517f7075626c6973686572000000000000000000000000000000000000000000000060208201527fffffffffffffffffffffffffffffffffffffffff000000000000000000000000606084901b1660298201526001600160e01b031960e083901b16603d8201526000906041015b60405160208183030381529060405280519060200120905092915050565b604080516060810182526000808252602082018190529181018290526040517f6c2d9f2f00000000000000000000000000000000000000000000000000000000815230600482015260248101849052600260448201526000906001600160a01b03861690636c2d9f2f90606401600060405180830381865afa158015613f76573d6000803e3d6000fd5b505050506040513d6000823e601f3d908101601f19168201604052613f9e9190810190615777565b9050600081600081518110613fb557613fb561564b565b602002602001015160001c9050600082600181518110613fd757613fd761564b565b602002602001015160001c9050600082119450841561400f576001600160801b03808316855281166020850152608081901c60408501525b5050509250929050565b6040517fa9472bf80000000000000000000000000000000000000000000000000000000081526001600160a01b038085166004830152831660248201526000604482015263ffffffff8216606482015273__$3c6eb92c7cccddf84f4a4201d0479214da$__9063a9472bf89060840160006040518083038186803b1580156140a057600080fd5b505af41580156140b4573d6000803e3d6000fd5b50505050505050565b60006140e77f360894a13ba1a3210667c828492db98dca3e2076cc3735a920a3ca505d382bbc5490565b6001600160a01b03160361413d5760405162461bcd60e51b815260206004820152601d60248201527f5555505350726f786961626c653a206e6f742075706772616461626c650000006044820152606401611cc1565b806001600160a01b03166352d1902d6040518163ffffffff1660e01b8152600401602060405180830381865afa15801561417b573d6000803e3d6000fd5b505050506040513d601f19601f8201168201806040525081019061419f91906155f9565b6141a76113dd565b1461421a5760405162461bcd60e51b815260206004820152602360248201527f5555505350726f786961626c653a206e6f7420636f6d70617469626c65206c6f60448201527f67696300000000000000000000000000000000000000000000000000000000006064820152608401611cc1565b6001600160a01b03811630036142725760405162461bcd60e51b815260206004820152601960248201527f5555505350726f786961626c653a2070726f7879206c6f6f70000000000000006044820152606401611cc1565b61429a817f360894a13ba1a3210667c828492db98dca3e2076cc3735a920a3ca505d382bbc55565b7fe011bc04c286c344a8fcbb8de77f953da762c3e25d8cdea984147fc4168a5dcc6142c36113dd565b604080519182526001600160a01b038416602083015201611d49565b6040805160608101825260008082526020820181905291810182905260006143078585613e5e565b92506143138684613eec565b925090508061434e576040517fedeaa63b00000000000000000000000000000000000000000000000000000000815260040160405180910390fd5b50935093915050565b866001600160a01b031663cf97256d8785602001516001600160801b03168660000151866143859190615484565b6001600160801b0316614397906154f0565b6143a191906154a4565b6040516001600160e01b031960e085901b1681526001600160a01b0390921660048301526024820152604401600060405180830381600087803b1580156143e757600080fd5b505af11580156143fb573d6000803e3d6000fd5b50505050614435878785604001516001600160801b03168660000151866144229190615484565b6001600160801b03166109b291906154a4565b82516001600160801b03831684526001600160a01b03881663a1b2bf8b8661445c8761388a565b6040518363ffffffff1660e01b8152600401614479929190615444565b600060405180830381600087803b15801561449357600080fd5b505af11580156144a7573d6000803e3d6000fd5b505050508563ffffffff16876001600160a01b0316896001600160a01b03167f81e37f3d9f16cbf29a62d6a1c21d79b23ef29b54124ec44af43a50fffb9304f3848789604001518a6020015189604051614505959493929190615b67565b60405180910390a46040517f79359f6f0000000000000000000000000000000000000000000000000000000081526001600160a01b0388811660048301528916906379359f6f90602401602060405180830381865afa15801561456c573d6000803e3d6000fd5b505050506040513d601f19601f82011682018060405250810190614590919061582f565b15613b5c576040517f16e759bb00000000000000000000000000000000000000000000000000000000815260040160405180910390fd5b6040517f06967a8c0000000000000000000000000000000000000000000000000000000081526001600160a01b03808416600483015282166024820152600060448201527001000000000000000000000000000000006064820152606090819073__$3c6eb92c7cccddf84f4a4201d0479214da$__906306967a8c90608401600060405180830381865af4158015614663573d6000803e3d6000fd5b505050506040513d6000823e601f3d908101601f1916820160405261468b9190810190615ba3565b909250905060005b81518110156146ec576146bf848383815181106146b2576146b261564b565b6020026020010151614aa8565b8282815181106146d1576146d161564b565b60209081029190910101526146e581615c68565b9050614693565b509250929050565b6040805160a08101825260008082526020820181905291810182905260608101829052608081018290526040517f6c2d9f2f00000000000000000000000000000000000000000000000000000000815230600482015260248101849052600260448201526000906001600160a01b03861690636c2d9f2f90606401600060405180830381865afa15801561478c573d6000803e3d6000fd5b505050506040513d6000823e601f3d908101601f191682016040526147b49190810190615777565b90506000816000815181106147cb576147cb61564b565b602002602001015160001c90506000826001815181106147ed576147ed61564b565b602002602001015160001c9050600082119450841561400f57606082811c60208087019190915283901c63ffffffff9081166040870152831685526001600160801b03821690850152608081811c908501525050509250929050565b6040517f4b61cc330000000000000000000000000000000000000000000000000000000081523060048201526001600160a01b0382811660248301526401000000006044830152600160648301526000918291851690634b61cc3390608401600060405180830381865afa1580156148c5573d6000803e3d6000fd5b505050506040513d6000823e601f3d908101601f191682016040526148ed9190810190615777565b9050806000815181106149025761490261564b565b602002602001015160001c91505092915050565b6040517fa32470100000000000000000000000000000000000000000000000000000000081526001600160a01b038085166004830152831660248201526000604482018190527001000000000000000000000000000000006064830152608482018390529073__$3c6eb92c7cccddf84f4a4201d0479214da$__9063a32470109060a401602060405180830381865af41580156149b7573d6000803e3d6000fd5b505050506040513d601f19601f820116820180604052508101906149db9190615ca0565b949350505050565b6040517f6c2d9f2f000000000000000000000000000000000000000000000000000000008152306004820152602481018290526002604482015260009081906001600160a01b03851690636c2d9f2f90606401600060405180830381865afa158015614a53573d6000803e3d6000fd5b505050506040513d6000823e601f3d908101601f19168201604052614a7b9190810190615777565b9050600081600081518110614a9257614a9261564b565b6020908102919091010151151595945050505050565b604080517f737562736372697074696f6e00000000000000000000000000000000000000006020820152606084811b7fffffffffffffffffffffffffffffffffffffffff00000000000000000000000016602c83015291810183905260009101613ece565b6020810151608082015160a083015183516040517f768fabb0000000000000000000000000000000000000000000000000000000008152606094339463768fabb094614b5d948a94600401615cbd565b6000604051808303816000875af1158015614b7c573d6000803e3d6000fd5b505050506040513d6000823e601f3d908101601f191682016040526134bb9190810190615aa5565b60006401000000008203614bd957507f30d9c91500000000000000000000000000000000000000000000000000000000919050565b6404000000008203614c0c57507f884d1f4000000000000000000000000000000000000000000000000000000000919050565b6410000000008203614c3f57507f5f9e7d7700000000000000000000000000000000000000000000000000000000919050565b6402000000008203614c7257507fd86ed3e500000000000000000000000000000000000000000000000000000000919050565b6408000000008203614ca557507f230dbd2900000000000000000000000000000000000000000000000000000000919050565b507f53c11f9900000000000000000000000000000000000000000000000000000000919050565b919050565b6040517f989b0c3e000000000000000000000000000000000000000000000000000000008152606090339063989b0c3e90614b5d9086908690600401615d01565b60007f7fffffffffffffffffffffffffffffffffffffffffffffffffffffffffffffff8211156138865760405162461bcd60e51b815260206004820152602860248201527f53616665436173743a2076616c756520646f65736e27742066697420696e206160448201527f6e20696e743235360000000000000000000000000000000000000000000000006064820152608401611cc1565b60006134bb6000614dc3614dbd86614d12565b85614dc8565b614ddd565b6000818313614dd757826134bb565b50919050565b6000818313614dec57816134bb565b5090919050565b6001600160a01b03811681146113ab57600080fd5b63ffffffff811681146113ab57600080fd5b80356001600160801b0381168114614ccc57600080fd5b60008083601f840112614e4357600080fd5b50813567ffffffffffffffff811115614e5b57600080fd5b602083019150836020828501011115614e7357600080fd5b9250929050565b60008060008060008060a08789031215614e9357600080fd5b8635614e9e81614df3565b95506020870135614eae81614e08565b94506040870135614ebe81614df3565b9350614ecc60608801614e1a565b9250608087013567ffffffffffffffff811115614ee857600080fd5b614ef489828a01614e31565b979a9699509497509295939492505050565b60005b83811015614f21578181015183820152602001614f09565b50506000910152565b60008151808452614f42816020860160208601614f06565b601f01601f19169290920160200192915050565b6020815260006134bb6020830184614f2a565b600080600060608486031215614f7e57600080fd5b8335614f8981614df3565b92506020840135614f9981614df3565b91506040840135614fa981614e08565b809150509250925092565b60008060008060008060a08789031215614fcd57600080fd5b8635614fd881614df3565b95506020870135614fe881614df3565b94506040870135614ff881614e08565b93506060870135614ecc81614df3565b60006020828403121561501a57600080fd5b813561502581614df3565b9392505050565b6000806000806080858703121561504257600080fd5b843561504d81614df3565b9350602085013561505d81614df3565b9250604085013561506d81614e08565b9150606085013561507d81614df3565b939692955090935050565b6000806000806000608086880312156150a057600080fd5b85356150ab81614df3565b945060208601356150bb81614df3565b935060408601356150cb81614e08565b9250606086013567ffffffffffffffff8111156150e757600080fd5b6150f388828901614e31565b969995985093965092949392505050565b60008060008060006080868803121561511c57600080fd5b853561512781614df3565b9450602086013561513781614e08565b93506150cb60408701614e1a565b6000806000806080858703121561515b57600080fd5b843561516681614df3565b9350602085013561517681614df3565b9250604085013561518681614e08565b9396929550929360600135925050565b6000806000606084860312156151ab57600080fd5b83356151b681614df3565b925060208401356151c681614df3565b929592945050506040919091013590565b600080604083850312156151ea57600080fd5b82356151f581614df3565b9150602083013561520581614df3565b809150509250929050565b600081518084526020808501945080840160005b838110156152495781516001600160801b031687529582019590820190600101615224565b509495945050505050565b606080825284519082018190526000906020906080840190828801845b828110156152965781516001600160a01b031684529284019290840190600101615271565b5050508381038285015285518082528683019183019060005b818110156152d157835163ffffffff16835292840192918401916001016152af565b505084810360408601526152e58187615210565b98975050505050505050565b60008060008060006080868803121561530957600080fd5b853561531481614df3565b9450602086013561532481614e08565b935060408601359250606086013567ffffffffffffffff8111156150e757600080fd5b6000806040838503121561535a57600080fd5b823561536581614df3565b946020939093013593505050565b6000806000806060858703121561538957600080fd5b843561539481614df3565b935060208501356153a481614e08565b9250604085013567ffffffffffffffff8111156153c057600080fd5b6153cc87828801614e31565b95989497509550505050565b634e487b7160e01b600052601160045260246000fd5b808201808211156134be576134be6153d8565b818103818111156134be576134be6153d8565b600081518084526020808501945080840160005b8381101561524957815187529582019590820190600101615428565b8281526040602082015260006149db6040830184615414565b6001600160801b0381811683821601908082111561547d5761547d6153d8565b5092915050565b6001600160801b0382811682821603908082111561547d5761547d6153d8565b808202600082127f8000000000000000000000000000000000000000000000000000000000000000841416156154dc576154dc6153d8565b81810583148215176134be576134be6153d8565b60007f80000000000000000000000000000000000000000000000000000000000000008203615521576155216153d8565b5060000390565b6001600160a01b03841681526001600160801b03831660208201526060604082015260006155596060830184614f2a565b95945050505050565b6001600160a01b038516815263ffffffff841660208201526001600160801b038316604082015260806060820152600061559f6080830184614f2a565b9695505050505050565b6001600160a01b03831681526040602082015260006149db6040830184614f2a565b6001600160a01b038416815263ffffffff831660208201526060604082015260006155596060830184614f2a565b60006020828403121561560b57600080fd5b5051919050565b80820281158282048414176134be576134be6153d8565b60008261564657634e487b7160e01b600052601260045260246000fd5b500490565b634e487b7160e01b600052603260045260246000fd5b634e487b7160e01b600052600160045260246000fd5b634e487b7160e01b600052604160045260246000fd5b604051610160810167ffffffffffffffff811182821017156156b1576156b1615677565b60405290565b604051601f8201601f1916810167ffffffffffffffff811182821017156156e0576156e0615677565b604052919050565b600067ffffffffffffffff82111561570257615702615677565b5060051b60200190565b600082601f83011261571d57600080fd5b8151602061573261572d836156e8565b6156b7565b82815260059290921b8401810191818101908684111561575157600080fd5b8286015b8481101561576c5780518352918301918301615755565b509695505050505050565b60006020828403121561578957600080fd5b815167ffffffffffffffff8111156157a057600080fd5b6149db8482850161570c565b80820182811260008312801582168215821617156157cc576157cc6153d8565b505092915050565b600063ffffffff8083168181036157ed576157ed6153d8565b6001019392505050565b8051614ccc81614df3565b60006020828403121561581457600080fd5b815161502581614df3565b80518015158114614ccc57600080fd5b60006020828403121561584157600080fd5b6134bb8261581f565b805160ff81168114614ccc57600080fd5b80516001600160e01b031981168114614ccc57600080fd5b600082601f83011261588457600080fd5b815167ffffffffffffffff81111561589e5761589e615677565b6158b16020601f19601f840116016156b7565b8181528460208386010111156158c657600080fd5b6149db826020830160208701614f06565b6000602082840312156158e957600080fd5b815167ffffffffffffffff8082111561590157600080fd5b90830190610160828603121561591657600080fd5b61591e61568d565b6159278361584a565b81526159356020840161584a565b602082015260408301516040820152615950606084016157f7565b60608201526159616080840161585b565b608082015260a08301518281111561597857600080fd5b61598487828601615873565b60a08301525060c083015160c082015260e083015160e08201526101009150818301518282015261012091506159bb8284016157f7565b8282015261014091506159cf8284016157f7565b91810191909152949350505050565b6000806000606084860312156159f357600080fd5b6159fc8461581f565b9250615a0a6020850161581f565b9150604084015190509250925092565b60006001600160a01b03808816835280871660208401525084604083015260a06060830152615a4c60a0830185614f2a565b82810360808401526152e58185614f2a565b6001600160a01b0385168152608060208201526000615a806080830186614f2a565b84151560408401528281036060840152615a9a8185614f2a565b979650505050505050565b600060208284031215615ab757600080fd5b815167ffffffffffffffff811115615ace57600080fd5b6149db84828501615873565b6001600160a01b03841681528260208201526060604082015260006155596060830184615414565b60006001600160a01b03808916835280881660208401525085604083015260c06060830152615b3460c0830186614f2a565b8281036080840152615b468186614f2a565b905082810360a0840152615b5a8185614f2a565b9998505050505050505050565b60006001600160801b0380881683528087166020840152808616604084015280851660608401525060a06080830152615a9a60a0830184614f2a565b60008060408385031215615bb657600080fd5b825167ffffffffffffffff80821115615bce57600080fd5b818501915085601f830112615be257600080fd5b81516020615bf261572d836156e8565b82815260059290921b84018101918181019089841115615c1157600080fd5b948201945b83861015615c38578551615c2981614e08565b82529482019490820190615c16565b91880151919650909350505080821115615c5157600080fd5b50615c5e8582860161570c565b9150509250929050565b60007fffffffffffffffffffffffffffffffffffffffffffffffffffffffffffffffff8203615c9957615c996153d8565b5060010190565b600060208284031215615cb257600080fd5b815161502581614e08565b60a081526000615cd060a0830188614f2a565b90506001600160a01b0380871660208401528560408401528460608401528084166080840152509695505050505050565b604081526000615d146040830185614f2a565b9050826020830152939250505056fea264697066735822122006657e58d6b3ed9cc3a4997db8a6c166075b304a3c094fedf8654a093137b2cb64736f6c63430008130033","linkReferences":{"node_modules/@superfluid-finance/ethereum-contracts/contracts/libs/SlotsBitmapLibrary.sol":{"SlotsBitmapLibrary":[{"start":650,"length":20},{"start":16639,"length":20},{"start":18109,"length":20},{"start":18961,"length":20}]}}},"methodIdentifiers":{"SLOTS_BITMAP_LIBRARY_ADDRESS()":"3fd4176a","agreementType()":"7730599e","approveSubscription(address,address,uint32,bytes)":"acf4a6c2","calculateDistribution(address,address,uint32,uint256)":"899baaec","castrate()":"9903ad38","claim(address,address,uint32,address,bytes)":"acafa1b8","createIndex(address,uint32,bytes)":"d787840a","deleteSubscription(address,address,uint32,address,bytes)":"2e5e74c6","distribute(address,uint32,uint256,bytes)":"b96731c2","getCodeAddress()":"50d75d25","getIndex(address,address,uint32)":"23fc23f3","getSubscription(address,address,uint32,address)":"5b534051","getSubscriptionByID(address,bytes32)":"cd7245c5","listSubscriptions(address,address)":"b6dacdb8","proxiableUUID()":"52d1902d","realtimeBalanceOf(address,address,uint256)":"9b2e48bc","revokeSubscription(address,address,uint32,bytes)":"6041ae96","updateCode(address)":"46951954","updateIndex(address,uint32,uint128,bytes)":"7fbc7639","updateSubscription(address,uint32,address,uint128,bytes)":"232d2b58"},"id":72}