{"abi":[{"type":"constructor","inputs":[{"name":"superTokenFactoryAddress","type":"address","internalType":"address"},{"name":"resolverAddress","type":"address","internalType":"address"}],"stateMutability":"nonpayable"},{"type":"function","name":"RESOLVER_BASE_SUPER_TOKEN_KEY","inputs":[],"outputs":[{"name":"","type":"string","internalType":"string"}],"stateMutability":"view"},{"type":"function","name":"RESOLVER_BASE_TOKEN_KEY","inputs":[],"outputs":[{"name":"","type":"string","internalType":"string"}],"stateMutability":"view"},{"type":"function","name":"deployNativeAssetSuperToken","inputs":[{"name":"_name","type":"string","internalType":"string"},{"name":"_symbol","type":"string","internalType":"string"}],"outputs":[{"name":"nativeAssetSuperToken","type":"address","internalType":"contract ISETH"}],"stateMutability":"nonpayable"},{"type":"function","name":"deployPureSuperToken","inputs":[{"name":"_name","type":"string","internalType":"string"},{"name":"_symbol","type":"string","internalType":"string"},{"name":"_initialSupply","type":"uint256","internalType":"uint256"}],"outputs":[{"name":"pureSuperToken","type":"address","internalType":"contract IPureSuperToken"}],"stateMutability":"nonpayable"},{"type":"function","name":"deployWrapperSuperToken","inputs":[{"name":"_underlyingName","type":"string","internalType":"string"},{"name":"_underlyingSymbol","type":"string","internalType":"string"},{"name":"_decimals","type":"uint8","internalType":"uint8"},{"name":"_mintLimit","type":"uint256","internalType":"uint256"}],"outputs":[{"name":"underlyingToken","type":"address","internalType":"contract TestToken"},{"name":"superToken","type":"address","internalType":"contract SuperToken"}],"stateMutability":"nonpayable"},{"type":"function","name":"transferOwnership","inputs":[{"name":"newOwner","type":"address","internalType":"address"}],"outputs":[],"stateMutability":"nonpayable"}],"bytecode":{"object":"0x608060405234801561001057600080fd5b50604051612b96380380612b9683398101604081905261002f9161007c565b600080546001600160a01b039384166001600160a01b031991821617909155600180549290931691161790556100af565b80516001600160a01b038116811461007757600080fd5b919050565b6000806040838503121561008f57600080fd5b61009883610060565b91506100a660208401610060565b90509250929050565b612ad8806100be6000396000f3fe60806040523480156200001157600080fd5b50600436106200007b5760003560e01c8063cbcd74491162000056578063cbcd7449146200014a578063f2fde38b146200017a578063fa0215fc146200019357600080fd5b80633df285fe146200008057806362a32e1e14620000d55780637dc2dc121462000112575b600080fd5b620000bd6040518060400160405280601181526020017f7375706572746f6b656e732e746573742e00000000000000000000000000000081525081565b604051620000cc919062000a54565b60405180910390f35b620000bd6040518060400160405280600c81526020017f746f6b656e732e746573742e000000000000000000000000000000000000000081525081565b620001296200012336600462000abc565b620001aa565b604080516001600160a01b03938416815292909116602083015201620000cc565b620001616200015b36600462000b56565b62000468565b6040516001600160a01b039091168152602001620000cc565b620001916200018b36600462000be2565b620005f8565b005b62000161620001a436600462000c02565b6200072d565b600080878787878787604051620001c190620009d6565b620001d29695949392919062000ca8565b604051809103906000f080158015620001ef573d6000803e3d6000fd5b509150600086866040516020016200020992919062000cec565b60408051601f19818403018152908290526000549092506001600160a01b03169063431f148190859060019062000247908c908c9060200162000d1e565b604051602081830303815290604052856040518563ffffffff1660e01b815260040162000278949392919062000d57565b6020604051808303816000875af115801562000298573d6000803e3d6000fd5b505050506040513d601f19601f82011682018060405250810190620002be919062000dd8565b91506200038e60016040518060400160405280600c81526020017f746f6b656e732e746573742e0000000000000000000000000000000000000000815250856001600160a01b03166395d89b416040518163ffffffff1660e01b8152600401600060405180830381865afa1580156200033b573d6000803e3d6000fd5b505050506040513d6000823e601f3d908101601f1916820160405262000365919081019062000e27565b6040516020016200037892919062000ed5565b6040516020818303038152906040528562000948565b6200045c60016040518060400160405280601181526020017f7375706572746f6b656e732e746573742e000000000000000000000000000000815250846001600160a01b03166395d89b416040518163ffffffff1660e01b8152600401600060405180830381865afa15801562000409573d6000803e3d6000fd5b505050506040513d6000823e601f3d908101601f1916820160405262000433919081019062000e27565b6040516020016200044692919062000ed5565b6040516020818303038152906040528462000948565b50965096945050505050565b6000806040516200047990620009e4565b604051809103906000f08015801562000496573d6000803e3d6000fd5b506000546040517fd412d3440000000000000000000000000000000000000000000000000000000081526001600160a01b03808416600483015292945084935091169063d412d34490602401600060405180830381600087803b158015620004fd57600080fd5b505af115801562000512573d6000803e3d6000fd5b50506040517f42fe09800000000000000000000000000000000000000000000000000000000081526001600160a01b03851692506342fe0980915062000569906000906012908b908b908b908b9060040162000f08565b600060405180830381600087803b1580156200058457600080fd5b505af115801562000599573d6000803e3d6000fd5b50505050620005ef60016040518060400160405280601181526020017f7375706572746f6b656e732e746573742e0000000000000000000000000000008152508686604051602001620004469392919062000f58565b50949350505050565b6001546040517f693ec85e00000000000000000000000000000000000000000000000000000000815260206004820152601360248201527f54657374476f7665726e616e63652e746573740000000000000000000000000060448201526000916001600160a01b03169063693ec85e90606401602060405180830381865afa15801562000689573d6000803e3d6000fd5b505050506040513d601f19601f82011682018060405250810190620006af919062000dd8565b6040517ff2fde38b0000000000000000000000000000000000000000000000000000000081526001600160a01b0384811660048301529192509082169063f2fde38b90602401600060405180830381600087803b1580156200071057600080fd5b505af115801562000725573d6000803e3d6000fd5b505050505050565b6000806040516200073e90620009f2565b604051809103906000f0801580156200075b573d6000803e3d6000fd5b506000546040517fd412d3440000000000000000000000000000000000000000000000000000000081526001600160a01b03808416600483015292935091169063d412d34490602401600060405180830381600087803b158015620007bf57600080fd5b505af1158015620007d4573d6000803e3d6000fd5b50506040517fb119490e0000000000000000000000000000000000000000000000000000000081526001600160a01b038416925063b119490e915062000827908a908a908a908a908a9060040162000f82565b600060405180830381600087803b1580156200084257600080fd5b505af115801562000857573d6000803e3d6000fd5b50505050809150620008b060016040518060400160405280601181526020017f7375706572746f6b656e732e746573742e0000000000000000000000000000008152508787604051602001620004469392919062000f58565b6040517fa9059cbb000000000000000000000000000000000000000000000000000000008152336004820152602481018490526001600160a01b0383169063a9059cbb906044016020604051808303816000875af115801562000917573d6000803e3d6000fd5b505050506040513d601f19601f820116820180604052508101906200093d919062000fc0565b505095945050505050565b8215620009d1576001546040517fa815ff150000000000000000000000000000000000000000000000000000000081526001600160a01b039091169063a815ff15906200099c908590859060040162000fe4565b600060405180830381600087803b158015620009b757600080fd5b505af1158015620009cc573d6000803e3d6000fd5b505050505b505050565b610e51806200101283390190565b6106bc8062001e6383390190565b610584806200251f83390190565b60005b8381101562000a1d57818101518382015260200162000a03565b50506000910152565b6000815180845262000a4081602086016020860162000a00565b601f01601f19169290920160200192915050565b60208152600062000a69602083018462000a26565b9392505050565b60008083601f84011262000a8357600080fd5b50813567ffffffffffffffff81111562000a9c57600080fd5b60208301915083602082850101111562000ab557600080fd5b9250929050565b6000806000806000806080878903121562000ad657600080fd5b863567ffffffffffffffff8082111562000aef57600080fd5b62000afd8a838b0162000a70565b9098509650602089013591508082111562000b1757600080fd5b5062000b2689828a0162000a70565b909550935050604087013560ff8116811462000b4157600080fd5b80925050606087013590509295509295509295565b6000806000806040858703121562000b6d57600080fd5b843567ffffffffffffffff8082111562000b8657600080fd5b62000b948883890162000a70565b9096509450602087013591508082111562000bae57600080fd5b5062000bbd8782880162000a70565b95989497509550505050565b6001600160a01b038116811462000bdf57600080fd5b50565b60006020828403121562000bf557600080fd5b813562000a698162000bc9565b60008060008060006060868803121562000c1b57600080fd5b853567ffffffffffffffff8082111562000c3457600080fd5b62000c4289838a0162000a70565b9097509550602088013591508082111562000c5c57600080fd5b5062000c6b8882890162000a70565b96999598509660400135949350505050565b818352818160208501375060006020828401015260006020601f19601f840116840101905092915050565b60808152600062000cbe60808301888a62000c7d565b828103602084015262000cd381878962000c7d565b60ff959095166040840152505060600152949350505050565b818382377f78000000000000000000000000000000000000000000000000000000000000009101908152600101919050565b7f537570657220000000000000000000000000000000000000000000000000000081528183600683013760009101600601908152919050565b6001600160a01b038516815260006003851062000d9d577f4e487b7100000000000000000000000000000000000000000000000000000000600052602160045260246000fd5b8460208301526080604083015262000db9608083018562000a26565b828103606084015262000dcd818562000a26565b979650505050505050565b60006020828403121562000deb57600080fd5b815162000a698162000bc9565b7f4e487b7100000000000000000000000000000000000000000000000000000000600052604160045260246000fd5b60006020828403121562000e3a57600080fd5b815167ffffffffffffffff8082111562000e5357600080fd5b818401915084601f83011262000e6857600080fd5b81518181111562000e7d5762000e7d62000df8565b604051601f8201601f19908116603f0116810190838211818310171562000ea85762000ea862000df8565b8160405282815287602084870101111562000ec257600080fd5b62000dcd83602083016020880162000a00565b6000835162000ee981846020880162000a00565b83519083019062000eff81836020880162000a00565b01949350505050565b6001600160a01b038716815260ff8616602082015260806040820152600062000f3660808301868862000c7d565b828103606084015262000f4b81858762000c7d565b9998505050505050505050565b6000845162000f6c81846020890162000a00565b8201838582376000930192835250909392505050565b60608152600062000f9860608301878962000c7d565b828103602084015262000fad81868862000c7d565b9150508260408301529695505050505050565b60006020828403121562000fd357600080fd5b8151801515811462000a6957600080fd5b60408152600062000ff9604083018562000a26565b90506001600160a01b0383166020830152939250505056fe60a06040523480156200001157600080fd5b5060405162000e5138038062000e5183398101604081905262000034916200013c565b8383600362000044838262000256565b50600462000053828262000256565b50506005805460ff191660ff94909416939093179092556080525062000322915050565b634e487b7160e01b600052604160045260246000fd5b600082601f8301126200009f57600080fd5b81516001600160401b0380821115620000bc57620000bc62000077565b604051601f8301601f19908116603f01168101908282118183101715620000e757620000e762000077565b816040528381526020925086838588010111156200010457600080fd5b600091505b8382101562000128578582018301518183018401529082019062000109565b600093810190920192909252949350505050565b600080600080608085870312156200015357600080fd5b84516001600160401b03808211156200016b57600080fd5b62000179888389016200008d565b955060208701519150808211156200019057600080fd5b506200019f878288016200008d565b935050604085015160ff81168114620001b757600080fd5b6060959095015193969295505050565b600181811c90821680620001dc57607f821691505b602082108103620001fd57634e487b7160e01b600052602260045260246000fd5b50919050565b601f8211156200025157600081815260208120601f850160051c810160208610156200022c5750805b601f850160051c820191505b818110156200024d5782815560010162000238565b5050505b505050565b81516001600160401b0381111562000272576200027262000077565b6200028a81620002838454620001c7565b8462000203565b602080601f831160018114620002c25760008415620002a95750858301515b600019600386901b1c1916600185901b1785556200024d565b600085815260208120601f198616915b82811015620002f357888601518255948401946001909101908401620002d2565b5085821015620003125787850151600019600388901b60f8161c191681555b5050505050600190811b01905550565b608051610b136200033e600039600061031d0152610b136000f3fe608060405234801561001057600080fd5b50600436106100d45760003560e01c806340c10f1911610081578063a457c2d71161005b578063a457c2d7146101ab578063a9059cbb146101be578063dd62ed3e146101d157600080fd5b806340c10f191461016757806370a082311461017a57806395d89b41146101a357600080fd5b806323b872dd116100b257806323b872dd1461012c578063313ce5671461013f578063395093511461015457600080fd5b806306fdde03146100d9578063095ea7b3146100f757806318160ddd1461011a575b600080fd5b6100e161020a565b6040516100ee91906108de565b60405180910390f35b61010a610105366004610966565b61029c565b60405190151581526020016100ee565b6002545b6040519081526020016100ee565b61010a61013a366004610990565b6102b6565b60055460405160ff90911681526020016100ee565b61010a610162366004610966565b6102da565b61010a610175366004610966565b610319565b61011e6101883660046109cc565b6001600160a01b031660009081526020819052604090205490565b6100e161035e565b61010a6101b9366004610966565b61036d565b61010a6101cc366004610966565b61041c565b61011e6101df3660046109ee565b6001600160a01b03918216600090815260016020908152604080832093909416825291909152205490565b60606003805461021990610a21565b80601f016020809104026020016040519081016040528092919081815260200182805461024590610a21565b80156102925780601f1061026757610100808354040283529160200191610292565b820191906000526020600020905b81548152906001019060200180831161027557829003601f168201915b5050505050905090565b6000336102aa81858561042a565b60019150505b92915050565b6000336102c4858285610582565b6102cf858585610632565b506001949350505050565b3360008181526001602090815260408083206001600160a01b03871684529091528120549091906102aa9082908690610314908790610a74565b61042a565b60007f000000000000000000000000000000000000000000000000000000000000000082111561034b5761034b610aae565b610355838361081f565b50600192915050565b60606004805461021990610a21565b3360008181526001602090815260408083206001600160a01b03871684529091528120549091908381101561040f5760405162461bcd60e51b815260206004820152602560248201527f45524332303a2064656372656173656420616c6c6f77616e63652062656c6f7760448201527f207a65726f00000000000000000000000000000000000000000000000000000060648201526084015b60405180910390fd5b6102cf828686840361042a565b6000336102aa818585610632565b6001600160a01b0383166104a55760405162461bcd60e51b8152602060048201526024808201527f45524332303a20617070726f76652066726f6d20746865207a65726f2061646460448201527f72657373000000000000000000000000000000000000000000000000000000006064820152608401610406565b6001600160a01b0382166105215760405162461bcd60e51b815260206004820152602260248201527f45524332303a20617070726f766520746f20746865207a65726f20616464726560448201527f73730000000000000000000000000000000000000000000000000000000000006064820152608401610406565b6001600160a01b0383811660008181526001602090815260408083209487168084529482529182902085905590518481527f8c5be1e5ebec7d5bd14f71427d1e84f3dd0314c0f7b2291e5b200ac8c7c3b925910160405180910390a3505050565b6001600160a01b038381166000908152600160209081526040808320938616835292905220547fffffffffffffffffffffffffffffffffffffffffffffffffffffffffffffffff811461062c578181101561061f5760405162461bcd60e51b815260206004820152601d60248201527f45524332303a20696e73756666696369656e7420616c6c6f77616e63650000006044820152606401610406565b61062c848484840361042a565b50505050565b6001600160a01b0383166106ae5760405162461bcd60e51b815260206004820152602560248201527f45524332303a207472616e736665722066726f6d20746865207a65726f20616460448201527f64726573730000000000000000000000000000000000000000000000000000006064820152608401610406565b6001600160a01b03821661072a5760405162461bcd60e51b815260206004820152602360248201527f45524332303a207472616e7366657220746f20746865207a65726f206164647260448201527f65737300000000000000000000000000000000000000000000000000000000006064820152608401610406565b6001600160a01b038316600090815260208190526040902054818110156107b95760405162461bcd60e51b815260206004820152602660248201527f45524332303a207472616e7366657220616d6f756e742065786365656473206260448201527f616c616e636500000000000000000000000000000000000000000000000000006064820152608401610406565b6001600160a01b03848116600081815260208181526040808320878703905593871680835291849020805487019055925185815290927fddf252ad1be2c89b69c2b068fc378daa952ba7f163c4a11628f55a4df523b3ef910160405180910390a361062c565b6001600160a01b0382166108755760405162461bcd60e51b815260206004820152601f60248201527f45524332303a206d696e7420746f20746865207a65726f2061646472657373006044820152606401610406565b80600260008282546108879190610a74565b90915550506001600160a01b038216600081815260208181526040808320805486019055518481527fddf252ad1be2c89b69c2b068fc378daa952ba7f163c4a11628f55a4df523b3ef910160405180910390a35050565b600060208083528351808285015260005b8181101561090b578581018301518582016040015282016108ef565b5060006040828601015260407fffffffffffffffffffffffffffffffffffffffffffffffffffffffffffffffe0601f8301168501019250505092915050565b80356001600160a01b038116811461096157600080fd5b919050565b6000806040838503121561097957600080fd5b6109828361094a565b946020939093013593505050565b6000806000606084860312156109a557600080fd5b6109ae8461094a565b92506109bc6020850161094a565b9150604084013590509250925092565b6000602082840312156109de57600080fd5b6109e78261094a565b9392505050565b60008060408385031215610a0157600080fd5b610a0a8361094a565b9150610a186020840161094a565b90509250929050565b600181811c90821680610a3557607f821691505b602082108103610a6e577f4e487b7100000000000000000000000000000000000000000000000000000000600052602260045260246000fd5b50919050565b808201808211156102b0577f4e487b7100000000000000000000000000000000000000000000000000000000600052601160045260246000fd5b7f4e487b7100000000000000000000000000000000000000000000000000000000600052600160045260246000fdfea2646970667358221220abbe2d09c2c96bef661f6cf5d424dd26b6b08b873dd5f0784d4eb66b38d380c164736f6c63430008130033608060405234801561001057600080fd5b5061069c806100206000396000f3fe6080604052600436106100435760003560e01c8063160e8be3146101085780634a0687ef146101285780637687d19b14610148578063cf81464b1461015b576100fe565b366100fe57604080516000815260208101918290527fc68d428300000000000000000000000000000000000000000000000000000000909152309063c68d42839061009590339034906024810161057f565b600060405180830381600087803b1580156100af57600080fd5b505af11580156100c3573d6000803e3d6000fd5b50506040513481523392507f25ca84076773b0455db53621c459ddc84fe40840e4932a62706a032566f399df915060200160405180910390a2005b610106610163565b005b34801561011457600080fd5b50610106610123366004610610565b610175565b34801561013457600080fd5b50610106610143366004610629565b61025b565b610106610156366004610629565b6103af565b610106610476565b61017361016e61052c565b61055b565b565b604080516000815260208101918290527f9d876741000000000000000000000000000000000000000000000000000000009091523090639d876741906101c290339085906024810161057f565b600060405180830381600087803b1580156101dc57600080fd5b505af11580156101f0573d6000803e3d6000fd5b505060405133925083156108fc02915083906000818181858888f19350505050158015610221573d6000803e3d6000fd5b5060405181815233907f3bc27981aebbb57f9247dc00fde9d6cd91e4b230083fec3238fedbcba1f9ab3d906020015b60405180910390a250565b73ffffffffffffffffffffffffffffffffffffffff81166102dd576040517f08c379a000000000000000000000000000000000000000000000000000000000815260206004820152601760248201527f5555505350726f78793a207a65726f206164647265737300000000000000000060448201526064015b60405180910390fd5b60006103077f360894a13ba1a3210667c828492db98dca3e2076cc3735a920a3ca505d382bbc5490565b73ffffffffffffffffffffffffffffffffffffffff1614610384576040517f08c379a000000000000000000000000000000000000000000000000000000000815260206004820152601e60248201527f5555505350726f78793a20616c726561647920696e697469616c697a6564000060448201526064016102d4565b6103ac817f360894a13ba1a3210667c828492db98dca3e2076cc3735a920a3ca505d382bbc55565b50565b604080516000815260208101918290527fc68d428300000000000000000000000000000000000000000000000000000000909152309063c68d4283906103fc90849034906024810161057f565b600060405180830381600087803b15801561041657600080fd5b505af115801561042a573d6000803e3d6000fd5b505050508073ffffffffffffffffffffffffffffffffffffffff167f25ca84076773b0455db53621c459ddc84fe40840e4932a62706a032566f399df3460405161025091815260200190565b604080516000815260208101918290527fc68d428300000000000000000000000000000000000000000000000000000000909152309063c68d4283906104c390339034906024810161057f565b600060405180830381600087803b1580156104dd57600080fd5b505af11580156104f1573d6000803e3d6000fd5b50506040513481523392507f25ca84076773b0455db53621c459ddc84fe40840e4932a62706a032566f399df915060200160405180910390a2565b60006105567f360894a13ba1a3210667c828492db98dca3e2076cc3735a920a3ca505d382bbc5490565b905090565b3660008037600080366000845af43d6000803e80801561057a573d6000f35b3d6000fd5b73ffffffffffffffffffffffffffffffffffffffff8416815260006020848184015260606040840152835180606085015260005b818110156105cf578581018301518582016080015282016105b3565b5060006080828601015260807fffffffffffffffffffffffffffffffffffffffffffffffffffffffffffffffe0601f83011685010192505050949350505050565b60006020828403121561062257600080fd5b5035919050565b60006020828403121561063b57600080fd5b813573ffffffffffffffffffffffffffffffffffffffff8116811461065f57600080fd5b939250505056fea2646970667358221220a1687069996251ffc98dd243ce0cfb3edd71b46e80d69055dc33263285e9397d64736f6c63430008130033608060405234801561001057600080fd5b50610564806100206000396000f3fe60806040526004361061002d5760003560e01c80634a0687ef14610044578063b119490e146100645761003c565b3661003c5761003a610084565b005b61003a610084565b34801561005057600080fd5b5061003a61005f36600461033d565b610096565b34801561007057600080fd5b5061003a61007f3660046103c3565b6101ea565b61009461008f6102ea565b610319565b565b73ffffffffffffffffffffffffffffffffffffffff8116610118576040517f08c379a000000000000000000000000000000000000000000000000000000000815260206004820152601760248201527f5555505350726f78793a207a65726f206164647265737300000000000000000060448201526064015b60405180910390fd5b60006101427f360894a13ba1a3210667c828492db98dca3e2076cc3735a920a3ca505d382bbc5490565b73ffffffffffffffffffffffffffffffffffffffff16146101bf576040517f08c379a000000000000000000000000000000000000000000000000000000000815260206004820152601e60248201527f5555505350726f78793a20616c726561647920696e697469616c697a65640000604482015260640161010f565b6101e7817f360894a13ba1a3210667c828492db98dca3e2076cc3735a920a3ca505d382bbc55565b50565b6040517f42fe098000000000000000000000000000000000000000000000000000000000815230906342fe098090610232906000906012908a908a908a908a90600401610462565b600060405180830381600087803b15801561024c57600080fd5b505af1158015610260573d6000803e3d6000fd5b5050604080516000815260208101918290527fc68d42830000000000000000000000000000000000000000000000000000000090915230925063c68d428391506102b19033908590602481016104bb565b600060405180830381600087803b1580156102cb57600080fd5b505af11580156102df573d6000803e3d6000fd5b505050505050505050565b60006103147f360894a13ba1a3210667c828492db98dca3e2076cc3735a920a3ca505d382bbc5490565b905090565b3660008037600080366000845af43d6000803e808015610338573d6000f35b3d6000fd5b60006020828403121561034f57600080fd5b813573ffffffffffffffffffffffffffffffffffffffff8116811461037357600080fd5b9392505050565b60008083601f84011261038c57600080fd5b50813567ffffffffffffffff8111156103a457600080fd5b6020830191508360208285010111156103bc57600080fd5b9250929050565b6000806000806000606086880312156103db57600080fd5b853567ffffffffffffffff808211156103f357600080fd5b6103ff89838a0161037a565b9097509550602088013591508082111561041857600080fd5b506104258882890161037a565b96999598509660400135949350505050565b818352818160208501375060006020828401015260006020601f19601f840116840101905092915050565b73ffffffffffffffffffffffffffffffffffffffff8716815260ff8616602082015260806040820152600061049b608083018688610437565b82810360608401526104ae818587610437565b9998505050505050505050565b73ffffffffffffffffffffffffffffffffffffffff8416815260006020848184015260606040840152835180606085015260005b8181101561050b578581018301518582016080015282016104ef565b506000608082860101526080601f19601f8301168501019250505094935050505056fea26469706673582212204ca14f5d6b0e48c9d62c29041717d0daa908138125c989d61e2deeda805b1fb164736f6c63430008130033a2646970667358221220e21966b4efe3fa5dc7a26b37025dff6538cee09b0aa8de4ded000ced843ca97764736f6c63430008130033","linkReferences":{}},"methodIdentifiers":{"RESOLVER_BASE_SUPER_TOKEN_KEY()":"3df285fe","RESOLVER_BASE_TOKEN_KEY()":"62a32e1e","deployNativeAssetSuperToken(string,string)":"cbcd7449","deployPureSuperToken(string,string,uint256)":"fa0215fc","deployWrapperSuperToken(string,string,uint8,uint256)":"7dc2dc12","transferOwnership(address)":"f2fde38b"},"id":123}