{"abi":[{"type":"constructor","inputs":[{"name":"host","type":"address","internalType":"contract ISuperfluid"}],"stateMutability":"nonpayable"},{"type":"function","name":"createFlow","inputs":[{"name":"token","type":"address","internalType":"contract ISuperToken"},{"name":"sender","type":"address","internalType":"address"},{"name":"receiver","type":"address","internalType":"address"},{"name":"flowrate","type":"int96","internalType":"int96"},{"name":"userData","type":"bytes","internalType":"bytes"}],"outputs":[{"name":"","type":"bool","internalType":"bool"}],"stateMutability":"nonpayable"},{"type":"function","name":"deleteFlow","inputs":[{"name":"token","type":"address","internalType":"contract ISuperToken"},{"name":"sender","type":"address","internalType":"address"},{"name":"receiver","type":"address","internalType":"address"},{"name":"userData","type":"bytes","internalType":"bytes"}],"outputs":[{"name":"","type":"bool","internalType":"bool"}],"stateMutability":"nonpayable"},{"type":"function","name":"getAccountFlowInfo","inputs":[{"name":"token","type":"address","internalType":"contract ISuperToken"},{"name":"account","type":"address","internalType":"address"}],"outputs":[{"name":"lastUpdated","type":"uint256","internalType":"uint256"},{"name":"flowrate","type":"int96","internalType":"int96"},{"name":"deposit","type":"uint256","internalType":"uint256"},{"name":"owedDeposit","type":"uint256","internalType":"uint256"}],"stateMutability":"view"},{"type":"function","name":"getAccountFlowrate","inputs":[{"name":"token","type":"address","internalType":"contract ISuperToken"},{"name":"account","type":"address","internalType":"address"}],"outputs":[{"name":"flowrate","type":"int96","internalType":"int96"}],"stateMutability":"view"},{"type":"function","name":"getBufferAmountByFlowrate","inputs":[{"name":"token","type":"address","internalType":"contract ISuperToken"},{"name":"flowrate","type":"int96","internalType":"int96"}],"outputs":[{"name":"bufferAmount","type":"uint256","internalType":"uint256"}],"stateMutability":"view"},{"type":"function","name":"getFlowInfo","inputs":[{"name":"token","type":"address","internalType":"contract ISuperToken"},{"name":"sender","type":"address","internalType":"address"},{"name":"receiver","type":"address","internalType":"address"}],"outputs":[{"name":"lastUpdated","type":"uint256","internalType":"uint256"},{"name":"flowrate","type":"int96","internalType":"int96"},{"name":"deposit","type":"uint256","internalType":"uint256"},{"name":"owedDeposit","type":"uint256","internalType":"uint256"}],"stateMutability":"view"},{"type":"function","name":"getFlowOperatorPermissions","inputs":[{"name":"token","type":"address","internalType":"contract ISuperToken"},{"name":"sender","type":"address","internalType":"address"},{"name":"flowOperator","type":"address","internalType":"address"}],"outputs":[{"name":"permissions","type":"uint8","internalType":"uint8"},{"name":"flowrateAllowance","type":"int96","internalType":"int96"}],"stateMutability":"view"},{"type":"function","name":"getFlowrate","inputs":[{"name":"token","type":"address","internalType":"contract ISuperToken"},{"name":"sender","type":"address","internalType":"address"},{"name":"receiver","type":"address","internalType":"address"}],"outputs":[{"name":"flowrate","type":"int96","internalType":"int96"}],"stateMutability":"view"},{"type":"function","name":"grantPermissions","inputs":[{"name":"token","type":"address","internalType":"contract ISuperToken"},{"name":"flowOperator","type":"address","internalType":"address"}],"outputs":[{"name":"","type":"bool","internalType":"bool"}],"stateMutability":"nonpayable"},{"type":"function","name":"revokePermissions","inputs":[{"name":"token","type":"address","internalType":"contract ISuperToken"},{"name":"flowOperator","type":"address","internalType":"address"}],"outputs":[{"name":"","type":"bool","internalType":"bool"}],"stateMutability":"nonpayable"},{"type":"function","name":"setFlowrate","inputs":[{"name":"token","type":"address","internalType":"contract ISuperToken"},{"name":"receiver","type":"address","internalType":"address"},{"name":"flowrate","type":"int96","internalType":"int96"}],"outputs":[{"name":"","type":"bool","internalType":"bool"}],"stateMutability":"nonpayable"},{"type":"function","name":"setFlowrateFrom","inputs":[{"name":"token","type":"address","internalType":"contract ISuperToken"},{"name":"sender","type":"address","internalType":"address"},{"name":"receiver","type":"address","internalType":"address"},{"name":"flowrate","type":"int96","internalType":"int96"}],"outputs":[{"name":"","type":"bool","internalType":"bool"}],"stateMutability":"nonpayable"},{"type":"function","name":"updateFlow","inputs":[{"name":"token","type":"address","internalType":"contract ISuperToken"},{"name":"sender","type":"address","internalType":"address"},{"name":"receiver","type":"address","internalType":"address"},{"name":"flowrate","type":"int96","internalType":"int96"},{"name":"userData","type":"bytes","internalType":"bytes"}],"outputs":[{"name":"","type":"bool","internalType":"bool"}],"stateMutability":"nonpayable"},{"type":"function","name":"updateFlowOperatorPermissions","inputs":[{"name":"token","type":"address","internalType":"contract ISuperToken"},{"name":"flowOperator","type":"address","internalType":"address"},{"name":"permissions","type":"uint8","internalType":"uint8"},{"name":"flowrateAllowance","type":"int96","internalType":"int96"}],"outputs":[{"name":"","type":"bool","internalType":"bool"}],"stateMutability":"nonpayable"},{"type":"error","name":"CFA_FWD_INVALID_FLOW_RATE","inputs":[]}],"bytecode":{"object":"0x60c06040523480156200001157600080fd5b50604051620019ef380380620019ef8339810160408190526200003491620000ef565b6001600160a01b0381166080819052604051635b69006f60e11b81527fa9214cc96615e0085d3bb077758db69497dc2dce3b2b1e97bc93c3d18d83efd3600482015263b6d200de90602401602060405180830381865afa1580156200009d573d6000803e3d6000fd5b505050506040513d601f19601f82011682018060405250810190620000c39190620000ef565b6001600160a01b031660a0525062000116565b6001600160a01b0381168114620000ec57600080fd5b50565b6000602082840312156200010257600080fd5b81516200010f81620000d6565b9392505050565b60805160a05161183c620001b3600039600081816102b3015281816103980152818161045e0152818161051a015281816105d8015281816106b9015281816107a0015281816108320152818161087601528181610932015281816109e501528181610a6301528181610bef01528181610c8901528181610d0d01528181610d500152610d8a015260008181610e720152610ef9015261183c6000f3fe608060405234801561001057600080fd5b50600436106100ea5760003560e01c8063308855911161008c5780637243fb93116100665780637243fb9314610222578063b4b333c614610235578063c5ad5c1a14610248578063e15536b61461025b57600080fd5b806330885591146101cd5780634d3f60f9146101e057806357e6aa361461020f57600080fd5b80630f1ac495116100c85780630f1ac4951461014b5780631d8b65261461018157806322c904d9146101a75780632860fd93146101ba57600080fd5b806309f0b495146100ef5780630bd0728d146101155780630c03399114610138575b600080fd5b6101026100fd36600461114d565b61026e565b6040519081526020015b60405180910390f35b610128610123366004611186565b610327565b604051901515815260200161010c565b610128610146366004611270565b610336565b61015e610159366004611186565b61034f565b60408051948552600b9390930b602085015291830152606082015260800161010c565b61019461018f3660046112f8565b610413565b604051600b9190910b815260200161010c565b6101946101b5366004611186565b6104d7565b61015e6101c83660046112f8565b610587565b6101286101db366004611352565b610654565b6101f36101ee3660046112f8565b61066d565b6040805160ff9093168352600b9190910b60208301520161010c565b61012861021d3660046113ae565b610730565b610128610230366004611186565b61073e565b6101286102433660046113ee565b610759565b610128610256366004611463565b610767565b610128610269366004611270565b610775565b6040517f8d997f6e0000000000000000000000000000000000000000000000000000000081526001600160a01b038381166004830152600b83900b60248301526000917f000000000000000000000000000000000000000000000000000000000000000090911690638d997f6e90604401602060405180830381865afa1580156102fc573d6000803e3d6000fd5b505050506040513d601f19601f8201168201806040525081019061032091906114a4565b9392505050565b60006103208383600080610784565b60006103458686868686610859565b9695505050505050565b6040517f0f1ac4950000000000000000000000000000000000000000000000000000000081526001600160a01b03838116600483015282811660248301526000918291829182917f00000000000000000000000000000000000000000000000000000000000000001690630f1ac49590604401608060405180830381865afa1580156103df573d6000803e3d6000fd5b505050506040513d601f19601f8201168201806040525081019061040391906114bd565b9299919850965090945092505050565b6040517fe6a1e8880000000000000000000000000000000000000000000000000000000081526001600160a01b038481166004830152838116602483015282811660448301526000917f00000000000000000000000000000000000000000000000000000000000000009091169063e6a1e88890606401608060405180830381865afa1580156104a7573d6000803e3d6000fd5b505050506040513d601f19601f820116820180604052508101906104cb91906114bd565b50909695505050505050565b6040517fe8e7e2d10000000000000000000000000000000000000000000000000000000081526001600160a01b03838116600483015282811660248301526000917f00000000000000000000000000000000000000000000000000000000000000009091169063e8e7e2d190604401602060405180830381865afa158015610563573d6000803e3d6000fd5b505050506040513d601f19601f8201168201806040525081019061032091906114fb565b6040517fe6a1e8880000000000000000000000000000000000000000000000000000000081526001600160a01b038481166004830152838116602483015282811660448301526000918291829182917f0000000000000000000000000000000000000000000000000000000000000000169063e6a1e88890606401608060405180830381865afa15801561061f573d6000803e3d6000fd5b505050506040513d601f19601f8201168201806040525081019061064391906114bd565b929a91995097509095509350505050565b600061066285858585610784565b90505b949350505050565b6040517e422bbe0000000000000000000000000000000000000000000000000000000081526001600160a01b0384811660048301528381166024830152828116604483015260009182917f0000000000000000000000000000000000000000000000000000000000000000169062422bbe90606401606060405180830381865afa1580156106ff573d6000803e3d6000fd5b505050506040513d601f19601f820116820180604052508101906107239190611518565b9097909650945050505050565b600061066584338585610a16565b6000610320838360076b7fffffffffffffffffffffff610784565b600061066285858585610bb0565b600061066285858585610a16565b60006103458686868686610d33565b6040805160008082526020820190925281906001600160a01b037f0000000000000000000000000000000000000000000000000000000000000000169063811b3d40906107dc908990899089908990604481016115a0565b60408051601f19818403018152918152602080830180517bffffffffffffffffffffffffffffffffffffffffffffffffffffffff1660e09590951b949094179093528051600081529283019052925061034591507f0000000000000000000000000000000000000000000000000000000000000000908390610db9565b6000806001600160a01b0386163314610928576001600160a01b037f00000000000000000000000000000000000000000000000000000000000000001663354b95908888888860005b6040519080825280601f01601f1916602001820160405280156108cc576020820181803683370190505b506040516024016108e19594939291906115de565b604051602081830303815290604052915060e01b6020820180517bffffffffffffffffffffffffffffffffffffffffffffffffffffffff83818316178352505050506109de565b6001600160a01b037f0000000000000000000000000000000000000000000000000000000000000000166350209a6288878760005b6040519080825280601f01601f191660200182016040528015610987576020820181803683370190505b5060405160240161099b949392919061161b565b604051602081830303815290604052915060e01b6020820180517bffffffffffffffffffffffffffffffffffffffffffffffffffffffff83818316178352505050505b9050610a0b7f00000000000000000000000000000000000000000000000000000000000000008285610db9565b979650505050505050565b6040517fe6a1e8880000000000000000000000000000000000000000000000000000000081526001600160a01b0385811660048301528481166024830152838116604483015260009182917f0000000000000000000000000000000000000000000000000000000000000000169063e6a1e88890606401608060405180830381865afa158015610aaa573d6000803e3d6000fd5b505050506040513d601f19601f82011682018060405250810190610ace91906114bd565b5050915050600083600b0b1315610b495780600b0b600003610b1257604080516000815260208101909152610b0a908790879087908790610d33565b915050610665565b82600b0b81600b0b14610b3f57604080516000815260208101909152610b0a908790879087908790610859565b6001915050610665565b82600b0b600003610b7e57600081600b0b1315610b3f57604080516000815260208101909152610b0a90879087908790610bb0565b6040517fcea9aa5f00000000000000000000000000000000000000000000000000000000815260040160405180910390fd5b6000806001600160a01b038516331480610bd257506001600160a01b03841633145b610c70576040805160008152602081019091526001600160a01b037f00000000000000000000000000000000000000000000000000000000000000001690634c8b181f90610c299089908990899060448101611650565b604051602081830303815290604052915060e01b6020820180517bffffffffffffffffffffffffffffffffffffffffffffffffffffffff8381831617835250505050610d06565b6040805160008152602081019091526001600160a01b037f0000000000000000000000000000000000000000000000000000000000000000169063b4b333c690610cc39089908990899060448101611650565b604051602081830303815290604052915060e01b6020820180517bffffffffffffffffffffffffffffffffffffffffffffffffffffffff83818316178352505050505b90506103457f00000000000000000000000000000000000000000000000000000000000000008285610db9565b6000806001600160a01b0386163314610d80576001600160a01b037f0000000000000000000000000000000000000000000000000000000000000000166394229ecb8888888860006108a2565b6001600160a01b037f0000000000000000000000000000000000000000000000000000000000000000166362fc305e888787600061095d565b604080516001808252818301909252600091829190816020015b60408051606080820183526000808352602083015291810191909152815260200190600190039081610dd3579050509050604051806060016040528060c963ffffffff168152602001866001600160a01b031681526020018585604051602001610e3e929190611684565b60405160208183030381529060405281525081600081518110610e6357610e636116b2565b602002602001018190525060007f00000000000000000000000000000000000000000000000000000000000000006001600160a01b031663670e77e383604051602401610eb091906116e1565b604051602081830303815290604052915060e01b6020820180517bffffffffffffffffffffffffffffffffffffffffffffffffffffffff838183161783525050505090506000807f00000000000000000000000000000000000000000000000000000000000000006001600160a01b03168333604051602001610f3492919061178d565b60408051601f1981840301815290829052610f4e916117d7565b6000604051808303816000865af19150503d8060008114610f8b576040519150601f19603f3d011682016040523d82523d6000602084013e610f90565b606091505b509150915081610fa357610fa381610fb1565b506001979650505050505050565b600481511015611022576040517f08c379a000000000000000000000000000000000000000000000000000000000815260206004820152601a60248201527f43616c6c5574696c733a2074617267657420726576657274282900000000000060448201526064015b60405180910390fd5b60208101517fb1b7848f000000000000000000000000000000000000000000000000000000007fffffffff0000000000000000000000000000000000000000000000000000000082160161111d5760408051808201825260208082527f43616c6c5574696c733a207461726765742070616e69636b65643a2030785f5f90820190815260248501517f43616c6c5574696c733a207461726765742070616e69636b65643a2030780000600482811c600f908116603090810160081b91851601179190911790925292517f08c379a0000000000000000000000000000000000000000000000000000000008152919291611019918491016117f3565b81518060208401fd5b50565b6001600160a01b038116811461112657600080fd5b80600b0b811461112657600080fd5b6000806040838503121561116057600080fd5b823561116b81611129565b9150602083013561117b8161113e565b809150509250929050565b6000806040838503121561119957600080fd5b82356111a481611129565b9150602083013561117b81611129565b7f4e487b7100000000000000000000000000000000000000000000000000000000600052604160045260246000fd5b600082601f8301126111f457600080fd5b813567ffffffffffffffff8082111561120f5761120f6111b4565b604051601f8301601f19908116603f01168101908282118183101715611237576112376111b4565b8160405283815286602085880101111561125057600080fd5b836020870160208301376000602085830101528094505050505092915050565b600080600080600060a0868803121561128857600080fd5b853561129381611129565b945060208601356112a381611129565b935060408601356112b381611129565b925060608601356112c38161113e565b9150608086013567ffffffffffffffff8111156112df57600080fd5b6112eb888289016111e3565b9150509295509295909350565b60008060006060848603121561130d57600080fd5b833561131881611129565b9250602084013561132881611129565b9150604084013561133881611129565b809150509250925092565b60ff8116811461112657600080fd5b6000806000806080858703121561136857600080fd5b843561137381611129565b9350602085013561138381611129565b9250604085013561139381611343565b915060608501356113a38161113e565b939692955090935050565b6000806000606084860312156113c357600080fd5b83356113ce81611129565b925060208401356113de81611129565b915060408401356113388161113e565b6000806000806080858703121561140457600080fd5b843561140f81611129565b9350602085013561141f81611129565b9250604085013561142f81611129565b9150606085013567ffffffffffffffff81111561144b57600080fd5b611457878288016111e3565b91505092959194509250565b6000806000806080858703121561147957600080fd5b843561148481611129565b9350602085013561149481611129565b9250604085013561139381611129565b6000602082840312156114b657600080fd5b5051919050565b600080600080608085870312156114d357600080fd5b8451935060208501516114e58161113e565b6040860151606090960151949790965092505050565b60006020828403121561150d57600080fd5b81516103208161113e565b60008060006060848603121561152d57600080fd5b83519250602084015161153f81611343565b60408501519092506113388161113e565b60005b8381101561156b578181015183820152602001611553565b50506000910152565b6000815180845261158c816020860160208601611550565b601f01601f19169290920160200192915050565b60006001600160a01b03808816835280871660208401525060ff8516604083015283600b0b606083015260a06080830152610a0b60a0830184611574565b60006001600160a01b038088168352808716602084015280861660408401525083600b0b606083015260a06080830152610a0b60a0830184611574565b60006001600160a01b03808716835280861660208401525083600b0b6040830152608060608301526103456080830184611574565b60006001600160a01b0380871683528086166020840152808516604084015250608060608301526103456080830184611574565b6040815260006116976040830185611574565b82810360208401526116a98185611574565b95945050505050565b7f4e487b7100000000000000000000000000000000000000000000000000000000600052603260045260246000fd5b60006020808301818452808551808352604092508286019150828160051b87010184880160005b8381101561177f578883037fffffffffffffffffffffffffffffffffffffffffffffffffffffffffffffffc00185528151805163ffffffff168452878101516001600160a01b031688850152860151606087850181905261176b81860183611574565b968901969450505090860190600101611708565b509098975050505050505050565b6000835161179f818460208801611550565b60609390931b7fffffffffffffffffffffffffffffffffffffffff000000000000000000000000169190920190815260140192915050565b600082516117e9818460208701611550565b9190910192915050565b602081526000610320602083018461157456fea2646970667358221220f23f18e519123b35dd5bf151c8e859be1f1b174c6d55f19a324353746414687f64736f6c63430008130033","linkReferences":{}},"methodIdentifiers":{"createFlow(address,address,address,int96,bytes)":"e15536b6","deleteFlow(address,address,address,bytes)":"b4b333c6","getAccountFlowInfo(address,address)":"0f1ac495","getAccountFlowrate(address,address)":"22c904d9","getBufferAmountByFlowrate(address,int96)":"09f0b495","getFlowInfo(address,address,address)":"2860fd93","getFlowOperatorPermissions(address,address,address)":"4d3f60f9","getFlowrate(address,address,address)":"1d8b6526","grantPermissions(address,address)":"7243fb93","revokePermissions(address,address)":"0bd0728d","setFlowrate(address,address,int96)":"57e6aa36","setFlowrateFrom(address,address,address,int96)":"c5ad5c1a","updateFlow(address,address,address,int96,bytes)":"0c033991","updateFlowOperatorPermissions(address,address,uint8,int96)":"30885591"},"id":121}