{"abi":[{"type":"constructor","inputs":[{"name":"_name","type":"string","internalType":"string"},{"name":"_symbol","type":"string","internalType":"string"},{"name":"_inResourceToken","type":"address","internalType":"contract ISuperToken"},{"name":"_maxInFlowRate","type":"int96","internalType":"int96"},{"name":"_tokenURIs","type":"string[]","internalType":"string[]"},{"name":"_tiers","type":"uint256[]","internalType":"uint256[]"}],"stateMutability":"nonpayable"},{"type":"function","name":"CFAV1_TYPE","inputs":[],"outputs":[{"name":"","type":"bytes32","internalType":"bytes32"}],"stateMutability":"view"},{"type":"function","name":"afterAgreementCreated","inputs":[{"name":"superToken","type":"address","internalType":"contract ISuperToken"},{"name":"agreementClass","type":"address","internalType":"address"},{"name":"","type":"bytes32","internalType":"bytes32"},{"name":"agreementData","type":"bytes","internalType":"bytes"},{"name":"","type":"bytes","internalType":"bytes"},{"name":"ctx","type":"bytes","internalType":"bytes"}],"outputs":[{"name":"newCtx","type":"bytes","internalType":"bytes"}],"stateMutability":"nonpayable"},{"type":"function","name":"afterAgreementTerminated","inputs":[{"name":"superToken","type":"address","internalType":"contract ISuperToken"},{"name":"agreementClass","type":"address","internalType":"address"},{"name":"","type":"bytes32","internalType":"bytes32"},{"name":"agreementData","type":"bytes","internalType":"bytes"},{"name":"cbdata","type":"bytes","internalType":"bytes"},{"name":"ctx","type":"bytes","internalType":"bytes"}],"outputs":[{"name":"newCtx","type":"bytes","internalType":"bytes"}],"stateMutability":"nonpayable"},{"type":"function","name":"afterAgreementUpdated","inputs":[{"name":"superToken","type":"address","internalType":"contract ISuperToken"},{"name":"agreementClass","type":"address","internalType":"address"},{"name":"","type":"bytes32","internalType":"bytes32"},{"name":"agreementData","type":"bytes","internalType":"bytes"},{"name":"cbdata","type":"bytes","internalType":"bytes"},{"name":"ctx","type":"bytes","internalType":"bytes"}],"outputs":[{"name":"newCtx","type":"bytes","internalType":"bytes"}],"stateMutability":"nonpayable"},{"type":"function","name":"approve","inputs":[{"name":"spender","type":"address","internalType":"address"},{"name":"id","type":"uint256","internalType":"uint256"}],"outputs":[],"stateMutability":"nonpayable"},{"type":"function","name":"balanceOf","inputs":[{"name":"owner","type":"address","internalType":"address"}],"outputs":[{"name":"","type":"uint256","internalType":"uint256"}],"stateMutability":"view"},{"type":"function","name":"beforeAgreementCreated","inputs":[{"name":"","type":"address","internalType":"contract ISuperToken"},{"name":"","type":"address","internalType":"address"},{"name":"","type":"bytes32","internalType":"bytes32"},{"name":"","type":"bytes","internalType":"bytes"},{"name":"","type":"bytes","internalType":"bytes"}],"outputs":[{"name":"","type":"bytes","internalType":"bytes"}],"stateMutability":"pure"},{"type":"function","name":"beforeAgreementTerminated","inputs":[{"name":"superToken","type":"address","internalType":"contract ISuperToken"},{"name":"agreementClass","type":"address","internalType":"address"},{"name":"","type":"bytes32","internalType":"bytes32"},{"name":"agreementData","type":"bytes","internalType":"bytes"},{"name":"","type":"bytes","internalType":"bytes"}],"outputs":[{"name":"","type":"bytes","internalType":"bytes"}],"stateMutability":"view"},{"type":"function","name":"beforeAgreementUpdated","inputs":[{"name":"superToken","type":"address","internalType":"contract ISuperToken"},{"name":"agreementClass","type":"address","internalType":"address"},{"name":"","type":"bytes32","internalType":"bytes32"},{"name":"agreementData","type":"bytes","internalType":"bytes"},{"name":"","type":"bytes","internalType":"bytes"}],"outputs":[{"name":"","type":"bytes","internalType":"bytes"}],"stateMutability":"view"},{"type":"function","name":"counter","inputs":[],"outputs":[{"name":"","type":"uint256","internalType":"uint256"}],"stateMutability":"view"},{"type":"function","name":"getApproved","inputs":[{"name":"","type":"uint256","internalType":"uint256"}],"outputs":[{"name":"","type":"address","internalType":"address"}],"stateMutability":"view"},{"type":"function","name":"getTierLevel","inputs":[{"name":"id","type":"uint256","internalType":"uint256"}],"outputs":[{"name":"","type":"uint256","internalType":"uint256"}],"stateMutability":"view"},{"type":"function","name":"host","inputs":[],"outputs":[{"name":"","type":"address","internalType":"contract ISuperfluid"}],"stateMutability":"view"},{"type":"function","name":"inResourceToken","inputs":[],"outputs":[{"name":"","type":"address","internalType":"contract ISuperToken"}],"stateMutability":"view"},{"type":"function","name":"isAcceptedSuperToken","inputs":[{"name":"_superToken","type":"address","internalType":"contract ISuperToken"}],"outputs":[{"name":"","type":"bool","internalType":"bool"}],"stateMutability":"view"},{"type":"function","name":"isApprovedForAll","inputs":[{"name":"","type":"address","internalType":"address"},{"name":"","type":"address","internalType":"address"}],"outputs":[{"name":"","type":"bool","internalType":"bool"}],"stateMutability":"view"},{"type":"function","name":"maxInFlowRate","inputs":[],"outputs":[{"name":"","type":"int96","internalType":"int96"}],"stateMutability":"view"},{"type":"function","name":"name","inputs":[],"outputs":[{"name":"","type":"string","internalType":"string"}],"stateMutability":"view"},{"type":"function","name":"ownerOf","inputs":[{"name":"id","type":"uint256","internalType":"uint256"}],"outputs":[{"name":"owner","type":"address","internalType":"address"}],"stateMutability":"view"},{"type":"function","name":"safeTransferFrom","inputs":[{"name":"from","type":"address","internalType":"address"},{"name":"to","type":"address","internalType":"address"},{"name":"id","type":"uint256","internalType":"uint256"}],"outputs":[],"stateMutability":"nonpayable"},{"type":"function","name":"safeTransferFrom","inputs":[{"name":"from","type":"address","internalType":"address"},{"name":"to","type":"address","internalType":"address"},{"name":"id","type":"uint256","internalType":"uint256"},{"name":"data","type":"bytes","internalType":"bytes"}],"outputs":[],"stateMutability":"nonpayable"},{"type":"function","name":"setApprovalForAll","inputs":[{"name":"operator","type":"address","internalType":"address"},{"name":"approved","type":"bool","internalType":"bool"}],"outputs":[],"stateMutability":"nonpayable"},{"type":"function","name":"setTier","inputs":[{"name":"tier","type":"uint256","internalType":"uint256"},{"name":"tierValue","type":"uint256","internalType":"uint256"}],"outputs":[],"stateMutability":"nonpayable"},{"type":"function","name":"setTokenURI","inputs":[{"name":"tier","type":"uint256","internalType":"uint256"},{"name":"uri","type":"string","internalType":"string"}],"outputs":[],"stateMutability":"nonpayable"},{"type":"function","name":"supportsInterface","inputs":[{"name":"interfaceId","type":"bytes4","internalType":"bytes4"}],"outputs":[{"name":"","type":"bool","internalType":"bool"}],"stateMutability":"view"},{"type":"function","name":"symbol","inputs":[],"outputs":[{"name":"","type":"string","internalType":"string"}],"stateMutability":"view"},{"type":"function","name":"tiers","inputs":[{"name":"","type":"uint256","internalType":"uint256"}],"outputs":[{"name":"","type":"uint256","internalType":"uint256"}],"stateMutability":"view"},{"type":"function","name":"tokenURI","inputs":[{"name":"id","type":"uint256","internalType":"uint256"}],"outputs":[{"name":"","type":"string","internalType":"string"}],"stateMutability":"view"},{"type":"function","name":"tokenURIs","inputs":[{"name":"","type":"uint256","internalType":"uint256"}],"outputs":[{"name":"","type":"string","internalType":"string"}],"stateMutability":"view"},{"type":"function","name":"transferFrom","inputs":[{"name":"from","type":"address","internalType":"address"},{"name":"to","type":"address","internalType":"address"},{"name":"id","type":"uint256","internalType":"uint256"}],"outputs":[],"stateMutability":"nonpayable"},{"type":"function","name":"userInfo","inputs":[{"name":"","type":"address","internalType":"address"}],"outputs":[{"name":"timestamp","type":"uint256","internalType":"uint256"},{"name":"balance","type":"uint256","internalType":"uint256"}],"stateMutability":"view"},{"type":"event","name":"Approval","inputs":[{"name":"owner","type":"address","indexed":true,"internalType":"address"},{"name":"spender","type":"address","indexed":true,"internalType":"address"},{"name":"id","type":"uint256","indexed":true,"internalType":"uint256"}],"anonymous":false},{"type":"event","name":"ApprovalForAll","inputs":[{"name":"owner","type":"address","indexed":true,"internalType":"address"},{"name":"operator","type":"address","indexed":true,"internalType":"address"},{"name":"approved","type":"bool","indexed":false,"internalType":"bool"}],"anonymous":false},{"type":"event","name":"Transfer","inputs":[{"name":"from","type":"address","indexed":true,"internalType":"address"},{"name":"to","type":"address","indexed":true,"internalType":"address"},{"name":"id","type":"uint256","indexed":true,"internalType":"uint256"}],"anonymous":false},{"type":"error","name":"NotAcceptedSuperToken","inputs":[]},{"type":"error","name":"NotImplemented","inputs":[]},{"type":"error","name":"UnauthorizedHost","inputs":[]}],"bytecode":{"object":"0x60a06040523480156200001157600080fd5b5060405162003653380380620036538339810160408190526200003491620005a1565b8585856001600160a01b03166320bc44256040518163ffffffff1660e01b8152600401602060405180830381865afa15801562000075573d6000803e3d6000fd5b505050506040513d601f19601f820116820180604052508101906200009b91906200067e565b600080546001600160a01b0319166001600160a01b0383161790556001808064010000000182620000ce57640c00000000175b81620000dc57643000000000175b6040516315a722b960e31b8152600481018290526001600160a01b0386169063ad3915c890602401600060405180830381600087803b1580156200011f57600080fd5b505af115801562000134573d6000803e3d6000fd5b50505050505050505081600190816200014e919062000734565b5060026200015d828262000734565b5050506001600160a01b038416620001ca5760405162461bcd60e51b815260206004820152602560248201527f45564f3a20696e5265736f75726365546f6b656e206d757374206265206e6f6e6044820152642d7a65726f60d81b60648201526084015b60405180910390fd5b600083600b0b12156200022c5760405162461bcd60e51b815260206004820152602360248201527f45564f3a206d6178496e466c6f7752617465206d757374206265206e6f6e2d7a60448201526265726f60e81b6064820152608401620001c1565b80518251146200029a5760405162461bcd60e51b815260206004820152603260248201527f45564f3a20746f6b656e5552497320616e64207469657273206d7573742068616044820152710ecca40e8d0ca40e6c2daca40d8cadccee8d60731b6064820152608401620001c1565b60005b82518110156200033157828181518110620002bc57620002bc62000800565b6020026020010151600960008381526020019081526020016000209081620002e5919062000734565b50600a828281518110620002fd57620002fd62000800565b6020908102919091018101518254600181018455600093845291909220015580620003288162000816565b9150506200029d565b5050506001600160a01b0391909116608052600780546001600160601b0319166001600160601b03909216919091179055506200083e9050565b634e487b7160e01b600052604160045260246000fd5b604051601f8201601f191681016001600160401b0381118282101715620003ac57620003ac6200036b565b604052919050565b600082601f830112620003c657600080fd5b81516001600160401b03811115620003e257620003e26200036b565b6020620003f8601f8301601f1916820162000381565b82815285828487010111156200040d57600080fd5b60005b838110156200042d57858101830151828201840152820162000410565b506000928101909101919091529392505050565b6001600160a01b03811681146200045757600080fd5b50565b8051620004678162000441565b919050565b8051600b81900b81146200046757600080fd5b60006001600160401b038211156200049b576200049b6200036b565b5060051b60200190565b600082601f830112620004b757600080fd5b81516020620004d0620004ca836200047f565b62000381565b82815260059290921b84018101918181019086841115620004f057600080fd5b8286015b84811015620005345780516001600160401b03811115620005155760008081fd5b620005258986838b0101620003b4565b845250918301918301620004f4565b509695505050505050565b600082601f8301126200055157600080fd5b8151602062000564620004ca836200047f565b82815260059290921b840181019181810190868411156200058457600080fd5b8286015b8481101562000534578051835291830191830162000588565b60008060008060008060c08789031215620005bb57600080fd5b86516001600160401b0380821115620005d357600080fd5b620005e18a838b01620003b4565b97506020890151915080821115620005f857600080fd5b620006068a838b01620003b4565b96506200061660408a016200045a565b95506200062660608a016200046c565b945060808901519150808211156200063d57600080fd5b6200064b8a838b01620004a5565b935060a08901519150808211156200066257600080fd5b506200067189828a016200053f565b9150509295509295509295565b6000602082840312156200069157600080fd5b81516200069e8162000441565b9392505050565b600181811c90821680620006ba57607f821691505b602082108103620006db57634e487b7160e01b600052602260045260246000fd5b50919050565b601f8211156200072f57600081815260208120601f850160051c810160208610156200070a5750805b601f850160051c820191505b818110156200072b5782815560010162000716565b5050505b505050565b81516001600160401b038111156200075057620007506200036b565b6200076881620007618454620006a5565b84620006e1565b602080601f831160018114620007a05760008415620007875750858301515b600019600386901b1c1916600185901b1785556200072b565b600085815260208120601f198616915b82811015620007d157888601518255948401946001909101908401620007b0565b5085821015620007f05787850151600019600388901b60f8161c191681555b5050505050600190811b01905550565b634e487b7160e01b600052603260045260246000fd5b6000600182016200083757634e487b7160e01b600052601160045260246000fd5b5060010190565b608051612db3620008a060003960008181610338015281816103f801528181610871015281816109ad01528181610a9401528181610cfa01528181611046015281816111e6015281816114b00152818161151101526119960152612db36000f3fe608060405234801561001057600080fd5b50600436106101e55760003560e01c806361bc221a1161010f578063a34e5990116100a2578063c87b56dd11610071578063c87b56dd146104b6578063d86ed3e5146104c9578063e985e9c5146104dc578063f437bc591461050a57600080fd5b8063a34e599014610456578063b7713b7c14610469578063b88d4fde1461047c578063bcb4546f1461048f57600080fd5b806372ca8a3e116100de57806372ca8a3e146103e8578063884d1f401461042857806395d89b411461043b578063a22cb4651461044357600080fd5b806361bc221a146103a65780636352211e146103af5780636c8b703f146103c257806370a08231146103d557600080fd5b80631959a0021161018757806330d9c9151161015657806330d9c9151461035a57806342842e0e1461036d57806353c11f99146103805780635f9e7d771461039357600080fd5b80631959a002146102d1578063230dbd291461030d57806323b872dd146103205780632d5684a71461033357600080fd5b8063081812fc116101c3578063081812fc14610248578063095ea7b3146102895780630fc824591461029e578063162094c4146102be57600080fd5b806301ffc9a7146101ea578063039af9eb1461021257806306fdde0314610233575b600080fd5b6101fd6101f8366004612499565b61051d565b60405190151581526020015b60405180910390f35b6102256102203660046124b6565b610602565b604051908152602001610209565b61023b610623565b604051610209919061251f565b6102716102563660046124b6565b6005602052600090815260409020546001600160a01b031681565b6040516001600160a01b039091168152602001610209565b61029c610297366004612547565b6106b1565b005b6007546102ab90600b0b81565b604051600b9190910b8152602001610209565b61029c6102cc3660046125e2565b6107bf565b6102f86102df36600461266c565b6008602052600090815260409020805460019091015482565b60408051928352602083019190915201610209565b61023b61031b3660046126d2565b6107dc565b61029c61032e36600461279d565b61091a565b6102717f000000000000000000000000000000000000000000000000000000000000000081565b61023b6103683660046127de565b61092e565b61029c61037b36600461279d565b61096e565b61023b61038e3660046126d2565b610982565b61023b6103a13660046127de565b610a69565b610225600b5481565b6102716103bd3660046124b6565b610b73565b61023b6103d03660046124b6565b610bdd565b6102256103e336600461266c565b610bf6565b6101fd6103f636600461266c565b7f00000000000000000000000000000000000000000000000000000000000000006001600160a01b0390811691161490565b61023b6104363660046127de565b610c6a565b61023b610dbe565b61029c61045136600461287d565b610dcb565b61029c6104643660046128bb565b610e55565b6102256104773660046124b6565b610e79565b61029c61048a3660046128dd565b610f73565b6102257fa9214cc96615e0085d3bb077758db69497dc2dce3b2b1e97bc93c3d18d83efd381565b61023b6104c43660046124b6565b610f90565b61023b6104d73660046126d2565b611151565b6101fd6104ea366004612950565b600660209081526000928352604080842090915290825290205460ff1681565b600054610271906001600160a01b031681565b60007f01ffc9a7000000000000000000000000000000000000000000000000000000007fffffffff00000000000000000000000000000000000000000000000000000000831614806105b057507f80ac58cd000000000000000000000000000000000000000000000000000000007fffffffff000000000000000000000000000000000000000000000000000000008316145b806105fc57507f5b5e139f000000000000000000000000000000000000000000000000000000007fffffffff000000000000000000000000000000000000000000000000000000008316145b92915050565b600a818154811061061257600080fd5b600091825260209091200154905081565b600180546106309061297e565b80601f016020809104026020016040519081016040528092919081815260200182805461065c9061297e565b80156106a95780601f1061067e576101008083540402835291602001916106a9565b820191906000526020600020905b81548152906001019060200180831161068c57829003601f168201915b505050505081565b6000818152600360205260409020546001600160a01b0316338114806106fa57506001600160a01b038116600090815260066020908152604080832033845290915290205460ff165b61074b5760405162461bcd60e51b815260206004820152600e60248201527f4e4f545f415554484f52495a454400000000000000000000000000000000000060448201526064015b60405180910390fd5b60008281526005602052604080822080547fffffffffffffffffffffffff0000000000000000000000000000000000000000166001600160a01b0387811691821790925591518593918516917f8c5be1e5ebec7d5bd14f71427d1e84f3dd0314c0f7b2291e5b200ac8c7c3b92591a4505050565b60008281526009602052604090206107d78282612a06565b505050565b6000546060906001600160a01b03163314610823576040517f2f2d36a700000000000000000000000000000000000000000000000000000000815260040160405180910390fd5b61082c89611276565b61086f5782828080601f01602080910402602001604051908101604052809392919081815260200183838082843760009201919091525092935061090d92505050565b7f00000000000000000000000000000000000000000000000000000000000000006001600160a01b03908116908b16146108d5576040517ff512dd5800000000000000000000000000000000000000000000000000000000815260040160405180910390fd5b60006108e387890189612950565b5090506000806108f587890189612ad5565b915091506109078d8484848a8a611337565b93505050505b9998505050505050505050565b6109238361143a565b6107d783838361153c565b60408051808201909152600281527f307800000000000000000000000000000000000000000000000000000000000060208201525b979650505050505050565b6109778361143a565b6107d7838383611749565b6000546060906001600160a01b0316331415806109a557506109a389611276565b155b806109dd57507f00000000000000000000000000000000000000000000000000000000000000006001600160a01b03908116908b1614155b15610a215782828080601f01602080910402602001604051908101604052809392919081815260200183838082843760009201919091525092935061090d92505050565b600080610a30888a018a612950565b9092509050600080610a44888a018a612af3565b91509150610a578e858584868c8c61187a565b9e9d5050505050505050505050505050565b6000546060906001600160a01b031633141580610a8c5750610a8a87611276565b155b80610ac457507f00000000000000000000000000000000000000000000000000000000000000006001600160a01b0390811690891614155b15610b03575060408051808201909152600281527f30780000000000000000000000000000000000000000000000000000000000006020820152610963565b600080610b1286880188612950565b9092509050600080610b2e6001600160a01b038d1685856118c2565b5050915091508181604051602001610b53929190918252600b0b602082015260400190565b604051602081830303815290604052945050505050979650505050505050565b6000818152600360205260409020546001600160a01b031680610bd85760405162461bcd60e51b815260206004820152600a60248201527f4e4f545f4d494e544544000000000000000000000000000000000000000000006044820152606401610742565b919050565b600960205260009081526040902080546106309061297e565b60006001600160a01b038216610c4e5760405162461bcd60e51b815260206004820152600c60248201527f5a45524f5f4144445245535300000000000000000000000000000000000000006044820152606401610742565b506001600160a01b031660009081526004602052604090205490565b6000546060906001600160a01b03163314610cb1576040517f2f2d36a700000000000000000000000000000000000000000000000000000000815260040160405180910390fd5b610cba87611276565b610cf8575060408051808201909152600281527f30780000000000000000000000000000000000000000000000000000000000006020820152610963565b7f00000000000000000000000000000000000000000000000000000000000000006001600160a01b0390811690891614610d5e576040517ff512dd5800000000000000000000000000000000000000000000000000000000815260040160405180910390fd5b6000610d6c85870187612950565b509050600080610d866001600160a01b038c1684306118c2565b505060408051600b9290920b60208301528181019290925281518082038301815260609091019091529b9a5050505050505050505050565b600280546106309061297e565b3360008181526006602090815260408083206001600160a01b0387168085529083529281902080547fffffffffffffffffffffffffffffffffffffffffffffffffffffffffffffff001686151590811790915590519081529192917f17307eab39ab6107e8899845ad3d59bd9653f200f220920489ca2b5937696c31910160405180910390a35050565b80600a8381548110610e6957610e69612b18565b6000918252602090912001555050565b6000818152600360205260408120546001600160a01b0316610f035760405162461bcd60e51b815260206004820152602960248201527f45564f3a20746f6b656e55524920717565727920666f72206e6f6e657869737460448201527f656e7420746f6b656e00000000000000000000000000000000000000000000006064820152608401610742565b6000610f0e8361197d565b600a54909150600090610f2390600190612b44565b90505b8015610f6957600a8181548110610f3f57610f3f612b18565b90600052602060002001548210610f57579392505050565b80610f6181612b57565b915050610f26565b5060009392505050565b610f7c8561143a565b610f898585858585611a4a565b5050505050565b6000818152600360205260409020546060906001600160a01b031661101d5760405162461bcd60e51b815260206004820152602960248201527f45564f3a20746f6b656e55524920717565727920666f72206e6f6e657869737460448201527f656e7420746f6b656e00000000000000000000000000000000000000000000006064820152608401610742565b600061102883610e79565b9050600061103584610b73565b9050600061106d6001600160a01b037f0000000000000000000000000000000000000000000000000000000000000000168330611b69565b9050600081600b0b131561111c57600083815260096020526040902080546110949061297e565b80601f01602080910402602001604051908101604052809291908181526020018280546110c09061297e565b801561110d5780601f106110e25761010080835404028352916020019161110d565b820191906000526020600020905b8154815290600101906020018083116110f057829003601f168201915b50505050509350505050919050565b6000805260096020527fec8156718a8372b1db44bb411437d0870f3e3790d4a08526d024ce1b0b668f6b80546110949061297e565b6000546060906001600160a01b03163314611198576040517f2f2d36a700000000000000000000000000000000000000000000000000000000815260040160405180910390fd5b6111a189611276565b6111e45782828080601f01602080910402602001604051908101604052809392919081815260200183838082843760009201919091525092935061090d92505050565b7f00000000000000000000000000000000000000000000000000000000000000006001600160a01b03908116908b161461124a576040517ff512dd5800000000000000000000000000000000000000000000000000000000815260040160405180910390fd5b600061125887890189612950565b5090506112678b828686611c1a565b9b9a5050505050505050505050565b600080546040517fb6d200de0000000000000000000000000000000000000000000000000000000081527fa9214cc96615e0085d3bb077758db69497dc2dce3b2b1e97bc93c3d18d83efd360048201526001600160a01b039091169063b6d200de90602401602060405180830381865afa1580156112f8573d6000803e3d6000fd5b505050506040513d601f19601f8201168201806040525081019061131c9190612b6e565b6001600160a01b0316826001600160a01b0316149050919050565b606082828080601f0160208091040260200160405190810160405280939291908181526020018383808284376000920182905250939450611386925050506001600160a01b0389168830611b69565b600754909150600b90810b9082900b13156114095760405162461bcd60e51b815260206004820152603160248201527f45564f3a20757365722063616e27742073747265616d20696e206d6f7265207460448201527f68616e206d6178496e466c6f77526174650000000000000000000000000000006064820152608401610742565b6114138787611d89565b506001600160a01b0390951660009081526008602052604090204290555092949350505050565b6001600160a01b03811660009081526008602052604081205490036114a15760405162461bcd60e51b815260206004820152601460248201527f45564f3a207573657220686173206e6f204e46540000000000000000000000006044820152606401610742565b60006114d76001600160a01b037f0000000000000000000000000000000000000000000000000000000000000000168330611b69565b9050600081600b0b1315611538576114ef8282611d89565b6001600160a01b0380831660009081526008602052604090204290556107d7907f0000000000000000000000000000000000000000000000000000000000000000168330611e6a565b5050565b6000818152600360205260409020546001600160a01b038481169116146115a55760405162461bcd60e51b815260206004820152600a60248201527f57524f4e475f46524f4d000000000000000000000000000000000000000000006044820152606401610742565b6001600160a01b0382166115fb5760405162461bcd60e51b815260206004820152601160248201527f494e56414c49445f524543495049454e540000000000000000000000000000006044820152606401610742565b336001600160a01b038416148061163557506001600160a01b038316600090815260066020908152604080832033845290915290205460ff165b8061165657506000818152600560205260409020546001600160a01b031633145b6116a25760405162461bcd60e51b815260206004820152600e60248201527f4e4f545f415554484f52495a45440000000000000000000000000000000000006044820152606401610742565b6001600160a01b0380841660008181526004602090815260408083208054600019019055938616808352848320805460010190558583526003825284832080547fffffffffffffffffffffffff00000000000000000000000000000000000000009081168317909155600590925284832080549092169091559251849392917fddf252ad1be2c89b69c2b068fc378daa952ba7f163c4a11628f55a4df523b3ef91a4505050565b61175483838361091a565b6001600160a01b0382163b158061182e57506040517f150b7a02000000000000000000000000000000000000000000000000000000008082523360048301526001600160a01b03858116602484015260448301849052608060648401526000608484015290919084169063150b7a029060a4016020604051808303816000875af11580156117e6573d6000803e3d6000fd5b505050506040513d601f19601f8201168201806040525081019061180a9190612b8b565b7fffffffff0000000000000000000000000000000000000000000000000000000016145b6107d75760405162461bcd60e51b815260206004820152601060248201527f554e534146455f524543495049454e54000000000000000000000000000000006044820152606401610742565b606082828080601f0160208091040260200160405190810160405280939291908181526020018383808284376000920191909152509293506109639250899150879050611d89565b60008060008060006118d388611fcc565b6040517fe6a1e8880000000000000000000000000000000000000000000000000000000081526001600160a01b038b811660048301528a811660248301528981166044830152919350908316915063e6a1e88890606401608060405180830381865afa158015611947573d6000803e3d6000fd5b505050506040513d601f19601f8201168201806040525081019061196b9190612ba8565b929b919a509850909650945050505050565b6000806119bd61198c84610b73565b6001600160a01b037f0000000000000000000000000000000000000000000000000000000000000000169030611b69565b9050600860006119cc85610b73565b6001600160a01b031681526020810191909152604001600020546119f09042612b44565b611a08906bffffffffffffffffffffffff8316612be6565b60086000611a1586610b73565b6001600160a01b03166001600160a01b0316815260200190815260200160002060010154611a439190612bfd565b9392505050565b611a5585858561091a565b6001600160a01b0384163b1580611b1d57506040517f150b7a0200000000000000000000000000000000000000000000000000000000808252906001600160a01b0386169063150b7a0290611ab69033908a90899089908990600401612c10565b6020604051808303816000875af1158015611ad5573d6000803e3d6000fd5b505050506040513d601f19601f82011682018060405250810190611af99190612b8b565b7fffffffff0000000000000000000000000000000000000000000000000000000016145b610f895760405162461bcd60e51b815260206004820152601060248201527f554e534146455f524543495049454e54000000000000000000000000000000006044820152606401610742565b600080611b7585611fcc565b6040517fe6a1e8880000000000000000000000000000000000000000000000000000000081526001600160a01b03888116600483015287811660248301528681166044830152919350908316915063e6a1e88890606401608060405180830381865afa158015611be9573d6000803e3d6000fd5b505050506040513d601f19601f82011682018060405250810190611c0d9190612ba8565b5090979650505050505050565b606082828080601f016020809104026020016040519081016040528093929190818152602001838380828437600092019190915250929350611c619250869150610bf69050565b15611cae5760405162461bcd60e51b815260206004820152601960248201527f45564f3a207573657220616c726561647920686173204e4654000000000000006044820152606401610742565b6000611cc46001600160a01b0387168630611b69565b600754909150600b90810b9082900b1315611d475760405162461bcd60e51b815260206004820152603160248201527f45564f3a20757365722063616e27742073747265616d20696e206d6f7265207460448201527f68616e206d6178496e466c6f77526174650000000000000000000000000000006064820152608401610742565b6001600160a01b0385166000908152600860205260408120429055600b8054611d8092889291611d7690612c64565b9182905550612166565b50949350505050565b6001600160a01b0382166000908152600860205260408120549003611df05760405162461bcd60e51b815260206004820152601460248201527f45564f3a207573657220686173206e6f204e46540000000000000000000000006044820152606401610742565b6001600160a01b038216600090815260086020526040812054611e139042612b44565b6001600160a01b0384166000908152600860205260408120559050611e46816bffffffffffffffffffffffff8416612be6565b6001600160a01b039093166000908152600860205260409020600101929092555050565b6000806000611e78866122a4565b91509150816001600160a01b03166339255d5b82836001600160a01b031663b4b333c68a8a8a600067ffffffffffffffff811115611eb857611eb8612573565b6040519080825280601f01601f191660200182016040528015611ee2576020820181803683370190505b50604051602401611ef69493929190612c7e565b60408051601f19818403018152918152602080830180517bffffffffffffffffffffffffffffffffffffffffffffffffffffffff1660e095861b179052815160008152908101918290529286901b7fffffffff00000000000000000000000000000000000000000000000000000000169052611f789392509060248101612cbc565b6000604051808303816000875af1158015611f97573d6000803e3d6000fd5b505050506040513d6000823e601f3d908101601f19168201604052611fbf9190810190612cf0565b5060019695505050505050565b7f65599bf746e17a00ea62e3610586992d88101b78eec3cf380706621fb97ea837547fb969d79d88acd02d04ed7ee7d43b949e7daf093d363abcfbbc43dfdfd1ce969a546001600160a01b038116612135576001600160a01b03821661209157826001600160a01b03166320bc44256040518163ffffffff1660e01b8152600401602060405180830381865afa15801561206a573d6000803e3d6000fd5b505050506040513d601f19601f8201168201806040525081019061208e9190612b6e565b91505b6040517fb6d200de0000000000000000000000000000000000000000000000000000000081527fa9214cc96615e0085d3bb077758db69497dc2dce3b2b1e97bc93c3d18d83efd360048201526001600160a01b0383169063b6d200de90602401602060405180830381865afa15801561210e573d6000803e3d6000fd5b505050506040513d601f19601f820116820180604052508101906121329190612b6e565b90505b6001600160a01b03821661214b5761214b612d67565b6001600160a01b03811661216157612161612d67565b915091565b6001600160a01b0382166121bc5760405162461bcd60e51b815260206004820152601160248201527f494e56414c49445f524543495049454e540000000000000000000000000000006044820152606401610742565b6000818152600360205260409020546001600160a01b0316156122215760405162461bcd60e51b815260206004820152600e60248201527f414c52454144595f4d494e5445440000000000000000000000000000000000006044820152606401610742565b6001600160a01b038216600081815260046020908152604080832080546001019055848352600390915280822080547fffffffffffffffffffffffff0000000000000000000000000000000000000000168417905551839291907fddf252ad1be2c89b69c2b068fc378daa952ba7f163c4a11628f55a4df523b3ef908290a45050565b7f65599bf746e17a00ea62e3610586992d88101b78eec3cf380706621fb97ea837547fb969d79d88acd02d04ed7ee7d43b949e7daf093d363abcfbbc43dfdfd1ce969a546001600160a01b038116612135576001600160a01b03821661236957826001600160a01b03166320bc44256040518163ffffffff1660e01b8152600401602060405180830381865afa158015612342573d6000803e3d6000fd5b505050506040513d601f19601f820116820180604052508101906123669190612b6e565b91505b6040517fb6d200de0000000000000000000000000000000000000000000000000000000081527fa9214cc96615e0085d3bb077758db69497dc2dce3b2b1e97bc93c3d18d83efd360048201526001600160a01b0383169063b6d200de90602401602060405180830381865afa1580156123e6573d6000803e3d6000fd5b505050506040513d601f19601f8201168201806040525081019061240a9190612b6e565b9050817f65599bf746e17a00ea62e3610586992d88101b78eec3cf380706621fb97ea83755807fb969d79d88acd02d04ed7ee7d43b949e7daf093d363abcfbbc43dfdfd1ce969a556001600160a01b03821661214b5761214b612d67565b7fffffffff000000000000000000000000000000000000000000000000000000008116811461249657600080fd5b50565b6000602082840312156124ab57600080fd5b8135611a4381612468565b6000602082840312156124c857600080fd5b5035919050565b60005b838110156124ea5781810151838201526020016124d2565b50506000910152565b6000815180845261250b8160208601602086016124cf565b601f01601f19169290920160200192915050565b602081526000611a4360208301846124f3565b6001600160a01b038116811461249657600080fd5b6000806040838503121561255a57600080fd5b823561256581612532565b946020939093013593505050565b634e487b7160e01b600052604160045260246000fd5b604051601f8201601f1916810167ffffffffffffffff811182821017156125b2576125b2612573565b604052919050565b600067ffffffffffffffff8211156125d4576125d4612573565b50601f01601f191660200190565b600080604083850312156125f557600080fd5b82359150602083013567ffffffffffffffff81111561261357600080fd5b8301601f8101851361262457600080fd5b8035612637612632826125ba565b612589565b81815286602083850101111561264c57600080fd5b816020840160208301376000602083830101528093505050509250929050565b60006020828403121561267e57600080fd5b8135611a4381612532565b60008083601f84011261269b57600080fd5b50813567ffffffffffffffff8111156126b357600080fd5b6020830191508360208285010111156126cb57600080fd5b9250929050565b600080600080600080600080600060c08a8c0312156126f057600080fd5b89356126fb81612532565b985060208a013561270b81612532565b975060408a0135965060608a013567ffffffffffffffff8082111561272f57600080fd5b61273b8d838e01612689565b909850965060808c013591508082111561275457600080fd5b6127608d838e01612689565b909650945060a08c013591508082111561277957600080fd5b506127868c828d01612689565b915080935050809150509295985092959850929598565b6000806000606084860312156127b257600080fd5b83356127bd81612532565b925060208401356127cd81612532565b929592945050506040919091013590565b600080600080600080600060a0888a0312156127f957600080fd5b873561280481612532565b9650602088013561281481612532565b955060408801359450606088013567ffffffffffffffff8082111561283857600080fd5b6128448b838c01612689565b909650945060808a013591508082111561285d57600080fd5b5061286a8a828b01612689565b989b979a50959850939692959293505050565b6000806040838503121561289057600080fd5b823561289b81612532565b9150602083013580151581146128b057600080fd5b809150509250929050565b600080604083850312156128ce57600080fd5b50508035926020909101359150565b6000806000806000608086880312156128f557600080fd5b853561290081612532565b9450602086013561291081612532565b935060408601359250606086013567ffffffffffffffff81111561293357600080fd5b61293f88828901612689565b969995985093965092949392505050565b6000806040838503121561296357600080fd5b823561296e81612532565b915060208301356128b081612532565b600181811c9082168061299257607f821691505b6020821081036129b257634e487b7160e01b600052602260045260246000fd5b50919050565b601f8211156107d757600081815260208120601f850160051c810160208610156129df5750805b601f850160051c820191505b818110156129fe578281556001016129eb565b505050505050565b815167ffffffffffffffff811115612a2057612a20612573565b612a3481612a2e845461297e565b846129b8565b602080601f831160018114612a695760008415612a515750858301515b600019600386901b1c1916600185901b1785556129fe565b600085815260208120601f198616915b82811015612a9857888601518255948401946001909101908401612a79565b5085821015612ab65787850151600019600388901b60f8161c191681555b5050505050600190811b01905550565b80600b0b811461249657600080fd5b60008060408385031215612ae857600080fd5b823561256581612ac6565b60008060408385031215612b0657600080fd5b8235915060208301356128b081612ac6565b634e487b7160e01b600052603260045260246000fd5b634e487b7160e01b600052601160045260246000fd5b818103818111156105fc576105fc612b2e565b600081612b6657612b66612b2e565b506000190190565b600060208284031215612b8057600080fd5b8151611a4381612532565b600060208284031215612b9d57600080fd5b8151611a4381612468565b60008060008060808587031215612bbe57600080fd5b845193506020850151612bd081612ac6565b6040860151606090960151949790965092505050565b80820281158282048414176105fc576105fc612b2e565b808201808211156105fc576105fc612b2e565b60006001600160a01b03808816835280871660208401525084604083015260806060830152826080830152828460a0840137600060a0848401015260a0601f19601f85011683010190509695505050505050565b60006000198203612c7757612c77612b2e565b5060010190565b60006001600160a01b038087168352808616602084015280851660408401525060806060830152612cb260808301846124f3565b9695505050505050565b6001600160a01b0384168152606060208201526000612cde60608301856124f3565b8281036040840152612cb281856124f3565b600060208284031215612d0257600080fd5b815167ffffffffffffffff811115612d1957600080fd5b8201601f81018413612d2a57600080fd5b8051612d38612632826125ba565b818152856020838501011115612d4d57600080fd5b612d5e8260208301602086016124cf565b95945050505050565b634e487b7160e01b600052600160045260246000fdfea2646970667358221220ad1daf0390f3fe83c727180fe85f6064fc23a718594121a385e6ac3f0a1d634664736f6c63430008130033","linkReferences":{}},"methodIdentifiers":{"CFAV1_TYPE()":"bcb4546f","afterAgreementCreated(address,address,bytes32,bytes,bytes,bytes)":"d86ed3e5","afterAgreementTerminated(address,address,bytes32,bytes,bytes,bytes)":"53c11f99","afterAgreementUpdated(address,address,bytes32,bytes,bytes,bytes)":"230dbd29","approve(address,uint256)":"095ea7b3","balanceOf(address)":"70a08231","beforeAgreementCreated(address,address,bytes32,bytes,bytes)":"30d9c915","beforeAgreementTerminated(address,address,bytes32,bytes,bytes)":"5f9e7d77","beforeAgreementUpdated(address,address,bytes32,bytes,bytes)":"884d1f40","counter()":"61bc221a","getApproved(uint256)":"081812fc","getTierLevel(uint256)":"b7713b7c","host()":"f437bc59","inResourceToken()":"2d5684a7","isAcceptedSuperToken(address)":"72ca8a3e","isApprovedForAll(address,address)":"e985e9c5","maxInFlowRate()":"0fc82459","name()":"06fdde03","ownerOf(uint256)":"6352211e","safeTransferFrom(address,address,uint256)":"42842e0e","safeTransferFrom(address,address,uint256,bytes)":"b88d4fde","setApprovalForAll(address,bool)":"a22cb465","setTier(uint256,uint256)":"a34e5990","setTokenURI(uint256,string)":"162094c4","supportsInterface(bytes4)":"01ffc9a7","symbol()":"95d89b41","tiers(uint256)":"039af9eb","tokenURI(uint256)":"c87b56dd","tokenURIs(uint256)":"6c8b703f","transferFrom(address,address,uint256)":"23b872dd","userInfo(address)":"1959a002"},"id":160}