{"abi":[{"type":"function","name":"increment","inputs":[],"outputs":[{"name":"","type":"uint32","internalType":"uint32"}],"stateMutability":"nonpayable"},{"type":"error","name":"Slice_OutOfBounds","inputs":[{"name":"data","type":"bytes","internalType":"bytes"},{"name":"start","type":"uint256","internalType":"uint256"},{"name":"end","type":"uint256","internalType":"uint256"}]},{"type":"error","name":"StoreCore_InvalidDataLength","inputs":[{"name":"expected","type":"uint256","internalType":"uint256"},{"name":"received","type":"uint256","internalType":"uint256"}]},{"type":"error","name":"StoreCore_TableNotFound","inputs":[{"name":"tableId","type":"bytes32","internalType":"bytes32"},{"name":"tableIdString","type":"string","internalType":"string"}]}],"bytecode":{"object":"0x608060405234801561001057600080fd5b50611491806100206000396000f3fe608060405234801561001057600080fd5b506004361061002b5760003560e01c8063d09de08a14610030575b600080fd5b610038610051565b60405163ffffffff909116815260200160405180910390f35b60008061005c61007c565b9050600061006b82600161109e565b9050610076816100ee565b92915050565b6040805160008082526020820183529181018290527f436f756e746572000000000000000000000000000000000000000000000000006050820152816100e0606083015b6040516020818303038152906040526100d8906110d8565b836000610194565b6020015160e01c9392505050565b604080516000808252602082018352818301527f436f756e746572000000000000000000000000000000000000000000000000006050820152815180820383018152606082019092529061019090610145906110d8565b6040517fffffffff0000000000000000000000000000000000000000000000000000000060e086901b1660208201528390600090602401604051602081830303815290604052610241565b5050565b606061019e6102da565b156101b5576101ae848484610358565b905061023a565b6040517fd03edb8c000000000000000000000000000000000000000000000000000000008152339063d03edb8c906101f59087908790879060040161113a565b600060405180830381865afa158015610212573d6000803e3d6000fd5b505050506040513d6000823e601f3d908101601f191682016040526101ae919081019061118a565b9392505050565b6102496102da565b1561025f5761025a8484848461037c565b6102d4565b6040517f114a7266000000000000000000000000000000000000000000000000000000008152339063114a7266906102a1908790879087908790600401611263565b600060405180830381600087803b1580156102bb57600080fd5b505af11580156102cf573d6000803e3d6000fd5b505050505b50505050565b6000303b8082036102ed57600191505090565b3073ffffffffffffffffffffffffffffffffffffffff1663a5c2f0076040518163ffffffff1660e01b815260040160006040518083038186803b15801561033357600080fd5b505afa925050508015610344575060015b61035057600091505090565b600191505090565b606060006103658561056c565b9050610373858585846105ca565b95945050505050565b60006103878561056c565b90507fd01f9f1368f831528fc9fe6442366b2b7d957fbfff3bcf7c24d9ab5fe51f8c46858585856040516103be9493929190611263565b60405180910390a160006103d186610605565b905060005b81518110156104825760008282815181106103f3576103f3611297565b602002602001015190508073ffffffffffffffffffffffffffffffffffffffff1663469b7ee2898989896040518563ffffffff1660e01b815260040161043c9493929190611263565b600060405180830381600087803b15801561045657600080fd5b505af115801561046a573d6000803e3d6000fd5b5050505050808061047a906112ad565b9150506103d6565b5060ff60e883901c811690851610156104a7576104a286868487876106c4565b6104b4565b6104b4868684878761076f565b60005b81518110156105635760008282815181106104d4576104d4611297565b602002602001015190508073ffffffffffffffffffffffffffffffffffffffff16636b3d7d5f898989896040518563ffffffff1660e01b815260040161051d9493929190611263565b600060405180830381600087803b15801561053757600080fd5b505af115801561054b573d6000803e3d6000fd5b5050505050808061055b906112ad565b9150506104b7565b50505050505050565b6000610577826107aa565b9050806105c557816105888361086f565b6040517fd623a70d0000000000000000000000000000000000000000000000000000000081526004016105bc9291906112c7565b60405180910390fd5b919050565b606060ff60e883901c811690841610156105f1576105ea8585858561089a565b90506105fd565b6105ea858585856108fa565b949350505050565b6040805160018082528183019092526060916000919060208083019080368337019050509050828160008151811061063f5761063f611297565b602090810291909101810191909152604080517f6d756473746f7265000000000000000000000000000000000000000000000000928101929092527f486f6f6b7300000000000000000000000000000000000000000000000000000060308301526000916106ad91016100c0565b90506105fd6106bf8260008451610951565b6109e1565b60006106d38460ff85166109f2565b905081516106f18260c58111156106ec576106ec6112e0565b610a1e565b146107485761070b8160c58111156106ec576106ec6112e0565b82516040517f521b3d33000000000000000000000000000000000000000000000000000000008152600481019290925260248201526044016105bc565b60006107548787610acf565b905060006107628686610b25565b90506102cf828286610b79565b600061078260ff60e886901c16846112f6565b90506107918686838551610b8e565b600061079e878784610bc0565b90506105638184610c19565b6040805160018082528183019092526000918291906020808301908036833701905050905082816000815181106107e3576107e3611297565b602090810291909101810191909152604080517f6d756473746f7265000000000000000000000000000000000000000000000000818401527f736368656d610000000000000000000000000000000000000000000000000000603082015281518082039093018352810190526000906108659061085f906110d8565b83610acf565b90506105fd815490565b60608160405160200161088491815260200190565b6040516020818303038152906040529050919050565b606060006108ab8360ff86166109f2565b905060006108c48260c58111156106ec576106ec6112e0565b905060006108d28888610acf565b905060006108e08688610b25565b90506108ed828483610c25565b9998505050505050505050565b6060600061090f60ff60e885901c16856112f6565b9050600061091e878784610bc0565b905060006109398360ff166109338a8a610c7d565b90610c8a565b90506109458282610cbc565b98975050505050505050565b6000818311158015610964575083518211155b6109a0578383836040517f23230fa30000000000000000000000000000000000000000000000000000000081526004016105bc9392919061130f565b602084016109ae8482611334565b905060006109bc8585611347565b6fffffffffffffffffffffffffffffffff1660809290921b9190911795945050505050565b6060600061023a8360146000610cca565b6000610a0a83610a03846004611334565b6008021b90565b60f81c60c581111561023a5761023a6112e0565b6000808260c5811115610a3357610a336112e0565b60ff1690506020811015610a4c5761023a816001611334565b6040811015610a6c576020610a62826001611334565b61023a9190611347565b6060811015610a82576040610a62826001611334565b60608360c5811115610a9657610a966112e0565b03610aa45750600192915050565b60618360c5811115610ab857610ab86112e0565b03610ac65750601492915050565b50600092915050565b60007f86425bff6b57326c7859e89024fe4f238ca327a1ae4a230180dd2f0e88aaa7d98383604051602001610b069392919061135a565b60408051601f1981840301815291905280516020909101209392505050565b600080805b8360ff16811015610b7157610b53610b4286836109f2565b60c58111156106ec576106ec6112e0565b610b5d9083611334565b915080610b69816112ad565b915050610b2a565b509392505050565b60006020820190506102d48484838551610e0d565b6000610b9a8585610ecb565b90506000610ba6825490565b9050610bb68160ff861685610f02565b9091555050505050565b60007f86425bff6b57326c7859e89024fe4f238ca327a1ae4a230180dd2f0e88aaa7d9848484604051602001610bf99493929190611379565b60408051601f198184030181529190528051602090910120949350505050565b61019082600083610b79565b60608267ffffffffffffffff811115610c4057610c406110c2565b6040519080825280601f01601f191660200182016040528015610c6a576020820181803683370190505b50905060208101610b7185858584610fd3565b6000806108658484610ecb565b600080610c988360056113ac565b610ca3906007611334565b9050610cb184826008021b90565b60d81c949350505050565b606061023a83836000610c25565b60606000610cd88560801c90565b90506fffffffffffffffffffffffffffffffff8516600084610d1057610cff8660086113ac565b610d0b90610100611347565b610d13565b60005b90506000868381610d2657610d266113c3565b049050610d3387846113d9565b15610dc0576040517f08c379a000000000000000000000000000000000000000000000000000000000815260206004820152603d60248201527f756e7061636b546f41727261793a207061636b65644c656e677468206d75737460448201527f2062652061206d756c7469706c65206f6620656c656d656e7453697a6500000060648201526084016105bc565b602080820201604051955080860160405250808552600060208601855b83831015610dff578051851c8252600192909201916020909101908901610ddd565b505050505050509392505050565b602083048401935060208381610e2557610e256113c3565b0692508215610e7e5760208390036000600019600884021c1990506008850281811c91508451811c9050811987541682821617875550818311610e695750506102d4565b610e74600187611334565b9550509182019190035b60208110610ea75781518455610e95600185611334565b935060209190910190601f1901610e7e565b80156102d4576000600019600883021c198554845182169119161785555050505050565b60007f86425bff6b57326c7859e89024fe4f238ca327a1ae4a230180dd2f0e88aaa7d98383604051602001610b06939291906113fb565b60008381610f108260c81c90565b90506000610f21878760ff16610c8a565b9050808510610f4557610f348186611347565b610f3e9083611334565b9150610f5c565b610f4f8582611347565b610f599083611347565b91505b6000610f698760056113ac565b610f74906007611334565b905078ffffffffffffffffffffffffffffffffffffffffffffffffff841660c884901b1793507fffffffffff0000000000000000000000000000000000000000000000000000006008820290811c19851660d888901b90911c17610945565b602082048401935060208281610feb57610feb6113c3565b069150811561103c5760208290036000600019600883021c1990508554600885021b8119845116828216178452508185116110275750506102d4565b611032600187611334565b9550509283900392015b602083106110645783548152611053600185611334565b9350601f199092019160200161103c565b82156102d4576000600019600885021c198251865482169119161782525050505050565b634e487b7160e01b600052601160045260246000fd5b63ffffffff8181168382160190808211156110bb576110bb611088565b5092915050565b634e487b7160e01b600052604160045260246000fd5b805160208083015191908110156110f9576000198160200360031b1b821691505b50919050565b600081518084526020808501945080840160005b8381101561112f57815187529582019590820190600101611113565b509495945050505050565b83815260606020820152600061115360608301856110ff565b905060ff83166040830152949350505050565b60005b83811015611181578181015183820152602001611169565b50506000910152565b60006020828403121561119c57600080fd5b815167ffffffffffffffff808211156111b457600080fd5b818401915084601f8301126111c857600080fd5b8151818111156111da576111da6110c2565b604051601f8201601f19908116603f01168101908382118183101715611202576112026110c2565b8160405282815287602084870101111561121b57600080fd5b61122c836020830160208801611166565b979650505050505050565b6000815180845261124f816020860160208601611166565b601f01601f19169290920160200192915050565b84815260806020820152600061127c60808301866110ff565b60ff85166040840152828103606084015261122c8185611237565b634e487b7160e01b600052603260045260246000fd5b600060001982036112c0576112c0611088565b5060010190565b8281526040602082015260006105fd6040830184611237565b634e487b7160e01b600052602160045260246000fd5b60ff828116828216039081111561007657610076611088565b6060815260006113226060830186611237565b60208301949094525060400152919050565b8082018082111561007657610076611088565b8181038181111561007657610076611088565b83815282602082015260606040820152600061037360608301846110ff565b84815283602082015260806040820152600061139860808301856110ff565b905060ff8316606083015295945050505050565b808202811582820484141761007657610076611088565b634e487b7160e01b600052601260045260246000fd5b6000826113f657634e487b7160e01b600052601260045260246000fd5b500690565b83815282602082015260806040820152600061141a60808301846110ff565b8281036060840152600681527f6c656e677468000000000000000000000000000000000000000000000000000060208201526040810191505094935050505056fea26469706673582212206606178b4d8defa373416f2e9aaa4f701b88438de19a9e291a05d4cedc00619e64736f6c63430008130033","linkReferences":{}},"methodIdentifiers":{"increment()":"d09de08a"},"id":164}