{"abi":[{"type":"function","name":"authorizeAppFactory","inputs":[{"name":"host","type":"address","internalType":"contract ISuperfluid"},{"name":"factory","type":"address","internalType":"address"}],"outputs":[],"stateMutability":"nonpayable"},{"type":"function","name":"batchUpdateSuperTokenLogic","inputs":[{"name":"host","type":"address","internalType":"contract ISuperfluid"},{"name":"tokens","type":"address[]","internalType":"contract ISuperToken[]"}],"outputs":[],"stateMutability":"nonpayable"},{"type":"function","name":"batchUpdateSuperTokenMinimumDeposit","inputs":[{"name":"host","type":"address","internalType":"contract ISuperfluid"},{"name":"tokens","type":"address[]","internalType":"contract ISuperToken[]"},{"name":"minimumDeposits","type":"uint256[]","internalType":"uint256[]"}],"outputs":[],"stateMutability":"nonpayable"},{"type":"function","name":"clearAppRegistrationKey","inputs":[{"name":"host","type":"address","internalType":"contract ISuperfluid"},{"name":"deployer","type":"address","internalType":"address"},{"name":"registrationKey","type":"string","internalType":"string"}],"outputs":[],"stateMutability":"nonpayable"},{"type":"function","name":"clearConfig","inputs":[{"name":"host","type":"address","internalType":"contract ISuperfluid"},{"name":"superToken","type":"address","internalType":"contract ISuperfluidToken"},{"name":"key","type":"bytes32","internalType":"bytes32"}],"outputs":[],"stateMutability":"nonpayable"},{"type":"function","name":"clearPPPConfig","inputs":[{"name":"host","type":"address","internalType":"contract ISuperfluid"},{"name":"superToken","type":"address","internalType":"contract ISuperfluidToken"}],"outputs":[],"stateMutability":"nonpayable"},{"type":"function","name":"clearRewardAddress","inputs":[{"name":"host","type":"address","internalType":"contract ISuperfluid"},{"name":"superToken","type":"address","internalType":"contract ISuperfluidToken"}],"outputs":[],"stateMutability":"nonpayable"},{"type":"function","name":"clearSuperTokenMinimumDeposit","inputs":[{"name":"host","type":"address","internalType":"contract ISuperfluid"},{"name":"superToken","type":"address","internalType":"contract ISuperToken"}],"outputs":[],"stateMutability":"nonpayable"},{"type":"function","name":"disableTrustedForwarder","inputs":[{"name":"host","type":"address","internalType":"contract ISuperfluid"},{"name":"superToken","type":"address","internalType":"contract ISuperfluidToken"},{"name":"forwarder","type":"address","internalType":"address"}],"outputs":[],"stateMutability":"nonpayable"},{"type":"function","name":"enableTrustedForwarder","inputs":[{"name":"host","type":"address","internalType":"contract ISuperfluid"},{"name":"superToken","type":"address","internalType":"contract ISuperfluidToken"},{"name":"forwarder","type":"address","internalType":"address"}],"outputs":[],"stateMutability":"nonpayable"},{"type":"function","name":"getConfigAsAddress","inputs":[{"name":"host","type":"address","internalType":"contract ISuperfluid"},{"name":"superToken","type":"address","internalType":"contract ISuperfluidToken"},{"name":"key","type":"bytes32","internalType":"bytes32"}],"outputs":[{"name":"value","type":"address","internalType":"address"}],"stateMutability":"view"},{"type":"function","name":"getConfigAsUint256","inputs":[{"name":"host","type":"address","internalType":"contract ISuperfluid"},{"name":"superToken","type":"address","internalType":"contract ISuperfluidToken"},{"name":"key","type":"bytes32","internalType":"bytes32"}],"outputs":[{"name":"period","type":"uint256","internalType":"uint256"}],"stateMutability":"view"},{"type":"function","name":"getPPPConfig","inputs":[{"name":"host","type":"address","internalType":"contract ISuperfluid"},{"name":"superToken","type":"address","internalType":"contract ISuperfluidToken"}],"outputs":[{"name":"liquidationPeriod","type":"uint256","internalType":"uint256"},{"name":"patricianPeriod","type":"uint256","internalType":"uint256"}],"stateMutability":"view"},{"type":"function","name":"getRewardAddress","inputs":[{"name":"host","type":"address","internalType":"contract ISuperfluid"},{"name":"superToken","type":"address","internalType":"contract ISuperfluidToken"}],"outputs":[{"name":"","type":"address","internalType":"address"}],"stateMutability":"view"},{"type":"function","name":"getSuperTokenMinimumDeposit","inputs":[{"name":"host","type":"address","internalType":"contract ISuperfluid"},{"name":"superToken","type":"address","internalType":"contract ISuperfluidToken"}],"outputs":[{"name":"value","type":"uint256","internalType":"uint256"}],"stateMutability":"view"},{"type":"function","name":"initialize","inputs":[{"name":"host","type":"address","internalType":"contract ISuperfluid"},{"name":"rewardAddress","type":"address","internalType":"address"},{"name":"liquidationPeriod","type":"uint256","internalType":"uint256"},{"name":"patricianPeriod","type":"uint256","internalType":"uint256"},{"name":"trustedForwarders","type":"address[]","internalType":"address[]"}],"outputs":[],"stateMutability":"nonpayable"},{"type":"function","name":"isAuthorizedAppFactory","inputs":[{"name":"host","type":"address","internalType":"contract ISuperfluid"},{"name":"factory","type":"address","internalType":"address"}],"outputs":[{"name":"","type":"bool","internalType":"bool"}],"stateMutability":"view"},{"type":"function","name":"isTrustedForwarder","inputs":[{"name":"host","type":"address","internalType":"contract ISuperfluid"},{"name":"superToken","type":"address","internalType":"contract ISuperfluidToken"},{"name":"forwarder","type":"address","internalType":"address"}],"outputs":[{"name":"","type":"bool","internalType":"bool"}],"stateMutability":"view"},{"type":"function","name":"owner","inputs":[],"outputs":[{"name":"","type":"address","internalType":"address"}],"stateMutability":"view"},{"type":"function","name":"registerAgreementClass","inputs":[{"name":"host","type":"address","internalType":"contract ISuperfluid"},{"name":"agreementClass","type":"address","internalType":"address"}],"outputs":[],"stateMutability":"nonpayable"},{"type":"function","name":"renounceOwnership","inputs":[],"outputs":[],"stateMutability":"nonpayable"},{"type":"function","name":"replaceGovernance","inputs":[{"name":"host","type":"address","internalType":"contract ISuperfluid"},{"name":"newGov","type":"address","internalType":"address"}],"outputs":[],"stateMutability":"nonpayable"},{"type":"function","name":"setAppRegistrationKey","inputs":[{"name":"host","type":"address","internalType":"contract ISuperfluid"},{"name":"deployer","type":"address","internalType":"address"},{"name":"registrationKey","type":"string","internalType":"string"},{"name":"expirationTs","type":"uint256","internalType":"uint256"}],"outputs":[],"stateMutability":"nonpayable"},{"type":"function","name":"setConfig","inputs":[{"name":"host","type":"address","internalType":"contract ISuperfluid"},{"name":"superToken","type":"address","internalType":"contract ISuperfluidToken"},{"name":"key","type":"bytes32","internalType":"bytes32"},{"name":"value","type":"address","internalType":"address"}],"outputs":[],"stateMutability":"nonpayable"},{"type":"function","name":"setConfig","inputs":[{"name":"host","type":"address","internalType":"contract ISuperfluid"},{"name":"superToken","type":"address","internalType":"contract ISuperfluidToken"},{"name":"key","type":"bytes32","internalType":"bytes32"},{"name":"value","type":"uint256","internalType":"uint256"}],"outputs":[],"stateMutability":"nonpayable"},{"type":"function","name":"setPPPConfig","inputs":[{"name":"host","type":"address","internalType":"contract ISuperfluid"},{"name":"superToken","type":"address","internalType":"contract ISuperfluidToken"},{"name":"liquidationPeriod","type":"uint256","internalType":"uint256"},{"name":"patricianPeriod","type":"uint256","internalType":"uint256"}],"outputs":[],"stateMutability":"nonpayable"},{"type":"function","name":"setRewardAddress","inputs":[{"name":"host","type":"address","internalType":"contract ISuperfluid"},{"name":"superToken","type":"address","internalType":"contract ISuperfluidToken"},{"name":"rewardAddress","type":"address","internalType":"address"}],"outputs":[],"stateMutability":"nonpayable"},{"type":"function","name":"setSuperTokenMinimumDeposit","inputs":[{"name":"host","type":"address","internalType":"contract ISuperfluid"},{"name":"superToken","type":"address","internalType":"contract ISuperfluidToken"},{"name":"value","type":"uint256","internalType":"uint256"}],"outputs":[],"stateMutability":"nonpayable"},{"type":"function","name":"transferOwnership","inputs":[{"name":"newOwner","type":"address","internalType":"address"}],"outputs":[],"stateMutability":"nonpayable"},{"type":"function","name":"unauthorizeAppFactory","inputs":[{"name":"host","type":"address","internalType":"contract ISuperfluid"},{"name":"factory","type":"address","internalType":"address"}],"outputs":[],"stateMutability":"nonpayable"},{"type":"function","name":"updateContracts","inputs":[{"name":"host","type":"address","internalType":"contract ISuperfluid"},{"name":"hostNewLogic","type":"address","internalType":"address"},{"name":"agreementClassNewLogics","type":"address[]","internalType":"address[]"},{"name":"superTokenFactoryNewLogic","type":"address","internalType":"address"}],"outputs":[],"stateMutability":"nonpayable"},{"type":"function","name":"verifyAppRegistrationKey","inputs":[{"name":"host","type":"address","internalType":"contract ISuperfluid"},{"name":"deployer","type":"address","internalType":"address"},{"name":"registrationKey","type":"string","internalType":"string"}],"outputs":[{"name":"validNow","type":"bool","internalType":"bool"},{"name":"expirationTs","type":"uint256","internalType":"uint256"}],"stateMutability":"view"},{"type":"event","name":"AppFactoryAuthorizationChanged","inputs":[{"name":"host","type":"address","indexed":true,"internalType":"contract ISuperfluid"},{"name":"factory","type":"address","indexed":true,"internalType":"address"},{"name":"authorized","type":"bool","indexed":false,"internalType":"bool"}],"anonymous":false},{"type":"event","name":"AppRegistrationKeyChanged","inputs":[{"name":"host","type":"address","indexed":true,"internalType":"contract ISuperfluid"},{"name":"deployer","type":"address","indexed":true,"internalType":"address"},{"name":"appRegistrationKey","type":"string","indexed":false,"internalType":"string"},{"name":"expirationTs","type":"uint256","indexed":false,"internalType":"uint256"}],"anonymous":false},{"type":"event","name":"CFAv1LiquidationPeriodChanged","inputs":[{"name":"host","type":"address","indexed":true,"internalType":"contract ISuperfluid"},{"name":"superToken","type":"address","indexed":true,"internalType":"contract ISuperfluidToken"},{"name":"isKeySet","type":"bool","indexed":false,"internalType":"bool"},{"name":"liquidationPeriod","type":"uint256","indexed":false,"internalType":"uint256"}],"anonymous":false},{"type":"event","name":"ConfigChanged","inputs":[{"name":"host","type":"address","indexed":true,"internalType":"contract ISuperfluid"},{"name":"superToken","type":"address","indexed":true,"internalType":"contract ISuperfluidToken"},{"name":"key","type":"bytes32","indexed":false,"internalType":"bytes32"},{"name":"isKeySet","type":"bool","indexed":false,"internalType":"bool"},{"name":"value","type":"uint256","indexed":false,"internalType":"uint256"}],"anonymous":false},{"type":"event","name":"OwnershipTransferred","inputs":[{"name":"previousOwner","type":"address","indexed":true,"internalType":"address"},{"name":"newOwner","type":"address","indexed":true,"internalType":"address"}],"anonymous":false},{"type":"event","name":"PPPConfigurationChanged","inputs":[{"name":"host","type":"address","indexed":true,"internalType":"contract ISuperfluid"},{"name":"superToken","type":"address","indexed":true,"internalType":"contract ISuperfluidToken"},{"name":"isKeySet","type":"bool","indexed":false,"internalType":"bool"},{"name":"liquidationPeriod","type":"uint256","indexed":false,"internalType":"uint256"},{"name":"patricianPeriod","type":"uint256","indexed":false,"internalType":"uint256"}],"anonymous":false},{"type":"event","name":"RewardAddressChanged","inputs":[{"name":"host","type":"address","indexed":true,"internalType":"contract ISuperfluid"},{"name":"superToken","type":"address","indexed":true,"internalType":"contract ISuperfluidToken"},{"name":"isKeySet","type":"bool","indexed":false,"internalType":"bool"},{"name":"rewardAddress","type":"address","indexed":false,"internalType":"address"}],"anonymous":false},{"type":"event","name":"SuperTokenMinimumDepositChanged","inputs":[{"name":"host","type":"address","indexed":true,"internalType":"contract ISuperfluid"},{"name":"superToken","type":"address","indexed":true,"internalType":"contract ISuperfluidToken"},{"name":"isKeySet","type":"bool","indexed":false,"internalType":"bool"},{"name":"minimumDeposit","type":"uint256","indexed":false,"internalType":"uint256"}],"anonymous":false},{"type":"event","name":"TrustedForwarderChanged","inputs":[{"name":"host","type":"address","indexed":true,"internalType":"contract ISuperfluid"},{"name":"superToken","type":"address","indexed":true,"internalType":"contract ISuperfluidToken"},{"name":"isKeySet","type":"bool","indexed":false,"internalType":"bool"},{"name":"forwarder","type":"address","indexed":false,"internalType":"address"},{"name":"enabled","type":"bool","indexed":false,"internalType":"bool"}],"anonymous":false},{"type":"error","name":"SF_GOV_ARRAYS_NOT_SAME_LENGTH","inputs":[]},{"type":"error","name":"SF_GOV_INVALID_LIQUIDATION_OR_PATRICIAN_PERIOD","inputs":[]},{"type":"error","name":"SF_GOV_MUST_BE_CONTRACT","inputs":[]}],"bytecode":{"object":"0x608060405234801561001057600080fd5b5061001a3361001f565b61006f565b600080546001600160a01b038381166001600160a01b0319831681178455604051919092169283917f8be0079c531659141344cd1fd0a4f28419497f9722a3daafe3b4186f6b6457e09190a35050565b611e428061007e6000396000f3fe608060405234801561001057600080fd5b50600436106101ef5760003560e01c80637f0558e41161010f578063948eda5e116100a2578063e447cc1d11610071578063e447cc1d1461045f578063f047a2d914610472578063f2fde38b14610485578063f79a8e631461049857600080fd5b8063948eda5e14610413578063ab846f1a14610426578063cadf8f8514610439578063d099b6a01461044c57600080fd5b80638abe04e9116100de5780638abe04e9146103b95780638b93b3f5146103dc5780638da5cb5b146103ef5780638ecbd87b1461040057600080fd5b80637f0558e41461036457806380f70cba146103775780638369a0f1146103985780638a7ff2f7146103a657600080fd5b8063427942a411610187578063640b6cc911610156578063640b6cc914610323578063715018a61461033657806378707cb81461033e5780637dce4f811461035157600080fd5b8063427942a4146102c257806344864b25146102d557806345228235146102e85780635a9078181461031057600080fd5b806321964473116101c3578063219644731461027657806325c955c314610289578063325529081461029c57806342148deb146102af57600080fd5b806286d555146101f457806301a06b971461020957806311cf00f11461021c57806319df62ab1461024b575b600080fd5b610207610202366004611781565b6104ab565b005b6102076102173660046117c7565b610591565b61022f61022a3660046118a3565b610615565b6040805192151583526020830191909152015b60405180910390f35b61025e6102593660046117c7565b610645565b6040516001600160a01b039091168152602001610242565b610207610284366004611951565b610679565b6102076102973660046117c7565b61071e565b6102076102aa3660046119d4565b61077a565b6102076102bd366004611a1f565b6107f7565b6102076102d0366004611a74565b6108cb565b6102076102e33660046117c7565b610bc5565b6102fb6102f63660046117c7565b610c49565b60408051928352602083019190915201610242565b61020761031e366004611af1565b610c91565b610207610331366004611b6d565b610d63565b610207610d73565b61020761034c366004611bae565b610d87565b61020761035f3660046119d4565b610d99565b610207610372366004611b6d565b610df9565b61038a610385366004611b6d565b610e6c565b604051908152602001610242565b61025e610385366004611b6d565b61038a6103b43660046117c7565b610edd565b6103cc6103c73660046117c7565b610f0a565b6040519015158152602001610242565b6102076103ea3660046117c7565b610f25565b6000546001600160a01b031661025e565b61020761040e3660046117c7565b610fc1565b6102076104213660046118a3565b611032565b6102076104343660046119d4565b6110a0565b6102076104473660046117c7565b6110fc565b61020761045a366004611c01565b61114d565b61020761046d3660046117c7565b6111ad565b6103cc6104803660046119d4565b61121e565b610207610493366004611c6b565b611239565b6102076104a6366004611781565b6112e8565b80821115806104be575063ffffffff8210155b806104cd575063ffffffff8110155b15610504576040517fe171980a00000000000000000000000000000000000000000000000000000000815260040160405180910390fd5b602082901b811761053785857fe420d96e81cb4a6b2abb2366c4f93312d4e2ae878a7d4b22e73472fdad891f78846112f0565b6040805160018152602081018590529081018390526001600160a01b0380861691908716907f60a59221512cd8cbfb226200f7ba6f20dc4b38a3cf04993d17ea4e56d26aa186906060015b60405180910390a35050505050565b6105bc82827fe420d96e81cb4a6b2abb2366c4f93312d4e2ae878a7d4b22e73472fdad891f786113a3565b60408051600080825260208201819052918101919091526001600160a01b0380831691908416907f60a59221512cd8cbfb226200f7ba6f20dc4b38a3cf04993d17ea4e56d26aa186906060015b60405180910390a35050565b60008060006106248585611464565b9050600061063487600084610e6c565b428110159890975095505050505050565b600061067283837f9f60ae461adf056670e03ae602566409933242392cb06744f5747c9f38b05d09610e6c565b9392505050565b8281146106b2576040517f27743aa600000000000000000000000000000000000000000000000000000000815260040160405180910390fd5b60005b8181101561071657610706868686848181106106d3576106d3611c88565b90506020020160208101906106e89190611c6b565b8585858181106106fa576106fa611c88565b90506020020135610df9565b61070f81611c9e565b90506106b5565b505050505050565b61073282600061072d84611497565b6113a3565b806001600160a01b0316826001600160a01b03167f8bfde939e79b7e6c603d67aa576e5b75a3f370334b14a9b0e5e263190034d31d6000604051610609911515815260200190565b6107a683837f9f60ae461adf056670e03ae602566409933242392cb06744f5747c9f38b05d098461152a565b60408051600181526001600160a01b03838116602083015280851692908616917f14e12f219a4f9023456dc7832e10119ab768b8ccefc8cb79bc6de0419781eeeb91015b60405180910390a3505050565b82610801816115df565b60005b828110156108c457846001600160a01b031663787afde785858481811061082d5761082d611c88565b90506020020160208101906108429190611c6b565b6040517fffffffff0000000000000000000000000000000000000000000000000000000060e084901b1681526001600160a01b039091166004820152602401600060405180830381600087803b15801561089b57600080fd5b505af11580156108af573d6000803e3d6000fd5b50505050806108bd90611c9e565b9050610804565b5050505050565b846108d5816115df565b6001600160a01b038516156109ac576040517f469519540000000000000000000000000000000000000000000000000000000081526001600160a01b038681166004830152871690634695195490602401600060405180830381600087803b15801561094057600080fd5b505af1158015610954573d6000803e3d6000fd5b50505050846001600160a01b0316639903ad386040518163ffffffff1660e01b8152600401600060405180830381600087803b15801561099357600080fd5b505af11580156109a7573d6000803e3d6000fd5b505050505b60005b83811015610ae857866001600160a01b03166306cecba88686848181106109d8576109d8611c88565b90506020020160208101906109ed9190611c6b565b6040517fffffffff0000000000000000000000000000000000000000000000000000000060e084901b1681526001600160a01b039091166004820152602401600060405180830381600087803b158015610a4657600080fd5b505af1158015610a5a573d6000803e3d6000fd5b50505050848482818110610a7057610a70611c88565b9050602002016020810190610a859190611c6b565b6001600160a01b0316639903ad386040518163ffffffff1660e01b8152600401600060405180830381600087803b158015610abf57600080fd5b505af1158015610ad3573d6000803e3d6000fd5b5050505080610ae190611c9e565b90506109af565b506001600160a01b03821615610716576040517f54fbc4930000000000000000000000000000000000000000000000000000000081526001600160a01b0383811660048301528716906354fbc49390602401600060405180830381600087803b158015610b5457600080fd5b505af1158015610b68573d6000803e3d6000fd5b50505050816001600160a01b0316639903ad386040518163ffffffff1660e01b8152600401600060405180830381600087803b158015610ba757600080fd5b505af1925050508015610bb8575060015b1561071657505050505050565b81610bcf816115df565b6040517f7283100c0000000000000000000000000000000000000000000000000000000081526001600160a01b038381166004830152841690637283100c906024015b600060405180830381600087803b158015610c2c57600080fd5b505af1158015610c40573d6000803e3d6000fd5b50505050505050565b6000806000610c7985857fe420d96e81cb4a6b2abb2366c4f93312d4e2ae878a7d4b22e73472fdad891f78610e6c565b63ffffffff602082901c811697911695509350505050565b6001600160a01b038616610ca757610ca7611ce4565b6002546001600160a01b031615610cc057610cc0611ce4565b600280547fffffffffffffffffffffffff0000000000000000000000000000000000000000166001600160a01b038816908117909155610d029060008761077a565b610d0f86600086866104ab565b60005b81811015610c4057600254610d53906001600160a01b03166000858585818110610d3e57610d3e611c88565b90506020020160208101906104349190611c6b565b610d5c81611c9e565b9050610d12565b610d6e8383836113a3565b505050565b610d7b611616565b610d85600061168a565b565b610d938484848461152a565b50505050565b610da7838361072d846116f2565b60408051600181526001600160a01b038381166020830152600092820192909252818416918516907f168da2dec91b2e06e30d49955479383e76f71ba185807a8a5b75e2ed563e1d27906060016107ea565b610e2583837feae305fa863b373417e615b1044222e2806cefc7788d169ce6748a443c3f6cc4846112f0565b6040805160018152602081018390526001600160a01b0380851692908616917fc055c4a3853372c08a98805545379133f00f7261d956b9197729d67f37a82a5391016107ea565b6001600160a01b03808416600090815260016020908152604080832093861683529281528282208483529052908120805460ff16610ed157506001600160a01b0384166000908152600160209081526040808320838052825280832085845290915290205b60010154949350505050565b600061067283837feae305fa863b373417e615b1044222e2806cefc7788d169ce6748a443c3f6cc4610e6c565b6000610f1b83600061038585611497565b6001149392505050565b803b6000819003610f62576040517f80dddd7300000000000000000000000000000000000000000000000000000000815260040160405180910390fd5b50610f79826000610f7284611497565b60016112f0565b806001600160a01b0316826001600160a01b03167f8bfde939e79b7e6c603d67aa576e5b75a3f370334b14a9b0e5e263190034d31d6001604051610609911515815260200190565b610fec82827feae305fa863b373417e615b1044222e2806cefc7788d169ce6748a443c3f6cc46113a3565b60408051600080825260208201526001600160a01b0380841692908516917fc055c4a3853372c08a98805545379133f00f7261d956b9197729d67f37a82a539101610609565b600061103e8383611464565b905061104c846000836113a3565b826001600160a01b0316846001600160a01b03167fa22916b55c84301b9ba61d6494b1860339c075b3518e6db6f496bdf2a13d6ffc846000604051611092929190611d40565b60405180910390a350505050565b6110ae8383610f72846116f2565b6040805160018082526001600160a01b03848116602084015292820152818416918516907f168da2dec91b2e06e30d49955479383e76f71ba185807a8a5b75e2ed563e1d27906060016107ea565b81611106816115df565b6040517f15a024e10000000000000000000000000000000000000000000000000000000081526001600160a01b0383811660048301528416906315a024e190602401610c12565b60006111598484611464565b905061116885600083856112f0565b836001600160a01b0316856001600160a01b03167fa22916b55c84301b9ba61d6494b1860339c075b3518e6db6f496bdf2a13d6ffc8585604051610582929190611d40565b6111d882827f9f60ae461adf056670e03ae602566409933242392cb06744f5747c9f38b05d096113a3565b60408051600080825260208201526001600160a01b0380841692908516917f14e12f219a4f9023456dc7832e10119ab768b8ccefc8cb79bc6de0419781eeeb9101610609565b600061122e8484610385856116f2565b600114949350505050565b611241611616565b6001600160a01b0381166112dc576040517f08c379a000000000000000000000000000000000000000000000000000000000815260206004820152602660248201527f4f776e61626c653a206e6577206f776e657220697320746865207a65726f206160448201527f646472657373000000000000000000000000000000000000000000000000000060648201526084015b60405180910390fd5b6112e58161168a565b50565b610d93848484845b836112fa816115df565b60408051848152600160208201529081018390526001600160a01b0380861691908716907f33afe19ae6902b933890ff48190fabdc4cf7f5ab499be9c4d9d98e3b4562e3909060600160405180910390a350604080518082018252600180825260208083019485526001600160a01b039788166000908152828252848120979098168852958652828720948752939094529093209151825460ff19169015151782559151910155565b826113ad816115df565b826001600160a01b0316846001600160a01b03167f33afe19ae6902b933890ff48190fabdc4cf7f5ab499be9c4d9d98e3b4562e39084600080604051611406939291909283529015156020830152604082015260600190565b60405180910390a350604080518082018252600080825260208083018281526001600160a01b03978816835260018083528584209790981683529581528382209482529390935291209051815460ff19169015151781559051910155565b60008282604051602001611479929190611d62565b60405160208183030381529060405280519060200120905092915050565b6040805160208101829052603960608201527f6f72672e7375706572666c7569642d66696e616e63652e7375706572666c756960808201527f642e61707057686974654c697374696e672e666163746f72790000000000000060a08201526001600160a01b0383169181019190915260009060c0015b604051602081830303815290604052805190602001209050919050565b83611534816115df565b60408051848152600160208201526001600160a01b03848116828401529151868316928816917f33afe19ae6902b933890ff48190fabdc4cf7f5ab499be9c4d9d98e3b4562e390919081900360600190a35060408051808201825260018082526001600160a01b03938416602080840191825297851660009081528289528481209790951685529587528284209484529390955290209251835460ff19169015151783559051910155565b6002546001600160a01b038281169116146115fc576115fc611ce4565b6000546001600160a01b031633146112e5576112e5611ce4565b6000546001600160a01b03163314610d85576040517f08c379a000000000000000000000000000000000000000000000000000000000815260206004820181905260248201527f4f776e61626c653a2063616c6c6572206973206e6f7420746865206f776e657260448201526064016112d3565b600080546001600160a01b038381167fffffffffffffffffffffffff0000000000000000000000000000000000000000831681178455604051919092169283917f8be0079c531659141344cd1fd0a4f28419497f9722a3daafe3b4186f6b6457e09190a35050565b6040805160208101829052603260608201527f6f72672e7375706572666c7569642d66696e616e63652e7375706572666c756960808201527f642e74727573746564466f72776172646572000000000000000000000000000060a08201526001600160a01b0383169181019190915260009060c00161150d565b6001600160a01b03811681146112e557600080fd5b6000806000806080858703121561179757600080fd5b84356117a28161176c565b935060208501356117b28161176c565b93969395505050506040820135916060013590565b600080604083850312156117da57600080fd5b82356117e58161176c565b915060208301356117f58161176c565b809150509250929050565b634e487b7160e01b600052604160045260246000fd5b600082601f83011261182757600080fd5b813567ffffffffffffffff8082111561184257611842611800565b604051601f8301601f19908116603f0116810190828211818310171561186a5761186a611800565b8160405283815286602085880101111561188357600080fd5b836020870160208301376000602085830101528094505050505092915050565b6000806000606084860312156118b857600080fd5b83356118c38161176c565b925060208401356118d38161176c565b9150604084013567ffffffffffffffff8111156118ef57600080fd5b6118fb86828701611816565b9150509250925092565b60008083601f84011261191757600080fd5b50813567ffffffffffffffff81111561192f57600080fd5b6020830191508360208260051b850101111561194a57600080fd5b9250929050565b60008060008060006060868803121561196957600080fd5b85356119748161176c565b9450602086013567ffffffffffffffff8082111561199157600080fd5b61199d89838a01611905565b909650945060408801359150808211156119b657600080fd5b506119c388828901611905565b969995985093965092949392505050565b6000806000606084860312156119e957600080fd5b83356119f48161176c565b92506020840135611a048161176c565b91506040840135611a148161176c565b809150509250925092565b600080600060408486031215611a3457600080fd5b8335611a3f8161176c565b9250602084013567ffffffffffffffff811115611a5b57600080fd5b611a6786828701611905565b9497909650939450505050565b600080600080600060808688031215611a8c57600080fd5b8535611a978161176c565b94506020860135611aa78161176c565b9350604086013567ffffffffffffffff811115611ac357600080fd5b611acf88828901611905565b9094509250506060860135611ae38161176c565b809150509295509295909350565b60008060008060008060a08789031215611b0a57600080fd5b8635611b158161176c565b95506020870135611b258161176c565b94506040870135935060608701359250608087013567ffffffffffffffff811115611b4f57600080fd5b611b5b89828a01611905565b979a9699509497509295939492505050565b600080600060608486031215611b8257600080fd5b8335611b8d8161176c565b92506020840135611b9d8161176c565b929592945050506040919091013590565b60008060008060808587031215611bc457600080fd5b8435611bcf8161176c565b93506020850135611bdf8161176c565b9250604085013591506060850135611bf68161176c565b939692955090935050565b60008060008060808587031215611c1757600080fd5b8435611c228161176c565b93506020850135611c328161176c565b9250604085013567ffffffffffffffff811115611c4e57600080fd5b611c5a87828801611816565b949793965093946060013593505050565b600060208284031215611c7d57600080fd5b81356106728161176c565b634e487b7160e01b600052603260045260246000fd5b60007fffffffffffffffffffffffffffffffffffffffffffffffffffffffffffffffff8203611cdd57634e487b7160e01b600052601160045260246000fd5b5060010190565b634e487b7160e01b600052600160045260246000fd5b6000815180845260005b81811015611d2057602081850181015186830182015201611d04565b506000602082860101526020601f19601f83011685010191505092915050565b604081526000611d536040830185611cfa565b90508260208301529392505050565b60608152604160608201527f6f72672e7375706572666c7569642d66696e616e63652e7375706572666c756960808201527f642e61707057686974654c697374696e672e726567697374726174696f6e4b6560a08201527f790000000000000000000000000000000000000000000000000000000000000060c08201526001600160a01b038316602082015260e060408201526000611e0460e0830184611cfa565b94935050505056fea264697066735822122018532e596a9fd89ab07c6b00ac9721b9829ade4ea07ee0394a4dab77867dc50064736f6c63430008130033","linkReferences":{}},"methodIdentifiers":{"authorizeAppFactory(address,address)":"8b93b3f5","batchUpdateSuperTokenLogic(address,address[])":"42148deb","batchUpdateSuperTokenMinimumDeposit(address,address[],uint256[])":"21964473","clearAppRegistrationKey(address,address,string)":"948eda5e","clearConfig(address,address,bytes32)":"640b6cc9","clearPPPConfig(address,address)":"01a06b97","clearRewardAddress(address,address)":"e447cc1d","clearSuperTokenMinimumDeposit(address,address)":"8ecbd87b","disableTrustedForwarder(address,address,address)":"7dce4f81","enableTrustedForwarder(address,address,address)":"ab846f1a","getConfigAsAddress(address,address,bytes32)":"8369a0f1","getConfigAsUint256(address,address,bytes32)":"80f70cba","getPPPConfig(address,address)":"45228235","getRewardAddress(address,address)":"19df62ab","getSuperTokenMinimumDeposit(address,address)":"8a7ff2f7","initialize(address,address,uint256,uint256,address[])":"5a907818","isAuthorizedAppFactory(address,address)":"8abe04e9","isTrustedForwarder(address,address,address)":"f047a2d9","owner()":"8da5cb5b","registerAgreementClass(address,address)":"cadf8f85","renounceOwnership()":"715018a6","replaceGovernance(address,address)":"44864b25","setAppRegistrationKey(address,address,string,uint256)":"d099b6a0","setConfig(address,address,bytes32,address)":"78707cb8","setConfig(address,address,bytes32,uint256)":"f79a8e63","setPPPConfig(address,address,uint256,uint256)":"0086d555","setRewardAddress(address,address,address)":"32552908","setSuperTokenMinimumDeposit(address,address,uint256)":"7f0558e4","transferOwnership(address)":"f2fde38b","unauthorizeAppFactory(address,address)":"25c955c3","updateContracts(address,address,address[],address)":"427942a4","verifyAppRegistrationKey(address,address,string)":"11cf00f1"},"id":126}