{"abi":[{"type":"constructor","inputs":[{"name":"host","type":"address","internalType":"contract ISuperfluid"},{"name":"constantInflowNFT","type":"address","internalType":"contract IConstantInflowNFT"},{"name":"baseURI","type":"string","internalType":"string"}],"stateMutability":"nonpayable"},{"type":"function","name":"CONSTANT_FLOW_AGREEMENT_V1","inputs":[],"outputs":[{"name":"","type":"address","internalType":"contract IConstantFlowAgreementV1"}],"stateMutability":"view"},{"type":"function","name":"CONSTANT_INFLOW_NFT","inputs":[],"outputs":[{"name":"","type":"address","internalType":"contract IConstantInflowNFT"}],"stateMutability":"view"},{"type":"function","name":"HOST","inputs":[],"outputs":[{"name":"","type":"address","internalType":"contract ISuperfluid"}],"stateMutability":"view"},{"type":"function","name":"approve","inputs":[{"name":"to","type":"address","internalType":"address"},{"name":"tokenId","type":"uint256","internalType":"uint256"}],"outputs":[],"stateMutability":"nonpayable"},{"type":"function","name":"balanceOf","inputs":[{"name":"","type":"address","internalType":"address"}],"outputs":[{"name":"balance","type":"uint256","internalType":"uint256"}],"stateMutability":"pure"},{"type":"function","name":"castrate","inputs":[],"outputs":[],"stateMutability":"nonpayable"},{"type":"function","name":"flowDataByTokenId","inputs":[{"name":"tokenId","type":"uint256","internalType":"uint256"}],"outputs":[{"name":"flowData","type":"tuple","internalType":"struct IFlowNFTBase.FlowNFTData","components":[{"name":"superToken","type":"address","internalType":"address"},{"name":"flowSender","type":"address","internalType":"address"},{"name":"flowReceiver","type":"address","internalType":"address"},{"name":"flowStartDate","type":"uint32","internalType":"uint32"}]}],"stateMutability":"view"},{"type":"function","name":"getApproved","inputs":[{"name":"tokenId","type":"uint256","internalType":"uint256"}],"outputs":[{"name":"","type":"address","internalType":"address"}],"stateMutability":"view"},{"type":"function","name":"getCodeAddress","inputs":[],"outputs":[{"name":"codeAddress","type":"address","internalType":"address"}],"stateMutability":"view"},{"type":"function","name":"getTokenId","inputs":[{"name":"superToken","type":"address","internalType":"address"},{"name":"sender","type":"address","internalType":"address"},{"name":"receiver","type":"address","internalType":"address"}],"outputs":[{"name":"tokenId","type":"uint256","internalType":"uint256"}],"stateMutability":"view"},{"type":"function","name":"initialize","inputs":[{"name":"nftName","type":"string","internalType":"string"},{"name":"nftSymbol","type":"string","internalType":"string"}],"outputs":[],"stateMutability":"nonpayable"},{"type":"function","name":"isApprovedForAll","inputs":[{"name":"owner","type":"address","internalType":"address"},{"name":"operator","type":"address","internalType":"address"}],"outputs":[{"name":"","type":"bool","internalType":"bool"}],"stateMutability":"view"},{"type":"function","name":"name","inputs":[],"outputs":[{"name":"","type":"string","internalType":"string"}],"stateMutability":"view"},{"type":"function","name":"onCreate","inputs":[{"name":"superToken","type":"address","internalType":"contract ISuperfluidToken"},{"name":"flowSender","type":"address","internalType":"address"},{"name":"flowReceiver","type":"address","internalType":"address"}],"outputs":[],"stateMutability":"nonpayable"},{"type":"function","name":"onDelete","inputs":[{"name":"superToken","type":"address","internalType":"contract ISuperfluidToken"},{"name":"flowSender","type":"address","internalType":"address"},{"name":"flowReceiver","type":"address","internalType":"address"}],"outputs":[],"stateMutability":"nonpayable"},{"type":"function","name":"onUpdate","inputs":[{"name":"superToken","type":"address","internalType":"contract ISuperfluidToken"},{"name":"flowSender","type":"address","internalType":"address"},{"name":"flowReceiver","type":"address","internalType":"address"}],"outputs":[],"stateMutability":"nonpayable"},{"type":"function","name":"ownerOf","inputs":[{"name":"tokenId","type":"uint256","internalType":"uint256"}],"outputs":[{"name":"","type":"address","internalType":"address"}],"stateMutability":"view"},{"type":"function","name":"proxiableUUID","inputs":[],"outputs":[{"name":"","type":"bytes32","internalType":"bytes32"}],"stateMutability":"pure"},{"type":"function","name":"safeTransferFrom","inputs":[{"name":"from","type":"address","internalType":"address"},{"name":"to","type":"address","internalType":"address"},{"name":"tokenId","type":"uint256","internalType":"uint256"}],"outputs":[],"stateMutability":"nonpayable"},{"type":"function","name":"safeTransferFrom","inputs":[{"name":"from","type":"address","internalType":"address"},{"name":"to","type":"address","internalType":"address"},{"name":"tokenId","type":"uint256","internalType":"uint256"},{"name":"data","type":"bytes","internalType":"bytes"}],"outputs":[],"stateMutability":"nonpayable"},{"type":"function","name":"setApprovalForAll","inputs":[{"name":"operator","type":"address","internalType":"address"},{"name":"approved","type":"bool","internalType":"bool"}],"outputs":[],"stateMutability":"nonpayable"},{"type":"function","name":"supportsInterface","inputs":[{"name":"interfaceId","type":"bytes4","internalType":"bytes4"}],"outputs":[{"name":"","type":"bool","internalType":"bool"}],"stateMutability":"pure"},{"type":"function","name":"symbol","inputs":[],"outputs":[{"name":"","type":"string","internalType":"string"}],"stateMutability":"view"},{"type":"function","name":"tokenURI","inputs":[{"name":"tokenId","type":"uint256","internalType":"uint256"}],"outputs":[{"name":"","type":"string","internalType":"string"}],"stateMutability":"view"},{"type":"function","name":"transferFrom","inputs":[{"name":"from","type":"address","internalType":"address"},{"name":"to","type":"address","internalType":"address"},{"name":"tokenId","type":"uint256","internalType":"uint256"}],"outputs":[],"stateMutability":"nonpayable"},{"type":"function","name":"triggerMetadataUpdate","inputs":[{"name":"tokenId","type":"uint256","internalType":"uint256"}],"outputs":[],"stateMutability":"nonpayable"},{"type":"function","name":"updateCode","inputs":[{"name":"newAddress","type":"address","internalType":"address"}],"outputs":[],"stateMutability":"nonpayable"},{"type":"event","name":"Approval","inputs":[{"name":"owner","type":"address","indexed":true,"internalType":"address"},{"name":"approved","type":"address","indexed":true,"internalType":"address"},{"name":"tokenId","type":"uint256","indexed":true,"internalType":"uint256"}],"anonymous":false},{"type":"event","name":"ApprovalForAll","inputs":[{"name":"owner","type":"address","indexed":true,"internalType":"address"},{"name":"operator","type":"address","indexed":true,"internalType":"address"},{"name":"approved","type":"bool","indexed":false,"internalType":"bool"}],"anonymous":false},{"type":"event","name":"CodeUpdated","inputs":[{"name":"uuid","type":"bytes32","indexed":false,"internalType":"bytes32"},{"name":"codeAddress","type":"address","indexed":false,"internalType":"address"}],"anonymous":false},{"type":"event","name":"Initialized","inputs":[{"name":"version","type":"uint8","indexed":false,"internalType":"uint8"}],"anonymous":false},{"type":"event","name":"MetadataUpdate","inputs":[{"name":"tokenId","type":"uint256","indexed":false,"internalType":"uint256"}],"anonymous":false},{"type":"event","name":"Transfer","inputs":[{"name":"from","type":"address","indexed":true,"internalType":"address"},{"name":"to","type":"address","indexed":true,"internalType":"address"},{"name":"tokenId","type":"uint256","indexed":true,"internalType":"uint256"}],"anonymous":false},{"type":"error","name":"CFA_NFT_APPROVE_CALLER_NOT_OWNER_OR_APPROVED_FOR_ALL","inputs":[]},{"type":"error","name":"CFA_NFT_APPROVE_TO_CALLER","inputs":[]},{"type":"error","name":"CFA_NFT_APPROVE_TO_CURRENT_OWNER","inputs":[]},{"type":"error","name":"CFA_NFT_INVALID_TOKEN_ID","inputs":[]},{"type":"error","name":"CFA_NFT_ONLY_SUPER_TOKEN_FACTORY","inputs":[]},{"type":"error","name":"CFA_NFT_TRANSFER_CALLER_NOT_OWNER_OR_APPROVED_FOR_ALL","inputs":[]},{"type":"error","name":"CFA_NFT_TRANSFER_FROM_INCORRECT_OWNER","inputs":[]},{"type":"error","name":"CFA_NFT_TRANSFER_IS_NOT_ALLOWED","inputs":[]},{"type":"error","name":"CFA_NFT_TRANSFER_TO_ZERO_ADDRESS","inputs":[]},{"type":"error","name":"COF_NFT_INVALID_SUPER_TOKEN","inputs":[]},{"type":"error","name":"COF_NFT_MINT_TO_AND_FLOW_RECEIVER_SAME","inputs":[]},{"type":"error","name":"COF_NFT_MINT_TO_ZERO_ADDRESS","inputs":[]},{"type":"error","name":"COF_NFT_ONLY_CONSTANT_INFLOW","inputs":[]},{"type":"error","name":"COF_NFT_ONLY_FLOW_AGREEMENTS","inputs":[]},{"type":"error","name":"COF_NFT_TOKEN_ALREADY_EXISTS","inputs":[]}],"bytecode":{"object":"0x60e06040523480156200001157600080fd5b5060405162002d3a38038062002d3a833981016040819052620000349162000127565b6001600160a01b03831660a0819052604051635b69006f60e11b81527fa9214cc96615e0085d3bb077758db69497dc2dce3b2b1e97bc93c3d18d83efd360048201528491839163b6d200de90602401602060405180830381865afa158015620000a1573d6000803e3d6000fd5b505050506040513d601f19601f82011682018060405250810190620000c7919062000227565b6001600160a01b03166080526003620000e18282620002dd565b505050506001600160a01b031660c05250620003a9565b6001600160a01b03811681146200010e57600080fd5b50565b634e487b7160e01b600052604160045260246000fd5b6000806000606084860312156200013d57600080fd5b83516200014a81620000f8565b809350506020808501516200015f81620000f8565b60408601519093506001600160401b03808211156200017d57600080fd5b818701915087601f8301126200019257600080fd5b815181811115620001a757620001a762000111565b604051601f8201601f19908116603f01168101908382118183101715620001d257620001d262000111565b816040528281528a86848701011115620001eb57600080fd5b600093505b828410156200020f5784840186015181850187015292850192620001f0565b60008684830101528096505050505050509250925092565b6000602082840312156200023a57600080fd5b81516200024781620000f8565b9392505050565b600181811c908216806200026357607f821691505b6020821081036200028457634e487b7160e01b600052602260045260246000fd5b50919050565b601f821115620002d857600081815260208120601f850160051c81016020861015620002b35750805b601f850160051c820191505b81811015620002d457828155600101620002bf565b5050505b505050565b81516001600160401b03811115620002f957620002f962000111565b62000311816200030a84546200024e565b846200028a565b602080601f831160018114620003495760008415620003305750858301515b600019600386901b1c1916600185901b178555620002d4565b600085815260208120601f198616915b828110156200037a5788860151825594840194600190910190840162000359565b5085821015620003995787850151600019600388901b60f8161c191681555b5050505050600190811b01905550565b60805160a05160c05161292962000411600039600081816102da01528181610d7e01528181610edc01526110570152600081816102b3015261081401526000818161024001528181610c8d01528181610df401528181610f54015261161901526129296000f3fe608060405234801561001057600080fd5b50600436106101b95760003560e01c806352d1902d116100f9578063a22cb46511610097578063e985e9c511610071578063e985e9c5146104b0578063eb54a7ca146104ec578063ef1f0237146104ff578063f7e3d9831461051257600080fd5b8063a22cb46514610477578063b88d4fde1461048a578063c87b56dd1461049d57600080fd5b806389f71d2d116100d357806389f71d2d1461036e5780638d47859e1461038157806395d89b41146104675780639903ad381461046f57600080fd5b806352d1902d146103175780636352211e1461034757806370a082311461035a57600080fd5b80632f3885601161016657806349f289dc1161014057806349f289dc146102ae5780634c5c0c85146102d55780634cd88b76146102fc57806350d75d251461030f57600080fd5b80632f3885601461027557806342842e0e14610288578063469519541461029b57600080fd5b8063095ea7b311610197578063095ea7b314610226578063181561011461023b57806323b872dd1461026257600080fd5b806301ffc9a7146101be57806306fdde03146101e6578063081812fc146101fb575b600080fd5b6101d16101cc366004611fc9565b610525565b60405190151581526020015b60405180910390f35b6101ee61060a565b6040516101dd919061202f565b61020e610209366004612062565b61069c565b6040516001600160a01b0390911681526020016101dd565b610239610234366004612090565b6106c3565b005b61020e7f000000000000000000000000000000000000000000000000000000000000000081565b6102396102703660046120bc565b61079e565b610239610283366004612062565b6107e9565b6102396102963660046120bc565b6107f5565b6102396102a93660046120fd565b610810565b61020e7f000000000000000000000000000000000000000000000000000000000000000081565b61020e7f000000000000000000000000000000000000000000000000000000000000000081565b61023961030a3660046121e7565b6108e5565b61020e610a1d565b7f87e44dce6a0d65a5ccf441783661f5727c2624b1f0088bbe957ce2c95406b7845b6040519081526020016101dd565b61020e610355366004612062565b610a4c565b6103396103683660046120fd565b50600190565b61033961037c36600461224b565b610a9e565b61042161038f366004612062565b60408051608081018252600080825260208201819052918101829052606081019190915250600090815260166020908152604091829020825160808101845281546001600160a01b03908116825260018301548116938201939093526002909101549182169281019290925274010000000000000000000000000000000000000000900463ffffffff16606082015290565b6040805182516001600160a01b03908116825260208085015182169083015283830151169181019190915260609182015163ffffffff16918101919091526080016101dd565b6101ee610af1565b610239610b00565b610239610485366004612296565b610c18565b6102396104983660046122d4565b610c23565b6101ee6104ab366004612062565b610c75565b6101d16104be366004612354565b6001600160a01b03918216600090815260056020908152604080832093909416825291909152205460ff1690565b6102396104fa36600461224b565b610c82565b61023961050d36600461224b565b610de9565b61023961052036600461224b565b610f49565b60007f01ffc9a7000000000000000000000000000000000000000000000000000000007fffffffff00000000000000000000000000000000000000000000000000000000831614806105b857507f80ac58cd000000000000000000000000000000000000000000000000000000007fffffffff000000000000000000000000000000000000000000000000000000008316145b8061060457507f5b5e139f000000000000000000000000000000000000000000000000000000007fffffffff000000000000000000000000000000000000000000000000000000008316145b92915050565b60606001805461061990612382565b80601f016020809104026020016040519081016040528092919081815260200182805461064590612382565b80156106925780601f1061066757610100808354040283529160200191610692565b820191906000526020600020905b81548152906001019060200180831161067557829003601f168201915b5050505050905090565b60006106a782611086565b506000908152600460205260409020546001600160a01b031690565b60006106ce82610a4c565b9050806001600160a01b0316836001600160a01b03160361071b576040517fe4790b2500000000000000000000000000000000000000000000000000000000815260040160405180910390fd5b336001600160a01b0382161480159061075857506001600160a01b038116600090815260056020908152604080832033845290915290205460ff16155b1561078f576040517fa335258200000000000000000000000000000000000000000000000000000000815260040160405180910390fd5b61079983836110d7565b505050565b6107a83382611159565b6107de576040517f2551d60600000000000000000000000000000000000000000000000000000000815260040160405180910390fd5b6107998383836111d7565b6107f281611209565b50565b61079983838360405180602001604052806000815250610c23565b60007f00000000000000000000000000000000000000000000000000000000000000006001600160a01b031663731aed6e6040518163ffffffff1660e01b8152600401602060405180830381865afa158015610870573d6000803e3d6000fd5b505050506040513d601f19601f8201168201806040525081019061089491906123bc565b9050336001600160a01b038216146108d8576040517febb7505b00000000000000000000000000000000000000000000000000000000815260040160405180910390fd5b6108e182611239565b5050565b600054610100900460ff16158080156109055750600054600160ff909116105b8061091f5750303b15801561091f575060005460ff166001145b6109965760405162461bcd60e51b815260206004820152602e60248201527f496e697469616c697a61626c653a20636f6e747261637420697320616c72656160448201527f647920696e697469616c697a656400000000000000000000000000000000000060648201526084015b60405180910390fd5b6000805460ff1916600117905580156109b9576000805461ff0019166101001790555b60016109c58482612427565b5060026109d28382612427565b508015610799576000805461ff0019169055604051600181527f7f26b83ff96e1f2b6a682f133852f6798a09c465da95921460cefb38474024989060200160405180910390a1505050565b6000610a477f360894a13ba1a3210667c828492db98dca3e2076cc3735a920a3ca505d382bbc5490565b905090565b6000818152601660205260408120600101546001600160a01b031680610604576040517feab95e3b00000000000000000000000000000000000000000000000000000000815260040160405180910390fd5b60408051466020808301919091526001600160a01b0380871683850152808616606084015284166080808401919091528351808403909101815260a090920190925280519101206000905b949350505050565b60606002805461061990612382565b600054610100900460ff1615808015610b205750600054600160ff909116105b80610b3a5750303b158015610b3a575060005460ff166001145b610bac5760405162461bcd60e51b815260206004820152602e60248201527f496e697469616c697a61626c653a20636f6e747261637420697320616c72656160448201527f647920696e697469616c697a6564000000000000000000000000000000000000606482015260840161098d565b6000805460ff191660011790558015610bcf576000805461ff0019166101001790555b80156107f2576000805461ff0019169055604051600181527f7f26b83ff96e1f2b6a682f133852f6798a09c465da95921460cefb3847402498906020015b60405180910390a150565b6108e133838361148d565b610c2d3383611159565b610c63576040517f2551d60600000000000000000000000000000000000000000000000000000000815260040160405180910390fd5b610c6f84848484611545565b50505050565b6060610604826000611550565b336001600160a01b037f00000000000000000000000000000000000000000000000000000000000000001614610ce4576040517fd367b64f00000000000000000000000000000000000000000000000000000000815260040160405180910390fd5b60408051466020808301919091526001600160a01b038681168385015285811660608401528481166080808501919091528451808503909101815260a0909301845282519282019290922060008181526016909252929020600101541615610c6f57610d4f81611209565b6040517f2f388560000000000000000000000000000000000000000000000000000000008152600481018290527f00000000000000000000000000000000000000000000000000000000000000006001600160a01b031690632f388560906024015b600060405180830381600087803b158015610dcb57600080fd5b505af1158015610ddf573d6000803e3d6000fd5b5050505050505050565b336001600160a01b037f00000000000000000000000000000000000000000000000000000000000000001614610e4b576040517fd367b64f00000000000000000000000000000000000000000000000000000000815260040160405180910390fd5b60408051466020808301919091526001600160a01b038681168385015285811660608401528481166080808501919091528451808503909101815260a0909301845282519282019290922060008181526016909252929020600101541615610c6f576040517f42966c68000000000000000000000000000000000000000000000000000000008152600481018290527f00000000000000000000000000000000000000000000000000000000000000006001600160a01b0316906342966c6890602401600060405180830381600087803b158015610f2857600080fd5b505af1158015610f3c573d6000803e3d6000fd5b50505050610c6f81611751565b336001600160a01b037f00000000000000000000000000000000000000000000000000000000000000001614610fab576040517fd367b64f00000000000000000000000000000000000000000000000000000000815260040160405180910390fd5b60408051466020808301919091526001600160a01b038681168385015285811660608401528481166080808501919091528451808503909101815260a09093018452825192820192909220600081815260169092529290206001015416610c6f5761101884848484611835565b6040517f40c10f190000000000000000000000000000000000000000000000000000000081526001600160a01b038381166004830152602482018390527f000000000000000000000000000000000000000000000000000000000000000016906340c10f1990604401610db1565b6000818152601660205260409020600101546001600160a01b03166107f2576040517feab95e3b00000000000000000000000000000000000000000000000000000000815260040160405180910390fd5b600081815260046020908152604080832080547fffffffffffffffffffffffff0000000000000000000000000000000000000000166001600160a01b038781169182179092556016909352818420600101549151859492909116917f8c5be1e5ebec7d5bd14f71427d1e84f3dd0314c0f7b2291e5b200ac8c7c3b92591a45050565b60008061116583610a4c565b9050806001600160a01b0316846001600160a01b031614806111ac57506001600160a01b0380821660009081526005602090815260408083209388168352929052205460ff165b80610ae95750836001600160a01b03166111c58461069c565b6001600160a01b031614949350505050565b6040517faa747eca00000000000000000000000000000000000000000000000000000000815260040160405180910390fd5b6040518181527ff8e1a15aba9398e019f0b49df1a4fde98ee17ae345cb5f6b5e2c27f5033e8ce790602001610c0d565b60006112637f360894a13ba1a3210667c828492db98dca3e2076cc3735a920a3ca505d382bbc5490565b6001600160a01b0316036112b95760405162461bcd60e51b815260206004820152601d60248201527f5555505350726f786961626c653a206e6f742075706772616461626c65000000604482015260640161098d565b806001600160a01b03166352d1902d6040518163ffffffff1660e01b8152600401602060405180830381865afa1580156112f7573d6000803e3d6000fd5b505050506040513d601f19601f8201168201806040525081019061131b91906124e7565b7f87e44dce6a0d65a5ccf441783661f5727c2624b1f0088bbe957ce2c95406b784146113af5760405162461bcd60e51b815260206004820152602360248201527f5555505350726f786961626c653a206e6f7420636f6d70617469626c65206c6f60448201527f6769630000000000000000000000000000000000000000000000000000000000606482015260840161098d565b6001600160a01b03811630036114075760405162461bcd60e51b815260206004820152601960248201527f5555505350726f786961626c653a2070726f7879206c6f6f7000000000000000604482015260640161098d565b61142f817f360894a13ba1a3210667c828492db98dca3e2076cc3735a920a3ca505d382bbc55565b7fe011bc04c286c344a8fcbb8de77f953da762c3e25d8cdea984147fc4168a5dcc7f87e44dce6a0d65a5ccf441783661f5727c2624b1f0088bbe957ce2c95406b784604080519182526001600160a01b038416602083015201610c0d565b816001600160a01b0316836001600160a01b0316036114d8576040517fd3c7732900000000000000000000000000000000000000000000000000000000815260040160405180910390fd5b6001600160a01b03838116600081815260056020908152604080832094871680845294825291829020805460ff191686151590811790915591519182527f17307eab39ab6107e8899845ad3d59bd9653f200f220920489ca2b5937696c31910160405180910390a3505050565b610c6f8484846111d7565b6040805160808082018352600080835260208084018290528385018290526060938401829052868252601681528482208551808501875281546001600160a01b0390811680835260018401548216948301859052600290930154808216838a018190527401000000000000000000000000000000000000000090910463ffffffff168389015288517fe6a1e888000000000000000000000000000000000000000000000000000000008152600481018590526024810195909552604485015296519596909591947f00000000000000000000000000000000000000000000000000000000000000009091169263e6a1e88892606480830193928290030181865afa158015611662573d6000803e3d6000fd5b505050506040513d601f19601f820116820180604052508101906116869190612500565b5050915050600361169687611a23565b6116ad836bffffffffffffffffffffffff16611c17565b876116ed576040518060400160405280600581526020017f66616c7365000000000000000000000000000000000000000000000000000000815250611724565b6040518060400160405280600481526020017f74727565000000000000000000000000000000000000000000000000000000008152505b6040516020016117379493929190612560565b604051602081830303815290604052935050505092915050565b600061175c82610a4c565b600083815260046020526040902080547fffffffffffffffffffffffff0000000000000000000000000000000000000000169055905060008281526016602052604080822080547fffffffffffffffffffffffff00000000000000000000000000000000000000009081168255600182018054909116905560020180547fffffffffffffffff000000000000000000000000000000000000000000000000169055518391906001600160a01b038416907fddf252ad1be2c89b69c2b068fc378daa952ba7f163c4a11628f55a4df523b3ef908390a45050565b6001600160a01b038316611875576040517f43d05e5100000000000000000000000000000000000000000000000000000000815260040160405180910390fd5b816001600160a01b0316836001600160a01b0316036118c0576040517fa07fa90900000000000000000000000000000000000000000000000000000000815260040160405180910390fd5b6000818152601660205260409020600101546001600160a01b031615611912576040517fe248018300000000000000000000000000000000000000000000000000000000815260040160405180910390fd5b604080516080810182526001600160a01b038087168252858116602080840182815287841685870190815263ffffffff4281166060880190815260008a81526016909552888520975188549088167fffffffffffffffffffffffff000000000000000000000000000000000000000091821617895593516001890180549189169190951617909355905160029096018054925190911674010000000000000000000000000000000000000000027fffffffffffffffff0000000000000000000000000000000000000000000000009092169590941694909417939093179091559151839291907fddf252ad1be2c89b69c2b068fc378daa952ba7f163c4a11628f55a4df523b3ef908290a450505050565b6040805160808082018352600080835260208084018290528385018290526060938401829052858252601681528482208551938401865280546001600160a01b039081168552600182015481169285019290925260020154908116948301949094527401000000000000000000000000000000000000000090930463ffffffff1681830152909150611ac381600001516001600160a01b03166014611cb7565b611acc46611c17565b82600001516001600160a01b03166395d89b416040518163ffffffff1660e01b8152600401600060405180830381865afa158015611b0e573d6000803e3d6000fd5b505050506040513d6000823e601f3d908101601f19168201604052611b369190810190612651565b611b4e84602001516001600160a01b03166014611cb7565b611b6685604001516001600160a01b03166014611cb7565b611bd786600001516001600160a01b031663313ce5676040518163ffffffff1660e01b8152600401602060405180830381865afa158015611bab573d6000803e3d6000fd5b505050506040513d601f19601f82011682018060405250810190611bcf91906126c8565b60ff16611c17565b611bea876060015163ffffffff16611c17565b604051602001611c0097969594939291906126eb565b604051602081830303815290604052915050919050565b60606000611c2483611ee7565b600101905060008167ffffffffffffffff811115611c4457611c4461211a565b6040519080825280601f01601f191660200182016040528015611c6e576020820181803683370190505b5090508181016020015b600019017f3031323334353637383961626364656600000000000000000000000000000000600a86061a8153600a8504945084611c7857509392505050565b60606000611cc683600261289c565b611cd19060026128b3565b67ffffffffffffffff811115611ce957611ce961211a565b6040519080825280601f01601f191660200182016040528015611d13576020820181803683370190505b5090507f300000000000000000000000000000000000000000000000000000000000000081600081518110611d4a57611d4a6128c6565b60200101907effffffffffffffffffffffffffffffffffffffffffffffffffffffffffffff1916908160001a9053507f780000000000000000000000000000000000000000000000000000000000000081600181518110611dad57611dad6128c6565b60200101907effffffffffffffffffffffffffffffffffffffffffffffffffffffffffffff1916908160001a9053506000611de984600261289c565b611df49060016128b3565b90505b6001811115611e91577f303132333435363738396162636465660000000000000000000000000000000085600f1660108110611e3557611e356128c6565b1a60f81b828281518110611e4b57611e4b6128c6565b60200101907effffffffffffffffffffffffffffffffffffffffffffffffffffffffffffff1916908160001a90535060049490941c93611e8a816128dc565b9050611df7565b508315611ee05760405162461bcd60e51b815260206004820181905260248201527f537472696e67733a20686578206c656e67746820696e73756666696369656e74604482015260640161098d565b9392505050565b6000807a184f03e93ff9f4daa797ed6e38ed64bf6a1f0100000000000000008310611f30577a184f03e93ff9f4daa797ed6e38ed64bf6a1f010000000000000000830492506040015b6d04ee2d6d415b85acef81000000008310611f5c576d04ee2d6d415b85acef8100000000830492506020015b662386f26fc100008310611f7a57662386f26fc10000830492506010015b6305f5e1008310611f92576305f5e100830492506008015b6127108310611fa657612710830492506004015b60648310611fb8576064830492506002015b600a83106106045760010192915050565b600060208284031215611fdb57600080fd5b81357fffffffff0000000000000000000000000000000000000000000000000000000081168114611ee057600080fd5b60005b8381101561202657818101518382015260200161200e565b50506000910152565b602081526000825180602084015261204e81604085016020870161200b565b601f01601f19169190910160400192915050565b60006020828403121561207457600080fd5b5035919050565b6001600160a01b03811681146107f257600080fd5b600080604083850312156120a357600080fd5b82356120ae8161207b565b946020939093013593505050565b6000806000606084860312156120d157600080fd5b83356120dc8161207b565b925060208401356120ec8161207b565b929592945050506040919091013590565b60006020828403121561210f57600080fd5b8135611ee08161207b565b634e487b7160e01b600052604160045260246000fd5b604051601f8201601f1916810167ffffffffffffffff811182821017156121595761215961211a565b604052919050565b600067ffffffffffffffff82111561217b5761217b61211a565b50601f01601f191660200190565b600061219c61219784612161565b612130565b90508281528383830111156121b057600080fd5b828260208301376000602084830101529392505050565b600082601f8301126121d857600080fd5b611ee083833560208501612189565b600080604083850312156121fa57600080fd5b823567ffffffffffffffff8082111561221257600080fd5b61221e868387016121c7565b9350602085013591508082111561223457600080fd5b50612241858286016121c7565b9150509250929050565b60008060006060848603121561226057600080fd5b833561226b8161207b565b9250602084013561227b8161207b565b9150604084013561228b8161207b565b809150509250925092565b600080604083850312156122a957600080fd5b82356122b48161207b565b9150602083013580151581146122c957600080fd5b809150509250929050565b600080600080608085870312156122ea57600080fd5b84356122f58161207b565b935060208501356123058161207b565b925060408501359150606085013567ffffffffffffffff81111561232857600080fd5b8501601f8101871361233957600080fd5b61234887823560208401612189565b91505092959194509250565b6000806040838503121561236757600080fd5b82356123728161207b565b915060208301356122c98161207b565b600181811c9082168061239657607f821691505b6020821081036123b657634e487b7160e01b600052602260045260246000fd5b50919050565b6000602082840312156123ce57600080fd5b8151611ee08161207b565b601f82111561079957600081815260208120601f850160051c810160208610156124005750805b601f850160051c820191505b8181101561241f5782815560010161240c565b505050505050565b815167ffffffffffffffff8111156124415761244161211a565b6124558161244f8454612382565b846123d9565b602080601f83116001811461248a57600084156124725750858301515b600019600386901b1c1916600185901b17855561241f565b600085815260208120601f198616915b828110156124b95788860151825594840194600190910190840161249a565b50858210156124d75787850151600019600388901b60f8161c191681555b5050505050600190811b01905550565b6000602082840312156124f957600080fd5b5051919050565b6000806000806080858703121561251657600080fd5b84519350602085015180600b0b811461252e57600080fd5b6040860151606090960151949790965092505050565b6000815161255681856020860161200b565b9290920192915050565b600080865461256e81612382565b60018281168015612586576001811461259b576125ca565b60ff19841687528215158302870194506125ca565b8a60005260208060002060005b858110156125c15781548a8201529084019082016125a8565b50505082870194505b5050505085516125de818360208a0161200b565b7f26666c6f77526174653d000000000000000000000000000000000000000000009101908152612646612640612617600a840188612544565b7f2669735f696e666c6f773d0000000000000000000000000000000000000000008152600b0190565b85612544565b979650505050505050565b60006020828403121561266357600080fd5b815167ffffffffffffffff81111561267a57600080fd5b8201601f8101841361268b57600080fd5b805161269961219782612161565b8181528560208385010111156126ae57600080fd5b6126bf82602083016020860161200b565b95945050505050565b6000602082840312156126da57600080fd5b815160ff81168114611ee057600080fd5b7f26746f6b656e5f616464726573733d000000000000000000000000000000000081526000885161272381600f850160208d0161200b565b7f3f636861696e5f69643d00000000000000000000000000000000000000000000600f918401918201528851612760816019840160208d0161200b565b7f26746f6b656e5f73796d626f6c3d00000000000000000000000000000000000060199290910191820152875161279e816027840160208c0161200b565b7f2673656e6465723d0000000000000000000000000000000000000000000000006027929091019182015286516127dc81602f840160208b0161200b565b7f2672656365697665723d00000000000000000000000000000000000000000000602f929091019182015261287861264061284f612849612820603986018b612544565b7f26746f6b656e5f646563696d616c733d00000000000000000000000000000000815260100190565b88612544565b7f2673746172745f646174653d00000000000000000000000000000000000000008152600c0190565b9a9950505050505050505050565b634e487b7160e01b600052601160045260246000fd5b808202811582820484141761060457610604612886565b8082018082111561060457610604612886565b634e487b7160e01b600052603260045260246000fd5b6000816128eb576128eb612886565b50600019019056fea264697066735822122002f7384311fccc340c471c3400edb66341956c8a18aa5e0cee42d3ad199427db64736f6c63430008130033","linkReferences":{}},"methodIdentifiers":{"CONSTANT_FLOW_AGREEMENT_V1()":"18156101","CONSTANT_INFLOW_NFT()":"4c5c0c85","HOST()":"49f289dc","approve(address,uint256)":"095ea7b3","balanceOf(address)":"70a08231","castrate()":"9903ad38","flowDataByTokenId(uint256)":"8d47859e","getApproved(uint256)":"081812fc","getCodeAddress()":"50d75d25","getTokenId(address,address,address)":"89f71d2d","initialize(string,string)":"4cd88b76","isApprovedForAll(address,address)":"e985e9c5","name()":"06fdde03","onCreate(address,address,address)":"f7e3d983","onDelete(address,address,address)":"ef1f0237","onUpdate(address,address,address)":"eb54a7ca","ownerOf(uint256)":"6352211e","proxiableUUID()":"52d1902d","safeTransferFrom(address,address,uint256)":"42842e0e","safeTransferFrom(address,address,uint256,bytes)":"b88d4fde","setApprovalForAll(address,bool)":"a22cb465","supportsInterface(bytes4)":"01ffc9a7","symbol()":"95d89b41","tokenURI(uint256)":"c87b56dd","transferFrom(address,address,uint256)":"23b872dd","triggerMetadataUpdate(uint256)":"2f388560","updateCode(address)":"46951954"},"id":109}